:1000000048C200000C942A220C94FF210C94D421A5
:100010000C94A9210C947E210C9453210C9428213A
:100020000C94FD2067C2000065C2000063C200009E
:1000300061C200005FC200005DC200005BC2000040
:1000400059C200000C947C1755C2000053C2000036
:1000500051C200004FC200004DC200000C948B1F23
:1000600049C200000C9425230C94FB2243C20000DB
:1000700041C200003FC200003DC200003BC2000080
:1000800039C2000037C2000035C2000033C2000090
:100090000C94D2220C94A8222DC200000C94651C52
:1000A00029C2000027C2000025C2000023C20000B0
:1000B00021C200001FC200001DC200001BC20000C0
:1000C00019C2000017C2000015C200000C947F2264
:1000D0000C9455220FC200000DC200000BC200009C
:1000E00009C200002D053F054205490550057E0562
:1000F000850592059F05AB05AB05AB05AB05AB05CB
:10010000AB05AB05AB05AB05AB05AB05AB05AB056F
:10011000AB05AB05AB05AB05AB05AB05AB05AB055F
:10012000AB05AB052D053A053F05420549055005D0
:10013000570564057105400F430F320F360F3C0F12
:100140007A0F470F4B0F510F550F590F5F0F630F6A
:10015000670F7A0F6D0F710F750FFC10D910E0103B
:10016000E710EE1003110A11891291129B127812F6
:100170009B127A129912A2129B129B129B129B1233
:100180009B129B129B129B12A2129B129B129B1200
:100190009B129B12084AD73B3BCE016E84BCBFFD2D
:1001A000C12F3D6C74319ABD56833DDA3D00C77F47
:1001B00011BED9E4BB4C3E916BAAAABE00000080E0
:1001C0003F05A84CCDB2D44EB93836A9020C50B96F
:1001D000918688083CA6AAAA2ABE000000803F009B
:1001E0004E414E494E495459494E46CDCCCC3D0A1C
:1001F000D7233C17B7D13877CC2B329595E6241FFF
:10020000B14F0A000020410000C84200401C4620B7
:10021000BCBE4CCA1B0E5AAEC59D7400407A10F38A
:100220005A00A0724E18090010A5D4E80000E87624
:1002300048170000E40B54020000CA9A3B0000007B
:10024000E1F505000080969800000040420F000094
:1002500000A08601000000102700000000E8030055
:100260000000006400000000000A0000000000011F
:1002700000000000002C76D888DC674F0823DFC11F
:10028000DFAE59E1B1B796E5E3E453C63AE65199DA
:100290007696E8E6C28426EB898C9B62ED407C6F03
:1002A000FCEFBC9C9F40F2BAA56FA5F490055A2ABA
:1002B000F75C936B6CF9676DC11BFCE0E40D47FEC6
:1002C000F520E6B500D0ED902E03009435770500BB
:1002D00080841E080000204E0A000000C80C333342
:1002E00033330F986E12831141EF8D2114893BE651
:1002F0005516CFFEE6DB18D1844B381BF77C1D90DA
:100300001DA4BBE424203284725E228100C9F12442
:10031000ECA1E53D2700002100240027002A002D44
:10032000003000330001010000040107010A010050
:10033000002200250028002B002E0031003400028E
:10034000010000050108010B010000200023002628
:100350000029002C002F00320000010000030106DC
:10036000010901050505050705080808080202023C
:10037000020A0A0808040404040101010101010140
:10038000010303030303030303040707070C0C0C17
:100390000C0C0C0C0C0202020206060606060606EF
:1003A000060B0B0B0B0B0B0B0B010210202008088C
:1003B00010204010204080020102010804020101C7
:1003C00002040810204080804020100804020180B0
:1003D0000402018040201008040201080402010107
:1003E0000204081020408001020408102040800010
:1003F000000A0B02090C0D0E08070304010000009F
:1004000000000000000000000000000000000000EC
:1004100000000000000000000000001211100000A9
:1004200000000000000000000000000000000000CC
:10043000000000000072740492740448940478C4AC
:100440000C322E506C6561736520696E7365727431
:100450002074686520534420636172642100312E4A
:10046000506C65617365207265636865636B2074A9
:10047000686520636F6E6E656374696F6E210055E9
:100480006E61626C6520746F20626567696E3A0008
:100490004E2311241FBECFEFD1E2DEBFCDBF00E05F
:1004A0000CBF13E0A0E0B2E0ECEDF7E600E00BBF1C
:1004B00002C007900D92AA35B107D9F728E0AAE546
:1004C000B3E001C01D92AC35B207E1F712E0C9E418
:1004D000D2E000E006C021970109802FFE010E94B2
:1004E000BF2EC834D10780E00807A9F70E94C524B1
:1004F0000C94EC3385CD4F925F926F927F928F92E6
:100500009F92AF92BF92CF92DF92EF92FF920F93A2
:100510001F93CF93DF93CDB7DEB7CF57D1400FB640
:10052000F894DEBF0FBECDBF8091A20381110DC034
:100530000E94DC1160939E0370939F038093A0033D
:100540009093A10381E08093A2030E94DC110091AB
:100550009E0310919F032091A0033091A103DC0121
:10056000CB01801B910BA20BB30B89389341A105E2
:10057000B10570F10E94DC1160939E0370939F039C
:100580008093A0039093A10380919D0381111BC0D0
:1005900010929C03109298031092990310929A0360
:1005A00010929B031092940310929503109296035D
:1005B000109297031092900310929103109292035D
:1005C0001092930305C081E080939C0310929D03D9
:1005D0000E94B41D813049F480918E0390918F0365
:1005E000059690938F0380938E030E94B41D8230F2
:1005F00049F480918E0390918F03059790938F0318
:1006000080938E0365E173E0CE01805C9E4F0E9473
:10061000A5200E94DC112B013C0192E0C92E01E0D3
:1006200027E0D22E8BE994E00E94741E892B09F4F6
:10063000FCC28BE994E00E94521E182F8091C607DD
:100640009091C707A091C807B091C9070196A11D55
:10065000B11D8093C6079093C707A093C807B093B6
:10066000C907143209F4C0C2E091C007153234F44E
:100670001A3071F01D3009F0C4C20AC01A3241F0BC
:100680001C3209F0BEC28091AD0781278093AD076F
:10069000EF3008F09BC2F0E0E155F84F10828091F6
:1006A000AE07882309F473C12091AF073FEB320FE7
:1006B000822F022E000C990B363010F4C79707C01A
:1006C0002156263018F48755910901C0C097282F6C
:1006D0002295207F3091B0074FEB430F832F032EDD
:1006E000000C990B463010F4C79707C031563630CE
:1006F00018F48755910901C0C097820F9091AD07FA
:10070000891331C18091D2079091D307A091D4076A
:10071000B091D5070196A11DB11D8093D20790938A
:10072000D307A093D407B093D5078091C10788233E
:1007300099F08091CA079091CB07A091CC07B09116
:10074000CD070196A11DB11D8093CA079093CB07D9
:10075000A093CC07B093CD07F090BE07FF2009F41B
:100760006BC031E0F312D0C08091510790915207D5
:10077000A0915307B091540780934D0790934E0773
:10078000A0934F07B09350070E94DC116093550768
:10079000709356078093570790935807F0924C0731
:1007A000F0924B0780915F0790916007A0916107DD
:1007B000B091620780935B0790935C07A0935D07FD
:1007C000B0935E070E94DC11609363077093640727
:1007D0008093650790936607F0925A07F092590745
:1007E0008091C107882309F48FC0E9E3F7E0ABE209
:1007F000B7E08D2D01900D928A95E1F7E0E4F7E0E6
:10080000A2E3B7E08D2D01900D928A95E1F70E9449
:10081000DC116093470770934807809349079093D2
:100820004A07F0922A07F092290787E697E00E948C
:100830006B1B85E797E066C080915F07909160072A
:10084000A0916107B091620780935B0790935C076A
:10085000A0935D07B0935E070E94DC11609363076D
:1008600070936407809365079093660700935A0717
:10087000009359078091C107882321F1E9E3F7E04C
:10088000ABE2B7E08D2D01900D928A95E1F7E0E49F
:10089000F7E0A2E3B7E08D2D01900D928A95E1F784
:1008A0000E94DC11609347077093480780934907C3
:1008B00090934A0700932A070093290783E897E05B
:1008C0000E946B1B80919B0790919C07A0919D07B4
:1008D000B0919E078093970790939807A0939907EC
:1008E000B0939A070E94DC1160939307709394076A
:1008F0008093950790939607009392070093910732
:100900008FE997E00E946B1BE090C407F090C50749
:10091000E114F10409F45AC1E091C407F091C5074C
:1009200066A177A1F70186A197A10E940431892BC6
:1009300009F04CC1B701C70140960E940D310E94D9
:10094000DC11D70190966D937D938D939C93939733
:1009500095960C93959794960C9394979A96ED9000
:10096000FC909B97D5CF8091CE079091CF07A09117
:10097000D007B091D1070196A11DB11D8093CE077C
:100980009093CF07A093D007B093D1071FC1809158
:10099000BF07811148C06FEA72E08FEA97E00E94BA
:1009A0000431892B41F065EB72E08FEA97E00E94F9
:1009B0000431892B19F40093BE0715C06BEB72E06C
:1009C0008FEA97E00E940431892B41F061EC72E0DC
:1009D0008FEA97E00E940431892B19F41092BE0728
:1009E00002C0C092BE078091C2079091C307909346
:1009F000C5078093C407E090C407F090C507E114D1
:100A0000F10409F4E3C0F701A6A0B7A06FEA77E00C
:100A1000C5010E94043197FFCDC0D7019A968D91F0
:100A20009C919B97E4CFE091BE07E23009F493C01C
:100A30009091AF07992309F48EC020E2E29FF00164
:100A40001124E82B3197E932F10508F084C088279A
:100A5000EE58FF4F8F4F0C94BF2E8FEA97E00E9405
:100A60000A1C60935F0770936007809361079093FF
:100A7000620771C081E0913409F043C043C069E36B
:100A800077E009C081E0933509F080E080933F076B
:100A900062C060E477E08FEA97E00E94821B5BC04F
:100AA00081E0973509F080E08093460754C08FEAD3
:100AB00097E00E940A1C60937107709372078093FD
:100AC00073079093740747C08FEA97E00E940A1C4F
:100AD00060937F07709380078093810790938207CC
:100AE0003AC08FEA97E00E94852660935107709381
:100AF000520780935307909354072DC081E09133A0
:100B00000CF480E08093C10726C08FEA97E00E9432
:100B1000852660939B0770939C0780939D07909315
:100B20009E0719C08FEA97E00E940A1C6093A907EC
:100B30007093AA078093AB079093AC070CC08FEA21
:100B400097E00E940A1C60938D0770938E07809334
:100B50008F0790939007E090C407F090C507E114C9
:100B6000F104A1F1E091C407F091C50766A177A156
:100B7000F70186A197A10E940431892B39F5D7018D
:100B800098962D913C9199978091BF0790E082179C
:100B90009307E4F02817390739F440E150E06FEA91
:100BA00077E0C7010E941431D7019A96ED90FC902E
:100BB0009B97D5CF6FEA77E0C5010E9404311816E4
:100BC000190624F41092C5071092C4078091BF073C
:100BD0008F5F8093BF071092C00781E01A3209F03F
:100BE00080E08093AE071ECD1092C0071092BF0721
:100BF0001092AD07C092BE071092AE071092C107C7
:100C000011CDEE3040F481E08E0F8093C007F0E00C
:100C1000E155F84F10838091AE07811103CD80918B
:100C2000AD0718271093AD07FDCC0E94DC11DC0145
:100C3000CB0184199509A609B7090A97A105B10541
:100C400008F4F0CC10922A0760912B0770912C07C2
:100C500080E090E00E94EB2A6B017C0160912D07FF
:100C600070912E0780912F07909130070E94EB2AF8
:100C700028E23BE64EE65EE40E942A2D9B01AC0191
:100C8000C701B6010E94612C209131076B017C01E4
:100C9000222321F0F7FAF094F7F8F09460913207EC
:100CA0007091330780E090E00E94EB2A4B015C01D9
:100CB000609134077091350780913607909137071E
:100CC0000E94EB2A28E23BE64EE65EE40E942A2DD3
:100CD0009B01AC01C501B4010E94612C2091380731
:100CE0004B015C01222321F0B7FAB094B7F8B0941D
:100CF0008091100291E09093D9038093FB031092AE
:100D0000DA031092FC0360E085ED95E00E94EE1995
:100D100081E00E942510809110029091D8039111DA
:100D2000FCCF91E09093D8039093D7032FEF2093BB
:100D3000D6031092D50325E02093D4039093B303F8
:100D40009091B303880F892B8093B3038091B203F2
:100D5000813061F41092B2038091B3038093BB00A1
:100D60008091BC0083FDF8CF85EC01C085EE8093B7
:100D7000BC008091D8038130E1F38091D5038630A7
:100D800018F48091D50301C086E0A4EBB3E02BEE0C
:100D900037E0F9019E2F921B981718F49D919193BB
:100DA000F9CF109254088093530885ED95E00E9486
:100DB0006D193C0185ED95E00E946D1920E030E051
:100DC000382F622A732A85ED95E00E946D198C01F7
:100DD00085ED95E00E946D1960E070E0782F062B9C
:100DE000172B85ED95E00E946D1985ED95E00E9429
:100DF0006D19B301625B7F4F072E000C880B990BB6
:100E00000E94ED2A9B01AC01B80166527F4F072E6C
:100E1000000C880B990BC458DE4F2883CC57D14067
:100E2000C358DE4F3883CD57D140C258DE4F488378
:100E3000CE57D140C158DE4F5883CF57D1400E9482
:100E4000ED2AC458DE4F2881CC57D140C358DE4F1D
:100E50003881CD57D140C258DE4F4881CE57D1405E
:100E6000C158DE4F5881CF57D1400E94D42C20E08A
:100E700030E044E353E40E944C2B2BED3FE049E487
:100E800050E40E942A2D3B018C0120E030E0A901B2
:100E90000E94E72A87FF0DC020E030E044EB53E4D6
:100EA000B301C8010E94612C662EA72FF82FE92FED
:100EB00003C0A72DF02FE12F25E33AEF4EE85CE3C6
:100EC000662D7A2F8F2F9E2F0E944C2B2B013C01D9
:100ED00060918E0370918F03072E000C880B990B85
:100EE0000E94ED2A25E33AEF4EE85CE30E944C2B8A
:100EF0009B01AC01C301B2010E94612C2B013C019A
:100F000020E030E0A9010E94E72A87FF0AC02BED0C
:100F10003FE049EC50E4C301B2010E94612C2B0177
:100F20003C012BED3FE049EC50E4C301B2010E94CB
:100F3000212E181654F42BED3FE049EC50E4C30188
:100F4000B2010E94602C2B013C0120E030E044E320
:100F500053E4C301B2010E944C2B2BED3FE049E466
:100F600050E40E942A2D2B013C01C0928A03D092AA
:100F70008B03E0928C03F0928D0380928603909213
:100F80008703A0928803B0928903609382037093D1
:100F900083038093840390938503C701B6010E9465
:100FA000922DC059DE4F688379838A839B83C05713
:100FB000D140C501B4010E94922DCC58DE4F688308
:100FC00079838A839B83C457D140C301B2010E94B5
:100FD000922DC858DE4F688379838A839B83C857D4
:100FE000D140C858DE4FE881F981C857D140BF01D0
:100FF000FF0F880B990B0E94ED2A9B01AC01C301E6
:10100000B2010E94602C20E030E04AE754E40E94E4
:101010004C2B0E94972D9F938F937F936F93C7586C
:10102000DE4FF881C957D140FF93C858DE4F288161
:10103000C857D1402F93CC58DE4FA881B981C457EF
:10104000D140BD01BB0F880B990B0E94ED2A9B017B
:10105000AC01C501B4010E94602C20E034E244E7F9
:1010600059E40E944C2B0E94972D9F938F937F935E
:101070006F93CB58DE4FB881C557D140BF93CC5842
:10108000DE4FE881C457D140EF93C059DE4F28812D
:101090003981C057D140B901330F880B990B0E9499
:1010A000ED2A9B01AC01C701B6010E94602C20E033
:1010B00034E244E759E40E944C2B0E94972D9F9301
:1010C0008F937F936F93CF58DE4F3881C157D140B4
:1010D0003F93C059DE4F8881C057D1408F9387EC32
:1010E00092E09F938F938E010F5F1F4F1F930F937B
:1010F0000E942331B801CE01805C9E4F0E941620D1
:1011000022E0B301A201CE01865C9E4F0E945E20C8
:1011100026E0B501A401CE018C5C9E4F0E943020D8
:1011200026E0B701A601CE0184509F4F0E943020D7
:10113000BE0164507F4FCE01825D9E4F0E948C2085
:1011400069EE72E0CE01825D9E4F0E94EE1FBE01ED
:101150006C5C7E4F0E9405206BEE72E00E94EE1FD9
:10116000BE01665C7E4F0E940520BC01CE018A5BF9
:101170009E4F0E948C20CE01825D9E4F0E942B20AC
:10118000CE0184509F4F0E942B20CE018C5C9E4F3D
:101190000E942B20CE01865C9E4F0E942B20CE0108
:1011A000805C9E4F0E942B20C65BDE4FE880F9805A
:1011B000CA54D1400FB6F894DEBF0FBECDBFE114C4
:1011C000F10431F4C450DF4F1882CC5FD0401AC014
:1011D000B1E3EB16F10418F081E3E82EF12CCA5BC1
:1011E000DE4F68817981C654D140A701CE01845079
:1011F0009F4F0E941431ECEFF0E0EC0FFD1FEE0D5D
:10120000FF1D1082CE018A5B9E4F0E942B2087E03B
:1012100096E00E946517882309F4ACC08BEFC65C8A
:10122000DE4F8883CA53D140AE01465C5E4FB801A1
:1012300087E096E00E941916882309F498C061E0BF
:101240008DE00E943911B801CE018C5C9E4F0E9446
:10125000A5206CE2CE018C5C9E4F0E94D51F9C01A4
:1012600040E050E0BE016C5C7E4FCE01825D9E4F3F
:101270000E94B920C25DDE4F88819981CE52D14053
:101280000E948226609398037093990380939A0337
:1012900090939B03CE01825D9E4F0E942B2063E2C0
:1012A000CE018C5C9E4F0E94D51F8C016CE2CE015A
:1012B0008C5C9E4F0E94D51FAC014F5F5F4F980121
:1012C000BE016C5C7E4FCE01825D9E4F0E94B920B4
:1012D000C25DDE4F88819981CE52D1400E94822624
:1012E0006093940370939503809396039093970370
:1012F000CE01825D9E4F0E942B2063E2CE018C5C6A
:101300009E4F0E94D51FC85CDE4F28813981C8538B
:10131000D140AC014F5F5F4FBE016C5C7E4FCE0190
:10132000825D9E4F0E94B920C25DDE4F8881998107
:10133000CE52D1400E948226609390037093910315
:101340008093920390939303CE01825D9E4F0E94FF
:101350002B2060E08DE08DD7CE018C5C9E4F0E94EB
:101360002B2080919D038F5F80939D0303C08EEEA1
:1013700092E0F8D542E3BE0164507F4F87E096E0EB
:101380000E94481460ED77E087E096E00E94B11A71
:101390008091090690910A06049721F087E096E073
:1013A0000E9454178091980390919903A0919A03F9
:1013B000B0919B03C059DE4F88839983AA83BB8376
:1013C000C057D14040908A0350908B0360908C03AB
:1013D00070908D032091860330918703409188039C
:1013E00050918903609194037091950380919603C5
:1013F000909197030E94602C6B017C01A3019201E4
:10140000C059DE4F688179818A819B81C057D14064
:101410000E94602CCC58DE4F688379838A839B833B
:10142000C457D14025E33AEF4EE85CE30E944C2BD1
:1014300020E030E040E05FE30E944C2B0E942C2E25
:101440004B015C0125E33AEF4EE85CE3C301B201D6
:101450000E944C2B0E94272DC858DE4F6883798349
:101460008A839B83C857D14025E33AEF4EE85CE37B
:10147000C059DE4F688179818A819B81C057D140F4
:101480000E944C2B0E94272DC059DE4F6883798320
:101490008A839B83C057D14025E33AEF4EE85CE353
:1014A000C701B6010E944C2B20E030E040E05FE332
:1014B0000E944C2B0E942C2E2B013C01A501940173
:1014C000C501B4010E944C2B4B015C01C059DE4F99
:1014D000288139814A815B81C057D140C858DE4F8D
:1014E000688179818A819B81C857D1400E944C2BA9
:1014F000A30192010E944C2BA30192010E944C2B4C
:101500009B01AC01C501B4010E94612C4B015C013F
:101510009B01AC0160E070E080E89FE30E94602CDA
:101520000E94362E9B01AC01C501B401C458DE4FA8
:101530002883CC57D140C358DE4F3883CD57D14094
:10154000C258DE4F4883CE57D140C158DE4F588332
:10155000CF57D1400E94362EC458DE4F2881CC5739
:10156000D140C358DE4F3881CD57D140C258DE4FED
:101570004881CE57D140C158DE4F5881CF57D14016
:101580000E94D42C9B01AC010E94612C20E038E425
:1015900047EC55E40E944C2B4B015C01CC58DE4FCC
:1015A000288139814A815B81C457D140C701B60186
:1015B0000E94D42C6B017C0120E030E0A9010E9444
:1015C000E72A87FF0AC02BED3FE049EC50E4C70152
:1015D000B6010E94612C6B017C012BED3FE049ECD0
:1015E00050E4C701B6010E94212E181654F42BEDC9
:1015F0003FE049EC50E4C701B6010E94602C6B014A
:101600007C0120E030E044E353E4C701B6010E94CE
:101610004C2B2BED3FE049E450E40E942A2D2B0196
:101620003C012091820330918303409184035091C7
:1016300085030E94602C6B017C0120E030E0A90151
:101640000E94E72A87FF0AC020E030E044EB53E421
:10165000C701B6010E94612C6B017C0180918E0351
:1016600090918F03C659DE4F19821882CA56D14015
:10167000C459DE4F19821882CC56D140C259DE4F70
:1016800019821882CE56D1404AE0BE016F5F7F4F6B
:101690000E94B426BE016F5F7F4FCE0186599E4FD8
:1016A0000E94162022E0B701A601CE018C599E4F60
:1016B0000E945E2022E0B301A201CE01825A9E4F19
:1016C0000E945E2023E0B501A401CE01885A9E4FFE
:1016D0000E945E204091900350919103609192038B
:1016E0007091930322E0CE018E5A9E4F0E945E209D
:1016F00040919403509195036091960370919703E4
:1017000026E0CE01845B9E4F0E94302040919803DA
:101710005091990360919A0370919B0326E0CE014A
:101720008A5B9E4F0E943020409182035091830338
:10173000609184037091850322E0CE01805C9E4F0E
:101740000E945E2040918603509187036091880338
:101750007091890326E0CE01865C9E4F0E94302066
:1017600040918A0350918B0360918C0370918D039B
:1017700026E0CE01825D9E4F0E943020BE01625D58
:101780007E4FCE018C5C9E4F0E948C2069EE72E0F1
:10179000CE018C5C9E4F0E94EE1FBE01665C7E4FA8
:1017A0000E9405206BEE72E00E94EE1FBE01605C9D
:1017B0007E4F0E9405206AEF72E00E94EE1FBE017C
:1017C0006A5B7E4F0E94052069EE72E00E94EE1F68
:1017D000BE01645B7E4F0E9405206BEE72E00E94AA
:1017E000EE1FBE016E5A7E4F0E9405206FEF72E021
:1017F0000E94EE1FBE01685A7E4F0E94052064E0E1
:1018000073E00E94EE1FBE01625A7E4F0E940520C7
:1018100069E073E00E94EE1FBE016C597E4F0E948A
:1018200005206EE073E00E94EE1FBE0166597E4FF8
:101830000E940520BC01CE0101960E948C20CE01A1
:101840008C5C9E4F0E942B20CE01825D9E4F0E9499
:101850002B20CE01865C9E4F0E942B20CE01805C07
:101860009E4F0E942B20CE018A5B9E4F0E942B2010
:10187000CE01845B9E4F0E942B20CE018E5A9E4F3C
:101880000E942B20CE01885A9E4F0E942B20CE0111
:10189000825A9E4F0E942B20CE018C599E4F0E944F
:1018A0002B20CE0186599E4F0E942B204D815E81B8
:1018B00069817A8188E395E00E94FF1D83E193E0CE
:1018C0003FD320E030E0A901C501B4010E94E72A1E
:1018D000882309F435C12DEC3CEC4CEC5CE3C501EC
:1018E000B4010E94E72A1816B4F42DEC3CEC4CE449
:1018F0005DE3C501B4010E94E72A181674F42DECCB
:101900003CEC4CEC5DE3C501B4010E94E72A1816DB
:1019100034F414E605C019E103C01BE201C01BE169
:1019200080917A0381110CC047D560937603709340
:101930007703809378039093790381E080937A030F
:1019400080916E0381110CC037D560936A03709348
:101950006B0380936C0390936D0381E080936E031F
:101960008091620381110CC027D560935E03709350
:101970005F03809360039093610381E0809362032F
:1019800080915D03882311F0843671F4193111F4CC
:1019900083E007C01B3211F482E003C01B3121F445
:1019A00081E063D610935D0380915D03893159F026
:1019B000193109F03DC083E058D610935D0384E0EF
:1019C00080935C0335C0193199F580E04ED6809143
:1019D000FD03811122C0F0D440907603509077032C
:1019E0006090780370907903DC01CB01841995092C
:1019F000A609B709893E9340A105B10570F0DCD472
:101A000060937603709377038093780390937903C0
:101A100080915C038F5F80935C0380915C038530D1
:101A200020F083E022D610925C0389E180935D036D
:101A300080915D038B3259F01B3209F03DC082E08A
:101A400014D610935D0389E080935B0335C01B328D
:101A500099F580E00AD68091FD03811122C0ACD4B3
:101A600040906A0350906B0360906C0370906D031C
:101A7000DC01CB0184199509A609B709893E934079
:101A8000A105B10570F098D460936A0370936B035D
:101A900080936C0390936D0380915B038F5F8093C1
:101AA0005B0380915B038A3020F082E0DED51092E8
:101AB0005B038BE280935D0380915D038B3159F072
:101AC0001B3109F03DC081E0D0D510935D0383E167
:101AD00080935A0335C01B3199F580E0C6D58091BB
:101AE000FD03811122C068D400915E0310915F0351
:101AF0002091600330916103DC01CB01801B910BCD
:101B0000A20BB30B893E9340A105B10570F054D4EC
:101B100060935E0370935F0380936003909361030F
:101B200080915A038F5F80935A0380915A038431C6
:101B300020F081E09AD510925A038BE180935D03E7
:101B400010919C0340908603509087036090880317
:101B50007090890380918A0390918B03A0918C03EC
:101B6000B0918D03C059DE4F88839983AA83BB83CC
:101B7000C057D14061E08FE17CD3112329F061E0AF
:101B800083E277D311E004C060E083E272D310E017
:101B900020E030E0A901C059DE4F688179818A8157
:101BA0009B81C057D1400E94E72A882379F020E02A
:101BB00030E0A901C301B2010E94E72A882331F075
:101BC00061E081E256D3113029F00FC160E081E27B
:101BD00050D30BC120E030E04AE754E4C501B40122
:101BE0000E944C2B2B013C0120E030E048EC52E4F9
:101BF0000E94E72A87FF02C01BE101C014E620E033
:101C000030E048E452E4C301B2010E94E72A87FDB4
:101C10001BE220E030E048EC51E4C301B2010E9435
:101C2000E72A87FD19E140E06DE1812F0E94DC1D6C
:101C300040E067E2812F0E94DC1D40E061E3812FDC
:101C40000E94DC1D40E06EE2812F0E94DC1D40E01E
:101C50006FE2812F0E94DC1D40E067E1812F0E942E
:101C6000DC1D40E06DE2812F0E94DC1D40E069E256
:101C7000812F0E94DC1D20E030EC48EA53E4C701CC
:101C8000B6010E94212E181654F020E030E044EBFB
:101C900051E4C701B6010E94E72A87FF03C041E073
:101CA00067E2A0C020E030E044EB51E4C701B60198
:101CB0000E94212E18166CF420E030E047E852E430
:101CC000C701B6010E94E72A87FF03C041E061E334
:101CD00089C020E030E047E852E4C701B6010E9425
:101CE000212E18166CF420E030E041EE52E4C701DA
:101CF000B6010E94E72A87FF03C041E06EE272C08E
:101D000020E030E041EE52E4C701B6010E94212EEE
:101D100018166CF420E030E84DE153E4C701B60139
:101D20000E94E72A87FF03C041E06FE25BC020E02A
:101D300030E84DE153E4C701B6010E94212E181688
:101D40006CF420E030E84AE453E4C701B6010E9495
:101D5000E72A87FF03C041E067E144C020E030E8A4
:101D60004AE453E4C701B6010E94212E18166CF410
:101D700020E030E847E753E4C701B6010E94E72AB4
:101D800087FF03C041E06DE22DC020E030E847E767
:101D900053E4C701B6010E94212E18166CF420E00E
:101DA00030E442E953E4C701B6010E94E72A87FF05
:101DB00003C041E069E216C020E030E442E953E4A8
:101DC000C701B6010E94212E18167CF420E030ECE9
:101DD00048EA53E4C701B6010E94E72A87FF05C01D
:101DE00041E06DE1812F0E94DC1D2DEC3CEC4CECC0
:101DF0005CE3C501B4010E94E72A87FF02C061E0ED
:101E000001C060E085E235D264E670E080E090E0F9
:101E10009BD2CE0101960E942B20C158DE4F0FB6F7
:101E2000F894DEBF0FBECDBFDF91CF911F910F9110
:101E3000FF90EF90DF90CF90BF90AF909F908F90EA
:101E40007F906F905F904F90089590E0FC013197E4
:101E5000E231F10508F04EC08827E556FF4F8F4F5D
:101E60000C94BF2E809180008F7703C080918000FA
:101E70008F7D80938000089580918000877FF9CFC7
:101E800084B58F7702C084B58F7D84BD089580911D
:101E9000B0008F7703C08091B0008F7D8093B00039
:101EA0000895809190008F7707C0809190008F7D7A
:101EB00003C080919000877F809390000895809167
:101EC000A0008F7707C08091A0008F7D03C0809114
:101ED000A000877F8093A0000895809120018F77D4
:101EE00007C0809120018F7D03C080912001877FF2
:101EF0008093200108953FB7F8948091AE039091AC
:101F0000AF03A091B003B091B10326B5A89B05C063
:101F10002F3F19F00196A11DB11D3FBFBA2FA92F68
:101F2000982F8827820F911DA11DB11DBC01CD01E5
:101F300042E0660F771F881F991F4A95D1F70895D1
:101F4000009769F0FC0101900020E9F73197AF019B
:101F5000481B590BBC0188E395E00C94FF1D80E001
:101F600090E00895CF93DF93EBDFEC0183E193E002
:101F7000E7DF8C0F9D1FDF91CF910895CF92DF9205
:101F8000EF92FF920F931F93CF93DF93EC016A01BF
:101F90007B01E889F98982E080834115514E610512
:101FA0007105B1F060E079E08DE390E0A701960162
:101FB0000E942F2C89019A01015011092109310930
:101FC0003695279517950795980101151041A8F0AA
:101FD000E889F989108260E874E88EE190E0A70151
:101FE00096010E942F2CDA01C9010197A109B109BC
:101FF000B695A795979587959C01EC85FD853083CF
:10200000EE85FF852083188EEC89FD8986E080832C
:10201000EA89FB89808180618083EA89FB898081EC
:1020200088608083EA89FB89808180688083EA896F
:10203000FB8980818F7D8083DF91CF911F910F91EC
:10204000FF90EF90DF90CF900895382F2091FC0300
:102050009091FB03213208F049C08091D80381118F
:10206000FCCF42E04093D8033093D7033FEF309347
:10207000D6031092D5032093D403ABEDB3E044EB29
:1020800053E0FA013E2F341B321718F43D9131937F
:10209000F9CF1092B3032091B303990F922B909331
:1020A000B3039091B203913061F41092B203909116
:1020B000B3039093BB009091BC0093FDF8CF95ECD7
:1020C00001C095EE9093BC009091D8039230E1F35B
:1020D0009091D6039F3F79F08091D603803241F0F2
:1020E0008091D603803331F084E005C081E003C0E5
:1020F00082E001C083E01092DA031092FC03109298
:10210000D90308950F931F93CF93DF938C01C0E001
:10211000D0E0F801EC0FFD1F6491662371F0E091AF
:102120003805F09139050190F081E02D88E395E0C4
:102130001995892B11F02196ECCF83E193E000DF14
:102140008C0F9D1FDF91CF911F910F910895CF9319
:10215000C62F9091100221E02093D9039093FB03A6
:102160001092DA031092FC03682F85ED95E00E942F
:10217000EE196C2F85ED95E00E94EE1981E0CF916C
:1021800064CF883008F04CC0A82FB0E0AA0FBB1F66
:10219000A050BE4F11967C936E9390E0FC01319756
:1021A000E730F10510F58827E355FF4F8F4F0C946A
:1021B000BF2E80916900836080936900E89A08953A
:1021C000809169008C6080936900E99A08958091FC
:1021D0006900806380936900EA9A0895809169009C
:1021E000806C80936900EB9A089580916A00836007
:1021F00080936A00EC9A089580916A008C608093C5
:102200006A00ED9A089580916A00806380936A0065
:10221000EE9A089580916A00806C80936A00EF9A2C
:102220000895CF93DF93282F30E0F901E151FC4F5F
:102230008491F901E755FC4FD491F901ED59FC4F18
:10224000C491CC2389F0811100DEEC2FF0E0EE0F79
:10225000FF1FE75BFC4FA591B491EC91ED2381E06A
:1022600090E021F480E002C080E090E0DF91CF9127
:1022700008951F93CF93DF93282F30E0F901E151A8
:10228000FC4F8491F901E755FC4FD491F901ED59C8
:10229000FC4FC491CC23C1F0162F8111D6DDEC2F59
:1022A000F0E0EE0FFF1FE15DFC4FA591B4918FB7F9
:1022B000F894111105C09C91ED2FE095E92302C01F
:1022C000EC91ED2BEC938FBFDF91CF911F9108958F
:1022D000CF93DF9390E0FC01E755FC4F2491FC0184
:1022E000ED59FC4F8491882361F190E0880F991F8C
:1022F000FC01EB5EFC4FC591D491FC01E15DFC4F0C
:10230000A591B491611109C09FB7F8948881209577
:1023100082238883EC912E230BC0623061F49FB737
:10232000F8943881822F809583238883EC912E2B1B
:102330002C939FBF06C08FB7F894E8812E2B28837B
:102340008FBFDF91CF9108958F929F92AF92BF92EE
:10235000CF92DF92EF92FF926B017C01CCDD4B01BB
:102360005C01C114D104E104F104E9F0C4DDDC0135
:10237000CB0188199909AA09BB09883E9340A10598
:10238000B10578F321E0C21AD108E108F10888EE1E
:10239000880E83E0981EA11CB11CC114D104E10475
:1023A000F10421F7DECFFF90EF90DF90CF90BF9048
:1023B000AF909F908F9008952FB7F8946091AA03E3
:1023C0007091AB038091AC039091AD032FBF089542
:1023D0000F931F93CF938091E1059091E205DC016B
:1023E000ED91FC910084F185E02D1995892B09F47C
:1023F000B9C060E070E0CB01A7DFC091FF0580911C
:10240000E1059091E205DC01ED91FC910284F385F8
:10241000E02DC11108C019958093EB058E37D9F6D0
:102420008091FF059BC01995EC2FF0E0EF51FA4F1A
:1024300082878091FF058230A1F08930C1F0813020
:1024400009F08CC09091EC059F3F09F487C0109271
:10245000FF0581E0809301061092040610920306A6
:10246000AAC09091ED05963009F478C0F0CF809124
:10247000F4058F3E61F7ECEEF5E020E030E081916D
:10248000280F311DB5E0E23FFB07C9F78091F20547
:1024900090E0982F88273195219531094091F305D7
:1024A000840F911D2817390791F61092FF05E091CE
:1024B000EE05E13409F44FC0E09302062091F005E7
:1024C00030E0322F22278091F105280F311D309303
:1024D0000406209303068E2F90E0FC01FA97E63164
:1024E000F10580F58827EC54FF4F8F4F0C94BF2ED9
:1024F00085E022C020FF02C089E01EC021FF02C08B
:1025000084E01AC023703327232B09F45AC08AE0D1
:1025100013C020FF02C087E00FC021FF52C082E03D
:102520000BC020FF02C088E007C021FF4AC083E043
:1025300003C086E001C08BE08093010681E08093B8
:1025400005063FC081E080930106109204061092B8
:102550000306809305061092060633C08F5F8093B2
:10256000FF0539CF80910606882359F125DF0091B8
:10257000E3051091E4052091E5053091E605DC01C5
:10258000CB01801B910BA20BB30B0091E7051091BF
:10259000E8052091E9053091EA0580179107A20727
:1025A000B30778F01092FF0510920106109204060E
:1025B0001092030681E0809305061092060680E0E3
:1025C00002C080910506CF911F910F9108958093CD
:1025D000F8057093FA056093FB05E6EFF5E080E0FF
:1025E00090E02191820F911D25E0EC3FF207C9F7A1
:1025F0009195819591099093FC058093FD058091BB
:10260000F905811127C08091E1059091E205DC0177
:10261000ED91FC910280F381E02D4AE050E065EFFE
:1026200075E01995C9DE6093E3057093E405809326
:10263000E5059093E6058091F90591E0811101C0CF
:1026400090E09093060681110FC06AE070E080E090
:1026500090E07ACE809106068823A9F260E070E0CF
:10266000CB0172DEB5DEF6CF0895CF93C82FB0DE72
:10267000882359F01092050680910106853029F4CF
:102680001092FD0386E193E06DDCCC2379F080911C
:10269000FD0381110BC06C2F70E083E098DF81E0B7
:1026A0008093FD0384E293E0CF914ACCCF910895CB
:1026B00080E090E0892B21F00E94921E81111DC0C4
:1026C00080E090E0892B21F00E94891E811118C0C2
:1026D00080E090E0892B21F00E94801E811113C0C0
:1026E00080E090E0892BA1F080E090E0892B81F0E0
:1026F0000E94000081110AC008950E940000E0CFEE
:102700000E940000E5CF0E940000EACF0C94000078
:1027100008958BEF089508958091E107882361F073
:102720009FB7F8942091E1078091E007213019F4D8
:102730008DBB9FBF08958FBF0895CF93DF93FC019A
:10274000228133812230310559F0EC01678D858D6E
:1027500090DD60E08C8D8DDD82E090E09B838A834C
:10276000DF91CF910895EF92FF920F931F93CF9334
:10277000DF931F92CDB7DEB77C01162F0FB7F89409
:10278000DC0159968D919C915A97DC01ED91FC9159
:102790000088F189E02D4983199560E0F701838D68
:1027A00068DDD70159968D919C915A97DC01ED9186
:1027B000FC91612F60680190F081E02D1995182F30
:1027C000F701818D928DDC01ED91FC910190F081FA
:1027D000E02D4981642F199561E0F701838D49DD72
:1027E000D70159968D919C915A97DC01ED91FC91FE
:1027F0000288F389E02D19950FBF812F0F90DF918B
:10280000CF911F910F91FF90EF900895CF93DF9399
:10281000EC018A819B81059761F047E061E0CE0180
:10282000A2DF40E860E4CE019EDF85E090E09B837C
:102830008A838A819B810597E1F38E89DF91CF910D
:102840000895CF93DF93FC0122813381213031053C
:1028500041F0EC0140E061E086DF81E090E09B83A5
:102860008A8381E0DF91CF910895CF93DF93FC01BC
:10287000228133812230310541F0EC0141E061E0F9
:1028800072DF82E090E09B838A83DF91CF9108958D
:10289000BF92CF92DF92EF92FF920F931F93CF934D
:1028A000DF934C3F10F0C12C76C0142F072FD62E8B
:1028B000EC01E881F9810484F585E02D1995CE01BC
:1028C000D4DFE881F9810288F389E02DCE011995E2
:1028D000C82E882341F340E06DE0CE0144DF4A85F5
:1028E00060E0CE0140DF4B8560E0CE013CDF4C85EF
:1028F00060E0CE0138DF4D8560E0CE0134DFBFB649
:10290000F894898D9A8DDC01ED91FC910088F18914
:10291000E02D199560E08B8DACDC898D9A8DDC0102
:10292000ED91FC910190F081E02D60E81995ED2C7E
:10293000F02E012F015068F0898D9A8DF701619179
:102940007F01DC01ED91FC910190F081E02D199562
:10295000F1CF61E08B8D8DDC898D9A8DDC01ED915D
:10296000FC910288F389E02D1995BFBE44E0410F28
:1029700062E2CE01F8DE8A819B81039761F043E039
:1029800061E0CE01F0DE40E460E4CE01ECDE83E005
:1029900090E09B838A838C2DDF91CF911F910F91C3
:1029A000FF90EF90DF90CF90BF9008950F931F930B
:1029B000CF93DF93EC01162F0FB7F89460E08B8D67
:1029C00058DC898D9A8DDC01ED91FC91612F6F7738
:1029D0000190F081E02D1995898D9A8DDC01ED91A2
:1029E000FC910190F081E02D60E01995182F61E0D5
:1029F0008B8D3FDC0FBF812FDF91CF911F910F9106
:102A00000895DF92EF92FF920F931F93CF93DF937E
:102A1000EC0162E1CBDF182F6CE1CE01C7DF2A8128
:102A20003B812430310579F48295869586958370B3
:102A300091E0892780FBEE24E0F8F12C812F807A49
:102A4000E82AEF2839F48A819B810497B9F416FDAE
:102A500022C014C0888999890196998B888B4FEF81
:102A600062E1CE0180DE4FEF62E1CE01DF91CF91D6
:102A70001F910F91FF90EF90DF9075CE8A819B811F
:102A8000039709F0B2C013FFB0C08C899D890196ED
:102A90009D8B8C8BB3C063E1CE0188DFF82E60E1A3
:102AA000CE0184DF482F6DE0CE015DDEDFB6F89405
:102AB000898D9A8DDC01ED91FC910088F189E02DE2
:102AC000199560E08B8DD5DB898D9A8DDC01ED91B8
:102AD000FC910190F081E02D60E019958E01005E7F
:102AE0001F4FEF2CE00EE01671F0898D9A8DDC01FE
:102AF000ED91FC910190F081E02D60E01995F801D5
:102B000081938F01F0CF61E08B8DB3DB898D9A8D3E
:102B1000DC01ED91FC910288F389E02D1995DFBE6F
:102B2000FF8E4FEF62E1CE011EDE69E1CE013EDF96
:102B30008E010F5D1E4F87FD8D5F85958595F80190
:102B400080836AE1CE0132DF90E09F878E87D801D3
:102B50002C918E859F8527FF07C0820F911D27FD31
:102B60009A959F878E870BC024E0880F991F2A951E
:102B7000E1F76FE070E00E94AC2E7F876E87FE0168
:102B8000E05EFE4F8081882329F08E859F858D59D8
:102B9000910904C08E859F85845A91099F878E87ED
:102BA0008F8DFE01E15EFE4F843090F088A18E8310
:102BB00089A18F838AA188878BA189878D818111C3
:102BC0000CC09E818C81981741F08E818F3F29F037
:102BD0008081882309F443CF11C08A899B8901969B
:102BE0009B8B8A8B81E08083F3CF8A819B810597C1
:102BF00009F035CF12FF33CF11701E8BCE0135DEB9
:102C00002ECF8091E9079091EA07009709F0F9CE5D
:102C100008958091E7079091E807009709F0F1CEB9
:102C200008958091E5079091E607009709F0E9CEB5
:102C30000895CF92DF92EF92FF920F931F93CF935D
:102C4000DF93EC017B018A01E881F9810280F38145
:102C5000E02D1995D82E882339F1E114F104E1F023
:102C600001151105C9F0CFB6F8942F8D30E023502F
:102C70003109F801808190E0821793071CF09F8D45
:102C800094509083F801408150E0BE016C5D7F4F0D
:102C9000C7010E94F030CFBE8FB7F894FE01E15E0D
:102CA000FE4F10821F8E8FBF8D2DDF91CF911F9110
:102CB0000F91FF90EF90DF90CF900895CF93DF9327
:102CC000EC01898D9A8DDC01ED91FC910680F781F4
:102CD000E02D199561E08B8DFBDA61E08B8DC9DA0F
:102CE00064E670E080E090E02FDB81E0DF91CF913F
:102CF0000895EF92FF920F931F93CF93DF9300D02D
:102D0000CDB7DEB78C01DADFF82E811102C0F12CCD
:102D10009FC0D8015D969C91923059F0933061F03C
:102D20008EEE890F843098F767E170E0691B7109B6
:102D300005C060E070E002C061E070E0E62ED801FE
:102D400059968D919C915A97DC01ED91FC910488E4
:102D5000F589E02D199540E861E0C80104DD6AE0DD
:102D600070E080E090E0F0DA61E0C8011FDE8038BA
:102D700071F660E0F801858DABDAD8015E968C9132
:102D80005E978F3F59F48091E407843008F0BFCFFD
:102D900091E0980F9093E4075E968C93F801968DDE
:102DA000E92FF0E0EE0FFF1FEB51F84F1183008386
:102DB000911103C061E176E10AC0913019F469E034
:102DC00076E105C0923009F0A2CF61E076E18E2D68
:102DD000D8D940E06EE0C801C6DC40E06FE0C80131
:102DE000C2DCC80142DD43E050E065E374E0CE019F
:102DF00001960E94AB2649816DE1C801B4DC4A818D
:102E00006EE1C801B0DC4B8166E2C801ACDC40E099
:102E100060E2C801A8DC48E061E2C801A4DC44EE3D
:102E200066E0C801A0DC40EC67E0C8019CDC40E043
:102E300068E0C80198DCF801E05EFE4F81E0808325
:102E400044E06DE4C8018FDC48E869E0C8018BDC30
:102E50008F2D0F900F900F90DF91CF911F910F91B9
:102E6000FF90EF900895FC01848DDF01A80FB11D44
:102E7000A35ABF4F2C91848D90E001968F739927B0
:102E8000848FA689B7892C93A089B1898C9180649D
:102E90008C93938D848D981306C00288F389E02D5E
:102EA00080818F7D80830895CF93DF93EC0145E08F
:102EB00061E059DC40E060E4CE0155DC84E090E064
:102EC0009B838A83DF91CF910895CF93DF93FC0199
:102ED000228133812330310559F0EC0182819381C5
:102EE000049711F0CF01E0DFC15EDE4F888101C0A1
:102EF00080E0DF91CF9108951F920F920FB60F924D
:102F000011240BB60F92CF92DF92EF92FF920F93A4
:102F10001F932F933F934F935F936F937F938F9361
:102F20009F93AF93BF93CF93DF93EF93FF93C091A2
:102F3000E207D091E3078A819B81049709F0AEC034
:102F40008B8D6FD921E0892B09F420E08E8D8227AB
:102F500019F09BA19F5F9BA39AA1891771F09CA177
:102F6000903518F02DE130E002C02BE030E09CA15C
:102F7000290F311D2CA38AA303C08CA18C5E8CA3C6
:102F80008CA1803A08F4DAC08EA19FA1969587950E
:102F90009FA38EA38BA1853028F08EA19FA198605E
:102FA0009FA38EA38CA1805A8CA31BA28DA18823E2
:102FB00009F467C088A58F5F88A78C3008F4BEC06D
:102FC0008EA19FA1982F9F73892F869586958870D3
:102FD00028E0280F821749F0E82FF0E0E156FD4F76
:102FE0003081931719F08F5FF5CF80E020E1829F49
:102FF000C00111242EA13FA196E0369527959A9500
:10300000E1F7422F3695279536952795287038E0B9
:10301000320F231749F0E22FF0E0E156FD4F5081C7
:10302000451719F02F5FF5CF20E0822BAE014359F1
:103030005F4FFA019081DE01A459BF4F9923A9F097
:10304000FA01908121E0290F20839E01290F311D73
:10305000F90181A7FA0190818C91981780F01DA247
:1030600081E088A3CE0169DB0AC08C939C919730E4
:1030700008F45EC09C91943408F05AC0E1CF18A6C1
:103080005DC08EA19FA188339B4009F057C081E0AD
:103090008DA318A6C359DF4F188250C08A819B8127
:1030A000039709F04BC08E0100591F4FF801808132
:1030B00091E0980F9083811135C07E01FEE6EF0EFE
:1030C000F11CF7018081EF56FF4F9081891740F086
:1030D000CE0133DB8C899D8901969D8B8C8B22C020
:1030E000FE01E80FF11DEF58FF4F608170E06E01A7
:1030F000FFE6CF0ED11CF601808191E0980F9083FE
:1031000002C0759567958A95E2F7617077278C8D77
:10311000B0D8F6018081863028F01082F7018081D6
:103120008F5F8083F8018081883040F0108206C074
:103130001DA2888999890196998B888BFF91EF91BF
:10314000DF91CF91BF91AF919F918F917F916F91BF
:103150005F914F913F912F911F910F91FF90EF90B1
:10316000DF90CF900F900BBE0F900FBE0F901F906F
:103170001895FC01208591858091E107882379F0DD
:103180008FB7F8943091E107313039F43DB3309383
:10319000E0073DB33DBB8FBF02C08093E0072CBD6D
:1031A0009DBD08959FB7F89480915208882319F027
:1031B00081508093520880915208811105C08CB5CE
:1031C0008F7B8CBD1092E1079FBF08958CB58F77E0
:1031D0008CBD08958CB580688CBD08956EBD0000CF
:1031E0000DB407FEFDCF8EB50895FC017383628395
:1031F0000895FC01778366830895FC0175836483D9
:10320000089508950895089508950895FC01848906
:1032100095890895FC01828993890895FC0180892C
:103220009189089580E00895FC0173836283089575
:10323000FC01828193810895FC018685978508951C
:10324000FC0181850895FC0180850895FC0187813A
:103250000895FC0186810895FC01409595854923D8
:10326000642B65870895FC0164870895FC016387DA
:103270000895FC0162870895FC0164830895FC01B0
:103280006583089580E00895FC0122813381233015
:103290003105D1F381E00895CF93DF93EC01E8810C
:1032A000F9810280F381E02DCE0119958823B9F3CD
:1032B000DF91CF91089581E008950895E091540839
:1032C00080915308E81730F4F0E0E551F84F808121
:1032D00090E008958FEF9FEF0895909154088091AA
:1032E0005308981750F4E92FF0E0E551F84F20818A
:1032F00030E09F5F9093540802C02FEF3FEFC90169
:1033000008958091530890E020915408821B910900
:103310000895089580E090E0089585ED8093BC00C5
:103320008091BC0084FDFCCF1092D8030895409199
:103330002D08262F30E0240F311D21323105DCF419
:103340002091D8032430C9F4FC0180E090E0861776
:1033500058F430912D082191DC01A55FB74FA30FE0
:10336000B11D2C930196F3CF80912D08680F6093C7
:103370002D0880E0089581E0089582E00895CF92BD
:10338000DF92EF92FF920F931F93CF93DF937C0115
:10339000262F972F8A018091D903882391F0C62F79
:1033A000D72F6E01C40ED51ECC15DD0569F06991CD
:1033B000D701ED91FC910190F081E02DC7011995A5
:1033C000F3CF642F822FB3DFC801DF91CF911F911C
:1033D0000F91FF90EF90DF90CF900895CF93DF9300
:1033E0001F92CDB7DEB769832091D9032223D1F094
:1033F0002091FC03203240F021E030E0FC013383D7
:10340000228380E090E014C08091DA03E82FF0E09E
:10341000E552FC4F998190838F5F8093DA0380930C
:10342000FC0304C061E0CE01019681DF81E090E001
:103430000F90DF91CF9108950F931F93CF93FC01CD
:10344000828193818430910569F08330910579F010
:103450008230910589F00197A1F040E452E46FE0D9
:1034600070E013C040E054E264EF70E00EC040E052
:1034700052E16AE770E009C040E059E06DE370E0B6
:1034800004C040E854E86EE170E0A481B581868113
:103490009781009741F08130910539F08230910594
:1034A00031F0039731F090E005C094E003C098E05C
:1034B00001C09CE080E000E012E12AE730E0401724
:1034C00051076207730740F43695279517950795BE
:1034D0008F5F8630A1F787E021E02827119711F050
:1034E00080E501C080E7322F3695932B982B90878B
:1034F00021702187CFB7F89480915208811127C09D
:10350000E8E9F3E08491EEEDF3E09491E82FF0E048
:10351000EE0FFF1FEB5EFC4FA591B491EC91E923F8
:1035200021F461E085E30E94391161E085E30E94A6
:1035300068118CB580618CBD8CB580648CBD61E0F8
:1035400084E30E94681161E083E30E946811809126
:1035500052088F5F80935208CFBFCF911F910F9178
:1035600008958F929F92AF92BF92CF92DF92EF9287
:10357000FF92CF93DF93EC016B010E94DC114B01B2
:103580005C01E12CF12C0E94DC11DC01CB018819DB
:103590009909AA09BB098C159D05AE05BF0530F434
:1035A0008A819B81039779F381E001C080E0DF91FC
:1035B000CF91FF90EF90DF90CF90BF90AF909F9012
:1035C0008F9008958F929F92AF92BF92CF92DF9289
:1035D000EF92FF92CF93DF93EC016B010E94DC111D
:1035E0004B015C01E12CF12C0E94DC11DC01CB01D0
:1035F00088199909AA09BB098C159D05AE05BF0557
:1036000050F4E881F9810280F381E02DCE01199513
:10361000882351F301C080E0DF91CF91FF90EF90BC
:10362000DF90CF90BF90AF909F908F9008958F9232
:103630009F92AF92BF92CF92DF92EF92FF92CF9381
:10364000DF93FC012789308D232B11F481E038C0F2
:10365000EC010E94DC116B017C0189E0882E912C29
:10366000A12CB12CE881F9810488F589E02DCE01E7
:103670001995882359F30E94DC11AB01BC014C1948
:103680005D096E097F098F89988DA0E0B0E08417ED
:103690009507A607B70798F00E947626A501940122
:1036A0000E94032C9B01AC012F5F3F4F4F4F5F4F98
:1036B000A4E6B0E00E941F2C0E94A411D3CF80E0AA
:1036C000DF91CF91FF90EF90DF90CF90BF90AF90C0
:1036D0009F908F900895CF93DF93EC018A859B850F
:1036E000AC85BD858E839F83A887B9870E94DC1136
:1036F0006A837B838C839D8381E089838883DF91C8
:10370000CF9108952F923F924F925F926F927F9246
:103710008F929F92AF92BF92CF92DF92EF92FF92E1
:103720000F931F93CF93DF93D82FC92F8B010E9444
:10373000852624E630E040E050E00E942F2C49012D
:103740005A019B01AC0160E876E988E990E00E94AB
:103750009D2E6B017C01F80191828082ED2FFC2F60
:103760002191822F022E000C990BC0970A97C0F36B
:103770002E3239F51F0180E8882E86E9982E88E9D7
:10378000A82EB12C9AE0492E512C612C712CF101FC
:10379000C1911F010C2E000CDD0BE097CA30D10542
:1037A00080F4C501B401A30192010E942F2C4901AC
:1037B0005A01DE010E94292CC60ED71EE81EF91EF2
:1037C000E6CFA5E0B0E0A70196010E941F2C6F5F35
:1037D0007F4F8F4F9F4F23E030E040E050E00E944A
:1037E0002F2CF80122833383448355831682DF9183
:1037F000CF911F910F91FF90EF90DF90CF90BF90EE
:10380000AF909F908F907F906F905F904F903F9080
:103810002F900895FF920F931F93CF93DF93EC01A6
:10382000FF24F39488818D3211F0F12C01C0219690
:10383000CE010E9485269B01AC01A4E6B0E00E9467
:103840001F2CFE014991242F042E000C330B205312
:1038500031092A303105A8F34E3241F52181022E7B
:10386000000C330B205331092A303105F8F44AE0BB
:10387000429F8001439F100D1124012E000C220B4A
:10388000330B600F711F821F931F0281002E000CEB
:10389000110B005311090A30110540F4012E000CE0
:1038A000220B330B600F711F821F931FFF2039F013
:1038B00090958095709561957F4F8F4F9F4FDF91C9
:1038C000CF911F910F91FF9008951F920F920FB605
:1038D0000F9211240BB60F922F933F934F935F9348
:1038E0006F937F938F939F93AF93BF93EF93FF93C8
:1038F0008091B900887F803609F49CC068F58832D1
:1039000009F45BC090F4803109F454C038F4882382
:1039100009F4F6C0883009F44DC0F5C0883109F4C7
:103920004CC0803209F45DC0EEC0803409F468C038
:1039300048F4803309F455C0883309F0E4C080931B
:10394000D603D8C0803509F44FC0883509F45DC06E
:10395000883409F0D8C0D6C0883909F4C7C0A8F4A3
:10396000883709F467C038F4883609F463C08037B3
:1039700009F460C0C8C0883809F4B8C0803909F4B7
:103980005FC0803809F0BFC05BC0803B09F486C0CF
:1039900038F4803A09F466C0883A09F47FC0B3C0AD
:1039A000803C09F4A7C0883C09F4A4C0883B09F412
:1039B0008AC0A9C08091B30310C09091D5038091B3
:1039C000D403981770F5E091D50381E08E0F8093B2
:1039D000D503F0E0EC54FC4F80818093BB0085EC74
:1039E00086C08093D6038EC0E091D50381E08E0F10
:1039F0008093D5038091BB00F0E0EC54FC4F8083B2
:103A00009091D5038091D4036EC0E091D50381E0FD
:103A10008E0F8093D5038091BB00F0E0EC54FC4FF7
:103A200080838091D70381116DC081E08093B203C0
:103A300084EA61C083E08093D80310925108CFCF0D
:103A400080915108803208F051C0E091510881E026
:103A50008E0F809351088091BB00F0E0EF5CF74F30
:103A60008083BDCF85EC8093BC001092D8038091F9
:103A70005108803230F4E0915108F0E0EF5CF74FEC
:103A800010826091510870E0E0912F08F0913008A9
:103A900081E398E019951092510835C084E0809335
:103AA000D80310922E0810922D08E0912B08F09167
:103AB0002C08199580912D08811105C081E0809313
:103AC0002D0810920B08E0912E0881E08E0F809354
:103AD0002E08F0E0E55FF74F80818093BB00909166
:103AE0002E0880912D08981708F479CF85E88093E7
:103AF000BC0009C085EC8093BC001092D80303C0C1
:103B00001092D6030ADCFF91EF91BF91AF919F9184
:103B10008F917F916F915F914F913F912F910F9076
:103B20000BBE0F900FBE0F901F9018951092D803E8
:103B300081E08093D7031092B20361E084E10E9498
:103B4000391161E085E10E943911E9EBF0E08081F3
:103B50008E7F808380818D7F808388E48093B8000E
:103B600085E48093BC0008958EE30E941111892B97
:103B700071F48EE30E941111892B39F062E070E03C
:103B800080E090E00E94A411F4CF81E008958FE3DB
:103B90000E941111892B11F080E008958FE30E949B
:103BA0001111892B39F062E070E080E090E00E9412
:103BB000A411F4CF82E008951F93CF93DF93C82F11
:103BC000162FD42F882399F060E08BE10E943911E1
:103BD00060E08BE20E94391160E089E10E943911B6
:103BE000C43609F4CBE16D2F8C2F0E9439116D2F53
:103BF000812FDF91CF911F910C9439110895CF92AD
:103C0000DF92EF92FF920F931F93CF93DF936C019C
:103C10007A018B01C0E0D0E0CE15DF0589F0D80134
:103C20006D918D01D601ED91FC910190F081E02D17
:103C3000C6011995892B11F47E0102C02196ECCFA3
:103C4000C701DF91CF911F910F91FF90EF90DF900F
:103C5000CF900895FC01A089B1898C91A689B7897C
:103C600082FD0FC09C91818D8F5F8F73228D821793
:103C700049F0218DDF01A20FB11D5D969C93818FCC
:103C800008958C910895FC01538D448D252F30E0CB
:103C9000842F90E0821B930B541710F0CF96089559
:103CA00001970895FC01918D828D981761F0828DA6
:103CB000DF01A80FB11D5D968C91928D9F5F9F7360
:103CC000928F90E008958FEF9FEF0895FC01918D02
:103CD000828D981731F0828DE80FF11D858D90E06F
:103CE00008958FEF9FEF0895FC01918D228D892F0C
:103CF00090E0805C9F4F821B91098F7399270895F4
:103D00008EEF93E0F1DF21E0892B09F420E0822F90
:103D100008958BE994E0E8DF21E0892B09F420E0A5
:103D2000822F089588E395E0DFDF21E0892B09F4F5
:103D300020E0822F08950E94EC300F931F93CF93C1
:103D4000DF93EC0188819981009729F02A813B81DA
:103D50002617370788F48B016F5F7F4F0E9408306A
:103D6000009761F0998388831B830A832C813D81AE
:103D7000232B11F4FC01108281E001C080E0DF916F
:103D8000CF911F910F910895EF92FF920F931F9380
:103D9000CF93DF93FC01248135816115710511F406
:103DA00080E018C041155105A1F07B01EC018A01AA
:103DB000020F131FB801C1DF882391F328813981D5
:103DC0008C819D81B701820F931F0E940D311D834D
:103DD0000C8381E0DF91CF911F910F91FF90EF90C5
:103DE0000895CF93DF93EC0188819981009711F0BA
:103DF0000E94702F198218821D821C821B821A82D7
:103E0000DF91CF910895EF92FF920F931F93CF937D
:103E1000DF93EC017B018A01BA018FDF811103C0BE
:103E2000CE01DFDF07C01D830C83B7018881998134
:103E30000E940D31CE01DF91CF911F910F91FF9024
:103E4000EF900895EF92FF920F931F93CF93DF931C
:103E5000EC0181E0888F9B8D8C8D981305C0E889DB
:103E6000F989808185FD24C0F62E0B8D10E00F5F4F
:103E70001F4F0F731127E02E8C8DE8120CC00FB668
:103E800007FCFACFE889F989808185FFF5CFCE015B
:103E90000E943317F1CF8B8DFE01E80FF11DE35A1D
:103EA000FF4FF0820B8FEA89FB898081806207C017
:103EB000EE89FF896083E889F98980818064808345
:103EC00081E090E0DF91CF911F910F91FF90EF90F3
:103ED0000895CF93DF93EC01888D8823C9F0EA8998
:103EE000FB89808185FD05C0A889B9898C9186FDF3
:103EF0000FC00FB607FCF5CF808185FFF2CFA889F0
:103F0000B9898C9185FFEDCFCE010E943317E7CFA1
:103F1000DF91CF9108951F920F920FB60F92112447
:103F20002F933F938F939F93AF93BF938091AA0357
:103F30009091AB03A091AC03B091AD0330915508C3
:103F400023E0230F2D3720F40196A11DB11D05C0DC
:103F500026E8230F0296A11DB11D209355088093DA
:103F6000AA039093AB03A093AC03B093AD038091ED
:103F7000AE039091AF03A091B003B091B10301964D
:103F8000A11DB11D8093AE039093AF03A093B00326
:103F9000B093B103BF91AF919F918F913F912F91BA
:103FA0000F900FBE0F901F901895CF93DF93FC01D9
:103FB00024813581232B69F0C081D181062E000C2C
:103FC000770BCE010E94F930009719F08C1B9D0BE6
:103FD00002C08FEF9FEFDF91CF910895CF93DF93D2
:103FE000EC016115710559F0FB0101900020E9F722
:103FF0003197AF01461B570BC7DE811102C0CE01BE
:10400000F0DECE01DF91CF910895CF93DF93EC01E5
:10401000FB014481558160817181B6DE811102C04E
:10402000CE01DFDECE01DF91CF910895CF93DF93F4
:10403000EC016115710551F0FB0101900020E9F7D9
:104040003197AF01461B570BDEDE01C0CADECE0141
:10405000DF91CF910895FC01808191810C94702FA4
:10406000EF92FF920F931F93CF93DF93CDB7DEB7FD
:10407000A1970FB6F894DEBF0FBECDBF7C01CB0178
:10408000BA01F70111821082138212821582148202
:1040900042E0420F8E010F5F1F4FC0D5BC01C70128
:1040A000C5DFA1960FB6F894DEBF0FBECDBFDF917E
:1040B000CF911F910F91FF90EF900895EF92FF9293
:1040C0000F931F93CF93DF93CDB7DEB7A1970FB6B2
:1040D000F894DEBF0FBECDBF7C01CB01BA01F70162
:1040E00011821082138212821582148242E0420FE2
:1040F0008E010F5F1F4F92D5BC01C70197DFA196BC
:104100000FB6F894DEBF0FBECDBFDF91CF911F91E8
:104110000F91FF90EF900895FB01DC0111961C9226
:104120001E9213961C921E92129715961C921E9226
:1041300014978617970741F06081718161157105A9
:1041400019F0448155815FCE0895FC0111821082DF
:1041500013821282158214826115710549F0FB01E8
:1041600001900020E9F73197AF01461B570B4BCE6A
:104170000895BF92CF92DF92EF92FF920F931F9319
:10418000CF93DF937C016B018A01E9012417350786
:1041900020F4812F8901C42FD82F65E173E0C70176
:1041A000D4DFD60114968D919C91159708171907A5
:1041B000C8F48C179D0708F4EC01D601ED91FC9131
:1041C0001197EC0FFD1FB08010824D915C91BA01E8
:1041D000600F711FC7012ADFD601ED91FC91EC0F32
:1041E000FD1FB082C701DF91CF911F910F91FF900A
:1041F000EF90DF90CF90BF9008951F920F920FB66F
:104200000F9211240BB60F922F933F934F935F930E
:104210006F937F938F939F93AF93BF93EF93FF938E
:10422000E0910E02F0910F021995FF91EF91BF916D
:10423000AF919F918F917F916F915F914F913F913E
:104240002F910F900BBE0F900FBE0F901F901895DF
:104250001F920F920FB60F9211240BB60F922F934D
:104260003F934F935F936F937F938F939F93AF93FE
:10427000BF93EF93FF93E0910C02F0910D0219951B
:10428000FF91EF91BF91AF919F918F917F916F912E
:104290005F914F913F912F910F900BBE0F900FBEEA
:1042A0000F901F9018951F920F920FB60F92112426
:1042B0000BB60F922F933F934F935F936F937F9320
:1042C0008F939F93AF93BF93EF93FF93E09102027D
:1042D000F09103021995FF91EF91BF91AF919F91DA
:1042E0008F917F916F915F914F913F912F910F909F
:1042F0000BBE0F900FBE0F901F9018951F920F923C
:104300000FB60F9211240BB60F922F933F934F933A
:104310005F936F937F938F939F93AF93BF93EF932D
:10432000FF93E0910002F09101021995FF91EF9146
:10433000BF91AF919F918F917F916F915F914F91BD
:104340003F912F910F900BBE0F900FBE0F901F90BB
:1043500018951F920F920FB60F9211240BB60F9261
:104360002F933F934F935F936F937F938F939F937D
:10437000AF93BF93EF93FF93E0910A02F0910B028A
:104380001995FF91EF91BF91AF919F918F917F917F
:104390006F915F914F913F912F910F900BBE0F90B6
:1043A0000FBE0F901F9018951F920F920FB60F928D
:1043B00011240BB60F922F933F934F935F936F93FC
:1043C0007F938F939F93AF93BF93EF93FF93E0916E
:1043D0000802F09109021995FF91EF91BF91AF91F9
:1043E0009F918F917F916F915F914F913F912F910D
:1043F0000F900BBE0F900FBE0F901F9018951F923D
:104400000F920FB60F9211240BB60F922F933F937A
:104410004F935F936F937F938F939F93AF93BF93CC
:10442000EF93FF93E0910602F09107021995FF9137
:10443000EF91BF91AF919F918F917F916F915F911C
:104440004F913F912F910F900BBE0F900FBE0F9089
:104450001F9018951F920F920FB60F9211240BB652
:104460000F922F933F934F935F936F937F938F930D
:104470009F93AF93BF93EF93FF93E0910402F0916A
:1044800005021995FF91EF91BF91AF919F918F9187
:104490007F916F915F914F913F912F910F900BBE44
:1044A0000F900FBE0F901F9018951F920F920FB68E
:1044B0000F9211240BB60F922F933F934F935F935C
:1044C0006F937F938F939F93AF93BF93EF93FF93DC
:1044D0008EEF93E00E943317FF91EF91BF91AF9160
:1044E0009F918F917F916F915F914F913F912F910C
:1044F0000F900BBE0F900FBE0F901F9018951F923C
:104500000F920FB60F9211240BB60F922F933F9379
:104510004F935F936F937F938F939F93AF93BF93CB
:10452000EF93FF938EEF93E095DBFF91EF91BF91B7
:10453000AF919F918F917F916F915F914F913F913B
:104540002F910F900BBE0F900FBE0F901F901895DC
:104550001F920F920FB60F9211240BB60F922F934A
:104560003F934F935F936F937F938F939F93AF93FB
:10457000BF93EF93FF938BE994E00E943317FF9171
:10458000EF91BF91AF919F918F917F916F915F91CB
:104590004F913F912F910F900BBE0F900FBE0F9038
:1045A0001F9018951F920F920FB60F9211240BB601
:1045B0000F922F933F934F935F936F937F938F93BC
:1045C0009F93AF93BF93EF93FF938BE994E042DB0C
:1045D000FF91EF91BF91AF919F918F917F916F91DB
:1045E0005F914F913F912F910F900BBE0F900FBE97
:1045F0000F901F9018951F920F920FB60F921124D3
:104600000BB60F922F933F934F935F936F937F93CC
:104610008F939F93AF93BF93EF93FF9388E395E0BE
:104620000E943317FF91EF91BF91AF919F918F91AE
:104630007F916F915F914F913F912F910F900BBEA2
:104640000F900FBE0F901F9018951F920F920FB6EC
:104650000F9211240BB60F922F933F934F935F93BA
:104660006F937F938F939F93AF93BF93EF93FF933A
:1046700088E395E0EFDAFF91EF91BF91AF919F91C1
:104680008F917F916F915F914F913F912F910F90FB
:104690000BBE0F900FBE0F901F901895CF93DF9316
:1046A000EEEFF3E01382128248EE53E060E070E038
:1046B000448355836683778389E292E09183808384
:1046C00025ED30E03587248724ED30E037872687D5
:1046D00020ED30E0318B208B21ED30E0338B228BCD
:1046E00022ED30E0358B248B26ED30E0378B268BA6
:1046F000118E128E138E148EEBE9F4E01382128267
:104700004483558366837783918380832DEC30E0E7
:10471000358724872CEC30E03787268728EC30E07B
:10472000318B208B29EC30E0338B228B2AEC30E06C
:10473000358B248B2EEC30E0378B268B118E128E2E
:10474000138E148EE8E3F5E01382128244835583BE
:10475000668377839183808385EC90E09587848757
:1047600084EC90E09787868780EC90E0918B808B3B
:1047700081EC90E0938B828B82EC90E0958B848B24
:1047800086EC90E0978B868B118E128E138E148E92
:10479000A6EDB7E013961C921E92129715961C92E6
:1047A0001E92149717961C921E9216978BE392E016
:1047B00011969C938E9380E518968C931897199672
:1047C0001C921997E5EDF5E013821282448355831C
:1047D0006683778385E592E091838083E9E2F7E061
:1047E000108211821382128214821582168217821D
:1047F00010861286118613861486158616861786ED
:10480000118A108A128A138A148A158A168A108EBF
:10481000178A118E128E138E148E158E12A213A269
:1048200014A215A216A217A210AA11AA12AA13AABC
:1048300014AA15AA109267071092680710926D07C4
:1048400010926E0710926F07109270071092750702
:104850001092760710927B0710927C0710927D07CA
:1048600010927E0710928307109284071092890796
:1048700010928A0710928B0710928C071092910762
:10488000109292071092970710929807109299072A
:1048900010929A0710929F071092A0071092A507F6
:1048A0001092A6071092A7071092A8071092AD07C2
:1048B0001092AE0792E09093BE071092BF0710923D
:1048C000C0071092C1071092C3071092C20710923E
:1048D000C5071092C4071092C6071092C70710921E
:1048E000C8071092C9071092CA071092CB071092FE
:1048F000CC071092CD071092CE071092CF071092DE
:10490000D0071092D1071092D2071092D3071092BD
:10491000D4071092D5071092AF07E7E0F6E01382B4
:1049200012828FEF84838287838714861586118A8B
:10493000108A138A128A158A148A108E178AB28FE7
:10494000A18F2AE0238F27E632E031832083109263
:104950002607958F868FC1EED5E044EF51E060E0E9
:1049600070E04E835F83688779878AE0EBE1F2E04D
:10497000A5EFB5E001900D928A95E1F71E8E9F8F0D
:104980001CA21DA2DF91CF910895789484B5826016
:1049900084BD84B5816084BD85B5826085BD85B5E3
:1049A000816085BD80916E00816080936E00109261
:1049B00081008091810082608093810080918100DC
:1049C000816080938100809180008160809380006D
:1049D0008091B10084608093B1008091B0008160CB
:1049E0008093B000809191008260809391008091CB
:1049F000910081608093910080919000816080930C
:104A000090008091A10082608093A1008091A1001C
:104A100081608093A1008091A00081608093A000BC
:104A20008091210182608093210180912101816028
:104A300080932101809120018160809320018091E9
:104A40007A00846080937A0080917A0082608093FB
:104A50007A0080917A00816080937A0080917A0058
:104A6000806880937A001092C10061E08DE00E941E
:104A7000681140E052EC61E070E088E395E00E944C
:104A8000BE0F40E855E260E070E08EEF93E00E94D8
:104A9000BE0F40E855E260E070E08BE994E00E94D0
:104AA000BE0F10925408109253081092DA0310921D
:104AB000FC033CD887E096E00E947916811103C080
:104AC0008FE293E002C08BE393E00E94B20F10925A
:104AD0005408109253081092DA031092FC0326D85F
:104AE00061E08BE00E94A7106DE189E00E94A710B1
:104AF00061E08DE00E94681161E08DE10E94681123
:104B000061E087E20E94681161E081E30E94681120
:104B100061E08EE20E94681161E08FE20E946811FC
:104B200061E087E10E94681161E08DE20E946811F6
:104B300061E089E20E94681161E08BE10E946811E6
:104B400061E08BE20E94681161E089E10E946811D6
:104B500061E085E20E94681161E08FE10E946811C6
:104B600061E081E20E94681161E083E20E946811C5
:104B700062E08EE30E94681162E08FE30E94681198
:104B800081E593E00E94A00F8EEF93E09093E20501
:104B90008093E10581E08093F90560E070E08CE0AE
:104BA0000E94E7120E94DC116B017C010E94E81157
:104BB00081110DC00E94DC11DC01CB018C199D0913
:104BC000AE09BF09813D9740A105B10568F068ECC9
:104BD00070E080E090E00E94A411109205068091A0
:104BE0000106843039F408C060E070E0CB010E9417
:104BF000A411DCCF893029F40E947B020E94581353
:104C0000FBCF8FE794E00E9482108EE594E00E9433
:104C1000821081E494E00E948210FFCFEF920F9304
:104C20001F93CF93DF93E80147FD02C034E001C03A
:104C300034E1E42F440FFF0BF7FF03C0F195E1953A
:104C4000F109E32E022F2E2FAE01C6D0CE01DF9147
:104C5000CF911F910F91EF9008958F929F92AF92F5
:104C6000BF92CF92DF92EF92FF92CF93DF93EC014E
:104C7000688179818A819B81611571058105910522
:104C800021F464E279ED8BE597E02DE133EF41E02B
:104C900050E0B9D549015A019B01AC01A7EAB1E442
:104CA000CED56B017C01ACEEB4EFA5019401D3D558
:104CB000DC01CB018C0D9D1DAE1DBF1DB7FF03C0D8
:104CC0000197A109B04888839983AA83BB83BC015B
:104CD000CD019F77DF91CF91FF90EF90DF90CF9044
:104CE000BF90AF909F908F900895B7CF81E192E0F1
:104CF000B4CF6093110270931202809313029093C9
:104D00001402089566277727F4C11F93FC019927A1
:104D10008827BC01E89411911032E9F3193010F0A2
:104D20001E30C8F31B3249F01D3241F4689405C0AF
:104D300025D0610F711D811D911D119110531A30E5
:104D4000B8F33EF490958095709561957F4F8F4FA5
:104D50009F4F1F910895FB01DC0102C005900D9249
:104D600041505040D8F70895BB274A3031F4992379
:104D700022F4BDE2909581959F4F16C0592F482F80
:104D8000372F262F660F771F881F991F660F771FF3
:104D9000881F991F620F731F841F951F660F771F4F
:104DA000881F991F0895BB27FB015527AA27880F45
:104DB000991FAA1FA41710F0A41B83955051B9F78F
:104DC000A05DAA3308F0A95DA193009779F7B1110E
:104DD000B1931192CB01EBC34F925F926F927F928E
:104DE0009F92AF92BF92CF92DF92EF92FF920F937A
:104DF0001F93CF93DF93CDB7DEB729970FB6F89403
:104E0000DEBF0FBECDBF6A01122FB02E2BE32017DD
:104E100020F0FF24F394F00E02C0BCE3FB2E0F2D14
:104E200027E0AE014F5F5F4FCAD2AC018981982F56
:104E30009970913031F0E1FC06C0E0FE06C090E2CE
:104E400005C09DE203C09BE201C090E0EE2DE07141
:104E500083FF3CC0911102C083E001C084E0811750
:104E600018F4212F281B01C020E0E1110BC0F6012E
:104E7000822F30E2882319F031938150FBCFC20E8C
:104E8000D11C20E0992329F0D6019C93F60131969C
:104E90006F01C6010396E2FE0AC03EE4D6013C93D0
:104EA00041E411964C93119712963C9306C03EE64E
:104EB000F601308341E641833283FC01322F40E228
:104EC000332309F442C041933150FACF82FF44C0EA
:104ED000911102C083E001C084E0811718F4212FF2
:104EE000281B01C020E0E1110BC0F601822F30E247
:104EF000882319F031938150FBCFC20ED11C20E0E2
:104F0000992329F0D6019C93F60131966F01C601D1
:104F10000396E2FE0BC039E4D6013C933EE41196C1
:104F20003C93119736E412963C9307C039E6F6019C
:104F300030833EE6318336E63283FC01322F40E295
:104F4000332319F041933150FBCFFC01E20FF11DE7
:104F500010828EEF9FEFB7C0F1E0911101C0F0E039
:104F60006F2F70E01416150624F49A012F5F3F4F3F
:104F700002C021E030E0260F371FBB2029F06B2D47
:104F800070E06F5F7F4F02C060E070E0260F371F58
:104F9000612F70E0261737071CF4121B212F01C068
:104FA00020E03E2D387159F4D601322F60E23323D0
:104FB00019F06D933150FBCFC20ED11C20E0FF23BE
:104FC00031F0D6019C93B6016F5F7F4F6B01E11109
:104FD0000BC0F601922F30E3992319F031939150D1
:104FE000FBCFC20ED11C20E09F2D940F3A81782F69
:104FF0007071A72E84FF03C0313309F49150191644
:1050000024F4993018F098E001C091E0E42F852F46
:1050100057FF02C0E0E080E06E2F782FE0E0F0E084
:10502000AEE29A2E3A01691A71082A01461A570A05
:105030000B2D10E01195019511096F3F8FEF780747
:1050400029F4D6019C92C60101966C0146175707B8
:1050500084F0661677066CF47F01E40CF51CA1E081
:10506000B0E0AC0FBD1FEA0EFB1ED7011196BC903D
:1050700002C090E3B92E615071093196C6010196C4
:105080007C016017710724F0D601BC926C01D5CF6A
:105090006417750741F4363320F4353321F4A11039
:1050A00002C081E3B82EF601B082F701822F90E2B0
:1050B000882319F091938150FBCFF701E20FF11D86
:1050C000108280E090E029960FB6F894DEBF0FBE04
:1050D000CDBFDF91CF911F910F91FF90EF90DF90A7
:1050E000CF90BF90AF909F907F906F905F904F90C8
:1050F00008956F927F928F929F92AF92BF92CF92BC
:10510000DF92EF92FF920F931F93CF93DF93EC0107
:105110007B016115710519F0DB018D939C938E0164
:105120000F5F1F4F7880872D90E021D2892B11F0DF
:10513000E801F5CFBDE27B1205C00F5F1F4F7980FC
:10514000C1E008C0EBE27E1204C08E010E5F1F4F6B
:105150007980C0E06801F1E0CF1AD10843E050E067
:1051600068EE71E0C6010BD2892BE9F4680122E0F8
:10517000C20ED11C45E050E063EE71E0C601FFD1E4
:10518000892B21F4680187E0C80ED11CE114F104D9
:1051900019F0D701CD92DC92C111F9C060E070E046
:1051A00080E89FE7FDC043E050E060EE71E0C6019B
:1051B000E6D1892B51F4E114F10409F4EDC00E5F3E
:1051C0001F4FF70111830083E7C0680160E070E0C2
:1051D000CB0100E010E0F601D0EDD70DDA3050F54C
:1051E0002C2F2260622E2C2F2870C2FF05C02111A7
:1051F00027C00F5F1F4F24C0222311F00150110957
:10520000A5E0B0E09B01AC011AD34B015C01880C16
:10521000991CAA1CBB1CC501B4016D0F711D811D19
:10522000911D6839A9E97A078A07A9E19A0740F030
:10523000C66005C0DE3F51F4C3FD44C0C8606C2E9B
:10524000BFEFCB1ADB0A7080C62DC5CF2D2F2F7D67
:105250002531C1F540814D3211F4C06106C04B3299
:1052600021F0319621E030E006C03296D601119649
:105270004C9122E030E0A0EDA40FAA3018F0E21B20
:10528000F30B20C040E050E04038BCE05B075CF42A
:105290009A01220F331F220F331F420F531F440F57
:1052A000551F4A0F511D3196DF0111972C91A0ED2A
:1052B000A20FAA3048F3C4FF03C05195419551098C
:1052C000040F151FC1FF07C0E114F10421F031974D
:1052D000D701ED93FC937FD1C370C33019F06B01FC
:1052E0007C0106C06B017C01F7FAF094F7F8F094AA
:1052F00020E030E0A901C701B60169D1882309F493
:1053000043C017FF06C0119501951109CFEFD1E0F9
:1053100002C0C7E1D2E05E01B8E1AB1AB1084601B4
:10532000BE2DAF2D90E2E92EF12C0E151F057CF05D
:10533000FE012591359145915491B4018B2F9A2FFF
:10534000ABD14B01B82FA92F0E191F09EECF24970F
:10535000F594E794CA15DB0541F76401EB2EFA2EAC
:105360008E2D880F8F2D881F8F3F41F020E030E079
:10537000A901C701B6012BD1811106C082E290E0DC
:105380009093570880935608C701B60109C060E0A2
:1053900070E080E89FEF04C060E070E080EC9FE781
:1053A000DF91CF911F910F91FF90EF90DF90CF9001
:1053B000BF90AF909F908F907F906F90089528300E
:1053C00008F027E03327DA01990F311D87FD91603E
:1053D00000966105710539F432602E5F3D9330E32C
:1053E0002A95E1F708959F3F30F0803871056105F7
:1053F00009F03C5F3C5F3D93913008F08068911D5F
:10540000DF93CF931F930F93FF92EF92192F987F03
:105410009695E92F96959695E90FFF27EB58FD4F46
:1054200099273327EE24FF24A701E701059008946C
:10543000079428F4360FE71EF81E491F511D660F0A
:10544000771F881F991F0694A1F70590079428F4E9
:10545000E70EF81E491F561FC11D770F881F991FA1
:10546000661F0694A1F70590079428F4F80E491FCB
:10547000561FC71FD11D880F991F661F771F0694DF
:10548000A1F70590079420F4490F561FC71FD81F96
:10549000990F661F771F881F0694A9F784911095AE
:1054A000177041F0D695C79557954795F794E794AF
:1054B0001A95C1F7EBE1F2E06894159015913591DA
:1054C0006591959105907FE27395E118F10A430B80
:1054D000560BC90BD009C0F7E10CF11E431F561F34
:1054E000C91FD01D7EF4703311F48A95E6CFE8947D
:1054F000015030F0080F0AF40027021708F4202F9B
:105500002395022F7A3328F079E37D932A95E9F7E2
:1055100010C07D932A9589F60694979567953795DF
:1055200017951794E118F10A430B560BC90BD009D4
:1055300098F023957E9173957A3308F070E37C930D
:105540002013B8F77E9170617D9330F0839571E3FD
:105550007D9370E32A95E1F71124EF90FF900F916E
:105560001F91CF91DF91992787FD90950895911113
:10557000F6C0803219F089508550D0F70895FB01AC
:10558000DC014150504088F08D9181341CF08B3506
:105590000CF4805E659161341CF06B350CF4605E38
:1055A000861B611171F3990B0895881BFCCFDC01F8
:1055B000FC01672F71917723E1F7329704C07C914A
:1055C0006D9370836291AE17BF07C8F3089540D002
:1055D00008F481E00895E89409C097FB3EF49095A3
:1055E0008095709561957F4F8F4F9F4F9923A9F0BC
:1055F000F92F96E9BB279395F6958795779567954B
:10560000B795F111F8CFFAF4BB0F11F460FF1BC08E
:105610006F5F7F4F8F4F9F4F16C0882311F096E921
:1056200011C0772321F09EE8872F762F05C06623CF
:1056300071F096E8862F70E060E02AF09A95660F88
:10564000771F881FDAF7880F9695879597F9089541
:10565000990F0008550FAA0BE0E8FEEF1616170683
:10566000E807F907C0F012161306E407F50798F0EB
:10567000621B730B840B950B39F40A2661F0232B04
:10568000242B252B21F408950A2609F4A140A69580
:105690008FEF811D811D08950BD07BC06CD028F049
:1056A00071D018F0952309F05DC062C01124A5C027
:1056B00081D0A0F3959FD1F3950F50E0551F629FC5
:1056C000F001729FBB27F00DB11D639FAA27F00D5B
:1056D000B11DAA1F649F6627B00DA11D661F829F82
:1056E0002227B00DA11D621F739FB00DA11D621F67
:1056F000839FA00D611D221F749F3327A00D611D84
:10570000231F849F600D211D822F762F6A2F112465
:105710009F5750408AF0E1F088234AF0EE0FFF1FB8
:10572000BB1F661F771F881F91505040A9F79E3FEF
:10573000510570F017C061C05F3FECF3983EDCF399
:10574000869577956795B795F795E7959F5FC1F72C
:10575000FE2B880F911D9695879597F908959927A7
:105760008827089597F99F6780E870E060E00895C2
:105770009FEF80EC089500240A9416161706180669
:105780000906089500240A94121613061406050645
:105790000895092E0394000C11F4882352F0BB0FD6
:1057A00040F4BF2B11F460FF04C06F5F7F4F8F4F39
:1057B0009F4F089557FD9058440F551F59F05F3F74
:1057C00071F04795880F97FB991F61F09F3F79F023
:1057D00087950895121613061406551FF2CF4695A5
:1057E000F1DF08C0161617061806991FF1CF869527
:1057F0007105610508940895E894BB27662777270B
:10580000CB0197F90895052E97FB16F400940FD05D
:1058100057FD05D024D007FC02D046F408C05095AF
:105820004095309521953F4F4F4F5F4F089590958C
:105830008095709561957F4F8F4F9F4F089531D020
:10584000A59F900DB49F900DA49F800D911D1124D4
:105850000895B7FFF4CFF3DF821B930B0895A1E205
:105860001A2EAA1BBB1BFD010DC0AA1FBB1FEE1FDA
:10587000FF1FA217B307E407F50720F0A21BB30B25
:10588000E40BF50B661F771F881F991F1A9469F7A1
:1058900060957095809590959B01AC01BD01CF01FD
:1058A0000895A29FB001B39FC001A39F700D811DF9
:1058B0001124911DB29F700D811D1124911D089519
:1058C0005058BB27AA270ED064CF55DF30F05ADFDF
:1058D00020F031F49F3F11F41EF44ACF0EF4E0950E
:1058E000E7FB40CFE92F66DF80F3BA176207730743
:1058F0008407950718F071F49EF57ECF0EF4E095BD
:105900000B2EBA2FA02D0B01B90190010C01CA0179
:10591000A0011124FF27591B99F0593F50F4503E24
:1059200068F11A16F040A22F232F342F4427585F16
:10593000F3CF469537952795A795F0405395C9F72E
:105940007EF41F16BA0B620B730B840BBAF09150E6
:10595000A1F0FF0FBB1F661F771F881FC2F70EC085
:10596000BA0F621F731F841F48F487957795679558
:10597000B795F7959E3F08F0B3CF9395880F08F041
:105980009927EE0F979587950895F5DE58F080E8F2
:1059900091E009F49EEFF6DE28F040E851E059F47A
:1059A0005EEF09C0E5CE28CFE92FE07803DF68F38A
:1059B000092E052AC1F3261737074807590738F07B
:1059C0000E2E07F8E02569F0E025E0640AC0EF63D9
:1059D00007F8009407FADB01B9019D01DC01CA0157
:1059E000AD01EF9346D0D5DE0AD05F91552331F05B
:1059F0002BED3FE049E450FD49EC63CF0895DF9380
:105A0000DD27B92FBF7740E85FE316161706480772
:105A10005B0710F4D92F19D19F938F937F936F93C6
:105A200063D1E4E9F1E0AFD0B4DE2F913F914F9123
:105A30005F913EDEDD2349F09058A2EA2AED3FE077
:105A400049EC5FE3D0785D274DDFDF91A2CEC1D076
:105A5000E395E6C00CD09DCE95DE40F08CDE30F0B4
:105A600021F45F3F19F07ECE5111C7CE81CEA2DE68
:105A700098F39923C9F35523B1F3951B550BBB2715
:105A8000AA2762177307840738F09F5F5F4F220FC2
:105A9000331F441FAA1FA9F333D00E2E3AF0E0E8BB
:105AA00030D091505040E695001CCAF729D0FE2F07
:105AB00027D0660F771F881FBB1F26173707480799
:105AC000AB07B0E809F0BB0B802DBF01FF2793584F
:105AD0005F4F2AF09E3F510568F044CE8ECE5F3F67
