:100000000BC200000C94001C0C94D51B0C94AA1B72
:100010000C947F1B0C94541B0C94291B0C94FE1AFB
:100020000C94D31A2AC2000028C2000026C2000085
:1000300024C2000022C2000020C200001EC2000034
:100040001CC200000C94801118C2000016C20000EF
:1000500014C2000012C2000010C200000C947D17F0
:100060000CC200000C94A61C0C947D1C06C200005F
:1000700004C2000002C2000000C20000FEC1000075
:10008000FCC10000FAC10000F8C10000F6C1000088
:100090000C94541C0C942B1CF0C100001CC20000DA
:1000A000ECC10000EAC10000E8C10000E6C10000A8
:1000B000E4C10000E2C10000E0C10000DEC10000B8
:1000C000DCC10000DAC10000D8C10000D6C10000C8
:1000D000D4C10000D2C10000D0C10000CEC10000D8
:1000E000CCC100006206740677067E068506B3065C
:1000F000BA06C706D406E006E006E006E006E0061B
:10010000E006E006E006E006E006E006E006E006BF
:10011000E006E006E006E006E006E006E006E006AF
:10012000E006E00662066F06740677067E06850620
:100130008C069906A6066316401647164E165516E7
:100140006A16711693169616851689168F16CD1691
:100150009A169E16A416A816AC16B216B616BA169D
:10016000CD16C016C416C816084AD73B3BCE016E42
:1001700084BCBFFDC12F3D6C74319ABD56833DDAFE
:100180003D00C77F11BED9E4BB4C3E916BAAAABE0D
:10019000000000803F05A84CCDB2D44EB93836A936
:1001A000020C50B9918688083CA6AAAA2ABE000073
:1001B00000803F004E414E494E495459494E46CD6C
:1001C000CCCC3D0AD7233C17B7D13877CC2B32950E
:1001D00095E6241FB14F0A000020410000C84200EC
:1001E000401C4620BCBE4CCA1B0E5AAEC59D7400B6
:1001F000407A10F35A00A0724E18090010A5D4E8F6
:100200000000E87648170000E40B54020000CA9A88
:100210003B000000E1F505000080969800000040DA
:10022000420F000000A0860100000010270000001F
:1002300000E803000000006400000000000A000065
:100240000000000100000000002C76D888DC674F19
:100250000823DFC1DFAE59E1B1B796E5E3E453C649
:100260003AE651997696E8E6C28426EB898C9B6241
:10027000ED407C6FFCEFBC9C9F40F2BAA56FA5F4EB
:1002800090055A2AF75C936B6CF9676DC11BFCE013
:10029000E40D47FEF520E6B500D0ED902E03009466
:1002A0003577050080841E080000204E0A000000FB
:1002B000C80C333333330F986E12831141EF8D2105
:1002C00014893BE65516CFFEE6DB18D1844B381B6C
:1002D000F77C1D901DA4BBE424203284725E228131
:1002E00000C9F124ECA1E53D2700002000230026F1
:1002F0000029002C002F003200000100000301063D
:1003000001090172740492740448940478C40C00C6
:10031000002100240027002A002D003000330001B6
:10032000010000040107010A010000220025002845
:10033000002B002E003100340002010000050108EE
:10034000010B01050505050705080808080202025A
:10035000020A0A0808040404040101010101010160
:10036000010303030303030303040707070C0C0C37
:100370000C0C0C0C0C02020202060606060606060F
:10038000060B0B0B0B0B0B0B0B01021020200808AC
:1003900010204010204080020102010804020101E7
:1003A00002040810204080804020100804020180D0
:1003B0000402018040201008040201080402010127
:1003C0000204081020408001020408102040800030
:1003D000000A0B02090C0D0E0807030401000000BF
:1003E000000000000000000000000000000000000D
:1003F00000000000000000000000001211100000CA
:1004000000000000000000000000000000000000EC
:10041000000000000000C51E11241FBECFEFD1E276
:10042000DEBFCDBF00E00CBF13E0A0E0B2E0EAEE1B
:10043000FDE500E00BBF02C007900D92A433B107A9
:10044000D9F727E0A4E3B3E001C01D92A834B207B6
:10045000E1F712E0CCE0D2E000E006C0219701090C
:10046000802FFE010E94C629CB30D10780E008070B
:10047000A9F70E94FB1F0C94F32EC2CD85ED80934B
:10048000BC008091BC0084FDFCCF1092EF03089566
:100490001F93CF93DF93982F862F911102C0642F63
:1004A00015C0C42FD62F192F60E08BE10E94CE1605
:1004B00060E08BE20E94CE1660E089E10E94CE16D9
:1004C0006C2F812F0E94CE166C2F8D2FDF91CF9134
:1004D0001F910C94CE161F920F920FB60F921124FB
:1004E0000BB60F922F933F934F935F936F937F932E
:1004F0008F939F93AF93BF93EF93FF938091B90036
:10050000887F803609F49CC068F5883209F45BC0A6
:1005100090F4803109F454C038F4882309F4F6C00B
:10052000883009F44DC0F5C0883109F44CC08032E0
:1005300009F45DC0EEC0803409F468C048F480332B
:1005400009F455C0883309F0E4C08093ED03D8C0A6
:10055000803509F44FC0883509F45DC0883409F04E
:10056000D8C0D6C0883909F4C7C0A8F4883709F4C0
:1005700067C038F4883609F463C0803709F460C076
:10058000C8C0883809F4B8C0803909F45FC0803821
:1005900009F0BFC05BC0803B09F486C038F4803AE4
:1005A00009F466C0883A09F47FC0B3C0803C09F4FE
:1005B000A7C0883C09F4A4C0883B09F48AC0A9C03C
:1005C0008091CA0310C09091EC038091EB039817BF
:1005D00070F5E091EC0381E08E0F8093EC03F0E086
:1005E000E553FC4F80818093BB0085EC86C08093EF
:1005F000ED038EC0E091EC0381E08E0F8093EC035D
:100600008091BB00F0E0E553FC4F80839091EC03B8
:100610008091EB036EC0E091EC0381E08E0F80933C
:10062000EC038091BB00F0E0E553FC4F80838091A8
:10063000EE0381116DC081E08093C90384EA61C03B
:1006400083E08093EF031092A003CFCF8091A003AB
:10065000803208F051C0E091A00381E08E0F8093BA
:10066000A0038091BB00F0E0E058FC4F8083BDCF39
:1006700085EC8093BC001092EF038091A003803240
:1006800030F4E091A003F0E0E058FC4F108260915C
:10069000A00370E0E0917E03F0917F0380E893E097
:1006A00019951092A00335C084E08093EF03109257
:1006B0007D0310927C03E0917A03F0917B031995FE
:1006C00080917C03811105C081E080937C031092AE
:1006D0005A03E0917D0381E08E0F80937D03F0E06B
:1006E000E65AFC4F80818093BB0090917D038091FE
:1006F0007C03981708F479CF85E88093BC0009C083
:1007000085EC8093BC001092EF0303C01092ED03C0
:10071000B5DEFF91EF91BF91AF919F918F917F9146
:100720006F915F914F913F912F910F900BBE0F9062
:100730000FBE0F901F90189540917C03262F30E03C
:10074000240F311D21323105DCF42091EF032430D8
:10075000C9F4FC0180E090E0861758F430917C03E6
:100760002191DC01A65ABC4FA30FB11D2C93019619
:10077000F3CF80917C03680F60937C0380E0089541
:1007800081E0089582E008951092EF0381E0809364
:10079000EE031092C90361E084E10E94CE1661E08D
:1007A00085E10E94CE16E9EBF0E080818E7F8083A8
:1007B00080818D7F808388E48093B80085E4809376
:1007C000BC0008954F925F926F927F928F929F929A
:1007D000AF92BF92CF92DF92EF92FF920F931F934F
:1007E000CF93DF93CDB7DEB7C957D1400FB6F8949A
:1007F000DEBF0FBECDBF8091520381110DC00E949C
:10080000711760934E0370934F038093500390933E
:10081000510381E0809352030E94711700914E03AF
:1008200010914F032091500330915103DC01CB0113
:10083000801B910BA20BB30B89389341A105B10525
:10084000B0F00E94711760934E0370934F03809332
:1008500050039093510380914D03811103C0109276
:100860004C0305C081E080934C0310924D0368E077
:1008700073E0CE01805C9E4F0E94BF1A0E947117E8
:100880002B013C0192E0C92E01E027E0D22E84E149
:1008900094E00E94FB18892B09F4FCC284E194E0E7
:1008A0000E94D918182F8091190790911A07A091CA
:1008B0001B07B0911C070196A11DB11D809319075C
:1008C00090931A07A0931B07B0931C07143209F4E6
:1008D000C0C2E0911307153234F41A3071F01D30A4
:1008E00009F0C4C20AC01A3241F01C3209F0BEC27B
:1008F00080910007812780930007EF3008F09BC2AA
:10090000F0E0EE5FF84F108280910107882309F430
:1009100073C1209102073FEB320F822F022E000C91
:10092000990B363010F4C79707C02156263018F4BB
:100930008755910901C0C097282F2295207F3091BB
:1009400003074FEB430F832F032E000C990B463008
:1009500010F4C79707C03156363018F487559109FF
:1009600001C0C097820F90910007891331C1809117
:10097000250790912607A0912707B0912807019697
:10098000A11DB11D8093250790932607A0932707EB
:10099000B093280780911407882399F080911D0750
:1009A00090911E07A0911F07B09120070196A11DED
:1009B000B11D80931D0790931E07A0931F07B0934E
:1009C0002007F0901107FF2009F46BC031E0F3120B
:1009D000D0C08091A4069091A506A091A606B091E2
:1009E000A7068093A0069093A106A093A206B093B9
:1009F000A3060E9471176093A8067093A9068093BE
:100A0000AA069093AB06F0929F06F0929E06809104
:100A1000B2069091B306A091B406B091B50680934A
:100A2000AE069093AF06A093B006B093B1060E94B5
:100A300071176093B6067093B7068093B8069093CB
:100A4000B906F092AD06F092AC06809114078823A7
:100A500009F48FC0ECE8F6E0AEE7B6E08D2D01902A
:100A60000D928A95E1F7E3E9F6E0A5E8B6E08D2D71
:100A700001900D928A95E1F70E94711760939A0692
:100A800070939B0680939C0690939D06F0927D0642
:100A9000F0927C068AEB96E00E94101488EC96E0B7
:100AA00066C08091B2069091B306A091B406B09151
:100AB000B5068093AE069093AF06A093B006B093B0
:100AC000B1060E9471176093B6067093B7068093C3
:100AD000B8069093B9060093AD060093AC068091DA
:100AE0001407882321F1ECE8F6E0AEE7B6E08D2D9F
:100AF00001900D928A95E1F7E3E9F6E0A5E8B6E00A
:100B00008D2D01900D928A95E1F70E9471176093E7
:100B10009A0670939B0680939C0690939D06009383
:100B20007D0600937C0686ED96E00E94101480916D
:100B3000EE069091EF06A091F006B091F106809339
:100B4000EA069093EB06A093EC06B093ED060E94A4
:100B500071176093E6067093E7068093E80690931A
:100B6000E9060093E5060093E40682EF96E00E9412
:100B70001014E0901707F0901807E114F10409F43D
:100B80005AC1E0911707F091180766A177A1F70104
:100B900086A197A10E940B2C892B09F04CC1B701AB
:100BA000C70140960E94142C0E947117D70190969D
:100BB0006D937D938D939C93939795960C939597B6
:100BC00094960C9394979A96ED90FC909B97D5CF22
:100BD0008091210790912207A0912307B0912407CB
:100BE0000196A11DB11D8093210790932207A09328
:100BF0002307B09324071FC180911207811148C0B9
:100C000067EA72E082E097E00E940B2C892B41F0AA
:100C10006DEA72E082E097E00E940B2C892B19F4B8
:100C20000093110715C063EB72E082E097E00E9429
:100C30000B2C892B41F069EB72E082E097E00E9477
:100C40000B2C892B19F41092110702C0C0921107C6
:100C500080911507909116079093180780931707B6
:100C6000E0901707F0901807E114F10409F4E3C0CD
:100C7000F701A6A0B7A062E077E0C5010E940B2CA7
:100C800097FFCDC0D7019A968D919C919B97E4CF09
:100C9000E0911107E23009F493C090910207992383
:100CA00009F48EC020E2E29FF0011124E82B319775
:100CB000E932F10508F084C08827EE58FF4F8F4FC6
:100CC0000C94C62982E097E00E94AE146093B206AD
:100CD0007093B3068093B4069093B50671C081E01B
:100CE000913409F043C043C06CE876E009C081E06C
:100CF000933509F080E08093920662C063E976E064
:100D000082E097E00E9426145BC081E0973509F0ED
:100D100080E08093990654C082E097E00E94AE1470
:100D20006093C4067093C5068093C6069093C70669
:100D300047C082E097E00E94AE146093D2067093A1
:100D4000D3068093D4069093D5063AC082E097E00C
:100D50000E94BF216093A4067093A5068093A60607
:100D60009093A7062DC081E091330CF480E080932E
:100D7000140726C082E097E00E94BF216093EE0630
:100D80007093EF068093F0069093F10619C082E00D
:100D900097E00E94AE146093FC067093FD0680936A
:100DA000FE069093FF060CC082E097E00E94AE140E
:100DB0006093E0067093E1068093E2069093E30669
:100DC000E0901707F0901807E114F104A1F1E09109
:100DD0001707F091180766A177A1F70186A197A1DF
:100DE0000E940B2C892B39F5D70198962D913C91B7
:100DF00099978091120790E082179307E4F02817E3
:100E0000390739F440E150E062E077E0C7010E9421
:100E10001B2CD7019A96ED90FC909B97D5CF62E062
:100E200077E0C5010E940B2C1816190624F41092C5
:100E3000180710921707809112078F5F809312078F
:100E40001092130781E01A3209F080E080930107C5
:100E50001ECD109213071092120710920007C09235
:100E60001107109201071092140711CDEE3040F4D3
:100E700081E08E0F80931307F0E0EE5FF84F108350
:100E800080910107811103CD8091000718271093ED
:100E90000007FDCC0E947117DC01CB018419950974
:100EA000A609B7090A97A105B10508F4F0CC10927C
:100EB0007D0660917E0670917F0680E090E00E9442
:100EC000F2256B017C016091800670918106809112
:100ED0008206909183060E94F22528E23BE64EE6C8
:100EE0005EE40E9431289B01AC01C701B6010E945B
:100EF0006827209184066B017C01222321F0F7FAF8
:100F0000F094F7F8F094609185067091860680E081
:100F100090E00E94F2254B015C0160918706709180
:100F200088068091890690918A060E94F22528E21F
:100F30003BE64EE65EE40E9431289B01AC01C50110
:100F4000B4010E94682720918B064B015C0122238B
:100F500021F0B7FAB094B7F8B0948091100291E004
:100F60009093F003809312041092F10310921304F3
:100F700060E08EE495E00E94511181E00E94961598
:100F8000809110029091EF039111FCCF91E090932A
:100F9000EF039093EE032FEF2093ED031092EC03F9
:100FA00025E02093EB039093CA039091CA03880F26
:100FB000892B8093CA038091C903813061F4109218
:100FC000C9038091CA038093BB008091BC0083FD5C
:100FD000F8CF85EC01C085EE8093BC008091EF03D3
:100FE0008130E1F38091EC03863018F48091EC03BA
:100FF00001C086E0ABECB3E021EA33E0F9019E2FBB
:10100000921B981718F49D919193F9CF1092C803F1
:101010008093C7038EE495E07FD78C018EE495E042
:101020007BD720E030E0382F3901602A712A8EE426
:1010300095E072D78C018EE495E06ED720E030E029
:10104000382F022B132B8EE495E066D78EE495E0C3
:1010500063D7B301770C880B990B0E94F4259B0191
:10106000AC01B801110F880B990BCA58DE4F2883C9
:10107000C657D140C958DE4F3883C757D140C858EA
:10108000DE4F4883C857D140C758DE4F5883C957F1
:10109000D1400E94F425CA58DE4F2881C657D1405E
:1010A000C958DE4F3881C757D140C858DE4F4881F4
:1010B000C857D140C758DE4F5881C957D1400E9408
:1010C000DB2720E030E044E353E40E9453262BED7D
:1010D0003FE049E450E40E9431283B018C0120E0CC
:1010E00030E0A9010E94EE2587FF0DC020E030E02E
:1010F00044EB53E4B301C8010E946827662EA72F72
:10110000F82FE92F03C0A72DF02FE12F25E33AEFA9
:101110004EE85CE3662D7A2F8F2F9E2F0E94532678
:1011200028ED39EE47E95EE30E9468272B013C0178
:1011300020E030E0A9010E94EE2587FF0AC02BEDD8
:101140003FE049EC50E4C301B2010E9468272B0143
:101150003C012BED3FE049EC50E4C301B2010E9499
:101160002829181654F42BED3FE049EC50E4C30154
:10117000B2010E9467272B013C0120E030E044E3EC
:1011800053E4C301B2010E9453262BED3FE049E432
:1011900050E40E9431282B013C01C0924803D092B8
:1011A0004903E0924A03F0924B03809244039092E9
:1011B0004503A0924603B0924703609340037093A7
:1011C00041038093420390934303C701B6010E94F9
:1011D0009928C659DE4F688379838A839B83CA56D0
:1011E000D140C501B4010E949928C259DE4F6883DD
:1011F00079838A839B83CE56D140C301B2010E947A
:101200009928CE58DE4F688379838A839B83C2579F
:10121000D140CE58DE4FE881F981C257D140BF019D
:10122000FF0F880B990B0E94F4259B01AC01C301B1
:10123000B2010E94672720E030E04AE754E40E94B0
:1012400053260E949E289F938F937F936F93CD5830
:10125000DE4FF881C357D140FF93CE58DE4F28812F
:10126000C257D1402F93C259DE4FA881B981CE56C3
:10127000D140BD01BB0F880B990B0E94F4259B0147
:10128000AC01C501B4010E94672720E034E244E7C5
:1012900059E40E9453260E949E289F938F937F9328
:1012A0006F93C159DE4FB881CF56D140BF93C25919
:1012B000DE4FE881CE56D140EF93C659DE4F2881EC
:1012C0003981CA56D140B901330F880B990B0E945E
:1012D000F4259B01AC01C701B6010E94672720E0FD
:1012E00034E244E759E40E9453260E949E289F93CB
:1012F0008F937F936F93C559DE4F3881CB56D14082
:101300003F93C659DE4F8881CA56D1408F938FEBE9
:1013100092E09F938F938E010F5F1F4F1F930F9348
:101320000E942A2CB801CE01805C9E4F0E94271893
:1013300022E0B301A201CE01865C9E4F0E94781A82
:1013400026E0B501A401CE018C5C9E4F0E944A1A92
:1013500026E0B701A601CE0184509F4F0E944A1A91
:10136000BE0164507F4FCE01825D9E4F0E94A61A3F
:1013700061EE72E0CE01825D9E4F0E94E017BE01D9
:101380006C5C7E4F0E94F71763EE72E00E94E017DC
:10139000BE01665C7E4F0E94F717BC01CE018A5BDE
:1013A0009E4F0E94A61ACE01825D9E4F0E94801819
:1013B000CE0184509F4F0E948018CE018C5C9E4FBE
:1013C0000E948018CE01865C9E4F0E948018CE013C
:1013D000805C9E4F0E948018C65BDE4FE880F980DB
:1013E000CA54D1400FB6F894DEBF0FBECDBFE11492
:1013F000F10431F4C450DF4F1882CC5FD0401AC0E2
:10140000B1E3EB16F10418F081E3E82EF12CCA5B8E
:10141000DE4F68817981C654D140A701CE01845046
:101420009F4F0E941B2CECEFF0E0EC0FFD1FEE0D28
:10143000FF1D1082CE018A5B9E4F0E9480188AE5B4
:1014400095E00E94E21C882309F4AEC08BEFC65CD5
:10145000DE4F8883CA53D140AE01465C5E4FB8016F
:101460008AE595E00E94051A882309F499C061E095
:101470008DE00E94CE16B801CE018C5C9E4F0E947A
:10148000BF1A6CE2CE018C5C9E4F0E94C7179C0174
:1014900040E050E0BE016C5C7E4FCE01825D9E4F0D
:1014A0000E943C18C25DDE4F88819981CE52D140A6
:1014B0000E94BC2160933C0370933D0380933E03E4
:1014C00090933F03CE01825D9E4F0E94801863E29D
:1014D000CE018C5C9E4F0E94C7178C016CE2CE013E
:1014E0008C5C9E4F0E94C717AC014F5F5F4F980105
:1014F000BE016C5C7E4FCE01825D9E4F0E943C1807
:10150000C25DDE4F88819981CE52D1400E94BC21BC
:10151000609338037093390380933A0390933B03AD
:10152000CE01825D9E4F0E94801863E2CE018C5CEA
:101530009E4F0E94C717C85CDE4F28813981C8536F
:10154000D140AC014F5F5F4FBE016C5C7E4FCE015E
:10155000825D9E4F0E943C18C25DDE4F888199815A
:10156000CE52D1400E94BC21609334037093350366
:101570008093360390933703CE01825D9E4F0E9485
:10158000801860E08DE00E94CE16CE018C5C9E4FEC
:101590000E94801880914D038F5F80934D0304C09B
:1015A00086EE92E00E941C1642E3BE0164507F4F1B
:1015B0008AE595E00E940D1D60ED77E08AE595E0F3
:1015C0008DD580915C0590915D05049721F08AE5A9
:1015D00095E00E94CF1C80913C0390913D03A09127
:1015E0003E03B0913F03C659DE4F88839983AA8397
:1015F000BB83CA56D1404090480350904903609045
:101600004A0370904B03209144033091450340916D
:1016100046035091470360913803709139038091DC
:101620003A0390913B030E946727C259DE4F6883BB
:1016300079838A839B83CE56D140A3019201C659F8
:10164000DE4F688179818A819B81CA56D1400E9490
:1016500067276B017C0125E33AEF4EE85CE30E94CB
:10166000532620E030E040E05FE30E9453260E94D2
:1016700033294B015C0125E33AEF4EE85CE3C301FB
:10168000B2010E9453260E942E28CE58DE4F688356
:1016900079838A839B83C257D14025E33AEF4EE892
:1016A0005CE3C659DE4F688179818A819B81CA5685
:1016B000D1400E9453260E942E28C659DE4F6883CF
:1016C00079838A839B83CA56D14025E33AEF4EE85B
:1016D0005CE3C259DE4F688179818A819B81CE5655
:1016E000D1400E94532620E030E040E05FE30E94BA
:1016F00053260E9433292B013C01A5019401C50109
:10170000B4010E9453264B015C01C659DE4F28816B
:1017100039814A815B81CA56D140CE58DE4F6881FB
:1017200079818A819B81C257D1400E945326A301AF
:1017300092010E945326A30192010E9453269B010D
:10174000AC01C501B4010E9468274B015C019B01FB
:10175000AC0160E070E080E89FE30E9467270E9490
:101760003D299B01AC01C501B401CA58DE4F288355
:10177000C657D140C958DE4F3883C757D140C858E3
:10178000DE4F4883C857D140C758DE4F5883C957EA
:10179000D1400E943D29CA58DE4F2881C657D1400A
:1017A000C958DE4F3881C757D140C858DE4F4881ED
:1017B000C857D140C758DE4F5881C957D1400E9401
:1017C000DB279B01AC010E94682720E038E447EC4E
:1017D00055E40E9453264B015C01C259DE4F28811B
:1017E00039814A815B81CE56D140C701B6010E9442
:1017F000DB276B017C0120E030E0A9010E94EE258F
:1018000087FF0AC02BED3FE049EC50E4C701B60169
:101810000E9468276B017C012BED3FE049EC50E40E
:10182000C701B6010E942829181654F42BED3FE099
:1018300049EC50E4C701B6010E9467276B017C01A7
:1018400020E030E044E353E4C701B6010E94532690
:101850002BED3FE049E450E40E9431282B013C018C
:101860002091400330914103409142035091430342
:101870000E9467276B017C0120E030E0A9010E94F3
:10188000EE2587FF0AC020E030E044EB53E4C701B7
:10189000B6010E9468276B017C0122E0B701A60116
:1018A000CE018C599E4F0E94781A22E0B301A2010A
:1018B000CE01825A9E4F0E94781A23E0B501A401FE
:1018C000CE01885A9E4F0E94781A4091340350915D
:1018D0003503609136037091370322E0CE018E5AB2
:1018E0009E4F0E94781A40913803509139036091BD
:1018F0003A0370913B0326E0CE01845B9E4F0E9429
:101900004A1A40913C0350913D0360913E0370910F
:101910003F0326E0CE018A5B9E4F0E944A1A409107
:10192000400350914103609142037091430322E0D0
:10193000CE01805C9E4F0E94781A409144035091E2
:101940004503609146037091470326E0CE01865C13
:101950009E4F0E944A1A409148035091490360915A
:101960004A0370914B0326E0CE01825D9E4F0E9498
:101970004A1ABE01625D7E4FCE018C5C9E4F0E9472
:10198000A61A61EE72E0CE018C5C9E4F0E94E017B9
:10199000BE01665C7E4F0E94F71763EE72E00E9404
:1019A000E017BE01605C7E4F0E94F71762EF72E0A5
:1019B0000E94E017BE016A5B7E4F0E94F71761EE3E
:1019C00072E00E94E017BE01645B7E4F0E94F71731
:1019D00063EE72E00E94E017BE016E5A7E4F0E94D5
:1019E000F71767EF72E00E94E017BE01685A7E4F5A
:1019F0000E94F7176CEF72E00E94E017BE01625A76
:101A00007E4F0E94F71761E073E00E94E017BE016D
:101A10006C597E4F0E94F717BC01CE0101960E94BF
:101A2000A61ACE018C5C9E4F0E948018CE01825D6A
:101A30009E4F0E948018CE01865C9E4F0E948018A7
:101A4000CE01805C9E4F0E948018CE018A5B9E4F23
:101A50000E948018CE01845B9E4F0E948018CE01A8
:101A60008E5A9E4F0E948018CE01885A9E4F0E9427
:101A70008018CE01825A9E4F0E948018CE018C5948
:101A80009E4F0E9480184D815E8169817A8181EB31
:101A900094E00E94861886E093E00E940B16109155
:101AA0004C0340904403509045036090460370906F
:101AB00047038091480390914903A0914A03B09154
:101AC0004B03C659DE4F88839983AA83BB83CA56CA
:101AD000D14061E08FE10E94CE16112311F061E048
:101AE00001C060E083E20E94CE1620E030E0A90150
:101AF000C659DE4F688179818A819B81CA56D1405F
:101B00000E94EE25882359F020E030E0A901C301AE
:101B1000B2010E94EE25882311F061E001C060E06F
:101B200081E20E94CE162DEC3CEC4CEC5CE3C5014E
:101B3000B4010E94EE2587FF02C061E001C060E0B1
:101B400085E20E94CE1620E030E04AE754E4C50169
:101B5000B4010E9453264B015C0120E030E048ECC8
:101B600052E40E94EE2587FF02C01BE201C01BE188
:101B700020E030E048E452E4C501B4010E94EE25C3
:101B800087FD19E140E06DE1812F0E94480240E0AD
:101B900067E2812F0E94480240E061E3812F0E94AA
:101BA000480240E06EE2812F0E94480240E06FE26E
:101BB000812F0E94480240E067E1812F0E94480285
:101BC00040E06DE2812F0E94480240E069E2812FEF
:101BD0000E94480220E030EC48EA53E4C701B60115
:101BE0000E942829181654F020E030E044EB51E41C
:101BF000C701B6010E94EE2587FF03C041E067E2FE
:101C0000A0C020E030E044EB51E4C701B6010E94DF
:101C1000282918166CF420E030E047E852E4C701A8
:101C2000B6010E94EE2587FF03C041E061E389C051
:101C300020E030E047E852E4C701B6010E942829BD
:101C400018166CF420E030E041EE52E4C701B60112
:101C50000E94EE2587FF03C041E06EE272C020E0E3
:101C600030E041EE52E4C701B6010E94282918165F
:101C70006CF420E030E84DE153E4C701B6010E9466
:101C8000EE2587FF03C041E06FE25BC020E030E853
:101C90004DE153E4C701B6010E94282918166CF4DF
:101CA00020E030E84AE453E4C701B6010E94EE2583
:101CB00087FF03C041E067E144C020E030E84AE428
:101CC00053E4C701B6010E94282918166CF420E0DD
:101CD00030E847E753E4C701B6010E94EE2587FFCD
:101CE00003C041E06DE22DC020E030E847E753E457
:101CF000C701B6010E94282918166CF420E030E4D0
:101D000042E953E4C701B6010E94EE2587FF03C0F4
:101D100041E069E216C020E030E442E953E4C70143
:101D2000B6010E94282918167CF420E030EC48EA1D
:101D300053E4C701B6010E94EE2587FF05C041E0CC
:101D40006DE1812F0E94480264E670E080E090E03F
:101D50000E943917CE0101960E948018C758DE4FA5
:101D60000FB6F894DEBF0FBECDBFDF91CF911F91AC
:101D70000F91FF90EF90DF90CF90BF90AF909F902A
:101D80008F907F906F905F904F900895089580910D
:101D9000C303882361F09FB7F8942091C303809117
:101DA000C203213019F48DBB9FBF08958FBF0895E2
:101DB000FC01208591858091C303882379F08FB73A
:101DC000F8943091C303313039F43DB33093C203FA
:101DD0003DB33DBB8FBF02C08093C2032CBD9DBDF0
:101DE00008959FB7F8948091C103882319F081501A
:101DF0008093C1038091C103811105C08CB58F7B95
:101E00008CBD1092C3039FBF08958CB58F778CBD96
:101E100008958CB580688CBD08956EBD00000DB42A
:101E200007FEFDCF8EB50895FC017383628308958C
:101E3000FC01778366830895FC01758364830895AC
:101E400008950895089508950895FC018489958959
:101E50000895FC01828993890895FC018089918904
:101E6000089580E00895FC01738362830895FC0166
:101E7000828193810895FC01868597850895FC01F0
:101E800081850895FC0180850895FC01878108956E
:101E9000FC0186810895FC01409595854923642BBA
:101EA00065870895FC0164870895FC0163870895A0
:101EB000FC0162870895FC0164830895FC01658339
:101EC000089580E00895FC0122813381233031059B
:101ED000D1F381E00895CF93DF93EC01E881F9819C
:101EE0000280F381E02DCE0119958823B9F3DF91AB
:101EF000CF91089581E008950895E091C8038091FD
:101F0000C703E81730F4F0E0EF55FC4F808190E014
:101F100008958FEF9FEF08959091C8038091C703B4
:101F2000981750F4E92FF0E0EF55FC4F208130E096
:101F30009F5F9093C80302C02FEF3FEFC901089540
:101F40008091C70390E02091C803821B91090895F6
:101F5000089580E090E00895CF93DF93FC01228103
:101F600033812230310559F0EC01678D858D16D70C
:101F700060E08C8D13D782E090E09B838A83DF91B1
:101F8000CF910895CF93DF93EC01898D9A8DDC0179
:101F9000ED91FC910680F781E02D199561E08B8D24
:101FA0002CD761E08B8DFAD664E670E080E090E09B
:101FB00060D781E0DF91CF9108950F931F93CF9366
:101FC000FC01828193818430910569F08330910511
:101FD00079F08230910589F00197A1F040E452E454
:101FE0006FE070E013C040E054E264EF70E00EC0B8
:101FF00040E052E16AE770E009C040E059E06DE37B
:1020000070E004C040E854E86EE170E0A481B5815E
:1020100086819781009741F08130910539F08230B7
:10202000910531F0039731F090E005C094E003C0D2
:1020300098E001C09CE080E000E012E12AE730E097
:10204000401751076207730740F436952795179597
:1020500007958F5F8630A1F787E021E02827119749
:1020600011F080E501C080E7322F3695932B982B35
:10207000908721702187CFB7F8948091C103811197
:1020800023C0E8E7F3E08491EEEBF3E09491E82FCE
:10209000F0E0EE0FFF1FE15FFC4FA591B491EC91D2
:1020A000E92319F461E085E379D661E085E3A5D6FB
:1020B0008CB580618CBD8CB580648CBD61E084E39F
:1020C0009CD661E083E399D68091C1038F5F8093B2
:1020D000C103CFBFCF911F910F9108958F929F920F
:1020E000AF92BF92CF92DF92EF92FF92CF93DF93A6
:1020F000EC016B01F6D64B015C01E12CF12CF1D621
:10210000DC01CB0188199909AA09BB098C159D0529
:10211000AE05BF0530F48A819B81039781F381E08E
:1021200001C080E0DF91CF91FF90EF90DF90CF90E2
:10213000BF90AF909F908F9008958F929F92AF9293
:10214000BF92CF92DF92EF92FF92CF93DF93EC0199
:102150006B01C7D64B015C01E12CF12CC2D6DC012E
:10216000CB0188199909AA09BB098C159D05AE05F3
:10217000BF0550F4E881F9810280F381E02DCE01A2
:102180001995882359F301C080E0DF91CF91FF902A
:10219000EF90DF90CF90BF90AF909F908F90089579
:1021A0008F929F92AF92BF92CF92DF92EF92FF9267
:1021B000CF93DF93FC012789308D232B11F481E02D
:1021C00035C0EC018ED66B017C0189E0882E912C04
:1021D000A12CB12CE881F9810488F589E02DCE018C
:1021E0001995882361F37DD6AB01BC014C195D09BB
:1021F0006E097F098F89988DA0E0B0E0841795075C
:10220000A607B70790F00E94B021A50194010E9493
:102210000A279B01AC012F5F3F4F4F4F5F4FA4E652
:10222000B0E00E94262725D6D5CF80E0DF91CF9160
:10223000FF90EF90DF90CF90BF90AF909F908F90E6
:102240000895CF92DF92EF92FF920F931F93CF9357
:10225000DF937C01262F972F8A018091F00388233A
:1022600091F0C62FD72F6E01C40ED51ECC15DD05FB
:1022700071F06991D701ED91FC910190F081E02D11
:10228000C7011995F3CF642F822F0E949C03C801C8
:10229000DF91CF911F910F91FF90EF90DF90CF9042
:1022A0000895CF93DF931F92CDB7DEB76983209156
:1022B000F0032223D1F020911304203240F021E0DA
:1022C00030E0FC013383228380E090E015C08091F0
:1022D000F103E82FF0E0EE50FC4F998190838F5F7F
:1022E0008093F1038093130405C061E0CE01019651
:1022F0000E949C0381E090E00F90DF91CF910895C0
:102300001F920F920FB60F9211240BB60F92CF921D
:10231000DF92EF92FF920F931F932F933F934F9370
:102320005F936F937F938F939F93AF93BF93CF935D
:10233000DF93EF93FF93C091C403D091C5038A81CB
:102340009B81049709F0C8C02B8D30E0F901E1535F
:10235000FC4F8491F901E757FC4F0491F901ED5BC3
:10236000FC4F1491112371F08111C2D4E12FF0E0E0
:10237000EE0FFF1FE751FD4FA591B491EC91E023C3
:1023800081E009F480E081709E8D892719F09BA17E
:102390009F5F9BA39AA1891771F09CA1903518F0BB
:1023A0002DE130E002C02BE030E09CA1290F311D6F
:1023B0002CA38AA303C08CA18C5E8CA38CA1803A31
:1023C00008F4DAC08EA19FA1969587959FA38EA34E
:1023D0008BA1853028F08EA19FA198609FA38EA32A
:1023E0008CA1805A8CA31BA28DA1882309F467C0FD
:1023F00088A58F5F88A78C3008F4BEC08EA19FA1EE
:10240000982F9F73892F86958695887028E0280FCE
:10241000821749F0E82FF0E0E55EFD4F3081931719
:1024200019F08F5FF5CF80E020E1829FC001112479
:102430002EA13FA196E0369527959A95E1F7422F78
:102440003695279536952795287038E0320F231753
:1024500049F0E22FF0E0E55EFD4F5081451719F09D
:102460002F5FF5CF20E0822BAE0143595F4FFA0179
:102470009081DE01A459BF4F9923A9F0FA01908100
:1024800021E0290F20839E01290F311DF90181A729
:10249000FA0190818C91981780F01DA281E088A3A9
:1024A000CE015ADD0AC08C939C91973008F45EC02F
:1024B0009C91943408F05AC0E1CF18A65DC08EA15B
:1024C0009FA188339B4009F057C081E08DA318A6D7
:1024D000C359DF4F188250C08A819B81039709F04E
:1024E0004BC08E0100591F4FF801808191E0980F79
:1024F0009083811135C07E01FEE6EF0EF11CF701DD
:102500008081EF56FF4F9081891740F0CE0124DD86
:102510008C899D8901969D8B8C8B22C0FE01E80FD2
:10252000F11DEF58FF4F608170E06E01FFE6CF0EA6
:10253000D11CF601808191E0980F908302C07595BF
:1025400067958A95E2F7617077278C8D27D4F6011D
:102550008081863028F01082F70180818F5F808330
:10256000F8018081883040F0108206C01DA2888961
:1025700099890196998B888BFF91EF91DF91CF918B
:10258000BF91AF919F918F917F916F915F914F918B
:102590003F912F911F910F91FF90EF90DF90CF907F
:1025A0000F900BBE0F900FBE0F901F901895EF92DB
:1025B000FF920F931F93CF93DF931F92CDB7DEB798
:1025C0007C01162F0FB7F894DC0159968D919C91E0
:1025D0005A97DC01ED91FC910088F189E02D498347
:1025E000199560E0F701838DD9D3D70159968D9164
:1025F0009C915A97DC01ED91FC91612F60680190EC
:10260000F081E02D1995182FF701818D928DDC0155
:10261000ED91FC910190F081E02D4981642F199595
:1026200061E0F701838DBAD3D70159968D919C91C2
:102630005A97DC01ED91FC910288F389E02D199500
:102640000FBF812F0F90DF91CF911F910F91FF90BE
:10265000EF9008950F931F93CF93DF93EC01162F04
:102660000FB7F89460E08B8D99D3898D9A8DDC013A
:10267000ED91FC91612F6F770190F081E02D19951C
:10268000898D9A8DDC01ED91FC910190F081E02D16
:1026900060E01995182F61E08B8D80D30FBF812FDB
:1026A000DF91CF911F910F910895EF92FF920F93B9
:1026B0001F93CF93DF9300D0CDB7DEB78C0162DCE0
:1026C000F82E811102C0F12CA0C0D8015D969C911A
:1026D000923059F0933061F08EEE890F843098F784
:1026E00067E170E0691B710905C060E070E002C03D
:1026F00061E070E0E62ED80159968D919C915A9731
:10270000DC01ED91FC910488F589E02D199540E8F4
:1027100061E0C8014CDF6AE070E080E090E0A9D39E
:1027200061E0C80197DF803871F660E0F801858DBF
:1027300064D3D8015E968C915E978F3F59F4809157
:10274000C603843008F0BFCF91E0980F9093C60382
:102750005E968C93F801968DE92FF0E0EE0FFF1F47
:10276000E45CF84F11830083911103C06DEB7EE1AF
:102770000AC0913019F465EB7EE105C0923009F092
:10278000A2CF6DEA7EE18E2D63D240E06EE0C801FB
:102790000EDF40E06FE0C8010ADFC8010E94F91CAB
:1027A00043E050E063E073E0CE0101960E94E52132
:1027B00049816DE1C801FBDE4A816EE1C801F7DEA7
:1027C0004B8166E2C801F3DE40E060E2C801EFDE63
:1027D00048E061E2C801EBDE44EE66E0C801E7DEF6
:1027E00040EC67E0C801E3DE40E068E0C801DFDEFE
:1027F000F801E05EFE4F81E0808344E06DE4C801B3
:10280000D6DE48E869E0C801D2DE8F2D0F900F9028
:102810000F90DF91CF911F910F91FF90EF9008954E
:10282000CF93DF93EC018A859B85AC85BD858E8334
:102830009F83A887B98755D36A837B838C839D83C5
:1028400081E089838883DF91CF9108952F923F9211
:102850004F925F926F927F928F929F92AF92BF92B0
:10286000CF92DF92EF92FF920F931F93CF93DF935C
:10287000D82FC92F8B010E94BF2124E630E040E011
:1028800050E00E94362749015A019B01AC0160E8E3
:1028900076E988E990E00E94A4296B017C01F801A7
:1028A00091828082ED2FFC2F2191822F022E000C2D
:1028B000990BC0970A97C0F32E3239F51F0180E8B3
:1028C000882E86E9982E88E9A82EB12C9AE0492E08
:1028D000512C612C712CF101C1911F010C2E000CA7
:1028E000DD0BE097CA30D10580F4C501B401A30126
:1028F00092010E94362749015A01DE010E943027C9
:10290000C60ED71EE81EF91EE6CFA5E0B0E0A7016F
:1029100096010E9426276F5F7F4F8F4F9F4F23E0C6
:1029200030E040E050E00E943627F80122833383F4
:10293000448355831682DF91CF911F910F91FF90B1
:10294000EF90DF90CF90BF90AF909F908F907F904F
:102950006F905F904F903F902F900895FF920F934C
:102960001F93CF93DF93EC01FF24F39488818D3282
:1029700011F0F12C01C02196CE010E94BF219B01D4
:10298000AC01A4E6B0E00E942627FE014991242F65
:10299000042E000C330B205331092A303105A8F3E3
:1029A0004E3241F52181022E000C330B20533109A8
:1029B0002A303105F8F44AE0429F8001439F100D10
:1029C0001124012E000C220B330B600F711F821F8C
:1029D000931F0281002E000C110B005311090A30C5
:1029E000110540F4012E000C220B330B600F711FF8
:1029F000821F931FFF2039F0909580957095619507
:102A00007F4F8F4F9F4FDF91CF911F910F91FF907D
:102A100008953FB7F89480912E0790912F07A091C9
:102A20003007B091310726B5A89B05C02F3F19F09C
:102A30000196A11DB11D3FBFBA2FA92F982F88273E
:102A4000820F911DA11DB11DBC01CD0142E0660F99
:102A5000771F881F991F4A95D1F708950E94F32B7D
:102A60000F931F93CF93DF93EC0188819981009797
:102A700029F02A813B812617370788F48B016F5F85
:102A80007F4F0E940F2B009761F0998388831B83EF
:102A90000A832C813D81232B11F4FC01108281E0FB
:102AA00001C080E0DF91CF911F910F910895EF92C7
:102AB000FF920F931F93CF93DF93FC012481358105
:102AC0006115710511F480E018C041155105A1F0A0
:102AD0007B01EC018A01020F131FB801C1DF8823BB
:102AE00091F3288139818C819D81B701820F931FD9
:102AF0000E94142C1D830C8381E0DF91CF911F91E4
:102B00000F91FF90EF900895CF93DF93EC018881B0
:102B10009981009711F00E94772A198218821D82EC
:102B20001C821B821A82DF91CF910895382F209149
:102B3000130490911204213208F049C08091EF03F0
:102B40008111FCCF42E04093EF033093EE033FEF5F
:102B50003093ED031092EC032093EB03A2EFB3E06C
:102B60004BEC53E0FA013E2F341B321718F43D9121
:102B70003193F9CF1092CA032091CA03990F922B77
:102B80009093CA039091C903913061F41092C903E4
:102B90009091CA039093BB009091BC0093FDF8CF35
:102BA00095EC01C095EE9093BC009091EF039230AC
:102BB000E1F39091ED039F3F79F08091ED03803236
:102BC00041F08091ED03803331F084E005C081E075
:102BD00003C082E001C083E01092F103109213045D
:102BE0001092F0030895CF93C62F9091100221E028
:102BF0002093F003909312041092F10310921304A7
:102C0000682F8EE495E04DDB6C2F8EE495E049DB78
:102C100081E0CF918BCF009761F0FC010190002003
:102C2000E9F73197AF01481B590BBC0181EB94E0E8
:102C30006DC280E090E00895CF93DF93ECDFEC016C
:102C400086E093E0E8DF8C0F9D1FDF91CF91089520
:102C5000883008F04CC0A82FB0E0AA0FBB1FA050CE
:102C6000BE4F11967C936E9390E0FC013197E73054
:102C7000F10510F58827E556FF4F8F4F0C94C629B4
:102C800080916900836080936900E89A089580913B
:102C900069008C6080936900E99A089580916900C9
:102CA000806380936900EA9A089580916900806C3E
:102CB00080936900EB9A089580916A008360809305
:102CC0006A00EC9A089580916A008C6080936A0093
:102CD000ED9A089580916A00806380936A00EE9A6D
:102CE000089580916A00806C80936A00EF9A08953D
:102CF00090E0FC013197E231F10508F04EC08827E1
:102D0000EE55FF4F8F4F0C94C629809180008F772E
:102D100003C0809180008F7D809380000895809112
:102D20008000877FF9CF84B58F7702C084B58F7D0F
:102D300084BD08958091B0008F7703C08091B0006A
:102D40008F7D8093B0000895809190008F7707C0A9
:102D5000809190008F7D03C080919000877F809349
:102D6000900008958091A0008F7707C08091A00007
:102D70008F7D03C08091A000877F8093A00008957D
:102D8000809120018F7707C0809120018F7D03C043
:102D900080912001877F8093200108951F93CF9316
:102DA000DF93282F30E0F901E153FC4F8491F901C2
:102DB000E757FC4FD491F901ED5BFC4FC491CC2354
:102DC000C1F0162F811194DFEC2FF0E0EE0FFF1F02
:102DD000E75DFC4FA591B4918FB7F894111105C030
:102DE0009C91ED2FE095E92302C0EC91ED2BEC9343
:102DF0008FBFDF91CF911F910895CF93DF9390E024
:102E0000FC01E757FC4F2491FC01ED5BFC4F8491E2
:102E1000882361F190E0880F991FFC01E15FFC4F6E
:102E2000C591D491FC01E75DFC4FA591B49161116E
:102E300009C09FB7F8948881209582238883EC91FC
:102E40002E230BC0623061F49FB7F8943881822F33
:102E5000809583238883EC912E2B2C939FBF06C0F3
:102E60008FB7F894E8812E2B28838FBFDF91CF9105
:102E700008958F929F92AF92BF92CF92DF92EF927E
:102E8000FF926B017C01C5DD4B015C01C114D104D3
:102E9000E104F104E9F0BDDDDC01CB0188199909F9
:102EA000AA09BB09883E9340A105B10578F321E04A
:102EB000C21AD108E108F10888EE880E83E0981E56
:102EC000A11CB11CC114D104E104F10421F7DECF2F
:102ED000FF90EF90DF90CF90BF90AF909F908F903A
:102EE00008952FB7F89460912A0770912B0780916D
:102EF0002C0790912D072FBF08951F920F920FB6A8
:102F00000F9211242F933F938F939F93AF93BF936F
:102F100080912A0790912B07A0912C07B0912D0743
:102F20003091290723E0230F2D3720F40196A11DAE
:102F3000B11D05C026E8230F0296A11DB11D2093E7
:102F4000290780932A0790932B07A0932C07B0930F
:102F50002D0780912E0790912F07A0913007B091F7
:102F600031070196A11DB11D80932E0790932F0765
:102F7000A0933007B0933107BF91AF919F918F918C
:102F80003F912F910F900FBE0F901F901895CF93E8
:102F9000DF93FC0124813581232B69F0C081D1812D
:102FA000062E000C770BCE010E94002C009719F022
:102FB0008C1B9D0B02C08FEF9FEFDF91CF91089587
:102FC000CF93DF93EC016115710559F0FB0101907E
:102FD0000020E9F73197AF01461B570B68DD8111DF
:102FE00002C0CE0191DDCE01DF91CF910895CF9344
:102FF000DF93EC01FB01448155816081718157DDD4
:10300000811102C0CE0180DDCE01DF91CF91089504
:10301000EF92FF920F931F93CF93DF93EC017B010D
:103020008A01BA011DDD811103C0CE016DDD07C02B
:103030001D830C83B701888199810E94142CCE01D5
:10304000DF91CF911F910F91FF90EF900895CF9353
:10305000DF93EC016115710551F0FB010190002037
:10306000E9F73197AF01461B570BD2DF01C04CDDAA
:10307000CE01DF91CF910895BF92CF92DF92EF9270
:10308000FF920F931F93CF93DF937C016B018A0113
:10309000E9012417350720F4812F8901C42FD82F87
:1030A00068E073E0C7016BD2D60114968D919C91B4
:1030B000159708171907C8F48C179D0708F4EC0139
:1030C000D601ED91FC911197EC0FFD1FB08010829D
:1030D0004D915C91BA01600F711FC701B8DFD60135
:1030E000ED91FC91EC0FFD1FB082C701DF91CF91F4
:1030F0001F910F91FF90EF90DF90CF90BF900895B8
:10310000FC01808191810C94772A0895CF92DF92FF
:10311000EF92FF920F931F93CF93DF936C017A018D
:103120008B01C0E0D0E0CE15DF0589F0D8016D91AC
:103130008D01D601ED91FC910190F081E02DC60149
:103140001995892B11F47E0102C02196ECCFC7019D
:10315000DF91CF911F910F91FF90EF90DF90CF9073
:103160000895FC01A089B1898C91A689B78982FD57
:103170000FC09C91818D8F5F8F73228D821749F0D4
:10318000218DDF01A20FB11D5D969C93818F089563
:103190008C910895FC01538D448D252F30E0842FB0
:1031A00090E0821B930B541710F0CF96089501976F
:1031B0000895FC01918D828D981761F0828DDF0159
:1031C000A80FB11D5D968C91928D9F5F9F73928F1A
:1031D00090E008958FEF9FEF0895FC01918D828D0F
:1031E000981731F0828DE80FF11D858D90E00895DC
:1031F0008FEF9FEF0895FC01918D228D892F90E034
:10320000805C9F4F821B91098F739927089584E1F9
:1032100094E0F1DF21E0892B09F420E0822F08956A
:1032200081EB94E0E8DF21E0892B09F420E0822F94
:103230000895FC01848DDF01A80FB11DA35ABF4F73
:103240002C91848D90E001968F739927848FA689A5
:10325000B7892C93A089B1898C9180648C93938DCC
:10326000848D981306C00288F389E02D80818F7DBC
:1032700080830895EF92FF920F931F93CF93DF9374
:10328000EC0181E0888F9B8D8C8D981305C0E889B7
:10329000F989808185FD23C0F62E0B8D10E00F5F2C
:1032A0001F4F0F731127E02E8C8DE8120BC00FB645
:1032B00007FCFACFE889F989808185FFF5CFCE0137
:1032C000B8DFF2CF8B8DFE01E80FF11DE35AFF4FFF
:1032D000F0820B8FEA89FB898081806207C0EE89CA
:1032E000FF896083E889F98980818064808381E037
:1032F00090E0DF91CF911F910F91FF90EF90089593
:10330000CF93DF93EC01888D8823C1F0EA89FB8994
:10331000808185FD05C0A889B9898C9186FD0EC084
:103320000FB607FCF5CF808185FFF2CFA889B98958
:103330008C9185FFEDCFCE017CDFE8CFDF91CF917F
:10334000089580E090E0892B19F06ADF811120C098
:1033500080E090E0892B19F05ADF81111CC080E0D9
:1033600090E0892B41F080E090E0892B21F00E94D1
:103370000000811113C080E090E0892BA1F080E073
:1033800090E0892B81F00E94000081110AC008950D
:103390000E940000DDCF0E940000E1CF0E940000EB
:1033A000EACF0C94000008958BEF0895CF93DF933C
:1033B000EC018A819B81059761F047E061E0CE01D5
:1033C000F6D840E860E4CE01F2D885E090E09B8337
:1033D0008A838A819B810597E1F38E89DF91CF9162
:1033E0000895CF93DF93FC01228133812130310591
:1033F00041F0EC0140E061E0DAD881E090E09B83AD
:103400008A8381E0DF91CF910895CF92DF92EF928E
:10341000FF920F931F93CF93DF93EC017B018A01FF
:10342000E881F9810280F381E02D1995D82E882357
:1034300039F1E114F104E1F001151105C9F0CFB63D
:10344000F8942F8D30E023503109F801808190E00D
:10345000821793071CF09F8D94509083F801408150
:1034600050E0BE016C5D7F4FC7010E94F72BCFBEBD
:103470008FB7F894FE01E15EFE4F10821F8E8FBF62
:103480008D2DDF91CF911F910F91FF90EF90DF90E5
:10349000CF900895EF92FF920F931F93CF93DF93F6
:1034A000CDB7DEB7A1970FB6F894DEBF0FBECDBF84
:1034B0007C01CB01BA01F7011182108213821282C2
:1034C0001582148242E0420F8E010F5F1F4FE0D63B
:1034D000BC01C701BCDDA1960FB6F894DEBF0FBEDC
:1034E000CDBFDF91CF911F910F91FF90EF90089585
:1034F000EF92FF920F931F93CF93DF93CDB7DEB779
:10350000A1970FB6F894DEBF0FBECDBF7C01CB01F3
:10351000BA01F7011182108213821282158214827D
:1035200042E0420F8E010F5F1F4FB2D6BC01C701B0
:103530008EDDA1960FB6F894DEBF0FBECDBFDF9132
:10354000CF911F910F91FF90EF900895FB01DC0147
:1035500011961C921E9213961C921E92129715960B
:103560001C921E9214978617970741F06081718113
:103570006115710519F0448155814ACD0895FC010A
:1035800011821082138212821582148261157105D4
:1035900049F0FB0101900020E9F73197AF01461B8C
:1035A000570B36CD08951F920F920FB60F9211242C
:1035B0000BB60F922F933F934F935F936F937F932D
:1035C0008F939F93AF93BF93EF93FF93E0910E027E
:1035D000F0910F021995FF91EF91BF91AF919F91DB
:1035E0008F917F916F915F914F913F912F910F90AC
:1035F0000BBE0F900FBE0F901F9018951F920F9249
:103600000FB60F9211240BB60F922F933F934F9347
:103610005F936F937F938F939F93AF93BF93EF933A
:10362000FF93E0910C02F0910D021995FF91EF913B
:10363000BF91AF919F918F917F916F915F914F91CA
:103640003F912F910F900BBE0F900FBE0F901F90C8
:1036500018951F920F920FB60F9211240BB60F926E
:103660002F933F934F935F936F937F938F939F938A
:10367000AF93BF93EF93FF93E0910202F0910302A7
:103680001995FF91EF91BF91AF919F918F917F918C
:103690006F915F914F913F912F910F900BBE0F90C3
:1036A0000FBE0F901F9018951F920F920FB60F929A
:1036B00011240BB60F922F933F934F935F936F9309
:1036C0007F938F939F93AF93BF93EF93FF93E0917B
:1036D0000002F09101021995FF91EF91BF91AF9116
:1036E0009F918F917F916F915F914F913F912F911A
:1036F0000F900BBE0F900FBE0F901F9018951F924A
:103700000F920FB60F9211240BB60F922F933F9387
:103710004F935F936F937F938F939F93AF93BF93D9
:10372000EF93FF93E0910A02F0910B021995FF913C
:10373000EF91BF91AF919F918F917F916F915F9129
:103740004F913F912F910F900BBE0F900FBE0F9096
:103750001F9018951F920F920FB60F9211240BB65F
:103760000F922F933F934F935F936F937F938F931A
:103770009F93AF93BF93EF93FF93E0910802F09173
:1037800009021995FF91EF91BF91AF919F918F9190
:103790007F916F915F914F913F912F910F900BBE51
:1037A0000F900FBE0F901F9018951F920F920FB69B
:1037B0000F9211240BB60F922F933F934F935F9369
:1037C0006F937F938F939F93AF93BF93EF93FF93E9
:1037D000E0910602F09107021995FF91EF91BF91D8
:1037E000AF919F918F917F916F915F914F913F9199
:1037F0002F910F900BBE0F900FBE0F901F9018953A
:103800001F920F920FB60F9211240BB60F922F93A7
:103810003F934F935F936F937F938F939F93AF9358
:10382000BF93EF93FF93E0910402F0910502199585
:10383000FF91EF91BF91AF919F918F917F916F9188
:103840005F914F913F912F910F900BBE0F900FBE44
:103850000F901F9018951F920F920FB60F92112480
:103860000BB60F922F933F934F935F936F937F937A
:103870008F939F93AF93BF93EF93FF9384E194E073
:10388000D8DCFF91EF91BF91AF919F918F917F9184
:103890006F915F914F913F912F910F900BBE0F90C1
:1038A0000FBE0F901F9018951F920F920FB60F9298
:1038B00011240BB60F922F933F934F935F936F9307
:1038C0007F938F939F93AF93BF93EF93FF9384E185
:1038D00094E047DCFF91EF91BF91AF919F918F9161
:1038E0007F916F915F914F913F912F910F900BBE00
:1038F0000F900FBE0F901F9018951F920F920FB64A
:103900000F9211240BB60F922F933F934F935F9317
:103910006F937F938F939F93AF93BF93EF93FF9397
:1039200081EB94E086DCFF91EF91BF91AF919F9185
:103930008F917F916F915F914F913F912F910F9058
:103940000BBE0F900FBE0F901F9018951F920F92F5
:103950000FB60F9211240BB60F922F933F934F93F4
:103960005F936F937F938F939F93AF93BF93EF93E7
:10397000FF9381EB94E0F5DBFF91EF91BF91AF9165
:103980009F918F917F916F915F914F913F912F9177
:103990000F900BBE0F900FBE0F901F901895CF93F6
:1039A000DF93EC0145E061E00E94D71240E060E463
:1039B000CE010E94D71284E090E09B838A83DF913E
:1039C000CF910895CF93DF93FC012281338123307F
:1039D000310559F0EC0182819381049711F0CF01F8
:1039E000DEDFC15EDE4F888101C080E0DF91CF91D4
:1039F0000895CF93DF93FC0122813381223031057A
:103A000049F0EC0141E061E00E94D71282E090E0D1
:103A10009B838A83DF91CF910895BF92CF92DF92EB
:103A2000EF92FF920F931F93CF93DF934C3F10F0D1
:103A3000C12C7EC0142F072FD62EEC01E881F9810E
:103A40000484F585E02D1995CE01D3DFE881F98155
:103A50000288F389E02DCE011995C82E882341F301
:103A600040E06DE0CE010E94D7124A8560E0CE01B1
:103A70000E94D7124B8560E0CE010E94D7124C8580
:103A800060E0CE010E94D7124D8560E0CE010E9419
:103A9000D712BFB6F894898D9A8DDC01ED91FC9117
:103AA0000088F189E02D199560E08B8D77D9898D9B
:103AB0009A8DDC01ED91FC910190F081E02D60E8A0
:103AC0001995ED2CF02E012F015068F0898D9A8DFB
:103AD000F70161917F01DC01ED91FC910190F08192
:103AE000E02D1995F1CF61E08B8D58D9898D9A8D94
:103AF000DC01ED91FC910288F389E02D1995BFBEA0
:103B000044E0410F62E2CE010E94D7128A819B817C
:103B1000039771F043E061E0CE010E94D71240E4C8
:103B200060E4CE010E94D71283E090E09B838A83F9
:103B30008C2DDF91CF911F910F91FF90EF90DF902F
:103B4000CF90BF900895DF92EF92FF920F931F9353
:103B5000CF93DF93EC0162E10E942A13182F6CE1EE
:103B6000CE010E942A132A813B812430310579F449
:103B7000829586958695837091E0892780FBEE2457
:103B8000E0F8F12C812F807AE82AEF2839F48A8135
:103B90009B810497C9F416FD24C016C088899989B1
:103BA0000196998B888B4FEF62E1CE010E94D7126C
:103BB0004FEF62E1CE01DF91CF911F910F91FF9006
:103BC000EF90DF900C94D7128A819B81039709F0C4
:103BD000B8C013FFB6C08C899D8901969D8B8C8BD4
:103BE000B9C063E1CE010E942A13F82E60E1CE0134
:103BF0000E942A13482F6DE0CE010E94D712DFB633
:103C0000F894898D9A8DDC01ED91FC910088F18901
:103C1000E02D199560E08B8DC1D8898D9A8DDC01DE
:103C2000ED91FC910190F081E02D60E019958E01FD
:103C3000005E1F4FEF2CE00EE01671F0898D9A8D1B
:103C4000DC01ED91FC910190F081E02D60E019958F
:103C5000F80181938F01F0CF61E08B8D9FD8898D22
:103C60009A8DDC01ED91FC910288F389E02D199584
:103C7000DFBEFF8E4FEF62E1CE010E94D71269E1F5
:103C8000CE010E942A138E010F5D1E4F87FD8D5FAE
:103C900085958595F80180836AE1CE010E942A13FB
:103CA00090E09F878E87D8012C918E859F8527FF76
:103CB00007C0820F911D27FD9A959F878E870BC0A5
:103CC00024E0880F991F2A95E1F76FE070E00E94C9
:103CD000B3297F876E87FE01E05EFE4F80818823D7
:103CE00029F08E859F858D59910904C08E859F8509
:103CF000845A91099F878E878F8DFE01E15EFE4F6A
:103D0000843090F088A18E8389A18F838AA18887CF
:103D10008BA189878D8181110CC09E818C81981720
:103D200041F08E818F3F29F08081882309F43BCFB9
:103D300011C08A899B8901969B8B8A8B81E0808345
:103D4000F3CF8A819B81059709F02DCF12FF2BCFEE
:103D500011701E8BCE014DDE26CF809140079091D1
:103D60004107009709F0EFCE089580913E079091AA
:103D70003F07009709F0E7CE089580913C079091A6
:103D80003D07009709F0DFCE0895E4E1F4E01382E7
:103D9000128248EE53E060E070E04483558366830E
:103DA000778381E392E0918380832DEC30E0358747
:103DB00024872CEC30E03787268728EC30E0318BE5
:103DC000208B29EC30E0338B228B2AEC30E0358BD2
:103DD000248B2EEC30E0378B268B118E128E138EB7
:103DE000148EE1EBF4E013821282448355836683E0
:103DF00077839183808385EC90E09587848784EC3A
:103E000090E09787868780EC90E0918B808B81ECA7
:103E100090E0938B828B82EC90E0958B848B86EC88
:103E200090E0978B868B118E128E138E148EA2E3E8
:103E3000B7E013961C921E92129715961C921E9232
:103E4000149717961C921E92169783E492E011968F
:103E50009C938E9380E518968C93189719961C92D4
:103E60001997EEE4F5E0138212824483558366834A
:103E700077838DE592E091838083ECE7F6E0108212
:103E80001182138212821482158216821782108682
:103E90001286118613861486158616861786118A51
:103EA000108A128A138A148A158A168A108E178A23
:103EB000118E128E138E148E158E12A213A214A2BE
:103EC00015A216A217A210AA11AA12AA13AA14AA1E
:103ED00015AA1092BA061092BB061092C006109254
:103EE000C1061092C2061092C3061092C806109224
:103EF000C9061092CE061092CF061092D0061092EC
:103F0000D1061092D6061092D7061092DC061092B7
:103F1000DD061092DE061092DF061092E406109283
:103F2000E5061092EA061092EB061092EC0610924B
:103F3000ED061092F2061092F3061092F806109217
:103F4000F9061092FA061092FB06109200071092E2
:103F5000010792E090931107109212071092130735
:103F60001092140710921607109215071092180756
:103F7000109217071092190710921A0710921B0738
:103F800010921C0710921D0710921E0710921F0717
:103F900010922007109221071092220710922307F7
:103FA00010922407109225071092260710922707D7
:103FB0001092280710920207EAE5F5E013821282B8
:103FC0008FEF84838287838714861586118A108AEF
:103FD000138A128A158A148A108E178AB28FA18FBB
:103FE0002AE0238F2FE632E0318320831092790676
:103FF000958F868F0895789484B5826084BD84B54A
:10400000816084BD85B5826085BD85B5816085BDD3
:1040100080916E00816080936E001092810080918B
:104020008100826080938100809181008160809313
:104030008100809180008160809380008091B10038
:1040400084608093B1008091B00081608093B00063
:1040500080919100826080939100809191008160B5
:104060008093910080919000816080939000809176
:10407000A10082608093A1008091A1008160809363
:10408000A1008091A00081608093A0008091210117
:1040900082608093210180912101816080932101C0
:1040A0008091200181608093200180917A0084605A
:1040B00080937A0080917A00826080937A00809168
:1040C0007A00816080937A0080917A008068809382
:1040D0007A001092C10061E08DE00E94FD16E0912F
:1040E000C104F091C20422E02083E091BD04F0916C
:1040F000BE041082E091BF04F091C00480E180838F
:104100001092C904E091C504F091C60496E0908332
:10411000E091C304F091C404808180618083E091C8
:10412000C304F091C404808188608083E091C3045B
:10413000F091C404808180688083E091C304F09191
:10414000C40480818F7D8083E0912404F091250454
:104150002083E0912004F09121041082E091220458
:10416000F09123048FEC808310922C04E0912804BA
:10417000F09129049083E0912604F0912704808136
:1041800080618083E0912604F0912704808188601B
:104190008083E0912604F0912704808180688083E9
:1041A000E0912604F091270480818F7D8083109216
:1041B000C8031092C7031092F103109213040E94D7
:1041C000C4038AE595E00E945513811103C089E07C
:1041D00093E002C085E193E00E941C161092C80390
:1041E0001092C7031092F103109213040E94C403AB
:1041F00061E08BE00E94F3156DE189E00E94F31508
:1042000061E08DE00E94FD1661E08DE10E94FD16E7
:1042100061E087E20E94FD1661E081E30E94FD16E5
:1042200061E08EE20E94FD1661E08FE20E94FD16C1
:1042300061E087E10E94FD1661E08DE20E94FD16BB
:1042400061E089E20E94FD1661E08BE10E94FD16AB
:1042500061E08BE20E94FD1661E089E10E94FD169B
:1042600061E085E20E94FD1661E08FE10E94FD168B
:1042700061E081E20E94FD1661E083E20E94FD168A
:104280008BE293E00E940B160E94E2035AD8FCCF07
:10429000EF920F931F93CF93DF93E80147FD02C086
:1042A00034E001C034E1E42F440FFF0BF7FF03C0FB
:1042B000F195E195F109E32E022F2E2FAE01A3D047
:1042C000CE01DF91CF911F910F91EF9008958F92C2
:1042D0009F92AF92BF92CF92DF92EF92FF92CF93D5
:1042E000DF93EC01688179818A819B816115710579
:1042F0008105910521F464E279ED8BE597E02DE1EC
:1043000033EF41E050E086D549015A019B01AC01F1
:10431000A7EAB1E49BD56B017C01ACEEB4EFA5013B
:104320009401A0D5DC01CB018C0D9D1DAE1DBF1DE0
:10433000B7FF03C00197A109B04888839983AA8376
:10434000BB83BC01CD019F77DF91CF91FF90EF90B0
:10435000DF90CF90BF90AF909F908F900895B7CF90
:1043600081E192E0B4CF60931102709312028093C6
:10437000130290931402089566277727D1C11F93E3
:10438000FC0199278827BC01E89411911032E9F3C8
:10439000193010F01E30C8F31B3249F01D3241F4C1
:1043A000689405C01BD0610F711D811D911D119175
:1043B00010531A30B8F33EF490958095709561953E
:1043C0007F4F8F4F9F4F1F910895FB01DC0102C06B
:1043D00005900D9241505040D8F70895592F482F1D
:1043E000372F262F660F771F881F991F660F771F9D
:1043F000881F991F620F731F841F951F660F771FF9
:10440000881F991F08954F925F926F927F929F929B
:10441000AF92BF92CF92DF92EF92FF920F931F93D2
:10442000CF93DF93CDB7DEB729970FB6F894DEBFF1
:104430000FBECDBF6A01122FB02E2BE3201720F044
:10444000FF24F394F00E02C0BCE3FB2E0F2D27E0F7
:10445000AE014F5F5F4FCAD2AC018981982F99702E
:10446000913031F0E1FC06C0E0FE06C090E205C0EC
:104470009DE203C09BE201C090E0EE2DE07183FF5E
:104480003CC0911102C083E001C084E0811718F4A0
:10449000212F281B01C020E0E1110BC0F601822F63
:1044A00030E2882319F031938150FBCFC20ED11C2A
:1044B00020E0992329F0D6019C93F60131966F01F3
:1044C000C6010396E2FE0AC03EE4D6013C9341E4F5
:1044D00011964C93119712963C9306C03EE6F60156
:1044E000308341E641833283FC01322F40E23323A3
:1044F00009F442C041933150FACF82FF44C0911178
:1045000002C083E001C084E0811718F4212F281B2A
:1045100001C020E0E1110BC0F601822F30E28823B8
:1045200019F031938150FBCFC20ED11C20E09923AA
:1045300029F0D6019C93F60131966F01C6010396CE
:10454000E2FE0BC039E4D6013C933EE411963C9365
:10455000119736E412963C9307C039E6F601308392
:104560003EE6318336E63283FC01322F40E23323CC
:1045700019F041933150FBCFFC01E20FF11D108285
:104580008EEF9FEFB7C0F1E0911101C0F0E06F2F07
:1045900070E01416150624F49A012F5F3F4F02C0F5
:1045A00021E030E0260F371FBB2029F06B2D70E093
:1045B0006F5F7F4F02C060E070E0260F371F612FF2
:1045C00070E0261737071CF4121B212F01C020E0D2
:1045D0003E2D387159F4D601322F60E2332319F0A1
:1045E0006D933150FBCFC20ED11C20E0FF2331F080
:1045F000D6019C93B6016F5F7F4F6B01E1110BC039
:10460000F601922F30E3992319F031939150FBCFAB
:10461000C20ED11C20E09F2D940F3A81782F70712B
:10462000A72E84FF03C0313309F49150191624F4E6
:10463000993018F098E001C091E0E42F852F57FFE2
:1046400002C0E0E080E06E2F782FE0E0F0E0AEE224
:104650009A2E3A01691A71082A01461A570A0B2D37
:1046600010E01195019511096F3F8FEF780729F43C
:10467000D6019C92C60101966C014617570784F03B
:10468000661677066CF47F01E40CF51CA1E0B0E03F
:10469000AC0FBD1FEA0EFB1ED7011196BC9002C0E5
:1046A00090E3B92E615071093196C60101967C01E3
:1046B0006017710724F0D601BC926C01D5CF641746
:1046C000750741F4363320F4353321F4A11002C0CC
:1046D00081E3B82EF601B082F701822F90E28823A1
:1046E00019F091938150FBCFF701E20FF11D108279
:1046F00080E090E029960FB6F894DEBF0FBECDBFE4
:10470000DF91CF911F910F91FF90EF90DF90CF90AD
:10471000BF90AF909F907F906F905F904F90089563
:104720006F927F928F929F92AF92BF92CF92DF92C1
:10473000EF92FF920F931F93CF93DF93EC017B01D6
:104740006115710519F0DB018D939C938E010F5F4C
:104750001F4F7880872D90E021D2892B11F0E8013E
:10476000F5CFBDE27B1205C00F5F1F4F7980C1E01E
:1047700008C0EBE27E1204C08E010E5F1F4F7980ED
:10478000C0E06801F1E0CF1AD10843E050E06CEBE3
:1047900071E0C6010BD2892BE9F4680122E0C20E58
:1047A000D11C45E050E067EB71E0C601FFD1892BD9
:1047B00021F4680187E0C80ED11CE114F10419F05E
:1047C000D701CD92DC92C111F9C060E070E080E8C1
:1047D0009FE7FDC043E050E064EB71E0C601E6D125
:1047E000892B51F4E114F10409F4EDC00E5F1F4F61
:1047F000F70111830083E7C0680160E070E0CB013E
:1048000000E010E0F601D0EDD70DDA3050F52C2F96
:104810002260622E2C2F2870C2FF05C0211127C0F4
:104820000F5F1F4F24C0222311F001501109A5E092
:10483000B0E09B01AC010AD34B015C01880C991CD0
:10484000AA1CBB1CC501B4016D0F711D811D911DFA
:104850006839A9E97A078A07A9E19A0740F0C66092
:1048600005C0DE3F51F4C3FD44C0C8606C2EBFEFED
:10487000CB1ADB0A7080C62DC5CF2D2F2F7D253199
:10488000C1F540814D3211F4C06106C04B3221F0B8
:10489000319621E030E006C03296D60111964C9157
:1048A00022E030E0A0EDA40FAA3018F0E21BF30BD9
:1048B00020C040E050E04038BCE05B075CF49A0167
:1048C000220F331F220F331F420F531F440F551F58
:1048D0004A0F511D3196DF0111972C91A0EDA20FC7
:1048E000AA3048F3C4FF03C0519541955109040F04
:1048F000151FC1FF07C0E114F10421F03197D70162
:10490000ED93FC936FD1C370C33019F06B017C0140
:1049100006C06B017C01F7FAF094F7F8F09420E000
:1049200030E0A901C701B60159D1882309F443C079
:1049300017FF06C0119501951109C3EDD1E002C022
:10494000CBEED1E05E01B8E1AB1AB1084601BE2D55
:10495000AF2D90E2E92EF12C0E151F057CF0FE0123
:104960002591359145915491B4018B2F9A2F9BD16C
:104970004B01B82FA92F0E191F09EECF2497F594DC
:10498000E794CA15DB0541F76401EB2EFA2E8E2D54
:10499000880F8F2D881F8F3F41F020E030E0A90164
:1049A000C701B6011BD1811106C082E290E090934D
:1049B000430780934207C701B60109C060E070E079
:1049C00080E89FEF04C060E070E080EC9FE7DF913B
:1049D000CF911F910F91FF90EF90DF90CF90BF90FC
:1049E000AF909F908F907F906F900895283008F03F
:1049F00027E03327DA01990F311D87FD916000967A
:104A00006105710539F432602E5F3D9330E32A95DC
:104A1000E1F708959F3F30F080387105610509F096
:104A20003C5F3C5F3D93913008F08068911DDF93BF
:104A3000CF931F930F93FF92EF92192F987F969524
:104A4000E92F96959695E90FFF27E75BFD4F99278C
:104A50003327EE24FF24A701E7010590089407946B
:104A600028F4360FE71EF81E491F511D660F771FE9
:104A7000881F991F0694A1F70590079428F4E70E64
:104A8000F81E491F561FC11D770F881F991F661FEB
:104A90000694A1F70590079428F4F80E491F561FB5
:104AA000C71FD11D880F991F661F771F0694A1F796
:104AB0000590079420F4490F561FC71FD81F990F60
:104AC000661F771F881F0694A9F7849110951770A9
:104AD00041F0D695C79557954795F794E7941A9561
:104AE000C1F7EFEEF1E0689415901591359165915D
:104AF000959105907FE27395E118F10A430B560BEF
:104B0000C90BD009C0F7E10CF11E431F561FC91F86
:104B1000D01D7EF4703311F48A95E6CFE8940150ED
:104B200030F0080F0AF40027021708F4202F23950D
:104B3000022F7A3328F079E37D932A95E9F710C0A4
:104B40007D932A9589F606949795679537951795DD
:104B50001794E118F10A430B560BC90BD00998F0D2
:104B600023957E9173957A3308F070E37C9320133C
:104B7000B8F77E9170617D9330F0839571E37D93FA
:104B800070E32A95E1F71124EF90FF900F911F91A8
:104B9000CF91DF91992787FD909508959111E6C0F7
:104BA000803219F089508550D0F70895FB01DC015F
:104BB0004150504088F08D9181341CF08B350CF4BD
:104BC000805E659161341CF06B350CF4605E861B71
:104BD000611171F3990B0895881BFCCF40D008F444
:104BE00081E00895E89409C097FB3EF49095809584
:104BF000709561957F4F8F4F9F4F9923A9F0F92FA3
:104C000096E9BB279395F695879577956795B79520
:104C1000F111F8CFFAF4BB0F11F460FF1BC06F5F06
:104C20007F4F8F4F9F4F16C0882311F096E911C018
:104C3000772321F09EE8872F762F05C0662371F039
:104C400096E8862F70E060E02AF09A95660F771F4D
:104C5000881FDAF7880F9695879597F90895990F29
:104C60000008550FAA0BE0E8FEEF16161706E80736
:104C7000F907C0F012161306E407F50798F0621B57
:104C8000730B840B950B39F40A2661F0232B242B2C
:104C9000252B21F408950A2609F4A140A6958FEF4B
:104CA000811D811D08950BD07BC06CD028F071D080
:104CB00018F0952309F05DC062C01124A5C081D011
:104CC000A0F3959FD1F3950F50E0551F629FF0011F
:104CD000729FBB27F00DB11D639FAA27F00DB11D78
:104CE000AA1F649F6627B00DA11D661F829F222701
:104CF000B00DA11D621F739FB00DA11D621F839F88
:104D0000A00D611D221F749F3327A00D611D231F5D
:104D1000849F600D211D822F762F6A2F11249F57AB
:104D200050408AF0E1F088234AF0EE0FFF1FBB1FCE
:104D3000661F771F881F91505040A9F79E3F51056D
:104D400070F017C061C05F3FECF3983EDCF38695CE
:104D500077956795B795F795E7959F5FC1F7FE2B18
:104D6000880F911D9695879597F90895992788271B
:104D7000089597F99F6780E870E060E008959FEFDD
:104D800080EC089500240A941616170618060906E2
:104D9000089500240A9412161306140605060895B1
:104DA000092E0394000C11F4882352F0BB0F40F439
:104DB000BF2B11F460FF04C06F5F7F4F8F4F9F4F79
:104DC000089557FD9058440F551F59F05F3F71F0FB
:104DD0004795880F97FB991F61F09F3F79F0879562
:104DE0000895121613061406551FF2CF4695F1DFEB
:104DF00008C0161617061806991FF1CF869571057B
:104E0000610508940895E894BB2766277727CB01AE
:104E100097F90895052E97FB16F400940FD057FDCF
:104E200005D024D007FC02D046F408C05095409528
:104E3000309521953F4F4F4F5F4F08959095809546
:104E4000709561957F4F8F4F9F4F089531D0A59FEB
:104E5000900DB49F900DA49F800D911D1124089575
:104E6000B7FFF4CFF3DF821B930B0895A1E21A2E54
:104E7000AA1BBB1BFD010DC0AA1FBB1FEE1FFF1FFE
:104E8000A217B307E407F50720F0A21BB30BE40B4E
:104E9000F50B661F771F881F991F1A9469F7609595
:104EA0007095809590959B01AC01BD01CF0108954F
:104EB000A29FB001B39FC001A39F700D811D11245B
:104EC000911DB29F700D811D1124911D08955058A0
:104ED000BB27AA270ED064CF55DF30F05ADF20F071
:104EE00031F49F3F11F41EF44ACF0EF4E095E7FB36
:104EF00040CFE92F66DF80F3BA1762077307840794
:104F0000950718F071F49EF57ECF0EF4E0950B2E08
:104F1000BA2FA02D0B01B90190010C01CA01A0010B
:104F20001124FF27591B99F0593F50F4503E68F166
:104F30001A16F040A22F232F342F4427585FF3CFA7
:104F4000469537952795A795F0405395C9F77EF478
:104F50001F16BA0B620B730B840BBAF09150A1F0C1
:104F6000FF0FBB1F661F771F881FC2F70EC0BA0F47
:104F7000621F731F841F48F4879577956795B795CF
:104F8000F7959E3F08F0B3CF9395880F08F09927C7
:104F9000EE0F979587950895F5DE58F080E891E03B
:104FA00009F49EEFF6DE28F040E851E059F45EEF98
:104FB00009C0E5CE28CFE92FE07803DF68F3092E9A
:104FC000052AC1F3261737074807590738F00E2E70
:104FD00007F8E02569F0E025E0640AC0EF6307F810
:104FE000009407FADB01B9019D01DC01CA01AD01A2
:104FF000EF9346D0D5DE0AD05F91552331F02BEDEB
:105000003FE049E450FD49EC63CF0895DF93DD278D
:10501000B92FBF7740E85FE31616170648075B070E
:1050200010F4D92F19D19F938F937F936F9363D1EE
:10503000E8E6F1E0AFD0B4DE2F913F914F915F9160
:105040003EDEDD2349F09058A2EA2AED3FE049EC2C
:105050005FE3D0785D274DDFDF91A2CEC1D0E3952D
:10506000E6C00CD09DCE95DE40F08CDE30F021F411
:105070005F3F19F07ECE5111C7CE81CEA2DE98F3EC
:105080009923C9F35523B1F3951B550BBB27AA27C9
:1050900062177307840738F09F5F5F4F220F331F3B
:1050A000441FAA1FA9F333D00E2E3AF0E0E830D007
:1050B00091505040E695001CCAF729D0FE2F27D00A
:1050C000660F771F881FBB1F261737074807AB07D8
:1050D000B0E809F0BB0B802DBF01FF2793585F4F4D
:1050E0002AF09E3F510568F044CE8ECE5F3FECF330
:1050F000983EDCF3869577956795B795F7959F5F12
:10510000C9F7880F911D9695879597F90895E1E065
:10511000660F771F881FBB1F621773078407BA07C4
:1051200020F0621B730B840BBA0BEE1F88F7E0951F
:10513000089504D06894B11167CE08954ADE88F0CE
:105140009F5790F0B92F9927B751A0F0D1F0660F73
:10515000771F881F991F1AF0BA95C9F712C0B1308E
:1051600081F051DEB1E008954ECE672F782F882769
:10517000B85F39F0B93FCCF3869577956795B395CD
:10518000D9F73EF490958095709561957F4F8F4F3C
:105190009F4F0895DF93CF931F930F93FF92EF924A
:1051A000DF927B018C01689405C0DA2EEF0187DD68
:1051B000FE01E894A5912591359145915591AEF365
:1051C000EF0197DEFE019701A801DA9479F7DF90ED
:1051D000EF90FF900F911F91CF91DF910895CFCD68
:1051E000F8DDE8F3E894E0E0BB279F57F0F02AED04
:1051F0003FE049EC06C0EE0FBB0F661F771F881F0C
:1052000028F0B23A62077307840728F0B25A620B9B
:10521000730B840BE3959A9572F7803830F49A9566
:10522000BB0F661F771F881FD2F7904869C0EF93A6
:10523000E0FF06C0A2EA2AED3FE049EC5FEB59DE51
:10524000AFDD0F90039401FC9058E5E9F1E06BC0ED
:1052500006DD08F48FEF08959B01AC0160E070E07B
:1052600080E89FE3FECE9F93BBDF0F9007FCEE5FCD
:10527000DECF11F40EF483CD41C0ABDDD0F3992322
:10528000D9F3CEF39F57550B87FF46D00024A0E6F5
:1052900040EA900180585695979528F4805C660FF7
:1052A000771F881F20F026173707480730F4621B46
:1052B000730B840B202931294A2BA6951794079448
:1052C000202531254A2758F7660F771F881F20F0C1
:1052D00026173707480730F4620B730B840B200D39
:1052E000311D411DA09581F7B901842F9158880F78
:1052F0009695879508959B01AC01D5CC9F3F31F0E1
:10530000915020F4879577956795B795880F911DF3
:105310009695879597F9089591505040660F771F9D
:10532000881FD2F708959F938F937F936F93FF9376
:10533000EF939B01AC01B7DCEF91FF912BDF2F9135
:105340003F914F915F91AFCCDB018F939F937EDDB7
:10535000BF91AF91A29F800D911DA39F900DB29F11
:10536000900D1124089597FB072E16F4009406D093
:1053700077FD08D013D007FC05D03EF490958195B9
:105380009F4F0895709561957F4F0895EE0FFF1F11
:10539000881F8BBF0790F691E02D1994AA1BBB1BA9
:1053A00051E107C0AA1FBB1FA617B70710F0A61B25
:1053B000B70B881F991F5A95A9F780959095BC0146
:1053C000CD010895CF93DF938230910510F482E0F0
:1053D00090E0E0914607F091470720E030E0C0E020
:1053E000D0E0309711F14081518148175907C0F042
:1053F0004817590761F482819381209719F09B83A4
:105400008A832BC0909347078093460726C02115B7
:10541000310519F04217530718F49A01BE01DF0154
:10542000EF010280F381E02DDCCF2115310509F178
:10543000281B390B2430310590F412968D919C91E4
:1054400013976115710521F0FB019383828304C0DA
:105450009093470780934607FD01329644C0FD01B3
:10546000E20FF31F81939193225031092D933C93C6
:105470003AC02091440730914507232B41F42091F5
:10548000170230911802309345072093440720916A
:105490001502309116022115310541F42DB73EB7A2
:1054A0004091190250911A02241B350BE0914407D8
:1054B000F0914507E217F307A0F42E1B3F0B2817C6
:1054C000390778F0AC014E5F5F4F2417350748F07D
:1054D0004E0F5F1F5093450740934407819391936C
:1054E00002C0E0E0F0E0CF01DF91CF9108950F938B
:1054F0001F93CF93DF93009709F48CC0FC01329780
:105500001382128200914607109147070115110579
:1055100081F420813181820F931F209144073091C3
:1055200045072817390779F5F0934507E0934407B5
:1055300071C0D80140E050E0AE17BF0750F412969A
:105540002D913C911397AD012115310509F1D90138
:10555000F3CF9D01DA013383228360817181860F4D
:10556000971F8217930769F4EC0128813981260F70
:10557000371F2E5F3F4F318320838A819B81938326
:105580008283452B29F4F0934707E093460742C0F6
:105590001396FC93EE931297ED01499159919E0158
:1055A000240F351FE217F30771F480819181840F76
:1055B000951F029611969C938E93828193811396E8
:1055C0009C938E931297E0E0F0E0D80112968D91B3
:1055D0009C911397009719F0F8018C01F6CF8D91EB
:1055E0009C9198012E5F3F4F820F931F209144079B
:1055F000309145072817390769F4309729F410923C
:1056000047071092460702C0138212821093450783
:1056100000934407DF91CF911F910F9108956F92EE
:105620007F928F929F92AF92BF92CF92DF92EF9232
:10563000FF920F931F93CF93DF93EC01009781F4B8
:10564000CB01DF91CF911F910F91FF90EF90DF90F1
:10565000CF90BF90AF909F908F907F906F90B2CE81
:10566000FC01E60FF71F9C0122503109E217F307F6
:1056700008F4A8C0D9010D911C91119706171707BE
:10568000A8F00530110508F49BC0C80104978617DF
:10569000970708F495C002501109061B170B0193D8
:1056A00011936D937C93CF0122DF8AC05B01A01A16
:1056B000B10A4C01800E911EA0914607B091470798
:1056C00040E050E0E12CF12C109709F44AC0A815F5
:1056D000B905D1F56D907C901197630182E0C80EF9
:1056E000D11CCA14DB0480F1A3014A195B096A01C9
:1056F00082E0C80ED11C1296BC9012971396AC9102
:10570000B5E0CB16D10440F0B282A383518340832D
:10571000D9016D937C930AC00E5F1F4FC301800FA8
:10572000911FF90191838083EB2DFA2FE114F1048D
:1057300031F0D7011396FC93EE93129741C0F0938A
:105740004707E09346073CC08D919C9111974817FD
:10575000590708F4AC017D0112960D90BC91A02D63
:10576000B3CF809144079091450788159905E1F4DE
:1057700046175707C8F480911502909116020097BA
:1057800041F48DB79EB74091190250911A02841BC3
:10579000950BE817F907B0F4F0934507E093440739
:1057A000F901718360830CC0CB010CDE7C01009792
:1057B00049F0A801BE011BD0CE0199DEC70104C08B
:1057C000CE0102C080E090E0DF91CF911F910F9158
:1057D000FF90EF90DF90CF90BF90AF909F908F9011
:1057E0007F906F90089581E090E0F894FCC2FB01F7
:1057F000DC0102C001900D9241505040D8F708954D
:10580000FC018191861721F08823D9F79927089503
:105810003197CF010895FB01DC018D910190801932
:105820000110D9F3990B0895FB01DC0101900D9251
:105830000020E1F70895FB01DC014150504048F0A1
:1058400001900D920020C9F701C01D9241505040B7
:10585000E0F708950F931F93CF93DF93CDB7DEB793
:105860002E970FB6F894DEBF0FBECDBF0E891F89ED
:1058700086E08C831A8309838FEF9FE79E838D8355
:10588000AE01465E5F4F688D798DCE01019611D0D5
:105890002F813885F801E20FF31F10822E960FB684
:1058A000F894DEBF0FBECDBFDF91CF911F910F9156
:1058B00008952F923F924F925F926F927F928F92B4
:1058C0009F92AF92BF92CF92DF92EF92FF920F938F
:1058D0001F93CF93DF93CDB7DEB72C970FB6F89415
:1058E000DEBF0FBECDBF7C016B018A01FC011782B8
:1058F0001682838181FFB0C1CE0101964C01F70170
:105900009381F60193FD859193FF81916F01882327
:1059100009F49EC1853239F493FD859193FF8191FD
:105920006F01853221F4B70190E0C7D1E8CF512C47
:10593000312C20E02032A0F48B3269F030F4803238
:1059400059F0833269F420612CC08D3239F08033F4
:1059500039F4216026C02260246023C0286021C061
:1059600027FD27C030ED380F3A3078F426FF06C007
:10597000FAE05F9E300D1124532E13C08AE0389E4A
:10598000300D1124332E20620CC08E3221F426FDFE
:105990005FC1206406C08C3611F4206802C08836CE
:1059A00041F4F60193FD859193FF81916F0181117F
:1059B000C1CF982F9F7D9554933028F40C5F1F4FD3
:1059C000FFE3F9830DC0833631F0833771F08335FF
:1059D00009F057C021C0F801808189830E5F1F4FF5
:1059E00044244394512C540114C03801F2E06F0E4A
:1059F000711CF801A080B18026FF03C0652D70E006
:105A000002C06FEF7FEFC5012C874CD12C018301C1
:105A10002C852F77222E16C03801F2E06F0E711CF4
:105A2000F801A080B18026FF03C0652D70E002C0A0
:105A30006FEF7FEFC5012C872AD12C012C852068C0
:105A4000222E830123FC19C0832D90E048165906AD
:105A5000A0F4B70180E290E030D13A94F5CFF5019F
:105A600027FC859127FE81915F01B70190E025D148
:105A700031103A94F1E04F1A51084114510479F76A
:105A8000DEC0843611F0893631F5F80127FF07C0F2
:105A900060817181828193810C5F1F4F08C060819A
:105AA0007181072E000C880B990B0E5F1F4F2F760C
:105AB000722E97FF09C090958095709561957F4FE4
:105AC0008F4F9F4F2068722E2AE030E0A4012DD125
:105AD000A82EA81843C0853729F42F7EB22E2AE0BD
