:10000000FCC100000C94A4150C9479150C944E15A9
:100010000C9423150C94F8140C94CD140C94A21485
:100020000C9477141BC2000019C2000017C2000014
:1000300015C2000013C2000011C200000FC2000070
:100040000DC200000C94641909C2000007C2000030
:1000500005C2000003C2000001C200000C94960E0D
:10006000FDC100000C944A160C942116F7C1000043
:10007000F5C10000F3C10000F1C10000EFC10000B4
:10008000EDC10000EBC10000E9C10000E7C10000C4
:100090000C94F8150C94CF15E1C10000FDC10000CF
:1000A000DDC10000DBC10000D9C10000D7C10000E4
:1000B000D5C10000D3C10000D1C10000CFC10000F4
:1000C000CDC10000CBC10000C9C10000C7C1000004
:1000D000C5C10000C3C10000C1C10000BFC1000014
:1000E000BDC10000FD050F061206190620064E06CA
:1000F000550662066F067B067B067B067B067B0643
:100100007B067B067B067B067B067B067B067B06E7
:100110007B067B067B067B067B067B067B067B06D7
:100120007B067B06FD050A060F0612061906200649
:100130002706340641067C0D590D600D670D6E0DC6
:10014000830D8A0DAC0DAF0D9E0DA20DA80DE60D11
:10015000B30DB70DBD0DC10DC50DCB0DCF0DD30D1D
:10016000E60DD90DDD0DE10D084AD73B3BCE016E02
:1001700084BCBFFDC12F3D6C74319ABD56833DDAFE
:100180003D00C77F11BED9E4BB4C3E916BAAAABE0D
:10019000000000803F004E414E494E495459494E9F
:1001A00046CDCCCC3D0AD7233C17B7D13877CC2BE2
:1001B000329595E6241FB14F0A000020410000C887
:1001C0004200401C4620BCBE4CCA1B0E5AAEC59D08
:1001D0007400407A10F35A00A0724E18090010A55E
:1001E000D4E80000E87648170000E40B5402000051
:1001F000CA9A3B000000E1F50500008096980000D7
:100200000040420F000000A08601000000102700FF
:10021000000000E803000000006400000000000A85
:1002200000000000000100000000002C76D888DCEF
:10023000674F0823DFC1DFAE59E1B1B796E5E3E4CC
:1002400053C63AE651997696E8E6C28426EB898C45
:100250009B62ED407C6FFCEFBC9C9F40F2BAA56FA7
:10026000A5F490055A2AF75C936B6CF9676DC11B76
:10027000FCE0E40D47FEF520E6B500D0ED902E033E
:1002800000943577050080841E080000204E0A0087
:100290000000C80C333333330F986E12831141EFD3
:1002A0008D2114893BE65516CFFEE6DB18D1844B31
:1002B000381BF77C1D901DA4BBE424203284725EA1
:1002C000228100C9F124ECA1E53D27000021002492
:1002D0000027002A002D0030003300010100000437
:1002E0000107010A0100002200250028002B002E32
:1002F000003100340002010000050108010B010576
:10030000050505070508080808020202020A0A088E
:1003100008040404040101010101010101030303B4
:100320000303030303040707070C0C0C0C0C0C0C51
:100330000C0202020206060606060606060B0B0B58
:100340000B0B0B0B0B010210202008081020401093
:100350002040800201020108040201010204081089
:1003600020408080402010080402018004020180A7
:1003700040201008040201080402010102040810D0
:10038000204080010204081020408000000A0B0277
:10039000090C0D0E08070304010000000000000016
:1003A000000000000000000000000000000000004D
:1003B000000000000000001211100000000000000A
:1003C000000000000000000000000000000000002D
:1003D0000072740492740448940478C40C000020E1
:1003E000002300260029002C002F0032000001000D
:1003F0000003010601090100371C11241FBECFEFC5
:10040000D1E2DEBFCDBF00E00CBF13E0A0E0B2E060
:10041000ECE7F7E500E00BBF02C007900D92A033B8
:10042000B107D9F727E0A0E3B3E001C01D92A633DE
:10043000B207E1F711E0CDEFD1E000E006C021976F
:100440000109802FFE010E948F26CC3FD10780E05A
:100450000807A9F70E946D1D0C94BC2BD1CD85ED2A
:100460008093BC008091BC0084FDFCCF1092B70348
:100470000895CF93DF93962F811103C0642F892FA6
:1004800007C0C42FD62F642F0E94E70D6C2F8D2F2D
:10049000DF91CF910C94E70D1F920F920FB60F9240
:1004A00011240BB60F922F933F934F935F936F934B
:1004B0007F938F939F93AF93BF93EF93FF9380911D
:1004C000B900887F803609F49CC068F5883209F449
:1004D0005BC090F4803109F454C038F4882309F4E7
:1004E000F6C0883009F44DC0F5C0883109F44CC01D
:1004F000803209F45DC0EEC0803409F468C048F46D
:10050000803309F455C0883309F0E4C08093B50303
:10051000D8C0803509F44FC0883509F45DC08834EF
:1005200009F0D8C0D6C0883909F4C7C0A8F4883704
:1005300009F467C038F4883609F463C0803709F4D9
:1005400060C0C8C0883809F4B8C0803909F45FC0F9
:10055000803809F0BFC05BC0803B09F486C038F426
:10056000803A09F466C0883A09F47FC0B3C0803C81
:1005700009F4A7C0883C09F4A4C0883B09F48AC0E8
:10058000A9C08091920310C09091B4038091B303ED
:10059000981770F5E091B40381E08E0F8093B40357
:1005A000F0E0ED56FC4F80818093BB0085EC86C067
:1005B0008093B5038EC0E091B40381E08E0F8093E9
:1005C000B4038091BB00F0E0ED56FC4F8083909126
:1005D000B4038091B3036EC0E091B40381E08E0F49
:1005E0008093B4038091BB00F0E0ED56FC4F808314
:1005F0008091B60381116DC081E08093910384EAFC
:1006000061C083E08093B70310928E03CFCF8091B7
:100610008E03803208F051C0E0918E0381E08E0F8E
:1006200080938E038091BB00F0E0E259FC4F808301
:10063000BDCF85EC8093BC001092B70380918E03F0
:10064000803230F4E0918E03F0E0E259FC4F1082EA
:1006500060918E0370E0E0916C03F0916D038EE683
:1006600093E0199510928E0335C084E08093B70310
:1006700010926B0310926A03E0916803F091690392
:10068000199580916A03811105C081E080936A0306
:1006900010924803E0916B0381E08E0F80936B030F
:1006A000F0E0E85BFC4F80818093BB0090916B038E
:1006B00080916A03981708F479CF85E88093BC008D
:1006C00009C085EC8093BC001092B70303C0109260
:1006D000B503C5DEFF91EF91BF91AF919F918F91CF
:1006E0007F916F915F914F913F912F910F900BBE32
:1006F0000F900FBE0F901F90189540916A03262F00
:1007000030E0240F311D21323105DCF42091B70394
:100710002430C9F4FC0180E090E0861758F4309151
:100720006A032191DC01A85BBC4FA30FB11D2C9380
:100730000196F3CF80916A03680F60936A0380E0AB
:10074000089581E0089582E008951092B70381E052
:100750008093B6031092910361E084E10E94E70D5B
:1007600061E085E10E94E70DE9EBF0E080818E7F9A
:10077000808380818D7F808388E48093B80085E4C6
:100780008093BC0008954F925F926F927F928F92F8
:100790009F92AF92BF92CF92DF92EF92FF920F9310
:1007A0001F93CF93DF93CDB7DEB7C756D1400FB6B7
:1007B000F894DEBF0FBECDBF63E073E0CE01805C76
:1007C0009E4F0E9463140E948A0E2B013C0192E00E
:1007D000C92E01E027E0D22E8CED93E00E94141088
:1007E000892B09F4EEC28CED93E00E94F20F182FD2
:1007F0008091E1069091E206A091E306B091E406B3
:100800000196A11DB11D8093E1069093E206A0938D
:10081000E306B093E406143209F4B2C2E091DB06B9
:10082000153234F41A3071F01D3009F0B6C20AC026
:100830001A3241F01C3209F0B0C28091C8068127FB
:100840008093C806EF3008F08DC2F0E0E653F94F10
:1008500010828091C906882309F46BC12091CA06D1
:100860003FEB320F822F022E000C990B363010F422
:10087000C79707C02156263018F48755910901C043
:10088000C097282F2295207F3091CB064FEB430F46
:10089000832F032E000C990B463010F4C79707C026
:1008A0003156363018F48755910901C0C097820F30
:1008B0009091C806891329C18091ED069091EE06AA
:1008C000A091EF06B091F0060196A11DB11D809395
:1008D000ED069093EE06A093EF06B093F00680919C
:1008E000DC06882399F08091E5069091E606A091B8
:1008F000E706B091E8060196A11DB11D8093E506BB
:100900009093E606A093E706B093E806F090D90628
:10091000FF2009F46BC021E0F212D0C080916C0678
:1009200090916D06A0916E06B0916F068093680657
:1009300090936906A0936A06B0936B060E948A0E94
:10094000609370067093710680937206909373069D
:10095000F0926706F092660680917A0690917B0687
:10096000A0917C06B0917D068093760690937706E1
:10097000A0937806B09379060E948A0E60937E0653
:1009800070937F068093800690938106F09275069F
:10099000F09274068091DC06882309F48FC0E4E5A8
:1009A000F6E0A6E4B6E08D2D01900D928A95E1F770
:1009B000EBE5F6E0ADE4B6E08D2D01900D928A9561
:1009C000E1F70E948A0E609362067093630680933B
:1009D000640690936506F0924506F092440682E81C
:1009E00096E00E943F1B80E996E066C080917A06FF
:1009F00090917B06A0917C06B0917D06809376064F
:100A000090937706A0937806B09379060E948A0E99
:100A100060937E0670937F06809380069093810694
:100A200000937506009374068091DC06882321F1FB
:100A3000E4E5F6E0A6E4B6E08D2D01900D928A95EE
:100A4000E1F7EBE5F6E0ADE4B6E08D2D01900D9217
:100A50008A95E1F70E948A0E60936206709363069E
:100A600080936406909365060093450600934406C0
:100A70008EE996E00E943F1B8091B6069091B706E2
:100A8000A091B806B091B9068093B2069093B306D0
:100A9000A093B406B093B5060E948A0E6093AE068A
:100AA0007093AF068093B0069093B1060093AD06A5
:100AB0000093AC068AEB96E00E943F1BE090DF06B5
:100AC000F090E006E114F10409F44CC1E091DF0676
:100AD000F091E00666A177A1F70186A197A10E9497
:100AE000D428892B09F03EC1B701C70140960E9466
:100AF000DD280E948A0EF70160A371A382A393A34D
:100B000005A304A3E2A4F3A4DDCF8091E9069091AC
:100B1000EA06A091EB06B091EC060196A11DB11D6D
:100B20008093E9069093EA06A093EB06B093EC0657
:100B300019C18091DA06811146C067EA72E08AEC39
:100B400096E00E94D428892B41F06DEA72E08AEC8D
:100B500096E00E94D428892B19F40093D90615C079
:100B600063EB72E08AEC96E00E94D428892B41F076
:100B700069EB72E08AEC96E00E94D428892B19F484
:100B80001092D90602C0C092D9068091DD069091DC
:100B9000DE069093E0068093DF06E090DF06F0909B
:100BA000E006E114F10409F4DDC0F701A6A0B7A046
:100BB0006AEC76E0C5010E94D42897FFC7C0F70110
:100BC00082A593A5E6CFE091D906E23009F493C05F
:100BD0009091CA06992309F48EC020E2E29FF001A9
:100BE0001124E82B3197E932F10508F084C08827F9
:100BF000EE58FF4F8F4F0C948F268AEC96E00E94A0
:100C0000DD1B60937A0670937B0680937C0690933D
:100C10007D0671C081E0913409F043C043C064E5B2
:100C200076E009C081E0933509F080E080935A06B0
:100C300062C06BE576E08AEC96E00E94561B5BC0D2
:100C400081E0973509F080E08093610654C08AEC1A
:100C500096E00E94DD1B60938C0670938D06809356
:100C60008E0690938F0647C08AEC96E00E94DD1BAB
:100C700060939A0670939B0680939C0690939D06C2
:100C80003AC08AEC96E00E94321F60936C06709323
:100C90006D0680936E0690936F062DC081E09133B0
:100CA0000CF480E08093DC0626C08AEC96E00E947B
:100CB000321F6093B6067093B7068093B806909380
:100CC000B90619C08AEC96E00E94DD1B6093C40649
:100CD0007093C5068093C6069093C7060CC08AEC35
:100CE00096E00E94DD1B6093A8067093A90680938E
:100CF000AA069093AB06E090DF06F090E006E114C0
:100D0000F10481F1E091DF06F091E00666A177A1A0
:100D1000F70186A197A10E94D428892B19F5F70124
:100D200020A531A58091DA0690E082179307D4F0D0
:100D30002817390739F440E150E06AEC76E0C70142
:100D40000E94E428F701E2A4F3A4D9CF6AEC76E08C
:100D5000C5010E94D4281816190624F41092E00642
:100D60001092DF068091DA068F5F8093DA06109288
:100D7000DB0681E01A3209F080E08093C9062CCDB1
:100D80001092DB061092DA061092C806C092D906BD
:100D90001092C9061092DC061FCDEE3040F481E0BF
:100DA0008E0F8093DB06F0E0E653F94F10838091BD
:100DB000C906811111CD8091C80618271093C80665
:100DC0000BCDA8D7DC01CB0184199509A609B70979
:100DD0000A97A105B10508F4FFCC10924506609171
:100DE00046067091470680E090E00E9465236B0103
:100DF0007C01609148067091490680914A06909165
:100E00004B060E94652328E23BE64EE65EE40E9424
:100E1000A1259B01AC01C701B6010E94DB242091F2
:100E20004C066B017C01222321F0F7FAF094F7F8CD
:100E3000F09460914D0670914E0680E090E00E9423
:100E400065234B015C0160914F06709150068091C3
:100E50005106909152060E94652328E23BE64EE639
:100E60005EE40E94A1259B01AC01C501B4010E9472
:100E7000DB24209153064B015C01222321F0B7FAB9
:100E8000B094B7F8B0948091100291E09093B803B9
:100E90008093DA031092B9031092DB0360E086E1DD
:100EA00095E00E94351981E069D5809110029091FA
:100EB000B7039111FCCF91E09093B7039093B603E1
:100EC0002FEF2093B5031092B40325E02093B303D2
:100ED0009093920390919203880F892B80939203B1
:100EE00080919103813061F410929103809192037B
:100EF0008093BB008091BC0083FDF8CF85EC01C0DE
:100F000085EE8093BC008091B7038130E1F380913E
:100F1000B403863018F48091B40301C086E0A3E9DD
:100F2000B3E02BE037E0F9019E2F921B981718F4DD
:100F30009D919193F9CF1092900380938F0386E156
:100F400095E00E9461178C0186E195E00E9461178F
:100F500020E030E0382F3901602A712A86E195E0DF
:100F60000E9461178C0186E195E00E94611720E0E4
:100F700030E0382F022B132B86E195E00E94611799
:100F800086E195E00E946117B301770C880B990BFD
:100F90000E9467239B01AC01B801110F880B990BCC
:100FA000CC59DE4F2883C456D140CB59DE4F38830D
:100FB000C556D140CA59DE4F4883C656D140C9599B
:100FC000DE4F5883C756D1400E946723CC59DE4F6D
:100FD0002881C456D140CB59DE4F3881C556D14007
:100FE000CA59DE4F4881C656D140C959DE4F588193
:100FF000C756D1400E944E2520E030E044E353E440
:101000000E94C6232BED3FE049E450E40E94A12555
:101010003B018C0120E030E0A9010E94612387FFA1
:101020000DC020E030E044EB53E4B301C8010E945E
:10103000DB24662EA72FF82FE92F03C0A72DF02F52
:10104000E12F25E33AEF4EE85CE3662D7A2F8F2FF0
:101050009E2F0E94C62328ED39EE47E95EE30E94E9
:10106000DB242B013C0120E030E0A9010E94612338
:1010700087FF0AC02BED3FE049EC50E4C301B20109
:101080000E94DB242B013C012BED3FE049EC50E4B6
:10109000C301B2010E945F26181654F42BED3FE005
:1010A00049EC50E4C301B2010E94DA242B013C0157
:1010B00020E030E044E353E4C301B2010E94C623C0
:1010C0002BED3FE049E450E40E94A1252B013C01B7
:1010D000C0924403D0924503E0924603F092470346
:1010E0008092400390924103A0924203B092430346
:1010F00060933C0370933D0380933E0390933F03C2
:10110000C701B6010E940926C85ADE4F6883798359
:101110008A839B83C855D140C501B4010E9409262A
:10112000C45ADE4F688379838A839B83CC55D14030
:10113000C301B2010E940926C05ADE4F6883798339
:101140008A839B83C056D140C05ADE4F28813981A3
:10115000C056D140B901330F880B990B0E94672309
:101160009B01AC01C301B2010E94DA2420E030E00F
:101170004AE754E40E94C6230E940E269F938F9351
:101180007F936F93CF59DE4F3881C156D1403F9343
:10119000C05ADE4F8881C056D1408F93C45ADE4F6B
:1011A000E881F981CC55D140BF01FF0F880B990B25
:1011B0000E9467239B01AC01C501B4010E94DA249F
:1011C00020E034E244E759E40E94C6230E940E2640
:1011D0009F938F937F936F93C35ADE4FF881CD55C2
:1011E000D140FF93C45ADE4F2881CC55D1402F9374
:1011F000C85ADE4FE881F981C855D140BF01FF0FC1
:10120000880B990B0E9467239B01AC01C701B601B3
:101210000E94DA2420E034E244E759E40E94C62325
:101220000E940E269F938F937F936F93C75ADE4F32
:10123000F881C955D140FF93C85ADE4F2881C8555F
:10124000D1402F938FEB92E09F938F938E010F5F8E
:101250001F4F1F930F930E94F328B801CE01805CAB
:101260009E4F0ED622E0B301A201CE01865C9E4FB6
:101270000E941B1426E0B501A401CE018C5C9E4F98
:101280000E94EC1326E0B701A601CE0184509F4FC7
:101290000E94EC13BE0164507F4FCE01825D9E4FD1
:1012A0000E944A1461EE72E0CE01825D9E4FA1D58C
:1012B000BE016C5C7E4FB4D563EE72E09AD5BE0180
:1012C000665C7E4FADD5BC01CE018A5B9E4F0E940D
:1012D0004A14CE01825D9E4F2CD6CE0184509F4F82
:1012E00028D6CE018C5C9E4F24D6CE01865C9E4FC4
:1012F00020D6CE01805C9E4F1CD6C65BDE4FE880B8
:10130000F980CA54D1400FB6F894DEBF0FBECDBFEE
:10131000E114F10431F4C450DF4F1882CC5FD040A7
:101320001AC091E3E916F10418F081E3E82EF12CDC
:10133000CA5BDE4F68817981C654D140A701CE01D6
:1013400084509F4F0E94E428ECEFF0E0EC0FFD1F6B
:10135000EE0DFF1D1082CE018A5B9E4FEAD582E220
:1013600095E00E948416882309F49EC086EE92E0E0
:10137000F4D28BEFC65CDE4F8883CA53D140AE01F6
:10138000465C5E4FB80182E295E00E94CB11882353
:1013900009F487C061E08DE01AD4B801CE018C5CFD
:1013A0009E4F0E9463146CE2CE018C5C9E4F08D568
:1013B0009C0140E050E0BE016C5C7E4FCE01825D3E
:1013C0009E4F73D5C25DDE4F88819981CE52D14048
:1013D0000E942F1F609338037093390380933A0360
:1013E00090933B03CE01825D9E4FA3D563E2CE0175
:1013F0008C5C9E4FE5D47C016CE2CE018C5C9E4FF0
:10140000DFD4AC014F5F5F4F9701BE016C5C7E4F34
:10141000CE01825D9E4F49D5C25DDE4F88819981A4
:10142000CE52D1400E942F1F609334037093350336
:101430008093360390933703CE01825D9E4F79D51A
:1014400063E2CE018C5C9E4FBBD4C85CDE4F28812A
:101450003981C853D140AC014F5F5F4FBE016C5C16
:101460007E4FCE01825D9E4F20D5C25DDE4F8881CA
:101470009981CE52D1400E942F1F60933003709308
:1014800031038093320390933303CE01825D9E4FEC
:1014900050D560E08DE09BD3CE018C5C9E4F49D54A
:1014A00003C080EF92E0E1D2C0903003D0903103CE
:1014B000E0903203F090330340E06DE18BE10E9455
:1014C000390240E067E28BE10E94390240E061E3CB
:1014D0008BE10E94390240E06EE28BE10E9439020A
:1014E00040E06FE28BE10E94390240E067E18BE16E
:1014F0000E94390240E06DE28BE10E94390240E037
:1015000069E28BE10E94390220E030EC48EA53E4C2
:10151000C701B6010E945F26181654F020E030E0A3
:1015200044EB51E4C701B6010E94612387FF03C069
:1015300041E067E2A0C020E030E044EB51E4C701A5
:10154000B6010E945F2618166CF420E030E047E8F0
:1015500052E4C701B6010E94612387FF03C041E046
:1015600061E389C020E030E047E852E4C701B601FA
:101570000E945F2618166CF420E030E041EE52E441
:10158000C701B6010E94612387FF03C041E06EE2FC
:1015900072C020E030E041EE52E4C701B6010E9483
:1015A0005F2618166CF420E030E84DE153E4C701E3
:1015B000B6010E94612387FF03C041E06FE25BC078
:1015C00020E030E84DE153E4C701B6010E945F26F8
:1015D00018166CF420E030E84AE453E4C701B60181
:1015E0000E94612387FF03C041E067E144C020E01F
:1015F00030E84AE453E4C701B6010E945F2618169A
:101600006CF420E030E847E753E4C701B6010E94DC
:10161000612387FF03C041E06DE22DC020E030E888
:1016200047E753E4C701B6010E945F2618166CF421
:1016300020E030E442E953E4C701B6010E9461238F
:1016400087FF03C041E069E216C020E030E442E9D0
:1016500053E4C701B6010E945F2618167CF420E00F
:1016600030EC48EA53E4C701B6010E94612387FFCA
:1016700005C041E06DE18BE10E94390242E3BE0109
:1016800064507F4F82E295E0F0D560ED77E082E232
:1016900095E00E944C1880912405909125050497AF
:1016A00021F082E295E00E94731640913003509140
:1016B0003103609132037091330322E0CE018E5AE0
:1016C0009E4F0E941B14409134035091350360914A
:1016D00036037091370326E0CE01845B9E4F0E9453
:1016E000EC13409138035091390360913A037091A3
:1016F0003B0326E0CE018A5B9E4F0E94EC13409193
:101700003C0350913D0360913E0370913F0322E002
:10171000CE01805C9E4F0E941B144091400350916B
:101720004103609142037091430326E0CE01865C41
:101730009E4F0E94EC1340914403509145036091E9
:1017400046037091470326E0CE01825D9E4F0E94C2
:10175000EC13BE01625D7E4FCE018C5C9E4F0E94F9
:101760004A1461EE72E0CE018C5C9E4F42D3BE0102
:10177000665C7E4F55D363EE72E03BD3BE01605C86
:101780007E4F4ED36CEF72E034D3BE016A5B7E4F66
:1017900047D361EE72E02DD3BE01645B7E4F40D330
:1017A00063EE72E026D3BE016E5A7E4F39D3BC0180
:1017B000C8010E944A14CE018C5C9E4FBAD3CE0160
:1017C000825D9E4FB6D3CE01865C9E4FB2D3CE01D2
:1017D000805C9E4FAED3CE018A5B9E4FAAD3CE01D2
:1017E000845B9E4FA6D3CE018E5A9E4FA2D34D81CD
:1017F0005E8169817A8189E794E0A1D381E093E0F9
:10180000ACD064E670E080E090E04CD2C80191D3A7
:10181000C959DE4F0FB6F894DEBF0FBECDBFDF91C2
:10182000CF911F910F91FF90EF90DF90CF90BF90DD
:10183000AF909F908F907F906F905F904F900895A2
:101840003FB7F8948091F6069091F706A091F806BC
:10185000B091F90626B5A89B05C02F3F19F0019657
:10186000A11DB11D3FBFBA2FA92F982F8827820F26
:10187000911DA11DB11DBC01CD0142E0660F771F76
:10188000881F991F4A95D1F708950E94BC280F938D
:101890001F93CF93DF93EC0188819981009729F002
:1018A0002A813B812617370788F48B016F5F7F4FB2
:1018B0000E94D827009761F0998388831B830A834D
:1018C0002C813D81232B11F4FC01108281E001C0A9
:1018D00080E0DF91CF911F910F910895EF92FF92D9
:1018E0000F931F93CF93DF93FC0124813581611502
:1018F000710511F480E018C041155105A1F07B017C
:10190000EC018A01020F131FB801C1DF882391F394
:10191000288139818C819D81B701820F931F0E949C
:10192000DD281D830C8381E0DF91CF911F910F9102
:10193000FF90EF900895CF93DF93EC018881998118
:10194000009711F00E944027198218821D821C8284
:101950001B821A82DF91CF910895009761F0FC01FC
:1019600001900020E9F73197AF01481B590BBC01EA
:1019700089E794E0E4C280E090E00895382F209158
:10198000DB039091DA03213208F049C08091B7035C
:101990008111FCCF42E04093B7033093B6033FEF91
:1019A0003093B5031092B4032093B303AAEBB3E0D2
:1019B00043E953E0FA013E2F341B321718F43D91EE
:1019C0003193F9CF1092920320919203990F922BA9
:1019D0009093920390919103913061F4109291034E
:1019E000909192039093BB009091BC0093FDF8CF2F
:1019F00095EC01C095EE9093BC009091B7039230A6
:101A0000E1F39091B5039F3F79F08091B503803267
:101A100041F08091B503803331F084E005C081E06E
:101A200003C082E001C083E01092B9031092DB038F
:101A30001092B8030895CF93C62F9091100221E021
:101A40002093B8039093DA031092B9031092DB034A
:101A5000682F86E195E00E9435196C2F86E195E0AC
:101A60000E94351981E0CF9189CFCF93DF9375DF45
:101A7000EC0181E093E071DF8C0F9D1FDF91CF912E
:101A80000895883008F04CC0A82FB0E0AA0FBB1F03
:101A9000A050BE4F11967C936E9390E0FC0131975D
:101AA000E730F10510F58827E556FF4F8F4F0C946E
:101AB0008F2680916900836080936900E89A089579
:101AC000809169008C6080936900E99A0895809103
:101AD0006900806380936900EA9A089580916900A3
:101AE000806C80936900EB9A089580916A0083600E
:101AF00080936A00EC9A089580916A008C608093CC
:101B00006A00ED9A089580916A00806380936A006C
:101B1000EE9A089580916A00806C80936A00EF9A33
:101B2000089590E0FC013197E231F10508F04EC0D4
:101B30008827EE55FF4F8F4F0C948F2680918000A1
:101B40008F7703C0809180008F7D809380000895FF
:101B500080918000877FF9CF84B58F7702C084B5EC
:101B60008F7D84BD08958091B0008F7703C08091F0
:101B7000B0008F7D8093B0000895809190008F77A2
:101B800007C0809190008F7D03C080919000877F77
:101B90008093900008958091A0008F7707C0809176
:101BA000A0008F7D03C08091A000877F8093A0005C
:101BB0000895809120018F7707C0809120018F7D4B
:101BC00003C080912001877F8093200108951F9397
:101BD000CF93DF93282F30E0F901E557FC4F849134
:101BE000F901EB5BFC4FD491F901E150FD4FC49139
:101BF000CC23C1F0162F811194DFEC2FF0E0EE0F13
:101C0000FF1FEB51FD4FA591B4918FB7F8941111BF
:101C100005C09C91ED2FE095E92302C0EC91ED2BDE
:101C2000EC938FBFDF91CF911F910895CF93DF93F6
:101C300090E0FC01EB5BFC4F2491FC01E150FD4F77
:101C40008491882361F190E0880F991FFC01E5538E
:101C5000FD4FC591D491FC01EB51FD4FA591B4917D
:101C6000611109C09FB7F8948881209582238883E9
:101C7000EC912E230BC0623061F49FB7F894388149
:101C8000822F809583238883EC912E2B2C939FBFEA
:101C900006C08FB7F894E8812E2B28838FBFDF9181
:101CA000CF9108958F929F92AF92BF92CF92DF9281
:101CB000EF92FF926B017C01C3DD4B015C01C1140B
:101CC000D104E104F104E9F0BBDDDC01CB018819AA
:101CD0009909AA09BB09883E9340A105B10578F38B
:101CE00021E0C21AD108E108F10888EE880E83E0ED
:101CF000981EA11CB11CC114D104E104F10421F708
:101D0000DECFFF90EF90DF90CF90BF90AF909F908D
:101D10008F9008952FB7F8946091F2067091F306B2
:101D20008091F4069091F5062FBF08951F920F92AF
:101D30000FB60F9211242F933F938F939F93AF93DE
:101D4000BF938091F2069091F306A091F406B091B2
:101D5000F5063091F10623E0230F2D3720F401968C
:101D6000A11DB11D05C026E8230F0296A11DB11DBE
:101D70002093F1068093F2069093F306A093F40665
:101D8000B093F5068091F6069091F706A091F806BB
:101D9000B091F9060196A11DB11D8093F6069093AE
:101DA000F706A093F806B093F906BF91AF919F9103
:101DB0008F913F912F910F900FBE0F901F9018950C
:101DC000CF93DF93FC0124813581232B69F0C081FF
:101DD000D181062E000C770BCE010E94C9280097F6
:101DE00019F08C1B9D0B02C08FEF9FEFDF91CF91FD
:101DF0000895CF93DF93EC016115710559F0FB0154
:101E000001900020E9F73197AF01461B570B66DDC3
:101E1000811102C0CE018FDDCE01DF91CF910895F7
:101E2000CF93DF93EC01FB01448155816081718187
:101E300055DD811102C0CE017EDDCE01DF91CF9153
:101E40000895EF92FF920F931F93CF93DF93EC01CE
:101E50007B018A01BA011BDD811103C0CE016BDD5C
:101E600007C01D830C83B701888199810E94DD28FA
:101E7000CE01DF91CF911F910F91FF90EF900895C8
:101E8000CF93DF93EC016115710551F0FB010190D7
:101E90000020E9F73197AF01461B570BD2DF01C095
:101EA0004ADDCE01DF91CF910895BF92CF92DF92AC
:101EB000EF92FF920F931F93CF93DF937C016B01FF
:101EC0008A01E9012417350720F4812F8901C42FE5
:101ED000D82F63E073E0C701F6D4D60114968D9134
:101EE0009C91159708171907C8F48C179D0708F4DB
:101EF000EC01D601ED91FC911197EC0FFD1FB08024
:101F000010824D915C91BA01600F711FC701B8DF5B
:101F1000D601ED91FC91EC0FFD1FB082C701DF915E
:101F2000CF911F910F91FF90EF90DF90CF90BF90D6
:101F30000895FC01808191810C9440270895CF92EF
:101F4000DF92EF92FF920F931F93CF93DF936C0179
:101F50007A018B01C0E0D0E0CE15DF0589F0D80111
:101F60006D918D01D601ED91FC910190F081E02DF4
:101F7000C6011995892B11F47E0102C02196ECCF80
:101F8000C701DF91CF911F910F91FF90EF90DF90EC
:101F9000CF900895FC01A089B1898C91A689B78959
:101FA00082FD0FC09C91818D8F5F8F73228D821770
:101FB00049F0218DDF01A20FB11D5D969C93818FA9
:101FC00008958C910895FC01538D448D252F30E0A8
:101FD000842F90E0821B930B541710F0CF96089536
:101FE00001970895FC01918D828D981761F0828D83
:101FF000DF01A80FB11D5D968C91928D9F5F9F733D
:10200000928F90E008958FEF9FEF0895FC01918DDE
:10201000828D981731F0828DE80FF11D858D90E04B
:1020200008958FEF9FEF0895FC01918D228D892FE8
:1020300090E0805C9F4F821B91098F7399270895D0
:102040008CED93E0F1DF21E0892B09F420E0822F71
:10205000089589E794E0E8DF21E0892B09F420E086
:10206000822F0895FC01848DDF01A80FB11DA35AB2
:10207000BF4F2C91848D90E001968F739927848FA8
:10208000A689B7892C93A089B1898C9180648C939F
:10209000938D848D981306C00288F389E02D80818A
:1020A0008F7D80830895EF92FF920F931F93CF93BC
:1020B000DF93EC0181E0888F9B8D8C8D981305C098
:1020C000E889F989808185FD23C0F62E0B8D10E00B
:1020D0000F5F1F4F0F731127E02E8C8DE8120BC07E
:1020E0000FB607FCFACFE889F989808185FFF5CF23
:1020F000CE01B8DFF2CF8B8DFE01E80FF11DE35A60
:10210000FF4FF0820B8FEA89FB898081806207C0D4
:10211000EE89FF896083E889F98980818064808302
:1021200081E090E0DF91CF911F910F91FF90EF90B0
:102130000895CF93DF93EC01888D8823C1F0EA895D
:10214000FB89808185FD05C0A889B9898C9186FDB0
:102150000EC00FB607FCF5CF808185FFF2CFA889AE
:10216000B9898C9185FFEDCFCE017CDFE8CFDF917F
:10217000CF91089580E090E0892B19F06ADF8111FA
:1021800020C080E090E0892B19F05ADF81111CC03B
:1021900080E090E0892B41F080E090E0892B21F0F5
:1021A0000E940000811113C080E090E0892BA1F013
:1021B00080E090E0892B81F00E94000081110AC02C
:1021C00008950E940000DDCF0E940000E1CF0E9430
:1021D0000000EACF0C94000008958BEF0895CF9390
:1021E000DF93EC018A819B81059771F047E061E004
:1021F000CE010E94BD1A40E860E4CE010E94BD1AE3
:1022000085E090E09B838A838A819B810597E1F337
:102210008E89DF91CF910895CF93DF93FC012281C6
:1022200033812130310549F0EC0140E061E00E944A
:10223000BD1A81E090E09B838A8381E0DF91CF919A
:102240000895CF93DF93FC01228133812230310541
:1022500049F0EC0141E061E00E94BD1A82E090E0AB
:102260009B838A83DF91CF910895BF92CF92DF92B3
:10227000EF92FF920F931F93CF93DF934C3F10F099
:10228000C12C7EC0142F072FD62EEC01E881F981D6
:102290000484F585E02D1995CE01D3DFE881F9811D
:1022A0000288F389E02DCE011995C82E882341F3C9
:1022B00040E06DE0CE010E94BD1A4A8560E0CE018B
:1022C0000E94BD1A4B8560E0CE010E94BD1A4C856C
:1022D00060E0CE010E94BD1A4D8560E0CE010E94F3
:1022E000BD1ABFB6F894898D9A8DDC01ED91FC91F1
:1022F0000088F189E02D199560E08B8D68DC898D6F
:102300009A8DDC01ED91FC910190F081E02D60E867
:102310001995ED2CF02E012F015068F0898D9A8DC2
:10232000F70161917F01DC01ED91FC910190F08159
:10233000E02D1995F1CF61E08B8D49DC898D9A8D67
:10234000DC01ED91FC910288F389E02D1995BFBE67
:1023500044E0410F62E2CE010E94BD1A8A819B8156
:10236000039771F043E061E0CE010E94BD1A40E4A2
:1023700060E4CE010E94BD1A83E090E09B838A83D3
:102380008C2DDF91CF911F910F91FF90EF90DF90F7
:10239000CF90BF900895CF92DF92EF92FF920F936C
:1023A0001F93CF93DF93EC017B018A01E881F981D0
:1023B0000280F381E02D1995D82E882339F1E1149C
:1023C000F104E1F001151105C9F0CFB6F8942F8D95
:1023D00030E023503109F801808190E082179307A3
:1023E0001CF09F8D94509083F801408150E0BE0115
:1023F0006C5D7F4FC7010E94C028CFBE8FB7F89495
:10240000FE01E15EFE4F10821F8E8FBF8D2DDF918A
:10241000CF911F910F91FF90EF90DF90CF90089593
:10242000DF92EF92FF920F931F93CF93DF93EC0114
:1024300062E10E94121B182F6CE1CE010E94121B58
:102440002A813B812430310579F4829586958695E1
:10245000837091E0892780FBEE24E0F8F12C812F36
:10246000807AE82AEF2839F48A819B810497C9F49D
:1024700016FD24C016C0888999890196998B888B8E
:102480004FEF62E1CE010E94BD1A4FEF62E1CE0133
:10249000DF91CF911F910F91FF90EF90DF900C94FF
:1024A000BD1A8A819B81039709F0B8C013FFB6C09B
:1024B0008C899D8901969D8B8C8BB9C063E1CE017F
:1024C0000E94121BF82E60E1CE010E94121B482FC1
:1024D0006DE0CE010E94BD1ADFB6F894898D9A8D09
:1024E000DC01ED91FC910088F189E02D199560E007
:1024F0008B8D6DDB898D9A8DDC01ED91FC910190C6
:10250000F081E02D60E019958E01005E1F4FEF2CE9
:10251000E00EE01671F0898D9A8DDC01ED91FC9151
:102520000190F081E02D60E01995F80181938F0111
:10253000F0CF61E08B8D4BDB898D9A8DDC01ED91C5
:10254000FC910288F389E02D1995DFBEFF8E4FEFD5
:1025500062E1CE010E94BD1A69E1CE010E94121B08
:102560008E010F5D1E4F87FD8D5F85958595F80166
:1025700080836AE1CE010E94121B90E09F878E87C4
:10258000D8012C918E859F8527FF07C0820F911D52
:1025900027FD9A959F878E870BC024E0880F991F8F
:1025A0002A95E1F76FE070E00E947C267F876E87B6
:1025B000FE01E05EFE4F8081882329F08E859F8595
:1025C0008D59910904C08E859F85845A91099F87F2
:1025D0008E878F8DFE01E15EFE4F843090F088A1E2
:1025E0008E8389A18F838AA188878BA189878D811A
:1025F00081110CC09E818C81981741F08E818F3F94
:1026000029F08081882309F43BCF11C08A899B89F6
:1026100001969B8B8A8B81E08083F3CF8A819B819B
:10262000059709F02DCF12FF2BCF11701E8BCE0115
:1026300008DE26CF8091090790910A07009709F0DC
:10264000EFCE08958091070790910807009709F051
:10265000E7CE08958091050790910607009709F04D
:10266000DFCE0895EF92FF920F931F93CF93DF93E6
:1026700000D0CDB7DEB78C015CD4F82E811102C03A
:10268000F12C9FC0D8015D969C91923059F0933007
:1026900061F08EEE890F843098F767E170E0691B76
:1026A000710905C060E070E002C061E070E0E62EF4
:1026B000D80159968D919C915A97DC01ED91FC912E
:1026C0000488F589E02D199540E861E0C80155D7E7
:1026D0006AE070E080E090E0E5DA61E0C801A2D74E
:1026E000803871F660E0F801858DA0DAD8015E9639
:1026F0008C915E978F3F59F480910407843008F0E5
:10270000BFCF91E0980F909304075E968C93F801E9
:10271000968DE92FF0E0EE0FFF1FEB5FF84F11836E
:102720000083911103C06AE273E10AC0913019F489
:1027300062E273E105C0923009F0A2CF6AE173E171
:102740008E2D9FD940E06EE0C80117D740E06FE0C2
:10275000C80113D7C80175DD43E050E061ED73E0B7
:10276000CE0101960E94581F49816DE1C80105D72D
:102770004A816EE1C80101D74B8166E2C801FDD6EE
:1027800040E060E2C801F9D648E061E2C801F5D650
:1027900044EE66E0C801F1D640EC67E0C801EDD632
:1027A00040E068E0C801E9D6F801E05EFE4F81E054
:1027B000808344E06DE4C801E0D648E869E0C801E0
:1027C000DCD68F2D0F900F900F90DF91CF911F913E
:1027D0000F91FF90EF900895EF92FF920F931F9348
:1027E000CF93DF93CDB7DEB7A1970FB6F894DEBFD6
:1027F0000FBECDBF7C01CB01BA01F701118210825F
:10280000138212821582148242E0420F8E010F5F02
:102810001F4F0E94BB1EBC01C70132DBA1960FB641
:10282000F894DEBF0FBECDBFDF91CF911F910F9106
:10283000FF90EF900895EF92FF920F931F93CF9325
:10284000DF93CDB7DEB7A1970FB6F894DEBF0FBE0A
:10285000CDBF7C01CB01BA01F70111821082138236
:1028600012821582148242E0420F8E010F5F1F4FC9
:102870000E94BB1EBC01C70103DBA1960FB6F894F2
:10288000DEBF0FBECDBFDF91CF911F910F91FF90A3
:10289000EF900895FB01DC0111961C921E92139695
:1028A0001C921E92129715961C921E9214978617D0
:1028B000970741F0608171816115710519F04481BC
:1028C0005581BFCA0895FC011182108213821282C1
:1028D000158214826115710549F0FB0101900020F9
:1028E000E9F73197AF01461B570BABCA08951F920A
:1028F0000F920FB60F9211240BB60F922F933F93A6
:102900004F935F936F937F938F939F93AF93BF93F7
:10291000EF93FF93E0910E02F0910F021995FF9152
:10292000EF91BF91AF919F918F917F916F915F9147
:102930004F913F912F910F900BBE0F900FBE0F90B4
:102940001F9018951F920F920FB60F9211240BB67D
:102950000F922F933F934F935F936F937F938F9338
:102960009F93AF93BF93EF93FF93E0910C02F0918D
:102970000D021995FF91EF91BF91AF919F918F91AA
:102980007F916F915F914F913F912F910F900BBE6F
:102990000F900FBE0F901F9018951F920F920FB6B9
:1029A0000F9211240BB60F922F933F934F935F9387
:1029B0006F937F938F939F93AF93BF93EF93FF9307
:1029C000E0910202F09103021995FF91EF91BF91FE
:1029D000AF919F918F917F916F915F914F913F91B7
:1029E0002F910F900BBE0F900FBE0F901F90189558
:1029F0001F920F920FB60F9211240BB60F922F93C6
:102A00003F934F935F936F937F938F939F93AF9376
:102A1000BF93EF93FF93E0910002F09101021995AB
:102A2000FF91EF91BF91AF919F918F917F916F91A6
:102A30005F914F913F912F910F900BBE0F900FBE62
:102A40000F901F9018951F920F920FB60F9211249E
:102A50000BB60F922F933F934F935F936F937F9398
:102A60008F939F93AF93BF93EF93FF93E0910A02ED
:102A7000F0910B021995FF91EF91BF91AF919F914A
:102A80008F917F916F915F914F913F912F910F9017
:102A90000BBE0F900FBE0F901F9018951F920F92B4
:102AA0000FB60F9211240BB60F922F933F934F93B3
:102AB0005F936F937F938F939F93AF93BF93EF93A6
:102AC000FF93E0910802F09109021995FF91EF91AF
:102AD000BF91AF919F918F917F916F915F914F9136
:102AE0003F912F910F900BBE0F900FBE0F901F9034
:102AF00018951F920F920FB60F9211240BB60F92DA
:102B00002F933F934F935F936F937F938F939F93F5
:102B1000AF93BF93EF93FF93E0910602F09107020A
:102B20001995FF91EF91BF91AF919F918F917F91F7
:102B30006F915F914F913F912F910F900BBE0F902E
:102B40000FBE0F901F9018951F920F920FB60F9205
:102B500011240BB60F922F933F934F935F936F9374
:102B60007F938F939F93AF93BF93EF93FF93E091E6
:102B70000402F09105021995FF91EF91BF91AF9179
:102B80009F918F917F916F915F914F913F912F9185
:102B90000F900BBE0F900FBE0F901F9018951F92B5
:102BA0000F920FB60F9211240BB60F922F933F93F3
:102BB0004F935F936F937F938F939F93AF93BF9345
:102BC000EF93FF938CED93E04DDAFF91EF91BF917E
:102BD000AF919F918F917F916F915F914F913F91B5
:102BE0002F910F900BBE0F900FBE0F901F90189556
:102BF0001F920F920FB60F9211240BB60F922F93C4
:102C00003F934F935F936F937F938F939F93AF9374
:102C1000BF93EF93FF938CED93E0BCD9FF91EF91BD
:102C2000BF91AF919F918F917F916F915F914F91E4
:102C30003F912F910F900BBE0F900FBE0F901F90E2
:102C400018951F920F920FB60F9211240BB60F9288
:102C50002F933F934F935F936F937F938F939F93A4
:102C6000AF93BF93EF93FF9389E794E0FBD9FF9174
:102C7000EF91BF91AF919F918F917F916F915F91F4
:102C80004F913F912F910F900BBE0F900FBE0F9061
:102C90001F9018951F920F920FB60F9211240BB62A
:102CA0000F922F933F934F935F936F937F938F93E5
:102CB0009F93AF93BF93EF93FF9389E794E06AD913
:102CC000FF91EF91BF91AF919F918F917F916F9104
:102CD0005F914F913F912F910F900BBE0F900FBEC0
:102CE0000F901F901895CF93DF93EC0145E061E0C2
:102CF00044D440E060E4CE0140D484E090E09B8383
:102D00008A83DF91CF910895CF93DF93FC012281D5
:102D100033812330310559F0EC018281938104978E
:102D200011F0CF01E0DFC15EDE4F888101C080E09D
:102D3000DF91CF910895089580912D07882361F048
:102D40009FB7F89420912D0780912C07213019F41A
:102D50008DBB9FBF08958FBF0895FC01208591858D
:102D600080912D07882379F08FB7F89430912D0743
:102D7000313039F43DB330932C073DB33DBB8FBFA9
:102D800002C080932C072CBD9DBD08959FB7F89479
:102D900080912B07882319F0815080932B07809115
:102DA0002B07811105C08CB58F7B8CBD10922D0730
:102DB0009FBF08958CB58F778CBD08958CB58068C2
:102DC0008CBD08956EBD00000DB407FEFDCF8EB51D
:102DD0000895FC01738362830895FC017783668301
:102DE0000895FC01758364830895089508950895F6
:102DF00008950895FC01848995890895FC018289CC
:102E000093890895FC0180899189089580E008954F
:102E1000FC01738362830895FC018281938108958C
:102E2000FC01868597850895FC0181850895FC0144
:102E300080850895FC0187810895FC0186810895AD
:102E4000FC01409595854923642B65870895FC0115
:102E500064870895FC0163870895FC0162870895E3
:102E6000FC0164830895FC016583089580E0089562
:102E7000FC012281338123303105D1F381E00895B3
:102E8000CF93DF93EC01E881F9810280F381E02D9B
:102E9000CE0119958823B9F3DF91CF91089581E090
:102EA00008950895E091900380918F03E81730F41E
:102EB000F0E0E55FF84F808190E008958FEF9FEF9D
:102EC00008959091900380918F03981750F4E92F03
:102ED000F0E0E55FF84F208130E09F5F9093900332
:102EE00002C02FEF3FEFC901089580918F0390E05A
:102EF00020919003821B91090895089580E090E04D
:102F00000895CF93DF93FC01228133812230310574
:102F100069F0EC01678D858D0E94E70D60E08C8D76
:102F20000E94E70D82E090E09B838A83DF91CF913E
:102F30000895CF93DF93EC01898D9A8DDC01ED919B
:102F4000FC910680F781E02D199561E08B8D0E9440
:102F5000160E61E08B8D0E94E70D64E670E080E064
:102F600090E00E94520E81E0DF91CF9108950F937F
:102F70001F93CF93FC01828193818430910569F086
:102F80008330910579F08230910589F00197A1F0A5
:102F900040E452E46FE070E013C040E054E264EFBC
:102FA00070E00EC040E052E16AE770E009C040E026
:102FB00059E06DE370E004C040E854E86EE170E071
:102FC000A481B58186819781009741F08130910578
:102FD00039F08230910531F0039731F090E005C06F
:102FE00094E003C098E001C09CE080E000E012E1C2
:102FF0002AE730E0401751076207730740F436951F
:103000002795179507958F5F8630A1F787E021E018
:103010002827119711F080E501C080E7322F3695FF
:10302000932B982B908721702187CFB7F8948091AC
:103030002B07811127C0E4E3F3E08491EAE7F3E092
:103040009491E82FF0E0EE0FFF1FE553FD4FA5919F
:10305000B491EC91E92321F461E085E30E94E70D4E
:1030600061E085E30E94160E8CB580618CBD8CB545
:1030700080648CBD61E084E30E94160E61E083E30E
:103080000E94160E80912B078F5F80932B07CFBF76
:10309000CF911F910F9108958F929F92AF92BF92FF
:1030A000CF92DF92EF92FF92CF93DF93EC016B010F
:1030B0000E948A0E4B015C01E12CF12C0E948A0EC9
:1030C000DC01CB0188199909AA09BB098C159D055A
:1030D000AE05BF0530F48A819B81039779F381E0C7
:1030E00001C080E0DF91CF91FF90EF90DF90CF9013
:1030F000BF90AF909F908F9008958F929F92AF92C4
:10310000BF92CF92DF92EF92FF92CF93DF93EC01C9
:103110006B010E948A0E4B015C01E12CF12C0E9494
:103120008A0EDC01CB0188199909AA09BB098C1503
:103130009D05AE05BF0550F4E881F9810280F38159
:10314000E02DCE011995882351F301C080E0DF9175
:10315000CF91FF90EF90DF90CF90BF90AF909F9076
:103160008F9008958F929F92AF92BF92CF92DF92ED
:10317000EF92FF92CF93DF93FC012789308D232BB1
:1031800011F481E037C0EC010E948A0E6B017C01D2
:1031900089E0882E912CA12CB12CE881F98104883A
:1031A000F589E02DCE011995882359F30E948A0EE6
:1031B000AB01BC014C195D096E097F098F89988D9F
:1031C000A0E0B0E084179507A607B70790F03BD6BC
:1031D000A50194010E947D249B01AC012F5F3F4F0C
:1031E0004F4F5F4FA4E6B0E00E9499240E94520E18
:1031F000D4CF80E0DF91CF91FF90EF90DF90CF9020
:10320000BF90AF909F908F900895CF92DF92EF92F2
:10321000FF920F931F93CF93DF937C01262F972F5D
:103220008A018091B803882391F0C62FD72F6E01B1
:10323000C40ED51ECC15DD0571F06991D701ED9155
:10324000FC910190F081E02DC7011995F3CF642F17
:10325000822F0E947D03C801DF91CF911F910F91B2
:10326000FF90EF90DF90CF900895CF93DF931F9260
:10327000CDB7DEB769832091B8032223D1F0209126
:10328000DB03203240F021E030E0FC013383228375
:1032900080E090E015C08091B903E82FF0E0E6549B
:1032A000FC4F998190838F5F8093B9038093DB03F8
:1032B00005C061E0CE0101960E947D0381E090E0AF
:1032C0000F90DF91CF9108951F920F920FB60F923A
:1032D00011240BB60F92CF92DF92EF92FF920F93D1
:1032E0001F932F933F934F935F936F937F938F938E
:1032F0009F93AF93BF93CF93DF93EF93FF93C091CF
:103300002E07D0912F078A819B81049709F0C9C0AD
:103310002B8D30E0F901E557FC4F8491F901EB5B0F
:10332000FC4F0491F901E150FD4F1491112379F004
:1033300081110E94910DE12FF0E0EE0FFF1FE3528B
:10334000FC4FA591B491EC91E02381E009F480E079
:1033500081709E8D892719F09BA19F5F9BA39AA1E5
:10336000891771F09CA1903518F02DE130E002C072
:103370002BE030E09CA1290F311D2CA38AA303C0B0
:103380008CA18C5E8CA38CA1803A08F4DBC08EA14A
:103390009FA1969587959FA38EA38BA1853028F03A
:1033A0008EA19FA198609FA38EA38CA1805A8CA30D
:1033B0001BA28DA1882309F467C088A58F5F88A709
:1033C0008C3008F4BFC08EA19FA1982F9F73892FC6
:1033D00086958695887028E0280F821749F0E82F97
:1033E000F0E0E956FD4F3081931719F08F5FF5CF6C
:1033F00080E020E1829FC00111242EA13FA196E030
:10340000369527959A95E1F7422F3695279536956B
:103410002795287038E0320F231749F0E22FF0E0AB
:10342000E956FD4F5081451719F02F5FF5CF20E089
:10343000822BAE0143595F4FFA019081DE01A459FE
:10344000BF4F9923A9F0FA01908121E0290F208331
:103450009E01290F311DF90181A7FA0190818C91FC
:10346000981780F01DA281E088A3CE014ADD0AC032
:103470008C939C91973008F45FC09C91943408F031
:103480005BC0E1CF18A65EC08EA19FA188339B4090
:1034900009F058C081E08DA318A6C359DF4F1882E8
:1034A00051C08A819B81039709F04CC08E0100595D
:1034B0001F4FF801808191E0980F9083811136C0F1
:1034C0007E01FEE6EF0EF11CF7018081EF56FF4F03
:1034D0009081891740F0CE0114DD8C899D89019679
:1034E0009D8B8C8B23C0FE01E80FF11DEF58FF4F21
:1034F000608170E06E01FFE6CF0ED11CF601808185
:1035000091E0980F908302C0759567958A95E2F7D0
:10351000617077278C8D0E94E70DF60180818630DF
:1035200028F01082F70180818F5F8083F80180810D
:10353000883040F0108206C01DA2888999890196C2
:10354000998B888BFF91EF91DF91CF91BF91AF91D4
:103550009F918F917F916F915F914F913F912F91AB
:103560001F910F91FF90EF90DF90CF900F900BBEC7
:103570000F900FBE0F901F901895EF92FF920F9330
:103580001F93CF93DF931F92CDB7DEB77C01162F29
:103590000FB7F894DC0159968D919C915A97DC01F4
:1035A000ED91FC910088F189E02D4983199560E047
:1035B000F701838D0E94E70DD70159968D919C915B
:1035C0005A97DC01ED91FC91612F60680190F081C8
:1035D000E02D1995182FF701818D928DDC01ED9169
:1035E000FC910190F081E02D4981642F199561E0F3
:1035F000F701838D0E94E70DD70159968D919C911B
:103600005A97DC01ED91FC910288F389E02D199520
:103610000FBF812F0F90DF91CF911F910F91FF90DE
:10362000EF9008950F931F93CF93DF93EC01162F24
:103630000FB7F89460E08B8D0E94E70D898D9A8D0D
:10364000DC01ED91FC91612F6F770190F081E02D0D
:103650001995898D9A8DDC01ED91FC910190F08195
:10366000E02D60E01995182F61E08B8D0E94E70D29
:103670000FBF812FDF91CF911F910F910895CF93AD
:10368000DF93EC018A859B85AC85BD858E839F8306
:10369000A887B9870E948A0E6A837B838C839D8367
:1036A00081E089838883DF91CF9108952F923F92A3
:1036B0004F925F926F927F928F929F92AF92BF9242
:1036C000CF92DF92EF92FF920F931F93CF93DF93EE
:1036D000D82FC92F8B01C6D324E630E040E050E05C
:1036E0000E94A92449015A019B01AC0160E876E9D6
:1036F00088E990E00E946D266B017C01F8019182BF
:103700008082ED2FFC2F2191822F022E000C990B2D
:10371000C0970A97C0F32E3239F51F0180E8882E32
:1037200086E9982E88E9A82EB12C9AE0492E512CD2
:10373000612C712CF101C1911F010C2E000CDD0BCD
:10374000E097CA30D10580F4C501B401A30192010C
:103750000E94A92449015A01DE010E94A324C60E39
:10376000D71EE81EF91EE6CFA5E0B0E0A70196013E
:103770000E9499246F5F7F4F8F4F9F4F23E030E06F
:1037800040E050E00E94A924F8012283338344835F
:1037900055831682DF91CF911F910F91FF90EF908B
:1037A000DF90CF90BF90AF909F908F907F906F9061
:1037B0005F904F903F902F900895FF920F931F932B
:1037C000CF93DF93EC01FF24F39488818D3211F0C5
:1037D000F12C01C02196CE0145D39B01AC01A4E69A
:1037E000B0E00E949924FE014991242F042E000C80
:1037F000330B205331092A303105A8F34E3241F5FD
:103800002181022E000C330B205331092A3031055F
:10381000F8F44AE0429F8001439F100D1124012ECD
:10382000000C220B330B600F711F821F931F02814C
:10383000002E000C110B005311090A30110540F441
:10384000012E000C220B330B600F711F821F931F80
:10385000FF2039F090958095709561957F4F8F4F3F
:103860009F4FDF91CF911F910F91FF900895ECED45
:10387000F3E01382128248EE53E060E070E044838C
:1038800055836683778381E292E0918380832DEC78
:1038900030E0358724872CEC30E03787268728EC0A
:1038A00030E0318B208B29EC30E0338B228B2AECFB
:1038B00030E0358B248B2EEC30E0378B268B118E4D
:1038C000128E138E148EE9E7F4E013821282448381
:1038D0005583668377839183808385EC90E0958719
:1038E000848784EC90E09787868780EC90E0918BCA
:1038F000808B81EC90E0938B828B82EC90E0958BB7
:10390000848B86EC90E0978B868B118E128E138EB3
:10391000148EAAEFB6E013961C921E92129715967B
:103920001C921E92149717961C921E92169783E370
:1039300092E011969C938E9380E518968C9318973D
:1039400019961C921997E6E1F5E0138212824483DE
:103950005583668377838DE492E091838083E4E4EA
:10396000F6E010821182138212821482158216826E
:10397000178210861286118613861486158616867F
:103980001786118A108A128A138A148A158A168A4F
:10399000108E178A118E128E138E148E158E12A20F
:1039A00013A214A215A216A217A210AA11AA12AA53
:1039B00013AA14AA15AA10928206109283061092D6
:1039C00088061092890610928A0610928B06109231
:1039D00090061092910610929606109297061092F9
:1039E00098061092990610929E0610929F061092C9
:1039F000A4061092A5061092A6061092A706109291
:103A0000AC061092AD061092B2061092B306109258
:103A1000B4061092B5061092BA061092BB06109228
:103A2000C0061092C1061092C2061092C3061092F0
:103A3000C8061092C90692E09093D9061092DA0651
:103A40001092DB061092DC061092DE061092DD0664
:103A50001092E0061092DF061092E1061092E20644
:103A60001092E3061092E4061092E5061092E60624
:103A70001092E7061092E8061092E9061092EA0604
:103A80001092EB061092EC061092ED061092EE06E4
:103A90001092EF061092F0061092CA06E2E2F5E0EC
:103AA000138212828FEF8483828783871486158620
:103AB000118A108A138A128A158A148A108E178A1C
:103AC000B28FA18F2AE0238F2FE532E0318320834C
:103AD00010924106958F868F0895789484B5826000
:103AE00084BD84B5816084BD85B5826085BD85B5A2
:103AF000816085BD80916E00816080936E00109220
:103B0000810080918100826080938100809181009A
:103B1000816080938100809180008160809380002B
:103B20008091B10084608093B1008091B000816089
:103B30008093B00080919100826080939100809189
:103B400091008160809391008091900081608093CA
:103B500090008091A10082608093A1008091A100DB
:103B600081608093A1008091A00081608093A0007B
:103B700080912101826080932101809121018160E7
:103B800080932101809120018160809320018091A8
:103B90007A00846080937A0080917A0082608093BA
:103BA0007A0080917A00816080937A0080917A0017
:103BB000806880937A001092C10061E08DE00E94DD
:103BC000160EE0918904F0918A0422E02083E091AE
:103BD0008504F09186041082E0918704F0918804B6
:103BE00080E1808310929104E0918D04F0918E0425
:103BF00096E09083E0918B04F0918C048081806149
:103C00008083E0918B04F0918C04808188608083B4
:103C1000E0918B04F0918C04808180688083E09136
:103C20008B04F0918C0480818F7D8083E091EC0384
:103C3000F091ED032083E091E803F091E903108215
:103C4000E091EA03F091EB038FEC80831092F40390
:103C5000E091F003F091F1039083E091EE03F09195
:103C6000EF03808180618083E091EE03F091EF03A8
:103C7000808188608083E091EE03F091EF03808182
:103C800080688083E091EE03F091EF0380818F7D67
:103C900080831092900310928F031092B9031092B8
:103CA000DB030E94A50382E295E00E94321381119A
:103CB00003C084E093E002C080E193E00E94350DF0
:103CC0001092900310928F031092B9031092DB03AD
:103CD0000E94A50361E08BE00E941B0D6DE189E06D
:103CE0000E941B0D61E08DE00E94160E61E08DE1E7
:103CF0000E94160E61E087E20E94160E61E081E3E9
:103D00000E94160E61E08EE20E94160E61E08FE2C4
:103D10000E94160E61E087E10E94160E61E08DE2BE
:103D20000E94160E61E089E20E94160E61E08BE1AE
:103D30000E94160E61E08BE20E94160E61E089E19E
:103D40000E94160E61E081E20E94160E61E08FE192
:103D50000E94160E61E085E20E94160E61E083E289
:103D60000E94160E86E293E00E94AD0C0E94C303EF
:103D70000E94BA10FBCFEF920F931F93CF93DF9364
:103D8000E80147FD02C034E001C034E1E42F440FF4
:103D9000FF0BF7FF03C0F195E195F109E32E022F28
:103DA0002E2FAE01A3D0CE01DF91CF911F910F91A5
:103DB000EF9008958F929F92AF92BF92CF92DF9231
:103DC000EF92FF92CF93DF93EC01688179818A8132
:103DD0009B81611571058105910521F464E279EDFE
:103DE0008BE597E02DE133EF41E050E086D54901C6
:103DF0005A019B01AC01A7EAB1E49BD56B017C01A0
:103E0000ACEEB4EFA5019401A0D5DC01CB018C0D83
:103E10009D1DAE1DBF1DB7FF03C00197A109B0488E
:103E200088839983AA83BB83BC01CD019F77DF91EF
:103E3000CF91FF90EF90DF90CF90BF90AF909F9089
:103E40008F900895B7CF81E192E0B4CF60931102D3
:103E500070931202809313029093140208956627C0
:103E60007727D1C11F93FC0199278827BC01E894CB
:103E700011911032E9F3193010F01E30C8F31B32E3
:103E800049F01D3241F4689405C01BD0610F711DCB
:103E9000811D911D119110531A30B8F33EF4909585
:103EA0008095709561957F4F8F4F9F4F1F9108951B
:103EB000FB01DC0102C005900D9241505040D8F743
:103EC0000895592F482F372F262F660F771F881FE9
:103ED000991F660F771F881F991F620F731F841F1A
:103EE000951F660F771F881F991F08954F925F9245
:103EF0006F927F929F92AF92BF92CF92DF92EF929A
:103F0000FF920F931F93CF93DF93CDB7DEB729971F
:103F10000FB6F894DEBF0FBECDBF6A01122FB02ED0
:103F20002BE3201720F0FF24F394F00E02C0BCE333
:103F3000FB2E0F2D27E0AE014F5F5F4FCAD2AC01C1
:103F40008981982F9970913031F0E1FC06C0E0FE34
:103F500006C090E205C09DE203C09BE201C090E074
:103F6000EE2DE07183FF3CC0911102C083E001C0DF
:103F700084E0811718F4212F281B01C020E0E111F3
:103F80000BC0F601822F30E2882319F03193815063
:103F9000FBCFC20ED11C20E0992329F0D6019C93BF
:103FA000F60131966F01C6010396E2FE0AC03EE4B7
:103FB000D6013C9341E411964C93119712963C9391
:103FC00006C03EE6F601308341E641833283FC01C0
:103FD000322F40E2332309F442C041933150FACFEB
:103FE00082FF44C0911102C083E001C084E08117C8
:103FF00018F4212F281B01C020E0E1110BC0F601AD
:10400000822F30E2882319F031938150FBCFC20E0A
:10401000D11C20E0992329F0D6019C93F60131961A
:104020006F01C6010396E2FE0BC039E4D6013C9352
:104030003EE411963C93119736E412963C9307C0E8
:1040400039E6F60130833EE6318336E63283FC0101
:10405000322F40E2332319F041933150FBCFFC0162
:10406000E20FF11D10828EEF9FEFB7C0F1E09111CA
:1040700001C0F0E06F2F70E01416150624F49A01C9
:104080002F5F3F4F02C021E030E0260F371FBB20DB
:1040900029F06B2D70E06F5F7F4F02C060E070E031
:1040A000260F371F612F70E0261737071CF4121BED
:1040B000212F01C020E03E2D387159F4D601322F56
:1040C00060E2332319F06D933150FBCFC20ED11C47
:1040D00020E0FF2331F0D6019C93B6016F5F7F4F44
:1040E0006B01E1110BC0F601922F30E3992319F017
:1040F00031939150FBCFC20ED11C20E09F2D940F25
:104100003A81782F7071A72E84FF03C0313309F4F0
:104110009150191624F4993018F098E001C091E0FC
:10412000E42F852F57FF02C0E0E080E06E2F782F4C
:10413000E0E0F0E0AEE29A2E3A01691A71082A0135
:10414000461A570A0B2D10E01195019511096F3F82
:104150008FEF780729F4D6019C92C60101966C0175
:104160004617570784F0661677066CF47F01E40C57
:10417000F51CA1E0B0E0AC0FBD1FEA0EFB1ED7019D
:104180001196BC9002C090E3B92E6150710931962E
:10419000C60101967C016017710724F0D601BC921C
:1041A0006C01D5CF6417750741F4363320F43533ED
:1041B00021F4A11002C081E3B82EF601B082F7010C
:1041C000822F90E2882319F091938150FBCFF70161
:1041D000E20FF11D108280E090E029960FB6F8946E
:1041E000DEBF0FBECDBFDF91CF911F910F91FF902A
:1041F000EF90DF90CF90BF90AF909F907F906F90A7
:104200005F904F9008956F927F928F929F92AF929E
:10421000BF92CF92DF92EF92FF920F931F93CF93B3
:10422000DF93EC017B016115710519F0DB018D93C2
:104230009C938E010F5F1F4F7880872D90E021D2D5
:10424000892B11F0E801F5CFBDE27B1205C00F5FAD
:104250001F4F7980C1E008C0EBE27E1204C08E01DE
:104260000E5F1F4F7980C0E06801F1E0CF1AD108DE
:1042700043E050E06EE971E0C6010BD2892BE9F40E
:10428000680122E0C20ED11C45E050E069E971E00E
:10429000C601FFD1892B21F4680187E0C80ED11C2B
:1042A000E114F10419F0D701CD92DC92C111F9C0EB
:1042B00060E070E080E89FE7FDC043E050E066E921
:1042C00071E0C601E6D1892B51F4E114F10409F43F
:1042D000EDC00E5F1F4FF70111830083E7C0680137
:1042E00060E070E0CB0100E010E0F601D0EDD70D0A
:1042F000DA3050F52C2F2260622E2C2F2870C2FF4E
:1043000005C0211127C00F5F1F4F24C0222311F0C9
:1043100001501109A5E0B0E09B01AC010AD34B01AB
:104320005C01880C991CAA1CBB1CC501B4016D0F53
:10433000711D811D911D6839A9E97A078A07A9E1D4
:104340009A0740F0C66005C0DE3F51F4C3FD44C08B
:10435000C8606C2EBFEFCB1ADB0A7080C62DC5CFAC
:104360002D2F2F7D2531C1F540814D3211F4C061D3
:1043700006C04B3221F0319621E030E006C0329683
:10438000D60111964C9122E030E0A0EDA40FAA30A6
:1043900018F0E21BF30B20C040E050E04038BCE0D6
:1043A0005B075CF49A01220F331F220F331F420F69
:1043B000531F440F551F4A0F511D3196DF011197AE
:1043C0002C91A0EDA20FAA3048F3C4FF03C0519571
:1043D00041955109040F151FC1FF07C0E114F104F5
:1043E00021F03197D701ED93FC936FD1C370C330A7
:1043F00019F06B017C0106C06B017C01F7FAF094A7
:10440000F7F8F09420E030E0A901C701B60159D1D6
:10441000882309F443C017FF06C0119501951109BF
:10442000C5EBD1E002C0CDECD1E05E01B8E1AB1A42
:10443000B1084601BE2DAF2D90E2E92EF12C0E15EC
:104440001F057CF0FE012591359145915491B401F1
:104450008B2F9A2F9BD14B01B82FA92F0E191F0913
:10446000EECF2497F594E794CA15DB0541F7640174
:10447000EB2EFA2E8E2D880F8F2D881F8F3F41F047
:1044800020E030E0A901C701B6011BD1811106C0AF
:1044900082E290E09093310780933007C701B60124
:1044A00009C060E070E080E89FEF04C060E070E069
:1044B00080EC9FE7DF91CF911F910F91FF90EF90DC
:1044C000DF90CF90BF90AF909F908F907F906F9034
:1044D0000895283008F027E03327DA01990F311DBD
:1044E00087FD916000966105710539F432602E5F99
:1044F0003D9330E32A95E1F708959F3F30F08038EF
:104500007105610509F03C5F3C5F3D93913008F017
:104510008068911DDF93CF931F930F93FF92EF92CB
:10452000192F987F9695E92F96959695E90FFF2775
:10453000E55DFD4F99273327EE24FF24A701E7010E
:1045400005900894079428F4360FE71EF81E491FBB
:10455000511D660F771F881F991F0694A1F70590BC
:10456000079428F4E70EF81E491F561FC11D770F48
:10457000881F991F661F0694A1F70590079428F4D9
:10458000F80E491F561FC71FD11D880F991F661FA0
:10459000771F0694A1F70590079420F4490F561F42
:1045A000C71FD81F990F661F771F881F0694A9F78A
:1045B00084911095177041F0D695C79557954795FA
:1045C000F794E7941A95C1F7E1EDF1E0689415903E
:1045D000159135916591959105907FE27395E1185C
:1045E000F10A430B560BC90BD009C0F7E10CF11EC1
:1045F000431F561FC91FD01D7EF4703311F48A95D6
:10460000E6CFE894015030F0080F0AF400270217B3
:1046100008F4202F2395022F7A3328F079E37D9335
:104620002A95E9F710C07D932A9589F60694979507
:104630006795379517951794E118F10A430B560BB8
:10464000C90BD00998F023957E9173957A3308F0C1
:1046500070E37C932013B8F77E9170617D9330F006
:10466000839571E37D9370E32A95E1F71124EF9030
:10467000FF900F911F91CF91DF91992787FD909522
:1046800008959111E6C0803219F089508550D0F715
:104690000895FB01DC014150504088F08D91813438
:1046A0001CF08B350CF4805E659161341CF06B3529
:1046B0000CF4605E861B611171F3990B0895881BE1
:1046C000FCCF40D008F481E00895E89409C097FB3E
:1046D0003EF490958095709561957F4F8F4F9F4FD9
:1046E0009923A9F0F92F96E9BB279395F69587951D
:1046F00077956795B795F111F8CFFAF4BB0F11F4E0
:1047000060FF1BC06F5F7F4F8F4F9F4F16C0882386
:1047100011F096E911C0772321F09EE8872F762FBC
:1047200005C0662371F096E8862F70E060E02AF0FD
:104730009A95660F771F881FDAF7880F96958795E9
:1047400097F90895990F0008550FAA0BE0E8FEEFBE
:1047500016161706E807F907C0F012161306E40745
:10476000F50798F0621B730B840B950B39F40A263E
:1047700061F0232B242B252B21F408950A2609F41C
:10478000A140A6958FEF811D811D08950BD07BC0A0
:104790006CD028F071D018F0952309F05DC062C08C
:1047A0001124A5C081D0A0F3959FD1F3950F50E0BF
:1047B000551F629FF001729FBB27F00DB11D639FD3
:1047C000AA27F00DB11DAA1F649F6627B00DA11D79
:1047D000661F829F2227B00DA11D621F739FB00D1F
:1047E000A11D621F839FA00D611D221F749F33278F
:1047F000A00D611D231F849F600D211D822F762F28
:104800006A2F11249F5750408AF0E1F088234AF024
:10481000EE0FFF1FBB1F661F771F881F9150504070
:10482000A9F79E3F510570F017C061C05F3FECF3E0
:10483000983EDCF3869577956795B795F795E7955C
:104840009F5FC1F7FE2B880F911D9695879597F96D
:10485000089599278827089597F99F6780E870E061
:1048600060E008959FEF80EC089500240A941616E6
:10487000170618060906089500240A94121613064E
:10488000140605060895092E0394000C11F48823DC
:1048900052F0BB0F40F4BF2B11F460FF04C06F5FF8
:1048A0007F4F8F4F9F4F089557FD9058440F551FCE
:1048B00059F05F3F71F04795880F97FB991F61F0A2
:1048C0009F3F79F087950895121613061406551F19
:1048D000F2CF4695F1DF08C0161617061806991F85
:1048E000F1CF86957105610508940895E894BB277A
:1048F00066277727CB0197F90895052E97FB16F4C5
:1049000000940FD057FD05D024D007FC02D046F408
:1049100008C050954095309521953F4F4F4F5F4FC0
:10492000089590958095709561957F4F8F4F9F4F1B
:10493000089531D0A59F900DB49F900DA49F800D38
:10494000911D11240895B7FFF4CFF3DF821B930B61
:104950000895A1E21A2EAA1BBB1BFD010DC0AA1FC0
:10496000BB1FEE1FFF1FA217B307E407F50720F0D8
:10497000A21BB30BE40BF50B661F771F881F991F53
:104980001A9469F760957095809590959B01AC019C
:10499000BD01CF010895A29FB001B39FC001A39FA5
:1049A000700D811D1124911DB29F700D811D112468
:1049B000911D08955058BB27AA270ED064CF55DF0C
:1049C00030F05ADF20F031F49F3F11F41EF44ACF4B
:1049D0000EF4E095E7FB40CFE92F66DF80F3BA17CE
:1049E000620773078407950718F071F49EF57ECF70
:1049F0000EF4E0950B2EBA2FA02D0B01B9019001FA
:104A00000C01CA01A0011124FF27591B99F0593F3D
:104A100050F4503E68F11A16F040A22F232F342F85
:104A20004427585FF3CF469537952795A795F040D3
:104A30005395C9F77EF41F16BA0B620B730B840BE8
:104A4000BAF09150A1F0FF0FBB1F661F771F881FA0
:104A5000C2F70EC0BA0F621F731F841F48F48795F8
:104A600077956795B795F7959E3F08F0B3CF9395E7
:104A7000880F08F09927EE0F979587950895F5DE32
:104A800058F080E891E009F49EEFF6DE28F040E867
:104A900051E059F45EEF09C0E5CE28CFE92FE07868
:104AA00003DF68F3092E052AC1F3261737074807E5
:104AB000590738F00E2E07F8E02569F0E025E0648C
:104AC0000AC0EF6307F8009407FADB01B9019D0102
:104AD000DC01CA01AD01EF9343D0D5DE0AD05F916E
:104AE000552331F02BED3FE049E450FD49EC63CF15
:104AF0000895DF93DD27B92FBF7740E85FE31616EF
:104B0000170648075B0710F4D92FDDD09F938F93CA
:104B10007F936F93DFD0E8E6F1E0ACD0B4DE2F9165
:104B20003F914F915F913EDEDD2349F09058A2EA1C
:104B30002AED3FE049EC5FE3D0785D274DDFDF9160
:104B4000A2CE0CD0A0CE98DE40F08FDE30F021F463
:104B50005F3F19F081CE5111CACE84CEA5DE98F305
:104B60009923C9F35523B1F3951B550BBB27AA27EE
:104B700062177307840738F09F5F5F4F220F331F60
:104B8000441FAA1FA9F333D00E2E3AF0E0E830D02C
:104B900091505040E695001CCAF729D0FE2F27D02F
:104BA000660F771F881FBB1F261737074807AB07FD
:104BB000B0E809F0BB0B802DBF01FF2793585F4F72
:104BC0002AF09E3F510568F047CE91CE5F3FECF34F
:104BD000983EDCF3869577956795B795F7959F5F37
:104BE000C9F7880F911D9695879597F90895E1E08B
:104BF000660F771F881FBB1F621773078407BA07EA
:104C000020F0621B730B840BBA0BEE1F88F7E09544
:104C1000089504D06894B1116ACE08954DDE88F0ED
:104C20009F5790F0B92F9927B751A0F0D1F0660F98
:104C3000771F881F991F1AF0BA95C9F712C0B130B3
:104C400081F054DEB1E0089551CE672F782F882788
:104C5000B85F39F0B93FCCF3869577956795B395F2
:104C6000D9F73EF490958095709561957F4F8F4F61
:104C70009F4F0895DF93CF931F930F93FF92EF926F
:104C8000DF927B018C01689405C0DA2EEF018ADD8A
:104C9000FE01E894A5912591359145915591AEF38A
:104CA000EF019ADEFE019701A801DA9479F7DF900F
:104CB000EF90FF900F911F91CF91DF91089542DD0A
:104CC00008F48FEF08959B01AC0160E070E080E88C
:104CD0009FE337CF9B01AC0159CDDB018F939F93AD
:104CE00028DEBF91AF91A29F800D911DA39F900DD3
:104CF000B29F900D1124089597FB072E16F400948F
:104D000006D077FD08D013D007FC05D03EF490956F
:104D100081959F4F0895709561957F4F0895EE0F8F
:104D2000FF1F881F8BBF0790F691E02D1994AA1BD7
:104D3000BB1B51E107C0AA1FBB1FA617B70710F086
:104D4000A61BB70B881F991F5A95A9F780959095B8
:104D5000BC01CD010895CF93DF938230910510F40B
:104D600082E090E0E0913407F091350720E030E0F8
:104D7000C0E0D0E0309711F14081518148175907C8
:104D8000C0F04817590761F482819381209719F088
:104D90009B838A832BC0909335078093340726C06A
:104DA0002115310519F04217530718F49A01BE0175
:104DB000DF01EF010280F381E02DDCCF2115310509
:104DC00009F1281B390B2430310590F412968D918E
:104DD0009C9113976115710521F0FB0193838283E8
:104DE00004C09093350780933407FD01329644C088
:104DF000FD01E20FF31F81939193225031092D930E
:104E00003C933AC02091320730913307232B41F471
:104E10002091170230911802309333072093320704
:104E200020911502309116022115310541F42DB75C
:104E30003EB74091190250911A02241B350BE091A4
:104E40003207F0913307E217F307A0F42E1B3F0B54
:104E50002817390778F0AC014E5F5F4F24173507EC
:104E600048F04E0F5F1F50933307409332078193F2
:104E7000919302C0E0E0F0E0CF01DF91CF9108957F
:104E80000F931F93CF93DF93009709F48CC0FC011D
:104E90003297138212820091340710913507011561
:104EA000110581F420813181820F931F20913207F7
:104EB000309133072817390779F5F0933307E093DA
:104EC000320771C0D80140E050E0AE17BF0750F480
:104ED00012962D913C911397AD012115310509F1E1
:104EE000D901F3CF9D01DA0133832283608171817F
:104EF000860F971F8217930769F4EC012881398187
:104F0000260F371F2E5F3F4F318320838A819B817D
:104F100093838283452B29F4F0933507E09334077C
:104F200042C01396FC93EE931297ED01499159916B
:104F30009E01240F351FE217F30771F480819181E0
:104F4000840F951F029611969C938E938281938174
:104F500013969C938E931297E0E0F0E0D80112969E
:104F60008D919C911397009719F0F8018C01F6CF61
:104F70008D919C9198012E5F3F4F820F931F20913E
:104F80003207309133072817390769F4309729F42D
:104F9000109235071092340702C0138212821093C8
:104FA000330700933207DF91CF911F910F9108953E
:104FB0006F927F928F929F92AF92BF92CF92DF9229
:104FC000EF92FF920F931F93CF93DF93EC01009723
:104FD00081F4CB01DF91CF911F910F91FF90EF9062
:104FE000DF90CF90BF90AF909F908F907F906F9009
:104FF000B2CEFC01E60FF71F9C0122503109E217E7
:10500000F30708F4A8C0D9010D911C911197061758
:105010001707A8F00530110508F49BC0C8010497D4
:105020008617970708F495C002501109061B170B45
:10503000019311936D937C93CF0122DF8AC05B01B2
:10504000A01AB10A4C01800E911EA0913407B091B4
:10505000350740E050E0E12CF12C109709F44AC0EC
:10506000A815B905D1F56D907C901197630182E088
:10507000C80ED11CCA14DB0480F1A3014A195B09D4
:105080006A0182E0C80ED11C1296BC90129713964A
:10509000AC91B5E0CB16D10440F0B282A38351832A
:1050A0004083D9016D937C930AC00E5F1F4FC301EB
:1050B000800F911FF90191838083EB2DFA2FE1146A
:1050C000F10431F0D7011396FC93EE93129741C08F
:1050D000F0933507E09334073CC08D919C91119774
:1050E0004817590708F4AC017D0112960D90BC9148
:1050F000A02DB3CF80913207909133078815990581
:10510000E1F446175707C8F48091150290911602F2
:10511000009741F48DB79EB74091190250911A0241
:10512000841B950BE817F907B0F4F0933307E0936D
:105130003207F901718360830CC0CB010CDE7C0166
:10514000009749F0A801BE011BD0CE0199DEC7012E
:1051500004C0CE0102C080E090E0DF91CF911F91AA
:105160000F91FF90EF90DF90CF90BF90AF909F9006
:105170008F907F906F90089581E090E0F894FCC24A
:10518000FB01DC0102C001900D9241505040D8F764
:105190000895FC018191861721F08823D9F799277A
:1051A00008953197CF010895FB01DC018D910190A5
:1051B00080190110D9F3990B0895FB01DC010190CE
:1051C0000D920020E1F70895FB01DC0141505040B1
:1051D00048F001900D920020C9F701C01D92415086
:1051E0005040E0F708950F931F93CF93DF93CDB70F
:1051F000DEB72E970FB6F894DEBF0FBECDBF0E8977
:105200001F8986E08C831A8309838FEF9FE79E8333
:105210008D83AE01465E5F4F688D798DCE0101961C
:1052200011D02F813885F801E20FF31F10822E96DE
:105230000FB6F894DEBF0FBECDBFDF91CF911F91A7
:105240000F9108952F923F924F925F926F927F92AB
:105250008F929F92AF92BF92CF92DF92EF92FF9286
:105260000F931F93CF93DF93CDB7DEB72C970FB675
:10527000F894DEBF0FBECDBF7C016B018A01FC013B
:1052800017821682838181FFB0C1CE0101964C0145
:10529000F7019381F60193FD859193FF81916F0151
:1052A000882309F49EC1853239F493FD859193FFDB
:1052B00081916F01853221F4B70190E0C7D1E8CF29
:1052C000512C312C20E02032A0F48B3269F030F4E4
:1052D000803259F0833269F420612CC08D3239F06C
:1052E000803339F4216026C02260246023C0286006
:1052F00021C027FD27C030ED380F3A3078F426FF63
:1053000006C0FAE05F9E300D1124532E13C08AE0D0
:10531000389E300D1124332E20620CC08E3221F4C1
:1053200026FD5FC1206406C08C3611F4206802C0DF
:10533000883641F4F60193FD859193FF81916F01C9
:105340008111C1CF982F9F7D9554933028F40C5F25
:105350001F4FFFE3F9830DC0833631F0833771F0BF
:10536000833509F057C021C0F801808189830E5F21
:105370001F4F44244394512C540114C03801F2E0CF
:105380006F0E711CF801A080B18026FF03C0652D4F
:1053900070E002C06FEF7FEFC5012C874CD12C016C
:1053A00083012C852F77222E16C03801F2E06F0E74
:1053B000711CF801A080B18026FF03C0652D70E04C
:1053C00002C06FEF7FEFC5012C872AD12C012C85FD
:1053D0002068222E830123FC19C0832D90E04816FB
:1053E0005906A0F4B70180E290E030D13A94F5CFAD
:1053F000F50127FC859127FE81915F01B70190E0BF
:1054000025D131103A94F1E04F1A5108411451045A
:1054100079F7DEC0843611F0893631F5F80127FFBF
:1054200007C060817181828193810C5F1F4F08C02A
:1054300060817181072E000C880B990B0E5F1F4F46
:105440002F76722E97FF09C0909580957095619583
:105450007F4F8F4F9F4F2068722E2AE030E0A401CB
:105460002DD1A82EA81843C0853729F42F7EB22E3F
:105470002AE030E025C0F22FF97FBF2E8F36C1F031
:1054800018F4883579F0ADC0803719F0883721F0ED
:10549000A8C02F2F2061B22EB4FE0DC08B2D8460CA
:1054A000B82E09C024FF0AC09F2F9660B92E06C0EF
:1054B00028E030E005C020E130E002C020E132E029
:1054C000F801B7FE07C060817181828193810C5F12
:1054D0001F4F06C06081718180E090E00E5F1F4F1A
:1054E000A401ECD0A82EA818FB2DFF777F2E76FE06
:1054F0000BC0372D3E7FA51450F474FE0AC072FC19
:1055000008C0372D3E7E05C0BA2C372D03C0BA2CFB
:1055100001C0B52C34FF0DC0FE01EA0DF11D8081E4
:10552000803311F4397E09C032FF06C0B394B394BE
:1055300004C0832F867809F0B39433FD12C030FF86
:1055400006C05A2CB31418F4530C5B18B32CB314C4
:1055500060F4B70180E290E03C8778D0B3943C855A
:10556000F6CFB31410F43B1801C0312C34FF11C036
:10557000B70180E390E03C8769D03C8532FF16C0DC
:1055800031FD03C088E790E002C088E590E0B701F4
:105590000CC0832F867851F031FF02C08BE201C02E
:1055A00080E237FD8DE2B70190E050D0A51430F4D1
:1055B000B70180E390E04AD05A94F8CFAA94F4015E
:1055C000EA0DF11D8081B70190E040D0A110F6CF27
:1055D000332009F45DCEB70180E290E037D03A94F1
:1055E000F7CFF7018681978102C08FEF9FEF2C964E
:1055F0000FB6F894DEBF0FBECDBFDF91CF911F91E4
:105600000F91FF90EF90DF90CF90BF90AF909F9061
:105610008F907F906F905F904F903F902F90089564
:10562000FC010590615070400110D8F7809590956D
:105630008E0F9F1F0895FC01615070400190011072
:10564000D8F7809590958E0F9F1F08950F931F9305
:10565000CF93DF93FB01238121FD03C08FEF9FEFE9
:1056600028C022FF16C04681578124813581421708
:10567000530744F4A081B1819D012F5F3F4F3183D7
:1056800020838C93268137812F5F3F4F378326837A
:1056900010C0EB01092F182F0084F185E02D19951A
:1056A000892BE1F68E819F8101969F838E83812FC6
:1056B000902FDF91CF911F910F910895FA01AA27A2
:1056C000283051F1203181F1E8946F936E7F6E5F45
:1056D0007F4F8F4F9F4FAF4FB1E03ED0B4E03CD0F3
:1056E000670F781F891F9A1FA11D680F791F8A1FD6
:1056F000911DA11D6A0F711D811D911DA11D20D03D
:1057000009F468943F912AE0269F11243019305DF6
:105710003193DEF6CF010895462F4770405D4193E7
:10572000B3E00FD0C9F7F6CF462F4F70405D4A3334
:1057300018F0495D31FD4052419302D0A9F7EACFFC
:10574000B4E0A6959795879577956795BA95C9F72B
:1057500000976105710508959B01AC010A2E06941E
:105760005795479537952795BA95C9F7620F731FD7
:0C577000841F951FA01D0895F894FFCF22
:10577C009E0F9E0F9E0F9E0F9E0F9E0F9E0F9E0FB5
:10578C000D010000000000360780000D0000000035
:10579C000053109F0FE30F99101410F20F06100016
:1057AC00000000E216DE16DA16B717C616F116ED73
:1057BC0016E916AD169C169B16000000003519054F
:1057CC00197E175117751761175217000000003218
:1057DC00138416CB113511ED10401738174C187D6A
:1057EC0018B218EF1030172D172A17271720173358
:1057FC00171D171A171717141710170C1708170C53
:10580C00110217FE16FA160D0E131516191A1C2373
:10581C002526292A2C32344750524D4300474E52EC
:10582C004D4300475047474100474E4747410025ED
:10583C003034642E2530366C752C253034642E258E
:10584C0030366C752023253033642E2530336C753F
:10585C00002C0020230072656365697665202000AA
:10586C0072656376206661696C65640020746F20D4
:10587C00000D0A00696E6974206661696C656400CC
:10588C00696E697420636F6D706C65746528626FE6
:10589C006172643129006C656420696E6974000062
:00000001FF
