:100000003FC100000C943A130C940F130C94E412AB
:100010000C94B9120C948E120C9463120C94381236
:100020000C940D125EC100005CC100005AC10000BA
:1000300058C1000056C1000054C1000052C1000068
:1000400050C1000057C300004CC100004AC100006D
:1000500048C1000046C1000044C100000C946A1170
:1000600040C100000C94EF130C94C5133AC100007A
:1000700038C1000036C1000034C1000032C10000A8
:1000800030C100002EC100002CC100002AC10000B8
:100090000C948F130C94651324C100000C94FD0C78
:1000A00020C100001EC100001CC100001AC10000D8
:1000B00018C1000016C1000014C1000012C10000E8
:1000C00010C100000EC100000CC100000AC10000F8
:1000D00008C1000006C1000004C1000002C1000008
:1000E00000C10000FF07DC07E307EA07F107060885
:1000F0000D083D0940092F093309390977094409D9
:1001000048094E09520956095C09600964097709D2
:100110006A096E0972094E414E494E495459494E79
:1001200046CDCCCC3D0AD7233C17B7D13877CC2B62
:10013000329595E6241FB14F0A000020410000C807
:100140004200401C4620BCBE4CCA1B0E5AAEC59D88
:1001500074000020002300260029002C002F00320C
:100160000000010000030106010901727404927489
:100170000448940478C40C00002100240027002ABD
:10018000002D003000330001010000040107010AC6
:100190000100002200250028002B002E0031003431
:1001A0000002010000050108010B01050505050716
:1001B0000508080808020202020A0A0808040404E2
:1001C000040101010101010101030303030303030E
:1001D00003040707070C0C0C0C0C0C0C0C0202029D
:1001E0000206060606060606060B0B0B0B0B0B0B90
:1001F0000B0102102020080810204010204080022F
:10020000010201080402010102040810204080805C
:1002100040201008040201800402018040201008E0
:1002200004020108040201010204081020408001B8
:100230000204081020408000000A0B02090C0D0E79
:100240000807030401000000000000000000000097
:10025000000000000000000000000000000000009E
:10026000000000121110000000000000000000005B
:100270000000000000000000000000000000251445
:1002800011241FBECFEFD1E2DEBFCDBF00E00CBF17
:1002900013E0A0E0B2E0E2E0FBE300E00BBF02C04D
:1002A00007900D92AC30B107D9F727E0ACE0B3E08E
:1002B00001C01D92A430B207E1F711E0C0E4D1E023
:1002C00000E006C021970109802FFE010E94431B18
:1002D000CF33D10780E00807A9F70E9459150C9485
:1002E0007F1D8ECEFC01918D228D892F90E0805C48
:1002F0009F4F821B91098F739927089580E090E0AA
:10030000892B21F00E94C010811121C080E090E073
:10031000892B21F00E94B61081111CC080E090E072
:10032000892B41F080E090E0892B21F00E940000B1
:10033000811113C080E090E0892BA1F080E090E073
:10034000892B81F00E94000081110AC008950E944B
:100350000000DCCF0E940000E1CF0E940000EACF45
:100360000C94000008958BEF0895089580910E037A
:10037000882361F09FB7F89420910E0380910D03BC
:10038000213019F48DBB9FBF08958FBF0895FC01E4
:100390002085918580910E03882379F08FB7F8949A
:1003A00030910E03313039F43DB330930D033DB33A
:1003B0003DBB8FBF02C080930D032CBD9DBD089532
:1003C0009FB7F89480910C03882319F08150809393
:1003D0000C0380910C03811105C08CB58F7B8CBD03
:1003E00010920E039FBF08958CB58F778CBD089532
:1003F0008CB580688CBD08956EBD00000DB407FEFD
:10040000FDCF8EB50895FC01738362830895FC01CE
:10041000778366830895FC01758364830895089546
:100420000895FC01848995890895FC018289938946
:100430000895FC0180899189089580E00895FC0168
:10044000738362830895FC01828193810895FC0186
:10045000868597850895FC0181850895FC01808536
:100460000895FC0187810895FC0186810895FC01AF
:10047000409595854923642B65870895FC01648721
:100480000895FC0163870895FC0162870895FC01CB
:1004900064830895FC0165830895CF92DF92EF9203
:1004A000FF920F931F93CF93DF93EC017B018A019F
:1004B000E881F9810280F381E02D1995D82E8823F7
:1004C00031F1E114F104D9F001151105C1F0CFB6F5
:1004D000F8948F8D90E00397F801208130E0281781
:1004E00039071CF08F8D84508083F801408150E0E3
:1004F000BE016C5D7F4FC7010E94641DCFBE8FB7E8
:10050000F894FE01E15EFE4F10821F8E8FBF8D2D8D
:10051000DF91CF911F910F91FF90EF90DF90CF90DF
:1005200008958091140390911503009709F054C722
:1005300008958091120390911303009709F04CC71E
:1005400008958091100390911103009709F044C71A
:100550000895CF93DF93EC01898D9A8DDC01ED91A5
:10056000FC910680F781E02D199561E08B8D0E944A
:10057000EF0A61E08B8DBCD664E670E080E090E02D
:100580000E942B0B81E0DF91CF9108950F931F9371
:10059000CF93FC01828193818430910569F083308F
:1005A000910579F08230910589F00197A1F040E43E
:1005B00052E46FE070E013C040E054E264EF70E09A
:1005C0000EC040E052E16AE770E009C040E059E047
:1005D0006DE370E004C040E854E86EE170E08681AD
:1005E0009781009771F08130910539F08230910543
:1005F00031F0039731F49CE005C094E003C098E02B
:1006000001C090E000E012E12AE730E080E040170E
:1006100051076207730740F436952795179507959C
:100620008F5F8630A1F787E021E02827448155813C
:100630004130510511F080E501C080E7322F369539
:10064000932B982B908721702187CFB7F8948091B6
:100650000C03811123C0E0EEF1E08491E6E2F2E0C8
:100660009491E82FF0E0EE0FFF1FE958FE4FA5919F
:10067000B491EC91E92319F461E085E339D661E0A6
:1006800085E3ADD78CB580618CBD8CB580648CBDA5
:1006900061E084E3A4D761E083E3A1D780910C03F8
:1006A0008F5F80930C03CFBFCF911F910F9108955F
:1006B000FC01848DDF01A80FB11DA35ABF4F2C91FF
:1006C000848D90E001968F739927848FA689B789CE
:1006D0002C93A089B1898C91837080648C93938DC5
:1006E000848D981306C00288F389E02D80818F7D68
:1006F000808308951F920F920FB60F9211240BB6AC
:100700000F922F933F934F935F936F937F938F93AA
:100710009F93AF93BF93CF93DF93EF93FF9380911A
:10072000020090910300049709F0C3C020911B00C0
:1007300030E0F901E95CFD4F8491F901EF50FE4F83
:10074000D491F901E555FE4FC491CC2371F081118C
:1007500079D5EC2FF0E0EE0FFF1FEF5AFE4FA59179
:10076000B491EC91ED2381E009F480E081709091E7
:100770001E00892719F093B19F5F93B992B1981722
:1007800059F094B1903510F09DE101C09BE024B187
:10079000920F94B982B903C084B18C5E84B984B1DC
:1007A000803A08F4D8C086B197B19695879597B9E5
:1007B00086B983B1853028F086B197B1986097B932
:1007C00086B984B1805A84B913B885B1882309F4F5
:1007D00064C088B18F5F88B98C3008F4BCC086B122
:1007E00097B1982F9F73892F86958695887028E0FA
:1007F000280F281749F0E82FF0E0E55EFD4F308123
:10080000931719F08F5FF5CF80E020E1829FC00140
:10081000112426B137B196E0369527959A95E1F7E0
:10082000422F3695279536952795287038E0320F58
:10083000321749F0E22FF0E0E55EFD4F5081451799
:1008400019F02F5FF5CF20E0822B90916D00992356
:10085000A9F0E0916D0091E09E0F90936D00F0E0A3
:1008600081A790916D0080916C009817A0F015B849
:1008700081E080B980E090E099D50DC080936C0054
:1008800090916C00973008F45CC090916C009434A7
:1008900008F057C0DECF18B85EC086B197B1883374
:1008A0009B4009F058C081E085B918B810926D00DE
:1008B00052C08091020090910300039709F04BC051
:1008C0008091700091E0980F90937000811132C078
:1008D000E0916E008091FF00E81768F080E090E002
:1008E00065D58091140090911500019690931500A4
:1008F000809314001FC0F0E0EF58FF4F608170E05C
:1009000080916F0091E0980F90936F0002C07595F1
:1009100067958A95E2F7617080911C00E9D4809117
:100920006F00863038F010926F0080916E008F5FFC
:1009300080936E0080917000883068F01092700093
:100940000AC015B880911000909111000196909303
:10095000110080931000FF91EF91DF91CF91BF9133
:10096000AF919F918F917F916F915F914F913F9147
:100970002F910F900BBE0F900FBE0F901F901895E8
:10098000FF920F931F93CF93DF93EC01162FF42E5A
:100990000FB7F894898D9A8DDC01ED91FC91008858
:1009A000F189E02D199560E08B8DA2D4898D9A8D07
:1009B000612F6068DC01ED91FC910190F081E02DE8
:1009C0001995182F898D9A8DDC01ED91FC9101907C
:1009D000F081E02D6F2D199561E08B8D89D4898D83
:1009E0009A8DDC01ED91FC910288F389E02D199537
:1009F0000FBF812FDF91CF911F910F91FF9008952D
:100A0000CF93DF93EC018A819B81059761F047E0EA
:100A100061E0CE01B5DF40E860E4CE01B1DF85E002
:100A200090E09B838A838A819B810597E1F38E897D
:100A3000DF91CF910895CF93DF93FC012281338121
:100A40002130310541F0EC0140E061E099DF81E0C7
:100A500090E09B838A8381E0DF91CF910895BF92DC
:100A6000CF92DF92EF92FF920F931F93CF93DF937A
:100A70004C3F10F0E12C76C0142F072FF62EEC011E
:100A8000E881F9810484F585E02D1995CE0169D2BC
:100A9000E881F9810288F389E02DCE011995E82ECD
:100AA000882341F340E06DE0CE016ADF4A8560E0D3
:100AB000CE0166DF4B8560E0CE0162DF4C8560E0F1
:100AC000CE015EDF4D8560E0CE015ADFBFB6F894FF
:100AD000898D9A8DDC01ED91FC910088F189E02DE2
:100AE000199560E08B8D04D4898D9A8DDC01ED9190
:100AF000FC910190F081E02D60E81995CF2CD02E6B
:100B0000012F015068F0898D9A8DF60161916F0176
:100B1000DC01ED91FC910190F081E02D1995F1CF70
:100B200061E08B8DE5D3898D9A8DDC01ED91FC918F
:100B30000288F389E02D1995BFBE44E0410F62E2BF
:100B4000CE011EDF8A819B81039761F043E061E063
:100B5000CE0116DF40E460E4CE0112DF83E090E0D6
:100B60009B838A838E2DDF91CF911F910F91FF90F0
:100B7000EF90DF90CF90BF900895CF93DF93FC016B
:100B80002281338123303105A9F0EC0182819381E8
:100B9000049761F045E061E0CF01F2DE40E060E4FF
:100BA000CE01EEDE84E090E09B838A83C15EDE4F5F
:100BB000888101C080E0DF91CF9108950F931F934A
:100BC000CF93DF93EC01162F0FB7F89460E08B8D75
:100BD0008FD3898D9A8D612F6F77DC01ED91FC9118
:100BE0000190F081E02D1995898D9A8DDC01ED91B0
:100BF000FC910190F081E02D60E01995182F61E0E3
:100C00008B8D76D30FBF812FDF91CF911F910F91E5
:100C10000895EF92FF920F931F93CF93DF9300D02D
:100C2000CDB7DEB78C0195DCF82E811102C0F12C16
:100C30009FC0D8015D968C91823059F0833061F06D
:100C40009EEE980F943098F767E170E0681B710989
:100C500005C060E070E002C061E070E0E62ED801FF
:100C600059968D919C915A97DC01ED91FC910488E5
:100C7000F589E02D199540E861E0C80181DE6AE060
:100C800070E080E090E0E7D461E0C80197DF803851
:100C900071F660E0F801858DA2D4D8015E968C9142
:100CA0005E978F3F59F480910F03843008F0BFCFD7
:100CB00091E0980F90930F035E968C93F801868DC8
:100CC000E82FF0E0EE0FFF1FE05FFC4F1183008381
:100CD000811103C061EA72E00AC0813019F469E948
:100CE00072E005C0823009F0A2CF61E972E08E2D7A
:100CF0004BD140E06EE0C80143DE40E06FE0C80148
:100D00003FDEC8012ED143E050E06BE671E0CE013A
:100D100001960E943A1749816DE1C80131DE4A818E
:100D20006EE1C8012DDE4B8166E2C80129DE40E09C
:100D300060E2C80125DE48E061E2C80121DE44EE40
:100D400066E0C8011DDE40EC67E0C80119DE40E046
:100D500068E0C80115DEF801E05EFE4F81E08083A7
:100D600044E06DE4C8010CDE48E869E0C80108DE33
:100D70008F2D0F900F900F90DF91CF911F910F91BA
:100D8000FF90EF900895AF92BF92CF92DF92EF92D3
:100D9000FF920F931F93CF93DF938C015B01EA01C6
:100DA00069012417350720F48D2FE901C42ED82EB0
:100DB000D80111961C921E9213961C921E921297A5
:100DC00015961C921E92149740E050E06BEB72E077
:100DD000C8010E94CD11F501E480F580CE15DF0534
:100DE000C8F5CE14DF0408F47601D501ED91FC912D
:100DF0001197EE0DFF1DD08010826D917C916C0FCC
:100E00007D1F6115710561F0FB0101900020E9F77C
:100E10003197AF01461B570BC8010E94CD1113C07B
:100E2000F80180819181009711F00E94F71BD80191
:100E300011961C921E9215961C921E921497139650
:100E40001C921E921297F50180819181FC01EE0D9A
:100E5000FF1DD082C801DF91CF911F910F91FF90AC
:100E6000EF90DF90CF90BF90AF900895009769F01A
:100E7000FC0101900020E9F73197AF01481B590BA5
:100E8000BC0183E094E00C94591080E090E0089558
:100E9000CF93DF93D62FC091100291E0909365031A
:100EA000C093CE051092640310926303682F80EA0A
:100EB00094E0B1D46D2F80EA94E0ADD490916303B7
:100EC000913208F045C0809142038111FCCF82E04D
:100ED0008093420381E0809341038FEF809340032E
:100EE00010923F0390933E03A3E4B3E0EEE1F3E0FE
:100EF00080E0981721F02D9121938F5FFACF109207
:100F00001D0380911D03CC0FC82BC0931D0380913E
:100F10001C03813061F410921C0380911D038093A7
:100F2000BB008091BC0083FDF8CF85EC01C085EE4D
:100F30008093BC00809142038230E1F380914003B2
:100F40008F3F31F080914003803211F08091400357
:100F5000109264031092630310926503DF91CF91A6
:100F60000895CF93DF93FC01228133812230310534
:100F700041F0EC0141E061E003DD82E090E09B8321
:100F80008A83DF91CF910895883008F04CC0A82F54
:100F9000B0E0AA0FBB1FA050BE4F11967C936E937A
:100FA00090E0FC013197E730F10510F58827EE5805
:100FB000FF4F8F4F0C94431B809169008360809397
:100FC0006900E89A0895809169008C6080936900B7
:100FD000E99A089580916900806380936900EA9A94
:100FE000089580916900806C80936900EB9A089560
:100FF00080916A00836080936A00EC9A08958091E2
:101000006A008C6080936A00ED9A089580916A006E
:10101000806380936A00EE9A089580916A00806CE4
:1010200080936A00EF9A08958F929F92AF92BF9239
:101030000F931F93CF93DF93CDB7DEB7A1970FB672
:10104000F894DEBF0FBECDBF19A2423008F44AE0CB
:101050008E010F5D1F4F842E912CA12CB12CA50168
:1010600094010E94FE19E62FB901CA01015011092D
:10107000EA3014F4E05D01C0E95CD801EC93232B65
:10108000242B252B61F7C801F1DEA1960FB6F89449
:10109000DEBF0FBECDBFDF91CF911F910F91BF90EB
:1010A000AF909F908F9008958F929F92AF92BF9232
:1010B000CF92DF92EF92FF920F931F93CF93DF9324
:1010C0006B017C01142F9B01AC010E942C1B882317
:1010D00019F085EA92E027C046015701E894B7F875
:1010E0002FEF3FEF4FE75FE7C501B4010E942C1BD4
:1010F00081110DC02FEF3FEF4FE75FE7C501B4014E
:101100000E94B61818161CF489EA92E00CC02FEF62
:101110003FEF4FE75FE4C701B6010E94281B181696
:101120007CF48DEA92E0DF91CF911F910F91FF90B7
:10113000EF90DF90CF90BF90AF909F908F9096CE22
:101140002FEF3FEF4FE75FECC701B6010E94B618E3
:1011500087FDE7CF20E030E0A901C701B6010E947A
:10116000B61887FF0BC06DE283E094E00E94CA10BE
:10117000EC01F7FAF094F7F8F09402C0C0E0D0E088
:1011800000E060E070E080E09FE3101741F020E0B5
:1011900030E040E251E40E94941A0F5FF6CFA701BD
:1011A00096010E94301A6B017C010E94FC1A4B01CF
:1011B0005C014AE039DFC80FD91F1123A9F1C5012D
:1011C000B4010E94BA189B01AC01C701B6010E948C
:1011D0002F1A6B017C016EE283E094E0DBD7C80F2D
:1011E000D91F20E030E040E251E4C701B6010E947F
:1011F0001B194B015C010E94FC1A6B01E12CF12CC4
:101200004AE0C701B60110DFC80FD91FC701B601F8
:101210000E94BA189B01AC01C501B4010E942F1AAB
:101220006B017C011150E9F6CE01DF91CF911F9146
:101230000F91FF90EF90DF90CF90BF90AF909F9075
:101240008F90089590E0FC013197E231F10508F0AC
:101250004EC08827E758FF4F8F4F0C94431B809157
:1012600080008F7703C0809180008F7D8093800005
:10127000089580918000877FF9CF84B58F7702C071
:1012800084B58F7D84BD08958091B0008F7703C0B1
:101290008091B0008F7D8093B00008958091900080
:1012A0008F7707C0809190008F7D03C08091900060
:1012B000877F8093900008958091A0008F7707C06A
:1012C0008091A0008F7D03C08091A000877F8093D4
:1012D000A0000895809120018F7707C080912001A0
:1012E0008F7D03C080912001877F80932001089526
:1012F0001F93CF93DF93282F30E0F901E95CFD4F76
:101300008491F901EF50FE4FD491F901E555FE4F5C
:10131000C491CC23B9F0162F811194DFEC2FF0E0AB
:10132000EE0FFF1FEF56FE4FA591B4919FB7F894B3
:10133000111104C08C91D095D82302C0EC91DE2B02
:10134000DC939FBFDF91CF911F91089510921B03F3
:1013500010921A03109264031092630310924203D6
:1013600081E08093410310921C0361E084E1C0DFBF
:1013700061E085E1BDDFE9EBF0E080818E7F808375
:1013800080818D7F808388E48093B80085E480939A
:10139000BC008CE79BE090931903809318038DE7C2
:1013A0009BE090931703809316030895CF93DF93E8
:1013B000FC01228133812230310559F0EC01678D27
:1013C000858D96DF60E08C8D93DF82E090E09B83DB
:1013D0008A83DF91CF910895CF92DF92EF92FF92AF
:1013E0001F93CF93DF93EC0162E1E8DB182F6CE1F0
:1013F000CE01E4DB2A813B812430310579F48295EA
:1014000086958695837091E0892780FBEE24E0F82D
:10141000F12C812F807AE82AEF2839F48A819B8188
:101420000497B9F416FD22C014C0888999890196E1
:10143000998B888B4FEF62E1CE01A2DA4FEF62E128
:10144000CE01DF91CF911F91FF90EF90DF90CF9071
:1014500097CA8A819B81039709F0B5C013FFB3C077
:101460008C899D8901969D8B8C8BB6C063E1CE01E2
:10147000A5DBF82E60E1CE01A1DB482F6DE0CE01A7
:101480007FDAEFB6F894898D9A8DDC01ED91FC91AD
:101490000088F189E02D199560E08B8D29DF898D19
:1014A0009A8DDC01ED91FC910190F081E02D60E0DE
:1014B00019956E01B0E2CB0ED11C1F2D112379F0CE
:1014C000898D9A8DDC01ED91FC910190F081E02DE8
:1014D00060E01995F60181936F011150EFCF61E043
:1014E0008B8D06DF898D9A8DDC01ED91FC91028850
:1014F000F389E02D1995EFBEFF8E4FEF62E1CE012B
:101500003FDA69E1CE015ADB7E01BFEDEB1ABEEF97
:10151000FB0A87FD8D5F85958595F70180836AE1DC
:10152000CE014CDB90E09F878E87D7012C918E8572
:101530009F8527FF07C0820F911D27FD9A959F87E2
:101540008E870BC024E0880F991F2A95E1F76FE082
:1015500070E00E94301B7F876E87FE01E05EFE4FC9
:101560008081882329F08E859F858D59910904C03B
:101570008E859F85845A91099F878E878F8DFE0166
:10158000E15EFE4F843090F088A18E8389A18F8325
:101590008AA188878BA189878D8181110CC09E814A
:1015A0008C81981741F08E818F3F29F080818823AC
:1015B00009F440CF11C08A899B8901969B8B8A8B45
:1015C00081E08083F3CF8A819B81059709F032CF38
:1015D00012FF30CF11701E8BCE01C3DC2BCFCF9307
:1015E000DF9390E0FC01EF50FE4F2491FC01E555A4
:1015F000FE4F8491882361F190E0880F991FFC01D0
:10160000E958FE4FC591D491FC01EF56FE4FA591CC
:10161000B491611109C09FB7F89488812095822305
:101620008883EC912E230BC0623061F49FB7F8944D
:101630008881322F309583238883EC912E2B2C9335
:101640009FBF06C08FB7F894E8812E2B28838FBFE9
:10165000DF91CF9108958F929F92AF92BF92CF92D8
:10166000DF92EF92FF926B017C0103D64B015C018C
:10167000C114D104E104F104E9F0FBD5DC01CB0194
:1016800088199909AA09BB09883E9340A105B105AB
:1016900078F321E0C21AD108E108F10888EE880E3B
:1016A00083E0981EA11CB11CC114D104E104F10413
:1016B00021F7DECFFF90EF90DF90CF90BF90AF90FB
:1016C0009F908F900895FC01228133812330310552
:1016D000D1F381E00895CF93DF93EC01E881F981A4
:1016E0000280F381E02DCE0119958823B9F3DF91B3
:1016F000CF91089581E00895089508950895E091A7
:101700001B0380911A03E81730F4F0E0EB52F94F15
:10171000808190E008958FEF9FEF089590911B03D3
:1017200080911A03981750F4E92FF0E0EB52F94F2B
:10173000208130E09F5F90931B0302C02FEF3FEFAB
:10174000C901089580911A0390E020911B03821B28
:101750009109089580E090E0089585ED8093BC00A4
:101760008091BC0084FDFCCF10924203089540910B
:10177000B206262F30E0240F311D21323105DCF472
:10178000209142032430C9F4FC0180E090E08617E8
:1017900058F43091B2062191DC01AE56B94FA30F37
:1017A000B11D2C930196F3CF8091B206680F609320
:1017B000B20680E0089581E0089582E00895CF9216
:1017C000DF92EF92FF920F931F93CF93DF937C01F1
:1017D000CB018A0120916503222389F0EB016B0183
:1017E000C40ED51ECC15DD0561F06991D701ED91D0
:1017F000FC910190F081E02DC7011995F3CF642F82
:10180000B6DFC801DF91CF911F910F91FF90EF904C
:10181000DF90CF900895CF93DF931F92CDB7DEB7BF
:101820006983209165032223D1F020916303203244
:1018300040F021E030E0FC013383228380E090E03F
:1018400014C080916403E82FF0E0ED5BFC4F9981B8
:1018500090838F5F809364038093630304C061E08F
:10186000CE01019684DF81E090E00F90DF91CF916F
:1018700008958F929F92AF92BF92CF92DF92EF9294
:10188000FF92CF93DF93EC016B0118D54B015C0104
:10189000E12CF12C13D5DC01CB0188199909AA0997
:1018A000BB098C159D05AE05BF0530F48A819B816F
:1018B000039781F381E001C080E0DF91CF91FF9039
:1018C000EF90DF90CF90BF90AF909F908F90089552
:1018D0008F929F92AF92BF92CF92DF92EF92FF9240
:1018E000CF93DF93EC016B01E9D44B015C01E12C58
:1018F000F12CE4D4DC01CB0188199909AA09BB09B0
:101900008C159D05AE05BF0550F4E881F981028074
:10191000F381E02DCE011995882359F301C080E0B1
:10192000DF91CF91FF90EF90DF90CF90BF90AF907D
:101930009F908F9008958F929F92AF92BF92CF9277
:10194000DF92EF92FF92CF93DF93FC012789308DD6
:10195000232BA1F1EC01B2D44B015C0189E0C82E2C
:10196000D12CE12CF12CE881F9810488F589E02D56
:10197000CE011995882311F1A1D4AB01BC014819FE
:1019800059096A097B098F89988DA0E0B0E0841716
:101990009507A607B707A0F00E94E316A7019601D6
:1019A0000E94D2199B01AC012F5F3F4F4F4F5F4FF9
:1019B000A4E6B0E00E94EE194EDED5CF81E001C072
:1019C00080E0DF91CF91FF90EF90DF90CF90BF90BC
:1019D000AF909F908F900895CF93DF93962F8111B2
:1019E00003C0642F892F06C0C42FD62F642F80DC3C
:1019F0006C2F8D2FDF91CF917BCC1F920F920FB662
:101A00000F9211240BB60F922F933F934F935F9336
:101A10006F937F938F939F93AF93BF93EF93FF93B6
:101A20008091B900887F803609F49CC068F58832BF
:101A300009F45BC090F4803109F454C038F4882371
:101A400009F4F6C0883009F44DC0F5C0883109F4B6
:101A50004CC0803209F45DC0EEC0803409F468C027
:101A600048F4803309F455C0883309F0E4C080930A
:101A70004003D8C0803509F44FC0883509F45DC0F3
:101A8000883409F0D8C0D6C0883909F4C7C0A8F492
:101A9000883709F467C038F4883609F463C08037A2
:101AA00009F460C0C8C0883809F4B8C0803909F4A6
:101AB0005FC0803809F0BFC05BC0803B09F486C0BE
:101AC00038F4803A09F466C0883A09F47FC0B3C09C
:101AD000803C09F4A7C0883C09F4A4C0883B09F401
:101AE0008AC0A9C080911D0310C090913F038091CE
:101AF0003E03981770F5E0913F0381E08E0F8093CD
:101B00003F03F0E0E25EFC4F80818093BB0085ECF8
:101B100086C0809340038EC0E0913F0381E08E0F2A
:101B200080933F038091BB00F0E0E25EFC4F808336
:101B300090913F0380913E036EC0E0913F0381E0AE
:101B40008E0F80933F038091BB00F0E0E25EFC4F7C
:101B500080838091410381116DC081E080931C03DB
:101B600084EA61C083E0809342031092D406CFCF11
:101B70008091D406803208F051C0E091D40681E013
:101B80008E0F8093D4068091BB00F0E0EC54F94FA7
:101B90008083BDCF85EC8093BC001092420380917E
:101BA000D406803230F4E091D406F0E0EC54F94FE2
:101BB00010826091D40670E0E0911603F091170353
:101BC00084EB96E019951092D40635C084E080939A
:101BD00042031092B3061092B206E0911803F091FE
:101BE000190319958091B206811105C081E0809397
:101BF000B20610929206E091B30681E08E0F8093B8
:101C0000B306F0E0EE56F94F80818093BB009091CF
:101C1000B3068091B206981708F479CF85E88093CF
:101C2000BC0009C085EC8093BC001092420303C045
:101C30001092400392DDFF91EF91BF91AF919F9180
:101C40008F917F916F915F914F913F912F910F9065
:101C50000BBE0F900FBE0F901F901895CF92DF9282
:101C6000EF92FF920F931F93CF93DF93CDB7DEB721
:101C7000C850D1400FB6F894DEBF0FBECDBF64EFA1
:101C800071E080E090E0E7DC8CEA94E00E94BD0522
:101C9000882309F41CC18BEFC85FDE4F8883C850CE
:101CA000D140AE01485F5E4F8E010F5F1F4FB801FC
:101CB0008CEA94E00E944D02882309F400C1C450CC
:101CC000DF4F19821882CC5FD040C250DF4F19829B
:101CD0001882CE5FD040C050DF4F19821882C050AA
:101CE000D140F80101900020E9F73197AF01401B86
:101CF000510BB801CE0184509F4F4FD36CE2CE01FF
:101D000084509F4F31D39C0140E050E0BE016450AD
:101D10007F4FCE018E5F9E4F36D8CE5FDE4F8881DB
:101D20009981C250D1400E94371760938E067093FC
:101D30008F068093900690939106CE5FDE4F888148
:101D40009981C250D1400E94F71B63E2CE018450BA
:101D50009F4F0AD37C016CE2CE0184509F4F04D385
:101D6000AC014F5F5F4F9701BE0164507F4FCE01C2
:101D70008E5F9E4F08D8CE5FDE4F88819981C2501A
:101D8000D1400E94371760938A0670938B06809328
:101D90008C0690938D06CE5FDE4F88819981C2506C
:101DA000D1400E94F71B63E2CE0184509F4FDCD2EA
:101DB000C050DF4F28813981C050D140AC014F5F06
:101DC0005F4FBE0164507F4FCE018E5F9E4F0E94D9
:101DD000C306CE5FDE4F88819981C250D1400E94F8
:101DE00037176093860670938706809388069093D2
:101DF0008906CE5FDE4F88819981C250D1400E9412
:101E0000F71BC80133D881EB92E030D8C090BA04F8
:101E1000D090BB040D2C000CEE08FF08F7FE0DC09F
:101E20006DE283E094E0B6D166277727CB016C1989
:101E30007D098E099F094AE003C04AE0C701B60147
:101E4000F3D889EB92E012D88CEB92E00FD8609136
:101E50008E0670918F06809190069091910645E0D4
:101E600023D986EC92E002D860918A0670918B06A5
:101E700080918C0690918D0645E016D982ED92E016
:101E80000E943607609186067091870680918806C9
:101E90009091890643E008D989EB92E00E943607C9
:101EA00061E08DE025DA60E08DE022DAC450DF4F9A
:101EB00088819981CC5FD0400E94F71B08C08DEDCE
:101EC00092E00E94360789EB92E00E943607C090AC
:101ED0008606D0908706E0908806F090890640E05C
:101EE0006DE18BE179DD40E067E28BE175DD40E09B
:101EF00061E38BE171DD40E06EE28BE16DDD40E09E
:101F00006FE28BE169DD40E067E18BE165DD40E098
:101F10006DE28BE161DD40E069E28BE15DDD20E0B7
:101F200030EC48EA53E4C701B6010E94281B18169A
:101F300054F020E030E044EB51E4C701B6010E94C8
:101F4000B61887FF03C041E067E2A0C020E030E0A0
:101F500044EB51E4C701B6010E94281B18166CF42B
:101F600020E030E047E852E4C701B6010E94B6180D
:101F700087FF03C041E061E389C020E030E047E82B
:101F800052E4C701B6010E94281B18166CF420E029
:101F900030E041EE52E4C701B6010E94B61887FF57
:101FA00003C041E06EE272C020E030E041EE52E456
:101FB000C701B6010E94281B18166CF420E030E817
:101FC0004DE153E4C701B6010E94B61887FF03C074
:101FD00041E06FE25BC020E030E84DE153E4C7012F
:101FE000B6010E94281B18166CF420E030E84AE481
:101FF00053E4C701B6010E94B61887FF03C041E051
:1020000067E144C020E030E84AE453E4C701B60188
:102010000E94281B18166CF420E030E847E753E4D0
:10202000C701B6010E94B61887FF03C041E06DE208
:102030002DC020E030E847E753E4C701B6010E9415
:10204000281B18166CF420E030E442E953E4C70181
:10205000B6010E94B61887FF03C041E069E216C0CE
:1020600020E030E442E953E4C701B6010E94281B96
:10207000181674F420E030EC48EA53E4C701B601C6
:102080000E94B61887FF04C041E06DE18BE1A4DC3B
:10209000C85FDE4F0FB6F894DEBF0FBECDBFDF9135
:1020A000CF911F910F91FF90EF90DF90CF90089507
:1020B0000895CF92DF92EF92FF920F931F93CF93E9
:1020C000DF936C017A018B01C0E0D0E0CE15DF0513
:1020D00081F0D8016D918D01D601ED91FC910190B7
:1020E000F081E02DC6011995892B11F02196EECFD4
:1020F0007E01C701DF91CF911F910F91FF90EF906B
:10210000DF90CF900895FC01538D448D252F30E052
:10211000842F90E0821B930B541710F0CF960895F4
:1021200001970895FC01918D828D981761F0828D41
:10213000DF01A80FB11D5D968C91928D9F5F9F73FB
:10214000928F90E008958FEF9FEF0895FC01918D9D
:10215000828D981731F0828DE80FF11D858D90E00A
:1021600008958FEF9FEF08950E94601D86E693E02B
:102170000E94720121E0892B09F420E0822F08954A
:1021800083E094E00E94720121E0892B09F420E0B1
:10219000822F0895EF92FF920F931F93CF93DF93B7
:1021A000EC0181E0888F9B8D8C8D981305C0E889A8
:1021B000F989808185FD26C0F62E0B8D10E00F5F1A
:1021C0001F4F0F731127E02E8C8DE8120CC00FB635
:1021D00007FCFACFE889F989808185FFF5CFCE0128
:1021E0000E945803F1CF8B8DFE01E80FF11DE35AD9
:1021F000FF4FF0829FB7F8940B8FEA89FB898081AB
:1022000080620AC09FB7F894EE89FF896083E889ED
:10221000F98980818370806480839FBF81E090E032
:10222000DF91CF911F910F91FF90EF900895CF9381
:10223000DF93EC01888D8823C9F0EA89FB898081CE
:1022400085FD05C0A889B9898C9186FD0FC00FB6A0
:1022500007FCF5CF808185FFF2CFA889B9898C91E1
:1022600085FFEDCFCE010E945803E7CFDF91CF91DC
:1022700008953FB7F8948091FA069091FB06A091DB
:10228000FC06B091FD0626B5A89B05C02F3F19F0AE
:102290000196A11DB11D3FBFBA2FA92F982F8827E6
:1022A000820F911DA11DB11DBC01CD0142E0660F41
:1022B000771F881F991F4A95D1F708952FB7F89473
:1022C0006091F6067091F7068091F8069091F906F4
:1022D0002FBF08951F920F920FB60F9211242F93C4
:1022E0003F938F939F93AF93BF938091F606909106
:1022F000F706A091F806B091F9063091F50623E0B3
:10230000230F2D3720F40196A11DB11D05C026E82D
:10231000230F0296A11DB11D2093F5068093F606AA
:102320009093F706A093F806B093F9068091FA0609
:102330009091FB06A091FC06B091FD060196A11DAF
:10234000B11D8093FA069093FB06A093FC06B09310
:10235000FD06BF91AF919F918F913F912F910F906B
:102360000FBE0F901F901895CF93DF93FC0124812F
:102370003581232B69F0C081D181062E000C770BAB
:10238000CE010E946D1D009719F08C1B9D0B02C0A1
:102390008FEF9FEFDF91CF910895EF92FF920F9310
:1023A0001F93CF93DF93EC017B018A018881998190
:1023B000009729F02A813B8124173507F8F4B801EA
:1023C0006F5F7F4F0E94801C009759F0998388832C
:1023D0001B830A832C813D81232B81F4FC01108215
:1023E0000DC088819981009711F00E94F71B198216
:1023F00018821D821C821B821A8207C01D830C83D7
:10240000B701888199810E94781DCE01DF91CF911B
:102410001F910F91FF90EF9008951F920F920FB6AA
:102420000F9211240BB60F922F933F934F935F930C
:102430006F937F938F939F93AF93BF93EF93FF938C
:10244000E0910E02F0910F021995FF91EF91BF916B
:10245000AF919F918F917F916F915F914F913F913C
:102460002F910F900BBE0F900FBE0F901F901895DD
:102470001F920F920FB60F9211240BB60F922F934B
:102480003F934F935F936F937F938F939F93AF93FC
:10249000BF93EF93FF93E0910C02F0910D02199519
:1024A000FF91EF91BF91AF919F918F917F916F912C
:1024B0005F914F913F912F910F900BBE0F900FBEE8
:1024C0000F901F9018951F920F920FB60F92112424
:1024D0000BB60F922F933F934F935F936F937F931E
:1024E0008F939F93AF93BF93EF93FF93E09102027B
:1024F000F09103021995FF91EF91BF91AF919F91D8
:102500008F917F916F915F914F913F912F910F909C
:102510000BBE0F900FBE0F901F9018951F920F9239
:102520000FB60F9211240BB60F922F933F934F9338
:102530005F936F937F938F939F93AF93BF93EF932B
:10254000FF93E0910002F09101021995FF91EF9144
:10255000BF91AF919F918F917F916F915F914F91BB
:102560003F912F910F900BBE0F900FBE0F901F90B9
:1025700018951F920F920FB60F9211240BB60F925F
:102580002F933F934F935F936F937F938F939F937B
:10259000AF93BF93EF93FF93E0910A02F0910B0288
:1025A0001995FF91EF91BF91AF919F918F917F917D
:1025B0006F915F914F913F912F910F900BBE0F90B4
:1025C0000FBE0F901F9018951F920F920FB60F928B
:1025D00011240BB60F922F933F934F935F936F93FA
:1025E0007F938F939F93AF93BF93EF93FF93E0916C
:1025F0000802F09109021995FF91EF91BF91AF91F7
:102600009F918F917F916F915F914F913F912F910A
:102610000F900BBE0F900FBE0F901F9018951F923A
:102620000F920FB60F9211240BB60F922F933F9378
:102630004F935F936F937F938F939F93AF93BF93CA
:10264000EF93FF93E0910602F09107021995FF9135
:10265000EF91BF91AF919F918F917F916F915F911A
:102660004F913F912F910F900BBE0F900FBE0F9087
:102670001F9018951F920F920FB60F9211240BB650
:102680000F922F933F934F935F936F937F938F930B
:102690009F93AF93BF93EF93FF93E0910402F09168
:1026A00005021995FF91EF91BF91AF919F918F9185
:1026B0007F916F915F914F913F912F910F900BBE42
:1026C0000F900FBE0F901F9018951F920F920FB68C
:1026D0000F9211240BB60F922F933F934F935F935A
:1026E0006F937F938F939F93AF93BF93EF93FF93DA
:1026F00086E693E00E945803FF91EF91BF91AF915E
:102700009F918F917F916F915F914F913F912F9109
:102710000F900BBE0F900FBE0F901F9018951F9239
:102720000F920FB60F9211240BB60F922F938F9327
:102730009F93EF93FF93E0917603F091770380816D
:10274000E0917C03F0917D0382FD12C09081809125
:102750007F038F5F8F7320918003821751F0E09188
:102760007F03F0E0EA59FC4F958F80937F0301C00F
:102770008081FF91EF919F918F912F910F900BBED0
:102780000F900FBE0F901F9018951F920F920FB6CB
:102790000F9211240BB60F922F933F934F935F9399
:1027A0006F937F938F939F93AF93BF93EF93FF9319
:1027B00083E094E00E945803FF91EF91BF91AF91A5
:1027C0009F918F917F916F915F914F913F912F9149
:1027D0000F900BBE0F900FBE0F901F9018951F9279
:1027E0000F920FB60F9211240BB60F922F938F9367
:1027F0009F93EF93FF93E0911304F0911404808171
:10280000E0911904F0911A0482FD12C09081809128
:102810001C048F5F8F7320911D04821751F0E0918B
:102820001C04F0E0ED5FFB4F958F80931C0401C00A
:102830008081FF91EF919F918F912F910F900BBE0F
:102840000F900FBE0F901F901895E6E6F3E01382ED
:10285000128248EE53E060E070E044835583668363
:1028600077838FE292E0918380832DEC30E035878F
:1028700024872CEC30E03787268728EC30E0318B3A
:10288000208B29EC30E0338B228B2AEC30E0358B27
:10289000248B2EEC30E0378B268B118E128E138E0C
:1028A000148EE3E0F4E0138212824483558366833E
:1028B00077839183808385EC90E09587848784EC8F
:1028C00090E09787868780EC90E0918B808B81ECFD
:1028D00090E0938B828B82EC90E0958B848B86ECDE
:1028E00090E0978B868B118E128E138E148EAFEC28
:1028F000B5E013961C921E92129715961C921E928A
:10290000149717961C921E92169781E492E01196E6
:102910009C938E9380E518968C93189719961C9229
:102920001997E0EAF4E013821282448355836683A8
:1029300077838BE592E091838083E9EDF5E0108267
:1029400011821382128214821582168217821086D7
:102950001286118613861486158616861786118AA6
:10296000108A128A138A148A158A168A108E178A78
:10297000118E128E138E148E158E12A213A214A213
:1029800015A216A217A210AA11AA12AA13AA14AA73
:1029900015AA16AE17AE10921D0610921E061092C2
:1029A0001F061092200610922506109226061092FD
:1029B0002B0610922C0610922D0610922E061092C5
:1029C0003306109234061092390610923A0610928D
:1029D0003B0610923C06109241061092420610925D
:1029E0004706109248061092490610924A06109225
:1029F0004F061092500610925506109256061092ED
:102A000057061092580610925D0610925E0692E0EC
:102A100090936E0610926F061092700610927106D7
:102A20001092730610927206109275061092740638
:102A30001092760610927706109278061092790618
:102A400010927A0610927B0610927C0610927D06F8
:102A500010927E0610927F061092800610928106D8
:102A600010928206109283061092840610928506B8
:102A700010925F06ECEAF4E0138212828FEF8483F7
:102A80008287838714861586118A108A138A128A90
:102A9000158A148A108E178AB28FA18F2AE0238F8D
:102AA0002DE632E0318320831092CB05958F868FFF
:102AB0000895789484B5826084BD84B5816084BDB6
:102AC00085B5826085BD85B5816085BD80916E00CC
:102AD000816080936E0010928100809181008260FD
:102AE000809381008091810081608093810080913A
:102AF00080008160809380008091B1008460809329
:102B0000B1008091B00081608093B000809191000D
:102B10008260809391008091910081608093910008
:102B2000809190008160809390008091A1008260EC
:102B30008093A1008091A10081608093A100809189
:102B4000A00081608093A000809121018260809329
:102B500021018091210181608093210180912001D8
:102B600081608093200180917A00846080937A0054
:102B700080917A00826080937A0080917A008160EF
:102B800080937A0080917A00806880937A00109216
:102B9000C10061E08DE00E94EF0AE0911304F09122
:102BA000140422E02083E0910F04F09110041082BD
:102BB000E0911104F091120480E1808310921B04D3
:102BC000E0911704F091180496E09083E0911504C9
:102BD000F0911604808180618083E0911504F0916A
:102BE0001604808188608083E0911504F0911604BA
:102BF000808180688083E0911504F09116048081C3
:102C00008F7D8083E0917603F09177032083E091BC
:102C10007203F09173031082E0917403F0917503D5
:102C20008FEC808310927E03E0917A03F0917B0316
:102C30009083E0917803F0917903808180618083B3
:102C4000E0917803F0917903808188608083E0913E
:102C50007803F0917903808180688083E091780324
:102C6000F091790380818F7D80830E94A6098CEA90
:102C700094E00E940906811107C089EE92E00E944B
:102C8000360789EB92E002C085EF92E00E9436079A
:102C90000E94A60961E08BE00E9448076DE189E08F
:102CA0000E94480761E08DE00E94EF0A61E08DE13B
:102CB0000E94EF0A61E087E20E94EF0A61E081E38F
:102CC0000E94EF0A61E08EE20E94EF0A61E08FE26B
:102CD0000E94EF0A61E087E10E94EF0A61E08DE265
:102CE0000E94EF0A61E089E20E94EF0A61E08BE155
:102CF0000E94EF0A61E08BE20E94EF0A61E089E145
:102D00000E94EF0A61E081E20E94EF0A61E08FE138
:102D10000E94EF0A61E085E20E94EF0A61E083E22F
:102D20000E94EF0A83E093E00E9436070E942E0E75
:102D30000E947E01FBCF8F929F92AF92BF92CF9263
:102D4000DF92EF92FF92CF93DF93EC01688179815C
:102D50008A819B81611571058105910521F464E2E9
:102D600079ED8BE597E02DE133EF41E050E01AD3A8
:102D700049015A019B01AC01A7EAB1E42FD36B01D1
:102D80007C01ACEEB4EFA501940134D3DC01CB019E
:102D90008C0D9D1DAE1DBF1DB7FF03C00197A1097E
:102DA000B04888839983AA83BB83BC01CD019F77F8
:102DB000DF91CF91FF90EF90DF90CF90BF90AF90D9
:102DC0009F908F9008958F929F92AF92BF92CF92D3
:102DD000DF92EF92FF926091110270911202809146
:102DE000130290911402611571058105910521F47A
:102DF00064E279ED8BE597E02DE133EF41E050E0BF
:102E0000D1D249015A019B01AC01A7EAB1E4E6D253
:102E10006B017C01ACEEB4EFA5019401EBD2DC01B7
:102E2000CB018C0D9D1DAE1DBF1DB7FF03C00197CB
:102E3000A109B0488093110290931202A09313024B
:102E4000B0931402BC01CD019F77FF90EF90DF900B
:102E5000CF90BF90AF909F908F9008956093110294
:102E600070931202809313029093140208956627C0
:102E7000772709C0FB01DC0102C005900D9241508B
:102E80005040D8F708958F929F92AF92BF92CF9201
:102E9000DF92EF92FF920F931F93CF93DF93EC019A
:102EA0006B016115710519F0FB01918380837E012F
:102EB000FFEFEF1AFF0A0881802F90E037D1892BAE
:102EC00011F0E701F4CF0D3239F47E0182E0E80E13
:102ED000F11C098111E008C00B3229F47E0192E057
:102EE000E90EF11C098110E0E701219743E050E071
:102EF0006EE171E0CE0122D1892BB9F4239645E031
:102F000050E069E171E0CE0119D1892B09F42596D1
:102F1000C114D10419F0F601D183C0831111F0C09E
:102F200060E070E080E89FE7F4C043E050E066E1D5
:102F300071E0CE0103D1892B59F4C114D10409F4F5
:102F4000E4C0F2E0EF0EF11CF601F182E082DDC098
:102F500020E030E0A901C0E0D0E0F70160EDA62E4E
:102F6000A00E89E08A1528F1912F9260B92E812F49
:102F7000887012FF04C0811123C0219621C08111E5
:102F80002197A5E0B0E02AD2DC01CB01880F991F80
:102F9000AA1FBB1F9C01AD012A0D311D411D511DF2
:102FA000283989E93807480789E1580748F0166049
:102FB00006C09EEFA9120AC013FD40C01860B12ED2
:102FC0008FEFE81AF80A00811B2DC7CF802F8F7D65
:102FD0008534A1F580818D3211F4106106C08B32E9
:102FE00021F0319661E070E004C08181329662E0A8
:102FF00070E080538A3018F0E61BF70B1FC060E0CA
:1030000070E060389CE079075CF4DB01AA0FBB1F1D
:10301000AA0FBB1F6A0F7B1F660F771F680F711DFA
:103020003196DF0111978C9180538A3050F314FF51
:1030300003C0719561957109C60FD71F11FF08C0B4
:10304000C114D10429F0CF010197F6019183808347
:10305000CA01B9018FD0212F2370233019F04B0101
:103060005C0106C04B015C01B7FAB094B7F8B094AC
:1030700020E030E0A901C501B40178D0882309F42B
:103080003CC0D7FF06C0D195C195D10905E311E039
:1030900002C00DE411E06801F8E1CF1AD10890E216
:1030A000E92EF12CCE15DF056CF0F8012591359154
:1030B00045915491C501B401BED04B015C01CE19BC
:1030C000DF09F0CF04501109F594E7940C151D05A4
:1030D00049F78A2D880F8B2D881F8F3F41F020E004
:1030E00030E0A901C501B40141D0811106C082E2DE
:1030F00090E09093FF068093FE06C501B40109C0DD
:1031000060E070E080E89FEF04C060E070E080EC79
:103110009FE7DF91CF911F910F91FF90EF90DF908C
:10312000CF90BF90AF909F908F9008959111E6C07F
:10313000803219F089508550D0F70895FB01DC01E9
:103140004150504088F08D9181341CF08B350CF447
:10315000805E659161341CF06B350CF4605E861BFB
:10316000611171F3990B0895881BFCCF40D008F4CE
:1031700081E00895E89409C097FB3EF4909580950E
:10318000709561957F4F8F4F9F4F9923A9F0F92F2D
:1031900096E9BB279395F695879577956795B795AB
:1031A000F111F8CFFAF4BB0F11F460FF1BC06F5F91
:1031B0007F4F8F4F9F4F16C0882311F096E911C0A3
:1031C000772321F09EE8872F762F05C0662371F0C4
:1031D00096E8862F70E060E02AF09A95660F771FD8
:1031E000881FDAF7880F9695879597F90895990FB4
:1031F0000008550FAA0BE0E8FEEF16161706E807C1
:10320000F907C0F012161306E407F50798F0621BE1
:10321000730B840B950B39F40A2661F0232B242BB6
:10322000252B21F408950A2609F4A140A6958FEFD5
:10323000811D811D08950BD07BC06CD028F071D00A
:1032400018F0952309F05DC062C01124A5C081D09B
:10325000A0F3959FD1F3950F50E0551F629FF001A9
:10326000729FBB27F00DB11D639FAA27F00DB11D02
:10327000AA1F649F6627B00DA11D661F829F22278B
:10328000B00DA11D621F739FB00DA11D621F839F12
:10329000A00D611D221F749F3327A00D611D231FE8
:1032A000849F600D211D822F762F6A2F11249F5736
:1032B00050408AF0E1F088234AF0EE0FFF1FBB1F59
:1032C000661F771F881F91505040A9F79E3F5105F8
:1032D00070F017C061C05F3FECF3983EDCF3869559
:1032E00077956795B795F795E7959F5FC1F7FE2BA3
:1032F000880F911D9695879597F9089599278827A6
:10330000089597F99F6780E870E060E008959FEF67
:1033100080EC089500240A9416161706180609066C
:10332000089500240A94121613061406050608953B
:10333000092E0394000C11F4882352F0BB0F40F4C3
:10334000BF2B11F460FF04C06F5F7F4F8F4F9F4F03
:10335000089557FD9058440F551F59F05F3F71F085
:103360004795880F97FB991F61F09F3F79F08795EC
:103370000895121613061406551FF2CF4695F1DF75
:1033800008C0161617061806991FF1CF8695710505
:10339000610508940895E894BB2766277727CB0139
:1033A00097F90895052E97FB16F400940FD057FD5A
:1033B00005D024D007FC02D046F408C050954095B3
:1033C000309521953F4F4F4F5F4F089590958095D1
:1033D000709561957F4F8F4F9F4F089531D0A59F76
:1033E000900DB49F900DA49F800D911D1124089500
:1033F000B7FFF4CFF3DF821B930B0895A1E21A2EDF
:10340000AA1BBB1BFD010DC0AA1FBB1FEE1FFF1F88
:10341000A217B307E407F50720F0A21BB30BE40BD8
:10342000F50B661F771F881F991F1A9469F760951F
:103430007095809590959B01AC01BD01CF010895D9
:10344000A29FB001B39FC001A39F700D811D1124E5
:10345000911DB29F700D811D1124911D089550582A
:10346000BB27AA270ED064CF55DF30F05ADF20F0FB
:1034700031F49F3F11F41EF44ACF0EF4E095E7FBC0
:1034800040CFE92F66DF80F3BA176207730784071E
:10349000950718F071F49EF57ECF0EF4E0950B2E93
:1034A000BA2FA02D0B01B90190010C01CA01A00196
:1034B0001124FF27591B99F0593F50F4503E68F1F1
:1034C0001A16F040A22F232F342F4427585FF3CF32
:1034D000469537952795A795F0405395C9F77EF403
:1034E0001F16BA0B620B730B840BBAF09150A1F04C
:1034F000FF0FBB1F661F771F881FC2F70EC0BA0FD2
:10350000621F731F841F48F4879577956795B79559
:10351000F7959E3F08F0B3CF9395880F08F0992751
:10352000EE0F9795879508950CD002CFFADE40F004
:10353000F1DE30F021F45F3F19F0E3CE51112CCFD2
:10354000E6CE07DF98F39923C9F35523B1F3951B12
:10355000550BBB27AA2762177307840738F09F5FB4
:103560005F4F220F331F441FAA1FA9F333D00E2E23
:103570003AF0E0E830D091505040E695001CCAF790
:1035800029D0FE2F27D0660F771F881FBB1F261755
:1035900037074807AB07B0E809F0BB0B802DBF0128
:1035A000FF2793585F4F2AF09E3F510568F0A9CE40
:1035B000F3CE5F3FECF3983EDCF386957795679505
:1035C000B795F7959F5FC9F7880F911D96958795D9
:1035D00097F90895E1E0660F771F881FBB1F6217F8
:1035E00073078407BA0720F0621B730B840BBA0BB6
:1035F000EE1F88F7E0950895B4DE88F09F5790F0AD
:10360000B92F9927B751A0F0D1F0660F771F881F07
:10361000991F1AF0BA95C9F712C0B13081F0BBDE1C
:10362000B1E00895B8CE672F782F8827B85F39F0BA
:10363000B93FCCF3869577956795B395D9F73EF466
:1036400090958095709561957F4F8F4F9F4F08950E
:10365000CEDD08F48FEF0895CADD880B990B08952D
:1036600097FB072E16F4009406D077FD08D013D0F0
:1036700007FC05D03EF4909581959F4F0895709575
:1036800061957F4F0895EE0FFF1F881F8BBF079036
:10369000F691E02D1994AA1BBB1B51E107C0AA1F8C
:1036A000BB1FA617B70710F0A61BB70B881F991FE3
:1036B0005A95A9F780959095BC01CD0108950F9377
:1036C0001F93CF93DF938230910510F482E090E056
:1036D000E0910207F091030720E030E0A0E0B0E0C5
:1036E000309719F1408151810281138148175907A0
:1036F000C8F08417950769F4109731F012960C936F
:10370000129713961C9327C0009302071093030788
:1037100022C02115310519F04217530718F49A01F8
:10372000BD01EF01DF01F801DBCF21153105F9F013
:10373000281B390B2430310580F48A819B81611567
:10374000710521F0FB019383828304C090930307EA
:1037500080930207FE01329644C0FE01E20FF31F80
:103760008193919322503109398328833AC0209163
:10377000000730910107232B41F42091170230916B
:103780001802309301072093000720911502309111
:1037900016022115310541F42DB73EB740911902AB
:1037A00050911A02241B350BE0910007F09101079C
:1037B000E217F307A0F42E1B3F0B2817390778F008
:1037C000AC014E5F5F4F2417350748F04E0F5F1F67
:1037D00050930107409300078193919302C0E0E06A
:1037E000F0E0CF01DF91CF911F910F910895CF931A
:1037F000DF93009709F481C0FC0132971382128293
:10380000A0910207B0910307109781F420813181C4
:10381000820F931F20910007309101072817390765
:1038200051F5F0930107E093000767C0ED0120E038
:1038300030E0CE17DF0740F44A815B819E014115DD
:103840005105F1F0EA01F5CFD383C2834081518164
:10385000840F951FC817D90759F488819981840F5F
:10386000951F0296918380838A819B8193838283B3
:103870002115310529F4F0930307E09302073DC0B9
:10388000E901FB83EA8349915991C40FD51FEC17D5
:10389000FD0761F480819181840F951F0296E901F3
:1038A00099838883828193819B838A83E0E0F0E01F
:1038B00012968D919C911397009719F0FD01DC01F0
:1038C000F7CF8D919C9111979D012E5F3F4F820FF5
:1038D000931F20910007309101072817390769F4D9
:1038E000309729F4109203071092020702C0138246
:1038F0001282B0930107A0930007DF91CF91089542
:103900006F927F928F929F92AF92BF92CF92DF92EF
:10391000EF92FF920F931F93CF93DF93009781F461
:10392000CB01DF91CF911F910F91FF90EF90DF902E
:10393000CF90BF90AF909F908F907F906F90BFCEB1
:10394000FC01E60FF71F9C0122503109E217F30733
:1039500008F4A5C0EC01D9010D911C91119706172F
:103960001707A8F00530110508F497C0C80104979F
:103970008617970708F491C002501109061B170B10
:10398000019311936D937C93CF0131DF86C05B016E
:10399000A01AB10A4C01800E911EA0910207B091AD
:1039A0000307612C712CE12CF12C109709F446C00F
:1039B0008D919C911197A815B905B1F56C0142E064
:1039C000C40ED11CCA14DB0478F14C018A189B0880
:1039D000640142E0C40ED11C1296BC90129713965B
:1039E000AC91B5E0CB16D10440F0B282A3839182B2
:1039F0008082D9016D937C9309C00E5F1F4F800FA9
:103A0000911FF90191838083EB2DFA2FE114F104CA
:103A100031F0D7011396FC93EE9312973EC0F093CA
:103A20000307E093020739C06816790608F43C01E1
:103A30007D0112960D90BC91A02DB7CF809100070B
:103A40009091010788169906E1F466167706C8F486
:103A50008091150290911602009741F48DB79EB7A0
:103A60004091190250911A02841B950BE817F9072F
:103A7000B0F4F0930107E0930007F90171836083CC
:103A80000CC0CB011CDE7C01009749F0A801BE01EF
:103A90001BD0CE01ACDEC70104C0CE0102C080E065
:103AA00090E0DF91CF911F910F91FF90EF90DF9009
:103AB000CF90BF90AF909F908F907F906F90089520
:103AC00081E090E0F8941BC0FB01DC0102C0019092
:103AD0000D9241505040D8F70895FC01819186170E
:103AE00021F08823D9F7992708953197CF010895B8
:103AF000FB01DC0101900D920020E1F70895F8949C
:023B0000FFCFF5
:103B02005810581058105810581058105810581073
:103B12000D010000000000040780000D0E131516B1
:103B2200191A1C232526292A2C323400000000CA27
:103B32001059108310171172019210A61000000084
:103B420000FC01F801F401C602E0010B02070203C6
:103B520002C701B601B501000000000B0CDF0BAA81
:103B62000B7E0BA20B8E0B7F0B000000000906BD23
:103B7200054D022F05B3016B0B630B390C680C9BCF
:103B82000C00054702440241023E0237024A023457
:103B92000231022E022B02270223021F021B0519E9
:103BA20002150211026E616E00696E66006F766622
:103BB2000020525353493A20000D0A007265635F98
:103BC2006C61743A200020207265635F6C6F6E3AFC
:103BD200200020207265635F68643A20007265638A
:103BE20076206661696C656400696E69742066613D
:103BF200696C656400696E697420636F6D706C65D1
:0C3C02007465006C656420696E697400D4
:00000001FF
