:1000000061C100007CC500004FC5000022C5000092
:10001000F5C40000C8C400009BC400006EC400000A
:1000200041C4000080C100007EC100007CC100000E
:100030007AC1000078C1000076C1000074C10000E0
:1000400072C100000C942E086EC100006CC100004B
:100050006AC1000068C1000066C1000099C30000C9
:1000600062C10000C5C700009AC700005CC1000063
:100070005AC1000058C1000056C1000054C1000020
:1000800052C1000050C100004EC100004CC1000030
:1000900050C7000025C7000046C100000C946B1536
:1000A00042C1000040C100003EC100003CC1000050
:1000B0003AC1000038C1000036C1000034C1000060
:1000C00032C1000030C100002EC100002CC1000070
:1000D0002AC1000028C1000026C1000024C1000080
:1000E00022C10000D701DA01C901CD01D3011102FB
:1000F000DE01E201E801EC01F001F601FA01FE0186
:100100001102040208020C027F0D900D930D9A0D4E
:10011000A00DCC0DD30DE00DEC0DF70DF70DF70D87
:10012000F70DF70DF70DF70DF70DF70DF70DF70DAF
:10013000F70DF70DF70DF70DF70DF70DF70DF70D9F
:10014000F70DF70DF70DF70D7F0D8B0D900D930D3E
:100150009A0DA00DA70DB30DBF0D861163116A1185
:10016000711178118D119411084AD73B3BCE016E65
:1001700084BCBFFDC12F3D6C74319ABD56833DDAFE
:100180003D00C77F11BED9E4BB4C3E916BAAAABE0D
:10019000000000803F0000002100240027002A000A
:1001A0002D003000330001010000040107010A01A5
:1001B00000002200250028002B002E003100340012
:1001C00002010000050108010B01050505050705F1
:1001D00008080808020202020A0A080804040404C3
:1001E00001010101010101010303030303030303EF
:1001F000040707070C0C0C0C0C0C0C0C020202027E
:1002000006060606060606060B0B0B0B0B0B0B0B66
:100210000102102020080810204010204080020118
:1002200002010804020101020408102040808040FD
:1002300020100804020180040201804020100804FC
:10024000020108040201010204081020408001029A
:1002500004081020408000000A0B02090C0D0E0853
:10026000070304010000000000000000000000007F
:10027000000000000000000000000000000000007E
:10028000000012111000000000000000000000003B
:10029000000000000000000000000000000020003E
:1002A0002300260029002C002F003200000100004E
:1002B00003010601090172740492740448940478DD
:1002C000C40CF61911241FBECFEFD1E2DEBFCDBFA3
:1002D00000E00CBF13E0A0E0B2E0EEECF8E400E0D8
:1002E0000BBF02C007900D92AC30B107D9F727E0E1
:1002F000ACE0B3E001C01D92A930B207E1F711E014
:10030000C2E6D1E000E006C021970109802FFE017E
:100310000E94411FC136D10780E00807A9F70E945B
:1003200035170C9465246CCE3FB7F8948091150373
:1003300090911603A0911703B091180326B5A89BBE
:1003400005C02F3F19F00196A11DB11D3FBFBA2F67
:10035000A92F982F8827820F911DA11DB11DBC01C7
:10036000CD0142E0660F771F881F991F4A95D1F78C
:10037000089508950E945E2190E0FC013197E231DA
:10038000F10508F04EC08827EE58FF4F8F4F0C94B0
:10039000411F809180008F7703C0809180008F7D06
:1003A00080938000089580918000877FF9CF84B585
:1003B0008F7702C084B58F7D84BD08958091B00091
:1003C0008F7703C08091B0008F7D8093B000089537
:1003D000809190008F7707C0809190008F7D03C03F
:1003E00080919000877F8093900008958091A00075
:1003F0008F7707C08091A0008F7D03C08091A000FF
:10040000877F8093A0000895809120018F7707C097
:10041000809120018F7D03C080912001877F809390
:10042000200108951F93CF93DF93282F30E0F90127
:10043000EA5AFD4F8491F901E05FFD4FD491F90133
:10044000E653FE4FC491CC23B9F0162F811194DFEF
:10045000EC2FF0E0EE0FFF1FE055FE4FA591B49199
:100460009FB7F894111104C08C91D095D82302C085
:10047000EC91DE2BDC939FBFDF91CF911F9108950C
:10048000CF92DF92EF92FF921F93CF93DF93EC0115
:1004900062E10E94960A182F6CE1CE010E94960A32
:1004A0002A813B812430310579F4829586958695A1
:1004B000837091E0892780FBEE24E0F8F12C812FF6
:1004C000807AE82AEF2839F48A819B810497B9F46D
:1004D00016FD22C014C0888999890196998B888B52
:1004E0004FEF62E1CE0102D74FEF62E1CE01DF9123
:1004F000CF911F91FF90EF90DF90CF90F7C68A8148
:100500009B81039709F0B7C013FFB5C08C899D8903
:1005100001969D8B8C8BB8C063E1CE010E94960A38
:10052000F82E60E1CE010E94960A482F6DE0CE01C0
:10053000DDD6EFB6F894898D9A8DDC01ED91FC91B2
:100540000088F189E02D199560E08B8D6BDF898D36
:100550009A8DDC01ED91FC910190F081E02D60E03D
:1005600019956E01B0E2CB0ED11C1F2D112379F02D
:10057000898D9A8DDC01ED91FC910190F081E02D47
:1005800060E01995F60181936F011150EFCF61E0A2
:100590008B8D48DF898D9A8DDC01ED91FC9102886D
:1005A000F389E02D1995EFBEFF8E4FEF62E1CE018A
:1005B0009DD669E1CE01BAD77E01BFEDEB1ABEEF41
:1005C000FB0A87FD8D5F85958595F70180836AE13C
:1005D000CE01ACD790E09F878E87D7012C918E8576
:1005E0009F8527FF07C0820F911D27FD9A959F8742
:1005F0008E870BC024E0880F991F2A95E1F76FE0E2
:1006000070E00E942E1F7F876E87FE01E05EFE4F26
:100610008081882329F08E859F858D59910904C09A
:100620008E859F85845A91099F878E878F8DFE01C5
:10063000E15EFE4F843090F088A18E8389A18F8384
:100640008AA188878BA189878D8181110CC09E81A9
:100650008C81981741F08E818F3F29F0808188230B
:1006600009F43ECF11C08A899B8901969B8B8A8BA6
:1006700081E08083F3CF8A819B81059709F030CF99
:1006800012FF2ECF11701E8BCE010E94381128CF81
:10069000CF93DF9390E0FC01E05FFD4F2491FC01DC
:1006A000E653FE4F8491882361F190E0880F991FF3
:1006B000FC01EA56FE4FC591D491FC01E055FE4F76
:1006C000A591B491611109C09FB7F89488812095D4
:1006D00082238883EC912E230BC0623061F49FB794
:1006E000F8948881322F309583238883EC912E2BC8
:1006F0002C939FBF06C08FB7F894E8812E2B2883D8
:100700008FBFDF91CF9108958F929F92AF92BF924A
:10071000CF92DF92EF92FF926B017C0105DE4B01DD
:100720005C01C114D104E104F104E9F0FDDDDC0158
:10073000CB0188199909AA09BB09883E9340A105F4
:10074000B10578F321E0C21AD108E108F10888EE7A
:10075000880E83E0981EA11CB11CC114D104E104D1
:10076000F10421F7DECFFF90EF90DF90CF90BF90A4
:10077000AF909F908F9008952FB7F89460911103D8
:100780007091120380911303909114032FBF089569
:100790001F920F920FB60F9211242F933F938F93B6
:1007A0009F93AF93BF938091110390911203A091F7
:1007B0001303B09114033091100323E0230F2D375E
:1007C00020F40196A11DB11D05C026E8230F029655
:1007D000A11DB11D20931003809311039093120368
:1007E000A0931303B0931403809115039091160303
:1007F000A0911703B09118030196A11DB11D80931C
:10080000150390931603A0931703B0931803BF9199
:10081000AF919F918F913F912F910F900FBE0F90AD
:100820001F901895EF92FF920F931F93CF93DF9332
:10083000EC017B018A0188819981009729F02A8146
:100840003B8124173507F8F4B8016F5F7F4F0E9492
:100850007E20009759F0998388831B830A832C811B
:100860003D81232B81F4FC0110820DC08881998188
:10087000009711F00E94F51F198218821D821C82B8
:100880001B821A8207C01D830C83B701888199815E
:100890000E947421CE01DF91CF911F910F91FF90A3
:1008A000EF9008951F920F920FB60F9211240BB67E
:1008B0000F922F933F934F935F936F937F938F93F9
:1008C0009F93AF93BF93EF93FF93E0910E02F0914C
:1008D0000F021995FF91EF91BF91AF919F918F9169
:1008E0007F916F915F914F913F912F910F900BBE30
:1008F0000F900FBE0F901F9018951F920F920FB67A
:100900000F9211240BB60F922F933F934F935F9347
:100910006F937F938F939F93AF93BF93EF93FF93C7
:10092000E0910C02F0910D021995FF91EF91BF91AA
:10093000AF919F918F917F916F915F914F913F9177
:100940002F910F900BBE0F900FBE0F901F90189518
:100950001F920F920FB60F9211240BB60F922F9386
:100960003F934F935F936F937F938F939F93AF9337
:10097000BF93EF93FF93E0910202F0910302199568
:10098000FF91EF91BF91AF919F918F917F916F9167
:100990005F914F913F912F910F900BBE0F900FBE23
:1009A0000F901F9018951F920F920FB60F9211245F
:1009B0000BB60F922F933F934F935F936F937F9359
:1009C0008F939F93AF93BF93EF93FF93E0910002B8
:1009D000F09101021995FF91EF91BF91AF919F9115
:1009E0008F917F916F915F914F913F912F910F90D8
:1009F0000BBE0F900FBE0F901F9018951F920F9275
:100A00000FB60F9211240BB60F922F933F934F9373
:100A10005F936F937F938F939F93AF93BF93EF9366
:100A2000FF93E0910A02F0910B021995FF91EF916B
:100A3000BF91AF919F918F917F916F915F914F91F6
:100A40003F912F910F900BBE0F900FBE0F901F90F4
:100A500018951F920F920FB60F9211240BB60F929A
:100A60002F933F934F935F936F937F938F939F93B6
:100A7000AF93BF93EF93FF93E0910802F0910902C7
:100A80001995FF91EF91BF91AF919F918F917F91B8
:100A90006F915F914F913F912F910F900BBE0F90EF
:100AA0000FBE0F901F9018951F920F920FB60F92C6
:100AB00011240BB60F922F933F934F935F936F9335
:100AC0007F938F939F93AF93BF93EF93FF93E091A7
:100AD0000602F09107021995FF91EF91BF91AF9136
:100AE0009F918F917F916F915F914F913F912F9146
:100AF0000F900BBE0F900FBE0F901F9018951F9276
:100B00000F920FB60F9211240BB60F922F933F93B3
:100B10004F935F936F937F938F939F93AF93BF9305
:100B2000EF93FF93E0910402F09105021995FF9174
:100B3000EF91BF91AF919F918F917F916F915F9155
:100B40004F913F912F910F900BBE0F900FBE0F90C2
:100B50001F901895CF92DF92EF92FF920F931F9301
:100B6000CF93DF936C017A018B01C0E0D0E0CE150A
:100B7000DF0581F0D8016D918D01D601ED91FC91D9
:100B80000190F081E02DC6011995892B11F0219675
:100B9000EECF7E01C701DF91CF911F910F91FF90A2
:100BA000EF90DF90CF900895FC01538D448D252F59
:100BB00030E0842F90E0821B930B541710F0CF96F7
:100BC000089501970895FC01918D828D981761F029
:100BD000828DDF01A80FB11D5D968C91928D9F5F74
:100BE0009F73928F90E008958FEF9FEF0895FC011F
:100BF000918D828D981731F0828DE80FF11D858DD2
:100C000090E008958FEF9FEF0895FC01918D228D64
:100C1000892F90E0805C9F4F821B91098F739927E9
:100C200008958FED93E0F1DF21E0892B09F420E0B6
:100C3000822F08958CE794E0E8DF21E0892B09F406
:100C400020E0822F0895FC01848DDF01A80FB11DE3
:100C5000A35ABF4F2C91848D90E001968F739927F2
:100C6000848FA689B7892C93A089B1898C918370D0
:100C700080648C93938D848D981306C00288F389C9
:100C8000E02D80818F7D80830895EF92FF920F93F6
:100C90001F93CF93DF93EC0181E0888F9B8D8C8D28
:100CA000981305C0E889F989808185FD25C0F62E55
:100CB0000B8D10E00F5F1F4F0F731127E02E8C8DEF
:100CC000E8120BC00FB607FCFACFE889F9898081DA
:100CD00085FFF5CFCE01B7DFF2CF8B8DFE01E80F98
:100CE000F11DE35AFF4FF0829FB7F8940B8FEA890A
:100CF000FB89808180620AC09FB7F894EE89FF89E2
:100D00006083E889F98980818370806480839FBFD4
:100D100081E090E0DF91CF911F910F91FF90EF90D4
:100D20000895CF93DF93EC01888D8823C1F0EA8981
:100D3000FB89808185FD05C0A889B9898C9186FDD4
:100D40000EC00FB607FCF5CF808185FFF2CFA889D2
:100D5000B9898C9185FFEDCFCE0175DFE8CFDF91AA
:100D6000CF91089580E090E0892B19F063DF811125
:100D700020C080E090E0892B19F053DF81111CC066
:100D800080E090E0892B41F080E090E0892B21F019
:100D90000E940000811113C080E090E0892BA1F037
:100DA00080E090E0892B81F00E94000081110AC050
:100DB00008950E940000DDCF0E940000E1CF0E9454
:100DC0000000EACF0C94000008958BEF0895089579
:100DD00080911A03882361F09FB7F89420911A0339
:100DE00080911903213019F48DBB9FBF08958FBFE7
:100DF0000895CF92DF92EF92FF920F931F93CF93BC
:100E0000DF93EC017B018A01E881F9810280F381A3
:100E1000E02D1995D82E882331F1E114F104D9F091
:100E200001151105C1F0CFB6F8948F8D90E00397AE
:100E3000F801208130E0281739071CF08F8D84508D
:100E40008083F801408150E0BE016C5D7F4FC70197
:100E50000E946221CFBE8FB7F894FE01E15EFE4F83
:100E600010821F8E8FBF8D2DDF91CF911F910F911B
:100E7000FF90EF90DF90CF900895809120039091A4
:100E80002103009709F0FCCA089580911E039091F8
:100E90001F03009709F0F4CA089580911C039091F4
:100EA0001D03009709F0ECCA0895CF93DF93EC017E
:100EB000898D9A8DDC01ED91FC910680F781E02D02
:100EC000199561E08B8DE4DB61E08B8DABDA64E634
:100ED00070E080E090E018DC81E0DF91CF91089530
:100EE0001F920F920FB60F9211240BB60F922F93F1
:100EF0003F934F935F936F937F938F939F93AF93A2
:100F0000BF93EF93FF938FED93E09DDEFF91EF9101
:100F1000BF91AF919F918F917F916F915F914F9111
:100F20003F912F910F900BBE0F900FBE0F901F900F
:100F300018951F920F920FB60F9211240BB60F92B5
:100F40002F938F939F93EF93FF93E091EF03F09193
:100F5000F0038081E091F503F091F60382FD12C069
:100F600090818091F8038F5F8F732091F90382172E
:100F700051F0E091F803F0E0E152FC4F958F80933F
:100F8000F80301C08081FF91EF919F918F912F9184
:100F90000F900BBE0F900FBE0F901F9018951F92D1
:100FA0000F920FB60F9211240BB60F922F933F930F
:100FB0004F935F936F937F938F939F93AF93BF9361
:100FC000EF93FF938CE794E03EDEFF91EF91BF91AA
:100FD000AF919F918F917F916F915F914F913F91D1
:100FE0002F910F900BBE0F900FBE0F901F90189572
:100FF0001F920F920FB60F9211240BB60F922F93E0
:101000008F939F93EF93FF93E0918C04F0918D0465
:101010008081E0919204F091930482FD12C090814E
:10102000809195048F5F8F7320919604821751F001
:10103000E0919504F0E0E458FB4F958F8093950480
:1010400001C08081FF91EF919F918F912F910F901F
:101050000BBE0F900FBE0F901F9018951F920F920E
:101060000FB60F9211240BB60F922F933F934F930D
:101070005F936F937F938F939F93AF93BF93CF9320
:10108000DF93EF93FF938091020090910300049708
:1010900009F0C4C020911B0030E0F901EA5AFD4F6D
:1010A0008491F901E05FFD4FD491F901E653FE4FC1
:1010B000C491CC2371F081115FD9EC2FF0E0EE0FD9
:1010C000FF1FE456FD4FA591B491EC91ED2381E013
:1010D00009F480E0817090911E00892719F093B186
:1010E0009F5F93B992B1981759F094B1903510F071
:1010F0009DE101C09BE024B1920F94B982B903C075
:1011000084B18C5E84B984B1803A08F4DAC086B1C7
:1011100097B19695879597B986B983B1853028F0B0
:1011200086B197B1986097B986B984B1805A84B96D
:1011300013B885B1882309F465C088B18F5F88B979
:101140008C3008F4BEC086B197B1982F9F73892F59
:1011500086958695887028E0280F281749F0E82F93
:10116000F0E0E65EFD4F3081931719F08F5FF5CF09
:1011700080E020E1829FC001112426B137B196E0C2
:10118000369527959A95E1F7422F3695279536950E
:101190002795287038E0320F321749F0E22FF0E03F
:1011A000E65EFD4F5081451719F02F5FF5CF20E027
:1011B000822B90916D009923B1F0E0916D0091E048
:1011C0009E0F90936D00F0E081A790916D0080914B
:1011D0006C009817A8F015B881E080B980E090E025
:1011E0000E949B110DC080936C0090916C00973011
:1011F00008F45DC090916C00943408F058C0DDCFC5
:1012000018B85FC086B197B188339B4009F059C0C8
:1012100081E085B918B810926D0053C0809102002A
:1012200090910300039709F04CC08091700091E009
:10123000980F90937000811133C0E0916E008091FF
:10124000FF00E81770F080E090E00E949B11809111
:10125000140090911500019690931500809314004E
:101260001FC0F0E0EF58FF4F608170E080916F0089
:1012700091E0980F90936F0002C0759567958A95DD
:10128000E2F7617080911C00CDD880916F008630AC
:1012900038F010926F0080916E008F5F80936E0027
:1012A00080917000883068F0109270000AC015B804
:1012B00080911000909111000196909311008093FD
:1012C0001000FF91EF91DF91CF91BF91AF919F916E
:1012D0008F917F916F915F914F913F912F910F90DF
:1012E0000BBE0F900FBE0F901F901895FF920F939B
:1012F0001F93CF93DF93EC01162FF42E0FB7F894C2
:10130000898D9A8DDC01ED91FC910088F189E02DA9
:10131000199560E08B8D86D8898D9A8D612F6068D4
:10132000DC01ED91FC910190F081E02D1995182FD1
:10133000898D9A8DDC01ED91FC910190F081E02D79
:101340006F2D199561E08B8D6DD8898D9A8DDC019B
:10135000ED91FC910288F389E02D19950FBF812F43
:10136000DF91CF911F910F91FF900895CF93DF935D
:10137000EC018A819B81059761F047E061E0CE0135
:10138000B5DF40E860E4CE01B1DF85E090E09B830B
:101390008A838A819B810597E1F38E89DF91CF91C2
:1013A0000895CF93DF93FC012281338121303105F1
:1013B00041F0EC0140E061E099DF81E090E09B8347
:1013C0008A8381E0DF91CF910895BF92CF92DF921F
:1013D000EF92FF920F931F93CF93DF934C3F10F048
:1013E000E12C78C0142F072FF62EEC01E881F9814B
:1013F0000484F585E02D1995CE013AD7E881F9816D
:101400000288F389E02DCE011995E82E882341F357
:1014100040E06DE0CE016ADF4A8560E0CE0166DF24
:101420004B8560E0CE0162DF4C8560E0CE015EDF7F
:101430004D8560E0CE015ADFBFB6F894898D9A8D54
:10144000DC01ED91FC910088F189E02D199560E0B7
:101450008B8D0E941202898D9A8DDC01ED91FC9199
:101460000190F081E02D60E81995CF2CD02E012F4E
:10147000015068F0898D9A8DF60161916F01DC0150
:10148000ED91FC910190F081E02D1995F1CF61E093
:101490008B8D0E941202898D9A8DDC01ED91FC9159
:1014A0000288F389E02D1995BFBE44E0410F62E246
:1014B000CE011CDF8A819B81039761F043E061E0EC
:1014C000CE0114DF40E460E4CE0110DF83E090E061
:1014D0009B838A838E2DDF91CF911F910F91FF9077
:1014E000EF90DF90CF90BF900895CF93DF93FC01F2
:1014F0002281338123303105A9F0EC01828193816F
:10150000049761F045E061E0CF01F0DE40E060E487
:10151000CE01ECDE84E090E09B838A83C15EDE4FE7
:10152000888101C080E0DF91CF9108950F931F93D0
:10153000CF93DF93EC01162F0FB7F89460E08B8DFB
:101540000E941202898D9A8D612F6F77DC01ED91D7
:10155000FC910190F081E02D1995898D9A8DDC0127
:10156000ED91FC910190F081E02D60E01995182F2C
:1015700061E08B8D0E9412020FBF812FDF91CF910E
:101580001F910F910895EF92FF920F931F93CF93A6
:10159000DF9300D0CDB7DEB78C0187DCF82E811148
:1015A00002C0F12C9FC0D8015D968C91823059F019
:1015B000833061F09EEE980F943098F767E170E009
:1015C000681B710905C060E070E002C061E070E076
:1015D000E62ED80159968D919C915A97DC01ED9198
:1015E000FC910488F589E02D199540E861E0C80177
:1015F0007DDE6AE070E080E090E086D861E0C801BE
:1016000095DF803871F660E0F801858D41D8D8010A
:101610005E968C915E978F3F59F480911B038430C6
:1016200008F0BFCF91E0980F90931B035E968C93C8
:10163000F801868DE82FF0E0EE0FFF1FE45EFC4F0F
:1016400011830083811103C06DE477E00AC081300B
:1016500019F465E477E005C0823009F0A2CF6DE3AC
:1016600077E08E2D18D640E06EE0C8013FDE40E006
:101670006FE0C8013BDEC801FBD543E050E066EBFC
:1016800072E0CE0101960E94F81B49816DE1C8010C
:101690002DDE4A816EE1C80129DE4B8166E2C80178
:1016A00025DE40E060E2C80121DE48E061E2C801D9
:1016B0001DDE44EE66E0C80119DE40EC67E0C801BB
:1016C00015DE40E068E0C80111DEF801E05EFE4F83
:1016D00081E0808344E06DE4C80108DE48E869E009
:1016E000C80104DE8F2D0F900F900F90DF91CF91E6
:1016F0001F910F91FF90EF9008952F923F924F927C
:101700005F926F927F928F929F92AF92BF92CF9291
:10171000DF92EF92FF920F931F93CF93DF93CDB79A
:10172000DEB7C45DD1090FB6F894DEBF0FBECDBFE2
:101730001C01DC0111961C921E9213961C921E92A3
:10174000129715961C921E92149740E050E06BEB96
:1017500072E068D811D84B015C018FED93E055DA47
:10176000892B09F4B8C28FED93E02DDAC753DF4F10
:101770008883C95CD0408091EB069091EC06A091E3
:10178000ED06B091EE060196A11DB11D8093EB060A
:101790009093EC06A093ED06B093EE06C753DF4F8F
:1017A000B881C95CD040B43209F469C2E091E50661
:1017B000B53234F4BA3099F0BD3009F06EC20FC0C2
:1017C000C753DF4FF881C95CD040FA3241F0FC3298
:1017D00009F063C28091D2068F278093D206EF3042
:1017E00008F03AC2F0E0EC52F94F10828091D30633
:1017F000882309F41DC12091D4063FEB320F822FBC
:10180000022E000C990B363010F4C79707C02156F2
:10181000263018F48755910901C0C097282F2295CA
:10182000207F3091D5064FEB430F832F032E000C02
:10183000990B463010F4C79707C03156363018F46C
:101840008755910901C0C097820F9091D2068913E4
:10185000DBC08091F7069091F806A091F906B0914F
:10186000FA060196A11DB11D8093F7069093F80624
:10187000A093F906B093FA068091E606882399F0C2
:101880008091EF069091F006A091F106B091F206DA
:101890000196A11DB11D8093EF069093F006A093D1
:1018A000F106B093F2061091E3061123B1F1113065
:1018B00009F080C080E796E00E9475148EE796E0FC
:1018C0000E9475148091E606882309F473C087E0AE
:1018D000EEE5F6E0A0E5B6E001900D928A95E1F71D
:1018E00087E0E5E6F6E0A7E5B6E001900D928A957F
:1018F000E1F70E94BC0360936C0670936D068093C1
:101900006E0690936F0610934F0610934E068CE868
:1019100096E0D4D78AE996E04CC08EE796E0E5D70A
:101920008091E606882321F187E0EEE5F6E0A0E568
:10193000B6E001900D928A95E1F787E0E5E6F6E0E2
:10194000A7E5B6E001900D928A95E1F70E94BC03ED
:1019500060936C0670936D0680936E0690936F068D
:1019600021E020934F0620934E0688EA96E0A6D702
:101970008091C0069091C106A091C206B091C306A5
:101980008093BC069093BD06A093BE06B093BF069D
:101990000E94BC036093B8067093B9068093BA06A0
:1019A0009093BB0631E03093B7063093B60684ECD3
:1019B00096E084D70091E9061091EA060115110519
:1019C00009F44AC1E091E906F091EA0666A177A11F
:1019D000D80196968D919C9197970E946B21892BA7
:1019E00009F03AC1B801C80140960E9474210E94D2
:1019F000BC03F80160A371A382A393A321E025A3F4
:101A000024A302A513A5DACF8091F3069091F406E2
:101A1000A091F506B091F6060196A11DB11D809327
:101A2000F3069093F406A093F506B093F60614C15E
:101A30008091E406811149C061ED72E084ED96E089
:101A40000E946B21892B41F067ED72E084ED96E0F6
:101A50000E946B21892B21F431E03093E30616C0FC
:101A60006DED72E084ED96E00E946B21892B41F0D0
:101A700063EE72E084ED96E00E946B21892B19F4ED
:101A80001092E30603C042E04093E3068091E7062C
:101A90009091E8069093EA068093E9060091E906A2
:101AA0001091EA060115110509F4D6C064ED76E03F
:101AB000D80196968D919C9197970E946B2197FFE4
:101AC000C5C0F80182A593A5E5CFE091E306E23019
:101AD00009F48DC09091D406992309F488C020E2BE
:101AE000E29FF0011124E82B3197E932F10508F06B
:101AF0007EC08827EC57FF4F8F4F0C94411F84ED19
:101B000096E091D76093840670938506809386064D
:101B1000909387066CC081E0913409F040C040C0CA
:101B20006EE576E009C081E0933509F080E08093AE
:101B300064065DC065E676E084ED96E0EDD657C0BC
:101B400081E0973509F080E080936B0650C084ED0A
:101B500096E069D7609396067093970680939806EF
:101B60009093990644C084ED96E05DD76093A406F7
:101B70007093A5068093A6069093A70638C084EDBF
:101B800096E00E94D21B609376067093770680934E
:101B90007806909379062BC081E091330CF480E0B5
:101BA0008093E60624C084ED96E00E94D21B6093E9
:101BB000C0067093C1068093C2069093C30617C0F7
:101BC00084ED96E030D76093CE067093CF06809375
:101BD000D0069093D1060BC084ED96E024D7609395
:101BE000B2067093B3068093B4069093B506009145
:101BF000E9061091EA060115110571F1E091E90677
:101C0000F091EA0666A177A1D80196968D919C91F4
:101C100097970E946B21892BF9F4F80120A531A533
:101C20008091E40690E082179307B4F028173907F3
:101C300039F440E150E064ED76E0C8010E947B2178
:101C4000D8019A960D911C919B97D5CF892B21F0A5
:101C50001092EA061092E9068091E4068F5F809365
:101C6000E4061092E50681E0C753DF4FB881C95CF6
:101C7000D040BA3209F080E08093D3066ECD109246
:101C8000E5061092E4061092D206E2E0E093E30645
:101C90001092D3061092E60660CDEE3068F481E033
:101CA0008E0F8093E506F0E0EC52F94FC753DF4FFB
:101CB0002881C95CD04020838091D30681114DCD0D
:101CC0008091D206C753DF4F3881C95CD04083274B
:101CD0008093D20642CD0E94BC03DC01CB0188195F
:101CE0009909AA09BB090A97A105B10508F435CDE0
:101CF00010924F06609152067091530680915406DF
:101D0000909155060E941A1C28E23BE64EE65EE4DE
:101D10000E94531E4B015C01609150067091510668
:101D200080E090E00E941A1C9B01AC01C501B40147
:101D30000E948D1D20915606222361F09B01AC016B
:101D40005058C353DF4F288339834A835B83CD5C6C
:101D5000D04008C0C353DF4F688379838A839B8355
:101D6000CD5CD0406091590670915A0680915B0617
:101D700090915C060E941A1C28E23BE64EE65EE467
:101D80000E94531E4B015C016091570670915806EA
:101D900080E090E00E941A1C9B01AC01C501B401D7
:101DA0000E948D1D20915D06222361F09B01AC01F4
:101DB0005058C753DF4F288339834A835B83C95CFC
:101DC000D04008C0C753DF4F688379838A839B83E1
:101DD000C95CD0406091470660FF0AC0637082E032
:101DE0000E941D1762E470E080E090E00E9484038E
:101DF00080914D0691E09093BB038093DD03109298
:101E0000BC031092DE0363E089E195E0DAD381E060
:101E1000B8D780914D069091BA039111FCCF91E013
:101E20009093BA039093B9032FEF2093B8031092C5
:101E3000B70325E02093B603909395039091950303
:101E4000880F892B8093950380919403813061F4EE
:101E500010929403809195038093BB008091BC0005
:101E600083FDF8CF85EC01C085EE8093BC008091A6
:101E7000BA038130E1F38091B703863018F4909172
:101E8000B70301C096E0A6E9B3E0E4E2F3E080E046
:101E9000891721F02D9121938F5FFACF10922303A0
:101EA00080932203863041F1A980BA80BA24AB2402
:101EB000BA246B817C817627672776270D811E8166
:101EC0001027012710278090470690904806C401EC
:101ED00025E0969587952A95E1F7877099278130B7
:101EE0009105D9F0E8F08230910519F1039749F591
:101EF0007195619571091DC08E010F5F1F4F5E01C5
:101F000037E0A30EB11C89E195E0DED2D8018D93B4
:101F10008D01AA15BB05B9F7C7CF719561957109F8
:101F2000072E000C880B990B0E941C1C6B017C0176
:101F300008C0072E000C880B990B0E941C1C2B015B
:101F40003C01892D99278770992781309105A1F04F
:101F500070F082309105E9F0039719F5662777272D
:101F6000601B710B072E000C880B990B16C0B80173
:101F7000110F880B990B08C066277727601B710B20
:101F8000072E000C880B990B0E941C1C6B017C0116
:101F900008C0B801110F880B990B0E941C1C2B0163
:101FA0003C01892C9924869486948694B7E08B22F0
:101FB0009924E1E08E169104B9F088F022E08216AF
:101FC0009104F9F033E08316910419F56627772719
:101FD0006A197B09072E000C880B990B16C0B501F6
:101FE000BB0C880B990B08C0662777276A197B09F9
:101FF000072E000C880B990B0E941C1C6B017C01A6
:1020000008C0B501BB0C880B990B0E941C1C2B014E
:102010003C01A7019601C301B2010E94001E20915C
:10202000490630914A0640914B0650914C060E9459
:102030008D1D6B017C0120E030E0A9010E94161C7F
:1020400087FF0AC02BED3FE049EC50E4C701B60121
:102050000E948D1D6B017C012BED3FE049EC50E4AB
:10206000C701B6010E94111F181654F42BED3FE072
:1020700049EC50E4C701B6010E948C1D6B017C0144
:1020800020E030E044E353E4C701B6010E947B1C2A
:102090002BED3FE049E450E40E94531E6B017C01AC
:1020A000C353DF4F88819981AA81BB81CD5CD04029
:1020B00080934C0390934D03A0934E03B0934F0332
:1020C000C753DF4F288139814A815B81C95CD04089
:1020D000209348033093490340934A0350934B03A2
:1020E000C0924403D0924503E0924603F092470326
:1020F000BC01CD010E94BB1ECF52DF4F68837983A4
:102100008A839B83C15DD040C753DF4F688179814B
:102110008A819B81C95CD0400E94BB1E2B013C017F
:10212000C701B6010E94BB1E4B015C01072E000CCB
:10213000880B990B0E941C1C9B01AC01C701B601C6
:102140000E948C1D20E030E04AE754E40E947B1C92
:102150000E94C01E9F938F937F936F939F928F9245
:10216000B201052C000C880B990B0E941C1C9B01D2
:10217000AC01C753DF4F688179818A819B81C95C3B
:10218000D0400E948C1D20E034E244E759E40E94D4
:102190007B1C0E94C01E9F938F937F936F935F92CF
:1021A0004F92CF52DF4F48815981C15DD040BA0173
:1021B000550F880B990B0E941C1C9B01AC01C3534B
:1021C000DF4F688179818A819B81CD5CD0400E94FC
:1021D0008C1D20E034E244E759E40E947B1C0E94FD
:1021E000C01E9F938F937F936F93CE52DF4F588182
:1021F000C25DD0405F93CF52DF4F8881C15DD04038
:102200008F9389EE92E09F938F938E010F5F1F4F04
:102210001F930F930E948A21F80101900020E9F793
:102220003197AF01401B510BB801C1010E9412044C
:102230000FB6F894DEBF0FBECDBFC101CC52DF4F49
:102240000FB6F894DEBF0FBECDBFDF91CF911F91C7
:102250000F91FF90EF90DF90CF90BF90AF909F9045
:102260008F907F906F905F904F903F902F90089548
:10227000CF93DF93FC01228133812230310541F07D
:10228000EC0141E061E032D882E090E09B838A83F8
:10229000DF91CF910895883008F04CC0A82FB0E0AE
:1022A000AA0FBB1FA050BE4F11967C936E9390E077
:1022B000FC013197E730F10510F58827E355FF4F12
:1022C0008F4F0C94411F8091690083608093690057
:1022D000E89A0895809169008C6080936900E99A7A
:1022E000089580916900806380936900EA9A089557
:1022F00080916900806C80936900EB9A08958091C9
:102300006A00836080936A00EC9A089580916A0065
:102310008C6080936A00ED9A089580916A008063D2
:1023200080936A00EE9A089580916A00806C809391
:102330006A00EF9A0895CF93DF93FC0122813381E5
:102340002230310569F0EC01678D858D0E94120203
:1023500060E08C8D0E94120282E090E09B838A8371
:10236000DF91CF910895FC012085918580911A031A
:10237000882379F08FB7F89430911A03313039F40B
:102380003DB3309319033DB33DBB8FBF02C0809373
:1023900019032CBD9DBD08959FB7F89480919303B8
:1023A000882319F0815080939303809193038111C6
:1023B00005C08CB58F7B8CBD10921A039FBF08950A
:1023C0008CB58F778CBD08958CB580688CBD0895D1
:1023D0006EBD00000DB407FEFDCF8EB50895FC0163
:1023E000738362830895FC01778366830895FC01FB
:1023F00075836483089508950895FC0184899589FF
:102400000895FC01828993890895FC01808991894E
:10241000089580E00895FC01738362830895FC01B0
:10242000828193810895FC01868597850895FC013A
:1024300081850895FC0180850895FC0187810895B8
:10244000FC0186810895FC01409595854923642B04
:1024500065870895FC0164870895FC0163870895EA
:10246000FC0162870895FC0164830895FC01658383
:102470000895FC012281338123303105D1F381E0BD
:102480000895CF93DF93EC01E881F9810280F38115
:10249000E02DCE0119958823B9F3DF91CF910895EE
:1024A00081E00895089508950895E09123038091AF
:1024B0002203E81730F4F0E0EC5DFC4F808190E0FF
:1024C00008958FEF9FEF0895909123038091220349
:1024D000981750F4E92FF0E0EC5DFC4F208130E0DC
:1024E0009F5F9093230302C02FEF3FEFC901089530
:1024F0008091220390E020912303821B910908958B
:1025000080E090E0089585ED8093BC008091BC0050
:1025100084FDFCCF1092BA03089540917003262FDA
:1025200030E0240F311D21323105DCF42091BA0353
:102530002430C9F4FC0180E090E0861758F4309113
:1025400070032191DC01A05BBC4FA30FB11D2C9344
:102550000196F3CF80917003680F6093700380E061
:10256000089581E0089582E00895CF92DF92EF927E
:10257000FF920F931F93CF93DF937C01CB018A01CE
:102580002091BB03222389F0EB016B01C40ED51E01
:10259000CC15DD0561F06991D701ED91FC910190B9
:1025A000F081E02DC7011995F3CF642FB6DFC80184
:1025B000DF91CF911F910F91FF90EF90DF90CF901F
:1025C0000895CF93DF931F92CDB7DEB76983209133
:1025D000BB032223D1F02091DE03203240F021E022
:1025E00030E0FC013383228380E090E014C08091CE
:1025F000BC03E82FF0E0E354FC4F998190838F5F98
:102600008093BC038093DE0304C061E0CE01019699
:1026100084DF81E090E00F90DF91CF9108950F93D8
:102620001F93CF93FC01828193818430910569F0DF
:102630008330910579F08230910589F00197A1F0FE
:1026400040E452E46FE070E013C040E054E264EF15
:1026500070E00EC040E052E16AE770E009C040E07F
:1026600059E06DE370E004C040E854E86EE170E0CA
:1026700086819781009771F08130910539F0823021
:10268000910531F0039731F49CE005C094E003C05C
:1026900098E001C090E000E012E12AE730E080E03D
:1026A000401751076207730740F436952795179531
:1026B00007958F5F8630A1F787E021E028274481C6
:1026C00055814130510511F080E501C080E7322F7E
:1026D0003695932B982B908721702187CFB7F8944C
:1026E00080919303811127C0EFEFF1E08491E5E43D
:1026F000F2E09491E82FF0E0EE0FFF1FEA56FE4F54
:10270000A591B491EC91E92321F461E085E30E9465
:10271000120261E085E30E9448038CB580618CBDA4
:102720008CB580648CBD61E084E30E94480361E065
:1027300083E30E944803809193038F5F8093930308
:10274000CFBFCF911F910F9108958F929F92AF921B
:10275000BF92CF92DF92EF92FF92CF93DF93EC0183
:102760006B010E94BC034B015C01E12CF12C0E9427
:10277000BC03DC01CB0188199909AA09BB098C1596
:102780009D05AE05BF0530F48A819B81039779F3DF
:1027900081E001C080E0DF91CF91FF90EF90DF906A
:1027A000CF90BF90AF909F908F9008958F929F92FF
:1027B000AF92BF92CF92DF92EF92FF92CF93DF93CF
:1027C000EC016B010E94BC034B015C01E12CF12C7C
:1027D0000E94BC03DC01CB0188199909AA09BB0935
:1027E0008C159D05AE05BF0550F4E881F981028086
:1027F000F381E02DCE011995882351F301C080E0CB
:10280000DF91CF91FF90EF90DF90CF90BF90AF908E
:102810009F908F9008958F929F92AF92BF92CF9288
:10282000DF92EF92FF92CF93DF93FC012789308DE7
:10283000232BB1F1EC010E94BC034B015C0189E048
:10284000C82ED12CE12CF12CE881F9810488F5897E
:10285000E02DCE011995882319F10E94BC03AB012C
:10286000BC01481959096A097B098F89988DA0E034
:10287000B0E084179507A607B707A0F03FD7A701D8
:1028800096010E942F1D9B01AC012F5F3F4F4F4FC0
:102890005F4FA4E6B0E00E944B1D0E948403D4CF9A
:1028A00081E001C080E0DF91CF91FF90EF90DF9059
:1028B000CF90BF90AF909F908F900895CF93DF936C
:1028C000EC018A859B85AC85BD858E839F83A88717
:1028D000B9870E94BC036A837B838C839D8381E0DC
:1028E00089838883DF91CF910895CF93DF93EC01A3
:1028F0008E819F81A885B9858A839B83AC83BD83A4
:102900000E94BC036A877B878C879D8781E08983CF
:102910008883DF91CF9108952F923F924F925F92DB
:102920006F927F928F929F92AF92BF92CF92DF92DF
:10293000EF92FF920F931F93CF93DF93D82FC92F5E
:102940008B0130D724E630E040E050E00E945B1D70
:1029500049015A019B01AC0160E876E988E990E001
:102960000E941F1F6B017C01F80191828082ED2F74
:10297000FC2F2191822F022E000C990BC0970A97F1
:10298000C0F32E3239F51F0180E8882E86E9982E93
:1029900088E9A82EB12C9AE0492E512C612C712C7B
:1029A000F101C1911F010C2E000CDD0BE097CA3024
:1029B000D10580F4C501B401A30192010E945B1D01
:1029C00049015A01DE010E94551DC60ED71EE81EA0
:1029D000F91EE6CFA5E0B0E0A70196010E944B1DCD
:1029E0006F5F7F4F8F4F9F4F23E030E040E050E01C
:1029F0000E945B1DF8012283338344835583168232
:102A0000DF91CF911F910F91FF90EF90DF90CF90CA
:102A1000BF90AF909F908F907F906F905F904F90FE
:102A20003F902F900895FF920F931F93CF93DF93C2
:102A3000EC01F8802DE2F21201C02196CE01B2D64F
:102A40009B01AC01A4E6B0E00E944B1DFE01499140
:102A5000242F042E000C330B205331092A3031056A
:102A6000A8F34E3241F52181022E000C330B205386
:102A700031092A303105F8F44AE0429F8001439F32
:102A8000100D1124012E000C220B330B600F711F4F
:102A9000821F931F0281002E000C110B005311099D
:102AA0000A30110540F4012E000C220B330B600F8D
:102AB000711F821F931F2DE2F21207C0909580951F
:102AC000709561957F4F8F4F9F4FDF91CF911F91F1
:102AD0000F91FF9008951F920F920FB60F9211243D
:102AE0000BB60F922F933F934F935F936F937F9308
:102AF0008F939F93AF93BF93EF93FF938091B90010
:102B0000887F803609F49CC068F5883209F45BC080
:102B100090F4803109F454C038F4882309F4F6C0E5
:102B2000883009F44DC0F5C0883109F44CC08032BA
:102B300009F45DC0EEC0803409F468C048F4803305
:102B400009F455C0883309F0E4C08093B803D8C0B5
:102B5000803509F44FC0883509F45DC0883409F028
:102B6000D8C0D6C0883909F4C7C0A8F4883709F49A
:102B700067C038F4883609F463C0803709F460C050
:102B8000C8C0883809F4B8C0803909F45FC08038FB
:102B900009F0BFC05BC0803B09F486C038F4803ABE
:102BA00009F466C0883A09F47FC0B3C0803C09F4D8
:102BB000A7C0883C09F4A4C0883B09F48AC0A9C016
:102BC0008091950310C09091B7038091B603981738
:102BD00070F5E091B70381E08E0F8093B703F0E0CA
:102BE000EA56FC4F80818093BB0085EC86C08093C1
:102BF000B8038EC0E091B70381E08E0F8093B703D6
:102C00008091BB00F0E0EA56FC4F80839091B703BF
:102C10008091B6036EC0E091B70381E08E0F809380
:102C2000B7038091BB00F0E0EA56FC4F80838091AF
:102C3000B90381116DC081E08093940384EA61C07F
:102C400083E08093BA0310929203CFCF80919203D6
:102C5000803208F051C0E091920381E08E0F8093A2
:102C600092038091BB00F0E0EE58FC4F8083BDCF13
:102C700085EC8093BC001092BA038091920380325D
:102C800030F4E0919203F0E0EE58FC4F1082609136
:102C9000920370E0E0910C03F0910D0382E793E062
:102CA00019951092920335C084E08093BA03109274
:102CB000710310927003E0910E03F0910F031995C8
:102CC00080917003811105C081E0809370031092A0
:102CD0005003E091710381E08E0F80937103F0E067
:102CE000E05BFC4F80818093BB00909171038091E9
:102CF0007003981708F479CF85E88093BC0009C069
:102D000085EC8093BC001092BA0303C01092B80304
:102D1000FADBFF91EF91BF91AF919F918F917F91DE
:102D20006F915F914F913F912F910F900BBE0F903C
:102D30000FBE0F901F901895CF93DF93962F8111A0
:102D400003C0642F892F07C0C42FD62F642F0E9481
:102D500012026C2F8D2FDF91CF910C9412020097ED
:102D600069F0FC0101900020E9F73197AF01481BA1
:102D7000590BBC018CE794E00C94AA0580E090E02C
:102D80000895282F3091DE03313208F04AC0809137
:102D9000BA038111FCCF9091DD0342E04093BA0366
:102DA0002093B9032FEF2093B8031092B703309309
:102DB000B603EDEBF3E0A6E9B3E020E0321721F033
:102DC00041914D932F5FFACF109295032091950377
:102DD000990F922B9093950390919403913061F405
:102DE00010929403909195039093BB009091BC0036
:102DF00093FDF8CF95EC01C095EE9093BC009091B7
:102E0000BA039230E1F39091B8039F3F79F080913B
:102E1000B803803241F08091B803803331F084E010
:102E200005C081E003C082E001C083E01092BC03D2
:102E30001092DE031092BB030895CF93C62F90919A
:102E40004D0621E02093BB039093DD031092BC0359
:102E50001092DE03682F89E195E0B3DB6C2F89E1E6
:102E600095E0AFDB81E0CF918CCFCF93DF93CDB7EF
:102E7000DEB7E8970FB6F894DEBF0FBECDBF7894EB
:102E800084B5826084BD84B5816084BD85B582606F
:102E900085BD85B5816085BD80916E008160809320
:102EA0006E00109281008091810082608093810089
:102EB0008091810081608093810080918000816099
:102EC000809380008091B10084608093B1008091F4
:102ED000B00081608093B000809191008260809307
:102EE0009100809191008160809391008091900089
:102EF0008160809390008091A10082608093A10006
:102F00008091A10081608093A1008091A0008160E8
:102F10008093A000809121018260809321018091A3
:102F20002101816080932101809120018160809343
:102F3000200180917A00846080937A0080917A00E9
:102F4000826080937A0080917A00816080937A0019
:102F500080917A00806880937A001092C100E0919D
:102F60008C04F0918D0422E02083E0918804F0919C
:102F700089041082E0918A04F0918B0480E18083BF
:102F800010929404E0919004F091910496E0908363
:102F9000E0918E04F0918F04808180618083E091C4
:102FA0008E04F0918F04808188608083E0918E048C
:102FB000F0918F04808180688083E0918E04F0918D
:102FC0008F0480818F7D8083E091EF03F091F00387
:102FD0002083E091EB03F091EC031082E091ED038C
:102FE000F091EE038FEC80831092F703E091F303EE
:102FF000F091F4039083E091F103F091F20380816A
:1030000080618083E091F103F091F2038081886018
:103010008083E091F103F091F203808180688083E6
:10302000E091F103F091F20380818F7D8083109213
:103030002303109222031092BC031092DE0310921D
:10304000BA0381E08093B9031092940361E084E1B4
:103050000E94120261E085E10E9412028091B90093
:103060008E7F8093B9008091B9008D7F8093B900E5
:1030700088E48093B80085E48093BC0082E592E107
:1030800090930F0380930E0383E592E190930D03D9
:1030900080930C0388ED99EEA7E9BEE3809349067F
:1030A00090934A06A0934B06B0934C068091470636
:1030B000909148068C7F81609093480680934706E4
:1030C00061E082E0BADE8091470690914806837EF7
:1030D0008460909348068093470660E281E0ADDE0D
:1030E00080914706909148068F71907C806892602D
:1030F000909348068093470661E08DE00E94480364
:1031000061E08DE10E94480361E087E20E9448038C
:1031100061E081E30E94480361E08EE20E9448037F
:1031200061E08FE20E94480361E087E10E9448036A
:1031300061E08DE20E94480361E089E20E94480359
:1031400061E08BE10E94480361E08BE20E9448034A
:1031500061E089E10E94480361E081E20E94480346
:1031600061E08FE10E94480361E085E20E9448032C
:1031700061E083E20E94480384EA92E0F0DD85E2A8
:1031800095E00E94C30A811103C08DEA92E002C05B
:103190008CEB92E0E4DD89EB92E0E1DD61E08BE134
:1031A0000E94120261E08FE20E94120261E081E25D
:1031B0000E94120260ED77E080E090E00E948403BC
:1031C00060E081E20E941202CE0101960E947D0B16
:1031D0004D815E8169817A818CE794E00E94AA0525
:1031E00089EB92E0BCDD89819A81FFD6CE01C3963E
:1031F0000E947D0B0FA918AD0115110511F419825C
:1032000013C00133110510F001E310E06BA97CA994
:10321000A801CE0101960E947B21E1E0F0E0EC0FD5
:10322000FD1FE00FF11F10828BA99CA9DED642E39F
:10323000BE016F5F7F4F85E295E00E94E50985E260
:1032400095E017D9C0904403D0904503E090460321
:10325000F090470340E06DE18BE16EDD40E067E216
:103260008BE16ADD40E061E38BE166DD40E06EE228
:103270008BE162DD40E06FE28BE15EDD40E067E123
:103280008BE15ADD40E06DE28BE156DD40E069E222
:103290008BE152DD20E030EC48EA53E4C701B6018F
:1032A000C0D518164CF020E030E044EB51E4C701E3
:1032B000B601BCD287FF03C041E067E292C020E0C4
:1032C00030E044EB51E4C701B601ABD5181664F405
:1032D00020E030E047E852E4C701B601A7D287FFFB
:1032E00003C041E061E37DC020E030E047E852E404
:1032F000C701B60196D5181664F420E030E041EE1F
:1033000052E4C701B60192D287FF03C041E06EE2EA
:1033100068C020E030E041EE52E4C701B60181D53B
:10332000181664F420E030E84DE153E4C701B6011B
:103330007DD287FF03C041E06FE253C020E030E858
:103340004DE153E4C701B6016CD5181664F420E0D2
:1033500030E84AE453E4C701B60168D287FF03C0EE
:1033600041E067E13EC020E030E84AE453E4C701B1
:10337000B60157D5181664F420E030E847E753E467
:10338000C701B60153D287FF03C041E06DE229C0F7
:1033900020E030E847E753E4C701B60142D51816EC
:1033A00064F420E030E442E953E4C701B6013ED2C0
:1033B00087FF03C041E069E214C020E030E442E945
:1033C00053E4C701B6012DD518166CF420E030EC9B
:1033D00048EA53E4C701B60129D287FF04C041E09F
:1033E0006DE18BE1A9DC0E94B206EECEEFEDF3E0D9
:1033F0001382128248EE53E060E070E0448355830C
:10340000668377838EE292E0918380832DEC30E0B7
:10341000358724872CEC30E03787268728EC30E08E
:10342000318B208B29EC30E0338B228B2AEC30E07F
:10343000358B248B2EEC30E0378B268B118E128E41
:10344000138E148EECE7F4E01382128244835583CA
:10345000668377839183808385EC90E0958784876A
:1034600084EC90E09787868780EC90E0918B808B4E
:1034700081EC90E0938B828B82EC90E0958B848B37
:1034800086EC90E0978B868B118E128E138E148EA5
:10349000ABEFB6E013961C921E92129715961C92F3
:1034A0001E92149717961C921E92169780E492E033
:1034B00011969C938E9380E518968C931897199685
:1034C0001C921997E9E1F5E0138212824483558337
:1034D000668377838AE592E091838083EEE4F6E069
:1034E0001082118213821282148215821682178230
:1034F0001086128611861386148615861686178600
:10350000118A108A128A138A148A158A168A108ED2
:10351000178A118E128E138E148E158E12A213A27C
:1035200014A215A216A217A210AA11AA12AA13AACF
:1035300014AA15AA16AE17AE109292061092930610
:10354000109294061092950610929A0610929B067D
:103550001092A0061092A1061092A2061092A30645
:103560001092A8061092A9061092AE061092AF060D
:103570001092B0061092B1061092B6061092B706DD
:103580001092BC061092BD061092BE061092BF06A5
:103590001092C4061092C5061092CA061092CB066D
:1035A0001092CC061092CD061092D2061092D3063D
:1035B00092E09093E3061092E4061092E5061092D2
:1035C000E6061092E8061092E7061092EA061092BC
:1035D000E9061092EB061092EC061092ED0610929E
:1035E000EE061092EF061092F0061092F10610927D
:1035F000F2061092F3061092F4061092F50610925D
:10360000F6061092F7061092F8061092F90610923C
:10361000FA061092D406E7E4F6E0128213821482CE
:10362000158225E832E0318320838EE18683E5E24E
:10363000F5E0138212828FEF84838287838714865A
:103640001586118A108A138A128A158A148A108E96
:10365000178AB28FA18F2AE0238F2CE632E03183C4
:10366000208310924406958F868F08958F929F92A3
:10367000AF92BF92CF92DF92EF92FF92CF93DF9300
:10368000EC01688179818A819B81611571058105D1
:10369000910521F464E279ED8BE597E02DE133EFBC
:1036A00041E050E0DCD149015A019B01AC01A7EA9D
:1036B000B1E4F1D16B017C01ACEEB4EFA501940152
:1036C000F6D1DC01CB018C0D9D1DAE1DBF1DB7FFDA
:1036D00003C00197A109B04888839983AA83BB835B
:1036E000BC01CD019F77DF91CF91FF90EF90DF90EC
:1036F000CF90BF90AF909F908F9008958F929F92A0
:10370000AF92BF92CF92DF92EF92FF926091100240
:10371000709111028091120290911302611571054E
:103720008105910521F464E279ED8BE597E02DE1C7
:1037300033EF41E050E093D149015A019B01AC01C4
:10374000A7EAB1E4A8D16B017C01ACEEB4EFA5010E
:103750009401ADD1DC01CB018C0D9D1DAE1DBF1DB3
:10376000B7FF03C00197A109B0488093100290935E
:103770001102A0931202B0931302BC01CD019F77F6
:10378000FF90EF90DF90CF90BF90AF909F908F9081
:103790000895609310027093110280931202909327
:1037A000130208951F93FC0199278827BC01E89410
:1037B00011911032E9F3193010F01E30C8F31B32AA
:1037C00049F01D3241F4689405C01BD0610F711D92
:1037D000811D911D119110531A30B8F33EF490954C
:1037E0008095709561957F4F8F4F9F4F1F910895E2
:1037F000FB01DC0102C005900D9241505040D8F70A
:103800000895592F482F372F262F660F771F881FAF
:10381000991F660F771F881F991F620F731F841FE0
:10382000951F660F771F881F991F089540D008F4D1
:1038300081E00895E89409C097FB3EF49095809547
:10384000709561957F4F8F4F9F4F9923A9F0F92F66
:1038500096E9BB279395F695879577956795B795E4
:10386000F111F8CFFAF4BB0F11F460FF1BC06F5FCA
:103870007F4F8F4F9F4F16C0882311F096E911C0DC
:10388000772321F09EE8872F762F05C0662371F0FD
:1038900096E8862F70E060E02AF09A95660F771F11
:1038A000881FDAF7880F9695879597F90895990FED
:1038B0000008550FAA0BE0E8FEEF16161706E807FA
:1038C000F907C0F012161306E407F50798F0621B1B
:1038D000730B840B950B39F40A2661F0232B242BF0
:1038E000252B21F408950A2609F4A140A6958FEF0F
:1038F000811D811D08950BD078C069D028F06ED04D
:1039000018F0952309F05AC05FC01124A2C07ED0E0
:10391000A0F3959FD1F3950F50E0551F629FF001E2
:10392000729FBB27F00DB11D639FAA27F00DB11D3B
:10393000AA1F649F6627B00DA11D661F829F2227C4
:10394000B00DA11D621F739FB00DA11D621F839F4B
:10395000A00D611D221F749F3327A00D611D231F21
:10396000849F600D211D822F762F6A2F11249F576F
:1039700050408AF0E1F088234AF0EE0FFF1FBB1F92
:10398000661F771F881F91505040A9F79E3F510531
:1039900070F014C05EC05F3FECF3983EDCF3869598
:1039A00077956795B795F795E7959F5FC1F7FE2BDC
:1039B000880F911D9695879597F9089597F99F67B8
:1039C00080E870E060E008959FEF80EC08950024A7
:1039D0000A941616170618060906089500240A9474
:1039E00012161306140605060895092E0394000CFA
:1039F00011F4882352F0BB0F40F4BF2B11F460FF89
:103A000004C06F5F7F4F8F4F9F4F089557FD9058B1
:103A1000440F551F59F05F3F71F04795880F97FB92
:103A2000991F61F09F3F79F087950895121613064C
:103A30001406551FF2CF4695F1DF08C0161617067B
:103A40001806991FF1CF86957105610508940895B0
:103A5000E894BB2766277727CB0197F90895052EB1
:103A600097FB16F400940FD057FD05D024D007FC27
:103A700002D046F408C050954095309521953F4FAF
:103A80004F4F5F4F089590958095709561957F4F4A
:103A90008F4F9F4F089531D0A59F900DB49F900DEB
:103AA000A49F800D911D11240895B7FFF4CFF3DF7B
:103AB000821B930B0895A1E21A2EAA1BBB1BFD01CA
:103AC0000DC0AA1FBB1FEE1FFF1FA217B307E407FD
:103AD000F50720F0A21BB30BE40BF50B661F771F55
:103AE000881F991F1A9469F7609570958095909535
:103AF0009B01AC01BD01CF010895A29FB001B39F0E
:103B0000C001A39F700D811D1124911DB29F700DE6
:103B1000811D1124911D08955058BB27AA270ED04E
:103B200064CF55DF30F05ADF20F031F49F3F11F4BD
:103B30001EF44ACF0EF4E095E7FB40CFE92F66DF95
:103B400080F3BA17620773078407950718F071F4BA
:103B50009EF57ECF0EF4E0950B2EBA2FA02D0B0113
:103B6000B90190010C01CA01A0011124FF27591BC2
:103B700099F0593F50F4503E68F11A16F040A22FC8
:103B8000232F342F4427585FF3CF46953795279539
:103B9000A795F0405395C9F77EF41F16BA0B620B38
:103BA000730B840BBAF09150A1F0FF0FBB1F661F7F
:103BB000771F881FC2F70EC0BA0F621F731F841FC2
:103BC00048F4879577956795B795F7959E3F08F0E8
:103BD000B3CF9395880F08F09927EE0F97958795A7
:103BE0000895F5DE58F080E891E009F49EEFF6DEE6
:103BF00028F040E851E059F45EEF09C0E5CE28CF47
:103C0000E92FE07803DF68F3092E052AC1F32617B0
:103C100037074807590738F00E2E07F8E02569F0F6
:103C2000E025E0640AC0EF6307F8009407FADB01BF
:103C3000B9019D01DC01CA01AD01EF9343D0D5DE8E
:103C40000AD05F91552331F02BED3FE049E450FD60
:103C500049EC63CF0895DF93DD27B92FBF7740E8A4
:103C60005FE31616170648075B0710F4D92FDDD05F
:103C70009F938F937F936F93DFD0E8E6F1E0ACD012
:103C8000B4DE2F913F914F915F9141DEDD2349F0EA
:103C90009058A2EA2AED3FE049EC5FE3D0785D2737
:103CA0004DDFDF91A2CE0CD0A0CE98DE40F08FDEAB
:103CB00030F021F45F3F19F081CE5111CACE84CE8D
:103CC000A5DE98F39923C9F35523B1F3951B550B42
:103CD000BB27AA2762177307840738F09F5F5F4FDF
:103CE000220F331F441FAA1FA9F333D00E2E3AF020
:103CF000E0E830D091505040E695001CCAF729D03A
:103D0000FE2F27D0660F771F881FBB1F2617370788
:103D10004807AB07B0E809F0BB0B802DBF01FF27B8
:103D200093585F4F2AF09E3F510568F047CE91CEE1
:103D30005F3FECF3983EDCF3869577956795B795F2
:103D4000F7959F5FC9F7880F911D9695879597F90D
:103D50000895E1E0660F771F881FBB1F6217730786
:103D60008407BA0720F0621B730B840BBA0BEE1F9B
:103D700088F7E095089504D06894B1116ACE08954B
:103D80004DDE88F09F5790F0B92F9927B751A0F0DA
:103D9000D1F0660F771F881F991F1AF0BA95C9F7DF
:103DA00012C0B13081F054DEB1E0089551CE672FDA
:103DB000782F8827B85F39F0B93FCCF3869577958F
:103DC0006795B395D9F73EF4909580957095619578
:103DD0007F4F8F4F9F4F0895DF93CF931F930F9384
:103DE000FF92EF92DF927B018C01689405C0DA2E7E
:103DF000EF018DDDFE01E894A59125913591459166
:103E00005591AEF3EF019ADEFE019701A801DA9415
:103E100079F7DF90EF90FF900F911F91CF91DF9195
:103E2000089545DD08F48FEF08959B01AC0160E033
:103E300070E080E89FE337CF9B01AC015CCDDB01F4
:103E40008F939F9328DEBF91AF91A29F800D911D0C
:103E5000A39F900DB29F900D1124089597FB072EFC
:103E600016F4009406D077FD08D013D007FC05D0D7
:103E70003EF4909581959F4F0895709561957F4F81
:103E80000895EE0FFF1F881F8BBF0790F691E02D5E
:103E90001994AA1BBB1B51E107C0AA1FBB1FA61781
:103EA000B70710F0A61BB70B881F991F5A95A9F7E3
:103EB00080959095BC01CD0108950F931F93CF93EA
:103EC000DF938230910510F482E090E0E0910707E3
:103ED000F091080720E030E0A0E0B0E0309719F161
:103EE000408151810281138148175907C8F0841716
:103EF000950769F4109731F012960C931297139668
:103F00001C9327C0009307071093080722C02115B0
:103F1000310519F04217530718F49A01BD01EF015A
:103F2000DF01F801DBCF21153105F9F0281B390B32
:103F30002430310580F48A819B816115710521F05F
:103F4000FB019383828304C0909308078093070743
:103F5000FE01329644C0FE01E20FF31F819391935C
:103F600022503109398328833AC0209105073091C6
:103F70000607232B41F4209116023091170230934B
:103F80000607209305072091140230911502211590
:103F9000310541F42DB73EB74091180250911902F6
:103FA000241B350BE0910507F0910607E217F30794
:103FB000A0F42E1B3F0B2817390778F0AC014E5F99
:103FC0005F4F2417350748F04E0F5F1F50930607C9
:103FD000409305078193919302C0E0E0F0E0CF01A8
:103FE000DF91CF911F910F910895CF93DF930097A9
:103FF00009F481C0FC01329713821282A091070755
:10400000B0910807109781F420813181820F931FAE
:1040100020910507309106072817390751F5F093CD
:104020000607E093050767C0ED0120E030E0CE17FA
:10403000DF0740F44A815B819E0141155105F1F093
:10404000EA01F5CFD383C28340815181840F951F4C
:10405000C817D90759F488819981840F951F029652
:10406000918380838A819B8193838283211531058B
:1040700029F4F0930807E09307073DC0E901FB83AB
:10408000EA8349915991C40FD51FEC17FD0761F4DC
:1040900080819181840F951F0296E901998388831D
:1040A000828193819B838A83E0E0F0E012968D9178
:1040B0009C911397009719F0FD01DC01F7CF8D91CA
:1040C0009C9111979D012E5F3F4F820F931F20916E
:1040D0000507309106072817390769F4309729F446
:1040E000109208071092070702C013821282B09341
:1040F0000607A0930507DF91CF9108956F927F92F5
:104100008F929F92AF92BF92CF92DF92EF92FF92E7
:104110000F931F93CF93DF93009781F4CB01DF912F
:10412000CF911F910F91FF90EF90DF90CF90BF90B4
:10413000AF909F908F907F906F90BFCEFC01E60F65
:10414000F71F9C0122503109E217F30708F4A5C0BC
:10415000EC01D9010D911C91119706171707A8F0D2
:104160000530110508F497C0C80104978617970712
:1041700008F491C002501109061B170B019311930B
:104180006D937C93CF0131DF86C05B01A01AB10A29
:104190004C01800E911EA0910707B0910807612C79
:1041A000712CE12CF12C109709F446C08D919C9153
:1041B0001197A815B905B1F56C0142E0C40ED11CE8
:1041C000CA14DB0478F14C018A189B08640142E0B0
:1041D000C40ED11C1296BC9012971396AC91B5E008
:1041E000CB16D10440F0B282A38391828082D901A0
:1041F0006D937C9309C00E5F1F4F800F911FF901D3
:1042000091838083EB2DFA2FE114F10431F0D70173
:104210001396FC93EE9312973EC0F0930807E09339
:10422000070739C06816790608F43C017D0112962B
:104230000D90BC91A02DB7CF8091050790910607F6
:1042400088169906E1F466167706C8F48091140280
:1042500090911502009741F48DB79EB740911802D6
:1042600050911902841B950BE817F907B0F4F093ED
:104270000607E0930507F901718360830CC0CB0149
:104280001CDE7C01009749F0A801BE011BD0CE01C5
:10429000ACDEC70104C0CE0102C080E090E0DF9137
:1042A000CF911F910F91FF90EF90DF90CF90BF9033
:1042B000AF909F908F907F906F90089581E090E0F5
:1042C000F89403C3FB01DC0102C001900D92415040
:1042D0005040D8F70895FB01DC018D9101908019C1
:1042E0000110D9F3990B0895FB01DC0101900D92A7
:1042F0000020E1F70895FB01DC014150504048F0F7
:1043000001900D920020C9F701C01D92415050400C
:10431000E0F708950F931F93CF93DF93CDB7DEB7E8
:104320002E970FB6F894DEBF0FBECDBF0E891F8942
:1043300086E08C831A8309838FEF9FE79E838D83AA
:10434000AE01465E5F4F688D798DCE01019610D02B
:10435000EF81F885E00FF11F10822E960FB6F894CA
:10436000DEBF0FBECDBFDF91CF911F910F9108959A
:104370002F923F924F925F926F927F928F929F9275
:10438000AF92BF92CF92DF92EF92FF920F931F9363
:10439000CF93DF93CDB7DEB72B970FB6F894DEBF80
:1043A0000FBECDBF6C017B018A01FC011782168212
:1043B000838181FFBFC1CE0101963C01F60193814B
:1043C000F70193FD859193FF81917F01882309F483
:1043D000ADC1853239F493FD859193FF81917F01C1
:1043E000853221F4B60190E0D6D1E8CF912C212C72
:1043F000312CFFE1F315D8F08B3279F038F48032AC
:1044000079F08332A1F4232D20611DC08D3261F03B
:10441000803369F4232D216016C0832D8260382EED
:10442000E32DE4603E2E2AC0F32DF8601DC037FC5A
:104430002DC020ED280F2A3040F08E32B9F436FC22
:1044400075C1232D2064322E19C036FE06C08AE0C5
:10445000989E200D1124922E11C0EAE02E9E200D70
:104460001124222EF32DF0623F2E08C08C3621F449
:10447000832D8068382E02C0883641F4F70193FD01
:10448000859193FF81917F018111B3CF982F9F7DFB
:104490009554933028F40C5F1F4F9FE399830DC010
:1044A000833631F0833771F0833509F055C020C071
:1044B000F801808189830E5F1F4F88248394912C9B
:1044C000530112C02801F2E04F0E511CF801A080E8
:1044D000B18036FE03C0692D70E002C06FEF7FEF40
:1044E000C5014ED14C018201F32DFF773F2E15C03F
:1044F000280122E0420E511CF801A080B18036FE56
:1045000003C0692D70E002C06FEF7FEFC5012DD1B0
:104510004C01F32DF0683F2E820133FC19C0822D2F
:1045200090E088169906A0F4B60180E290E033D1BD
:104530002A94F5CFF50137FC859137FE81915F0113
:10454000B60190E028D121102A9421E0821A910826
:104550008114910479F7E1C0843611F0893639F578
:10456000F80137FE07C060817181828193810C5F01
:104570001F4F08C060817181072E000C880B990BBA
:104580000E5F1F4FF32DFF763F2E97FF09C09095CA
:104590008095709561957F4F8F4F9F4FF0683F2EAC
:1045A0002AE030E0A30133D1882E861844C0853735
:1045B00031F4232D2F7EB22E2AE030E025C0932D3A
:1045C000997FB92E8F36C1F018F4883579F0AEC0D6
:1045D000803719F0883721F0A9C0E92FE061BE2E9D
:1045E000B4FE0DC0FB2DF460BF2E09C034FE0AC01E
:1045F000292F2660B22E06C028E030E005C020E159
:1046000030E002C020E132E0F801B7FE07C060816F
:104610007181828193810C5F1F4F06C0608171811F
:1046200080E090E00E5F1F4FA301F1D0882E861826
:10463000FB2DFF773F2E36FE0DC0232D2E7FA22EA1
:10464000891458F434FE0BC032FC09C0832D8E7ED1
:10465000A82E05C0B82CA32C03C0B82C01C0B92CBF
:10466000A4FE0FC0FE01E80DF11D8081803321F40E
:104670009A2D997EA92E09C0A2FE06C0B394B394C8
:1046800004C08A2D867809F0B394A3FC10C0A0FE64
:1046900006C0B21480F4280C922C9B180DC0B214E2
:1046A00058F4B60180E290E076D0B394F8CFB2141B
:1046B00018F42B1802C0982C212CA4FE0FC0B601B0
:1046C00080E390E068D0A2FE16C0A1FC03C088E79A
:1046D00090E002C088E590E0B6010CC08A2D867893
:1046E00051F0A1FE02C08BE201C080E2A7FC8DE286
:1046F000B60190E050D0891430F4B60180E390E028
:104700004AD09A94F8CF8A94F301E80DF11D808184
:10471000B60190E040D08110F6CF222009F44ECEB1
:10472000B60180E290E037D02A94F7CFF601868177
:10473000978102C08FEF9FEF2B960FB6F894DEBFE4
:104740000FBECDBFDF91CF911F910F91FF90EF90E2
:10475000DF90CF90BF90AF909F908F907F906F90A1
:104760005F904F903F902F900895FC01059061500D
:1047700070400110D8F7809590958E0F9F1F089577
:10478000FC016150704001900110D8F78095909520
:104790008E0F9F1F08950F931F93CF93DF93FB01FD
:1047A000238121FD03C08FEF9FEF2CC022FF16C095
:1047B00046815781248135814217530744F4A081F3
:1047C000B1819D012F5F3F4F318320838C932681E0
:1047D00037812F5F3F4F3783268314C08B01EC0155
:1047E000FB010084F185E02D1995892BE1F6D801B4
:1047F00016968D919C911797019617969C938E9380
:104800001697CE01DF91CF911F910F910895FA0174
:10481000AA27283051F1203181F1E8946F936E7FFF
:104820006E5F7F4F8F4F9F4FAF4FB1E03ED0B4E0F0
:104830003CD0670F781F891F9A1FA11D680F791F31
:104840008A1F911DA11D6A0F711D811D911DA11D42
:1048500020D009F468943F912AE0269F1124301952
:10486000305D3193DEF6CF010895462F4770405DED
:104870004193B3E00FD0C9F7F6CF462F4F70405D9C
:104880004A3318F0495D31FD4052419302D0A9F7F7
:10489000EACFB4E0A6959795879577956795BA95F1
:1048A000C9F700976105710508959B01AC010A2EB7
:1048B00006945795479537952795BA95C9F7620F8E
:0E48C000731F841F951FA01D0895F894FFCF4D
:1048CE00B901B901B901B901B901B901B901B9010A
:1048DE00010000000000090780000D0E13151619C7
:1048EE001A1C232526292A2C3234000000004506E6
:1048FE00AA05D40591060506E305F705000000009C
:10490E00E811E411E0110F13CC11F711F311EF11AF
:10491E00B311E806E70600000000E112B51280129E
:10492E00541278126412551200000000C30A750A60
:10493E00F906E509E50641123912A513D6130B1433
:10494E00B609331230122D122A12231236122012E9
:10495E001D121A12171213120F120B12D109051271
:10496E000112FD116C656420696E697400696E69CF
:10497E0074206661696C6564000D0A000A0A72662D
:10498E00393520696E697420636F6D706C6574655E
:10499E00004750524D4300474E524D43004750473B
:1049AE00474100474E47474100253034642E25309D
:1049BE00366C752C253034642E2530366C752023DC
:0C49CE00253033642E2530336C7500005A
:00000001FF
