:1000000053C200000C945F140C9434140C94091423
:100010000C94DE130C94B3130C9488130C945D139E
:100020000C94321372C2000070C200006EC2000055
:100030006CC200006AC2000068C2000066C2000014
:1000400064C200000C946A2260C200005EC200001C
:100050005CC200005AC2000058C200000C94BE11DD
:1000600054C200000C9457150C942E154EC200007B
:100070004CC200004AC2000048C2000046C2000054
:1000800044C2000042C2000040C200003EC2000064
:100090000C9405150C94DC1438C200000C94AD1EB1
:1000A00034C2000032C2000030C200002EC2000084
:1000B0002CC200002AC2000028C2000026C2000094
:1000C00024C2000022C2000020C200000C94B3141D
:1000D0000C948A141AC2000018C2000016C2000054
:1000E00014C20000670579057C0583058A05B805FB
:1000F000BF05CC05D905E505E505E505E505E505FB
:10010000E505E505E505E505E505E505E505E5059F
:10011000E505E505E505E505E505E505E505E5058F
:10012000E505E5056705740579057C0583058A0500
:1001300091059E05AB054D1650163F164316491600
:100140008716541658165E16621666166C167016CA
:10015000741687167A167E1682160618E317EA17A3
:10016000F117F8170D18141893199B19A51982196E
:10017000A5198419A319AC19A519A519A519A519AB
:10018000A519A519A519A519AC19A519A519A51978
:10019000A519A519084AD73B3BCE016E84BCBFFD0B
:1001A000C12F3D6C74319ABD56833DDA3D00C77F47
:1001B00011BED9E4BB4C3E916BAAAABE00000080E0
:1001C0003F05A84CCDB2D44EB93836A9020C50B96F
:1001D000918688083CA6AAAA2ABE000000803F009B
:1001E0004E414E494E495459494E46CDCCCC3D0A1C
:1001F000D7233C17B7D13877CC2B329595E6241FFF
:10020000B14F0A000020410000C84200401C4620B7
:10021000BCBE4CCA1B0E5AAEC59D7400407A10F38A
:100220005A00A0724E18090010A5D4E80000E87624
:1002300048170000E40B54020000CA9A3B0000007B
:10024000E1F505000080969800000040420F000094
:1002500000A08601000000102700000000E8030055
:100260000000006400000000000A0000000000011F
:1002700000000000002C76D888DC674F0823DFC11F
:10028000DFAE59E1B1B796E5E3E453C63AE65199DA
:100290007696E8E6C28426EB898C9B62ED407C6F03
:1002A000FCEFBC9C9F40F2BAA56FA5F490055A2ABA
:1002B000F75C936B6CF9676DC11BFCE0E40D47FEC6
:1002C000F520E6B500D0ED902E03009435770500BB
:1002D00080841E080000204E0A000000C80C333342
:1002E00033330F986E12831141EF8D2114893BE651
:1002F0005516CFFEE6DB18D1844B381BF77C1D90DA
:100300001DA4BBE424203284725E228100C9F12442
:10031000ECA1E53D274446506C61796572204D693A
:100320006E69206F6E6C696E652E00322E506C65A2
:1003300061736520696E73657274207468652053FB
:100340004420636172642100312E506C65617365D5
:10035000207265636865636B2074686520636F6EE7
:100360006E656374696F6E2100556E61626C652005
:10037000746F20626567696E3A00000021002400F6
:1003800027002A002D003000330001010000040185
:1003900007010A0100002200250028002B002E0082
:1003A0003100340002010000050108010B010000CA
:1003B00020002300260029002C002F00320000011D
:1003C00000000301060109010505050507050808E8
:1003D0000808020202020A0A0808040404040101CF
:1003E00001010101010103030303030303030407E4
:1003F00007070C0C0C0C0C0C0C0C0202020206067B
:100400000606060606060B0B0B0B0B0B0B0B01026D
:100410001020200808102040102040800201020116
:1004200008040201010204081020408080402010CE
:100430000804020180040201804020100804020127
:10044000080402010102040810204080010204088F
:100450001020408000000A0B02090C0D0E08070353
:100460000401000000000000000000000000000087
:10047000000000000000000000000000000000007C
:100480001211100000000000000000000000000039
:100490000000000000000000000072740492740468
:1004A00048940478C40C372511241FBECFEFD1E245
:1004B000DEBFCDBF00E00CBF13E0A0E0B2E0E4E39C
:1004C000F9E600E00BBF02C007900D92A036B1071D
:1004D000D9F728E0A0E6B3E001C01D92A936B20723
:1004E000E1F712E0C4E5D2E000E006C0219701097F
:1004F000802FFE010E946B2FC335D10780E00807D3
:10050000A9F70E94A9230C9498347ACD2F923F9298
:100510004F925F926F927F928F929F92AF92BF9213
:10052000CF92DF92EF92FF920F931F93CF93DF93BF
:10053000CDB7DEB7CF57D1400FB6F894DEBF0FBEB0
:10054000CDBF8091A80381110DC00E94E618609371
:10055000A4037093A5038093A6039093A70381E05F
:100560008093A8030E94E6180091A4031091A503AC
:100570002091A6033091A703DC01CB01801B910BD6
:10058000A20BB30B89389341A105B10570F10E940C
:10059000E6186093A4037093A5038093A603909339
:1005A000A7038091A30381111BC01092A203109294
:1005B0009E0310929F031092A0031092A103109229
:1005C0009A0310929B0310929C0310929D03109229
:1005D000960310929703109298031092990305C006
:1005E00081E08093A2031092A3030E94DE1F81305A
:1005F00049F4809194039091950305969093950307
:10060000809394030E94DE1F823049F4809194030A
:10061000909195030597909395038093940360912F
:10062000940370919503072E000C880B990B0E9480
:10063000992B25E33AEF4EE85CE30E94F82B609398
:10064000340770933507809336079093370764E13A
:1006500073E0CE01805C9E4F0E94DA120E94E61881
:100660002B013C012224239484EA94E00E9426106A
:10067000892B09F415C384EA94E00E940410382EF3
:100680008091D6079091D707A091D807B091D9074C
:100690000196A11DB11D8093D6079093D707A09313
:1006A000D807B093D90734E2331609F4D7C2E091E2
:1006B000D00733153CF04AE0341679F05DE035128E
:1006C000DBC20BC08AE2381641F09CE23912D4C278
:1006D0008091BD0783258093BD07EF3008F0B0C23D
:1006E000F0E0E154F84F10828091BE07882309F4AE
:1006F00073C12091BF073FEB320F822F022E000CF7
:10070000990B363010F4C79707C02156263018F4DD
:100710008755910901C0C097282F2295207F3091DD
:10072000C0074FEB430F832F032E000C990B46306D
:1007300010F4C79707C03156363018F48755910921
:1007400001C0C097820F9091BD07891331C180917C
:10075000E2079091E307A091E407B091E5070196C5
:10076000A11DB11D8093E2079093E307A093E407D6
:10077000B093E5078091D107882399F08091DA073B
:100780009091DB07A091DC07B091DD070196A11DD8
:10079000B11D8093DA079093DB07A093DC07B09339
:1007A000DD071091CE07112309F46BC0113009F059
:1007B000D0C08091610790916207A0916307B091CA
:1007C000640780935D0790935E07A0935F07B093E3
:1007D00060070E94E6186093650770936607809330
:1007E00067079093680710935C0710935B078091ED
:1007F0006F0790917007A0917107B0917207809375
:100800006B0790936C07A0936D07B0936E070E94DF
:10081000E61860937307709374078093750790933D
:10082000760710936A07109369078091D107882390
:1008300009F48FC0E9E4F7E0ABE3B7E087E00190AB
:100840000D928A95E1F7E0E5F7E0A2E4B7E087E0F2
:1008500001900D928A95E1F70E94E6186093570780
:10086000709358078093590790935A0710933A074B
:100870001093390787E797E00E94B41D85E897E059
:1008800066C080916F0790917007A0917107B09139
:10089000720780936B0790936C07A0936D07B093DA
:1008A0006E070E94E6186093730770937407809335
:1008B00075079093760720926A07209269078091C6
:1008C000D107882321F1E9E4F7E0ABE3B7E087E063
:1008D00001900D928A95E1F7E0E5F7E0A2E4B7E038
:1008E00087E001900D928A95E1F70E94E6186093E7
:1008F0005707709358078093590790935A0720928F
:100900003A072092390783E997E00E94B41D80914D
:10091000AB079091AC07A091AD07B091AE07809363
:10092000A7079093A807A093A907B093AA070E94CE
:10093000E6186093A3077093A4078093A50790938C
:10094000A6072092A2072092A1078FEA97E00E94B3
:10095000B41D0091D4071091D5070115110509F4B4
:100960006FC1E091D407F091D50766A177A1F80196
:1009700086A197A10E94B031892B09F061C1B8010D
:10098000C80140960E94B9310E94E618D80190969D
:100990006D937D938D939C93939795962C929597B9
:1009A00094962C9294979A960D911C919B97D5CFE3
:1009B0008091DE079091DF07A091E007B091E107F9
:1009C0000196A11DB11D8093DE079093DF07A093D0
:1009D000E007B093E10734C18091CF0781115DC07A
:1009E0006EEA72E08FEB97E00E94B031892B41F004
:1009F00064EB72E08FEB97E00E94B031892B19F421
:100A00002092CE0716C06AEB72E08FEB97E00E944F
:100A1000B031892B41F060EC72E08FEB97E00E94DF
:100A2000B031892B19F41092CE0703C0F2E0F09395
:100A3000CE078091D2079091D3079093D5078093EA
:100A4000D4070091D4071091D5070115110509F4B9
:100A5000F7C0F80126A137A16FEB77E0C901C258B2
:100A6000DE4F2883CE57D140C158DE4F3883CF5751
:100A7000D1400E94B031C258DE4F2881CE57D140BC
:100A8000C158DE4F3881CF57D14097FFCDC0D80134
:100A90009A968D919C919B97D0CFE091CE07E230B2
:100AA00009F493C09091BF07992309F48EC020E206
:100AB000E29FF0011124E82B3197E932F10508F0AB
:100AC00084C08827EE58FF4F8F4F0C946B2F8FEB0D
:100AD00097E00E94521E60936F0770937007809397
:100AE00071079093720771C081E0913409F043C09F
:100AF00043C069E477E009C081E0933509F080E004
:100B000080934F0762C060E577E08FEB97E00E942B
:100B1000CA1D5BC081E0973509F080E080935607DD
:100B200054C08FEB97E00E94521E60938107709330
:100B30008207809383079093840747C08FEB97E0E9
:100B40000E94521E60938F077093900780939107C5
:100B5000909392073AC08FEB97E00E943127609301
:100B600061077093620780936307909364072DC0B9
:100B700081E091330CF480E08093D10726C08FEBA5
:100B800097E00E9431276093AB077093AC07809386
:100B9000AD079093AE0719C08FEB97E00E94521EED
:100BA0006093B9077093BA078093BB079093BC0713
:100BB0000CC08FEB97E00E94521E60939D077093CC
:100BC0009E0780939F079093A0070091D4071091F0
:100BD000D50701151105A1F1E091D407F091D507D2
:100BE00066A177A1F80186A197A10E94B031892B57
:100BF00039F5D80198962D913C9199978091CF071E
:100C000090E082179307E4F02817390739F440E1A0
:100C100050E06FEB77E0C8010E94C031D8019A968E
:100C20000D911C919B97D5CF6FEB77E0C9010E9486
:100C3000B0311816190624F41092D5071092D40773
:100C40008091CF078F5F8093CF071092D00781E00C
:100C5000BAE23B1280E08093BE0706CD1092D00727
:100C60001092CF071092BD07E2E0E093CE071092FA
:100C7000BE071092D107F8CCEE3040F481E08E0F21
:100C80008093D007F0E0E154F84F30828091BE07A6
:100C90008111EACC8091BD0738263092BD07E4CCA3
:100CA0000E94E618DC01CB0184199509A609B70951
:100CB0000A97A105B10508F4D7CC10923A076091C4
:100CC0003B0770913C0780E090E00E94972B2B013E
:100CD0003C0160913D0770913E0780913F079091E4
:100CE00040070E94972B28E23BE64EE65EE40E9416
:100CF000D62D9B01AC01C301B2010E940D2D2091A4
:100D00004107222361F09B01AC015058C059DE4FCE
:100D1000288339834A835B83C057D14008C0C059B8
:100D2000DE4F688379838A839B83C057D14060916B
:100D300042077091430780E090E00E94972B2B01BF
:100D40003C0160914407709145078091460790915E
:100D500047070E94972B28E23BE64EE65EE40E949E
:100D6000D62D9B01AC01C301B2010E940D2D209133
:100D70004807222361F09B01AC015058CC58DE4F4C
:100D8000288339834A835B83C457D14008C0CC5839
:100D9000DE4F688379838A839B83C457D1406091F7
:100DA000320760FF0AC0637082E00E948E1762E41F
:100DB00070E080E090E00E94AE188091380791E0EA
:100DC0009093E203809304041092E30310920504CD
:100DD00063E08EED95E00E94A91B81E00E9431172F
:100DE000809138079091E1039111FCCF91E09093AD
:100DF000E1039093E0032FEF2093DF031092DE03D3
:100E000025E02093DD039093BC039091BC03880FF1
:100E1000892B8093BC038091BB03813061F41092D5
:100E2000BB038091BC038093BB008091BC0083FD19
:100E3000F8CF85EC01C085EE8093BC008091E10382
:100E40008130E1F38091DE03863018F48091DE0377
:100E500001C086E0ADEBB3E020EF37E0F9019E2F53
:100E6000921B981718F49D919193F9CF1092B103AA
:100E70008093B003863059F16980712C762C6624FA
:100E80008A81682A6B8170E0762F66278C81682BB7
:100E90000D8110E0102F00278E81082B4090320723
:100EA00050903307C201F5E096958795FA95E1F7E2
:100EB0008770992781309105D1F0E0F0823091055B
:100EC00011F1039741F57195619571091CC08E016F
:100ED0000F5F1F4F36E0732E700E8EED95E00E946F
:100EE000281BD8018D938D017A12F7CFC5CF71954C
:100EF00061957109072E000C880B990B0E94992BA4
:100F00006B017C0108C0072E000C880B990B0E9416
:100F1000992B4B015C01852D99278770992781308A
:100F20009105A1F070F082309105E9F0039719F571
:100F300066277727601B710B072E000C880B990B17
:100F400016C0B801110F880B990B08C066277727C8
:100F5000601B710B072E000C880B990B0E94992BBC
:100F60006B017C0108C0B801110F880B990B0E941E
:100F7000992B4B015C01452C55244694469446948C
:100F8000B7E04B225524E1E04E165104B9F088F049
:100F900022E042165104F9F033E04316510419F5EA
:100FA0006627772766197709072E000C880B990B9F
:100FB00016C0B301770C880B990B08C066277727FA
:100FC00066197709072E000C880B990B0E94992B44
:100FD0006B017C0108C0B301770C880B990B0E9450
:100FE000992B4B015C0120E030E04DEA52E4C7014F
:100FF000B6010E940D2D6B017C0120E030E04EE334
:1010000053E4C501B4010E940D2DA70196010E9471
:10101000802D20913407309135074091360750914B
:1010200037070E940D2D6B017C0120E030E0A90103
:101030000E94932B87FF0AC02BED3FE049EC50E460
:10104000C701B6010E940D2D6B017C012BED3FE025
:1010500049EC50E4C701B6010E94CD2E181654F495
:101060002BED3FE049EC50E4C701B6010E940C2D86
:101070006B017C0120E030E044E353E4C701B6019A
:101080000E94F82B2BED3FE049E450E40E94D62D5E
:101090006B017C01C059DE4F88819981AA81BB8197
:1010A000C057D1408093900390939103A0939203F3
:1010B000B0939303CC58DE4F288139814A815B81FC
:1010C000C457D14020938C0330938D0340938E03FB
:1010D00050938F03C0928803D0928903E0928A03D1
:1010E000F0928B03BC01CD010E943E2EC858DE4F0A
:1010F000688379838A839B83C857D140CC58DE4F5D
:10110000688179818A819B81C457D1400E943E2E9B
:101110002B013C01C701B6010E943E2E4B015C0130
:10112000072E000C880B990B0E94992B9B01AC0198
:10113000C701B6010E940C2D20E030E04AE754E4DC
:101140000E94F82B0E94432E9F938F937F936F935F
:101150009F928F92B201052C000C880B990B0E9474
:10116000992B9B01AC01CC58DE4F688179818A8133
:101170009B81C457D1400E940C2D20E034E244E70B
:1011800059E40E94F82B0E94432E9F938F937F93E4
:101190006F935F924F92C858DE4F48815981C8576C
:1011A000D140BA01550F880B990B0E94992B9B01D6
:1011B000AC01C059DE4F688179818A819B81C0571B
:1011C000D1400E940C2D20E034E244E759E40E9413
:1011D000F82B0E94432E9F938F937F936F93C75852
:1011E000DE4F5881C957D1405F93C858DE4F888180
:1011F000C857D1408F9386EC92E09F938F938E01D6
:101200000F5F1F4F1F930F930E94CF31B801CE0184
:10121000805C9E4F0E94491222E0B701A601CE01D8
:10122000865C9E4F0E94631226E0CC58DE4F4881B8
:1012300059816A817B81C457D140CE018C5C9E4F1D
:101240000E94631226E0C059DE4F488159816A81AD
:101250007B81C057D140CE0184509F4F0E946312C2
:10126000BE0164507F4FCE01825D9E4F0E94C1122D
:1012700068EE72E0CE01825D9E4F0E942112BE0197
:101280006C5C7E4F0E9438126AEE72E00E9421125E
:10129000BE01665C7E4F0E943812BC01CE018A5BA3
:1012A0009E4F0E94C112CE01825D9E4F0E945E122F
:1012B000CE0184509F4F0E945E12CE018C5C9E4FE7
:1012C0000E945E12CE01865C9E4F0E945E12CE018D
:1012D000805C9E4F0E945E12C65BDE4FE880F98004
:1012E000CA54D1400FB6F894DEBF0FBECDBFE11493
:1012F000F10431F4C450DF4F1882CC5FD0401AC0E3
:10130000B1E3EB16F10418F081E3E82EF12CCA5B8F
:10131000DE4F68817981C654D140A701CE01845047
:101320009F4F0E94C031ECEFF0E0EC0FFD1FEE0D7F
:10133000FF1D1082CE018A5B9E4F0E945E1280E1EB
:1013400096E00E946220882309F4ADC08BEFC65C52
:10135000DE4F8883CA53D140AE01465C5E4FB80170
:1013600080E196E00E941D20882309F498C061E086
:101370008DE00E944318B801CE018C5C9E4F0E9404
:10138000DA126CE2CE018C5C9E4F0E9408129C0126
:1013900040E050E0BE016C5C7E4FCE01825D9E4F0E
:1013A0000E94EE12C25DDE4F88819981CE52D140FB
:1013B0000E942E2760939E0370939F038093A00347
:1013C0009093A103CE01825D9E4F0E945E1263E264
:1013D000CE018C5C9E4F0E9408128C016CE2CE0103
:1013E0008C5C9E4F0E940812AC014F5F5F4F9801CA
:1013F000BE016C5C7E4FCE01825D9E4F0E94EE125C
:10140000C25DDE4F88819981CE52D1400E942E2745
:1014100060939A0370939B0380939C0390939D0326
:10142000CE01825D9E4F0E945E1263E2CE018C5C13
:101430009E4FEED7C85CDE4F28813981C853D1401A
:10144000AC014F5F5F4FBE016C5C7E4FCE01825D91
:101450009E4F0E94EE12C25DDE4F88819981CE526E
:10146000D1400E942E276093960370939703809338
:10147000980390939903CE01825D9E4F0E945E1265
:1014800060E08DE00E944318CE018C5C9E4F0E946C
:101490005E128091A3038F5F8093A30304C08DEE3F
:1014A00092E00E94BE1642E3BE0164507F4F80E18D
:1014B00096E00E94A41560ED77E080E196E00E943E
:1014C000831C8091120690911306049721F080E10D
:1014D00096E00E94801520919E0330919F034091D9
:1014E000A0035091A103C059DE4F288339834A835A
:1014F0005B83C057D140409090035090910360901F
:1015000092037090930320918C0330918D0340914E
:101510008E0350918F0360919A0370919B03809189
:101520009C0390919D030E940C2D6B017C01A301F3
:101530009201C059DE4F688179818A819B81C057B1
:10154000D1400E940C2DCC58DE4F688379838A836A
:101550009B83C457D14025E33AEF4EE85CE30E94F9
:10156000F82B20E030E040E05FE30E94F82B0E947F
:10157000D82E4B015C0125E33AEF4EE85CE3C30152
:10158000B2010E94F82B0E94D32DC858DE4F688309
:1015900079838A839B83C857D14025E33AEF4EE88D
:1015A0005CE3C059DE4F688179818A819B81C05795
:1015B000D1400E94F82B0E94D32DC059DE4F688382
:1015C00079838A839B83C057D14025E33AEF4EE865
:1015D0005CE3C701B6010E94F82B20E030E040E058
:1015E0005FE30E94F82B0E94D82E2B013C01A5013D
:1015F0009401C501B4010E94F82B4B015C01C05954
:10160000DE4F288139814A815B81C057D140C8585B
:10161000DE4F688179818A819B81C857D1400E94C1
:10162000F82BA30192010E94F82BA30192010E94C2
:10163000F82B9B01AC01C501B4010E940D2D4B019B
:101640005C019B01AC0160E070E080E89FE30E94D8
:101650000C2D0E94E22E9B01AC01C501B401C258C1
:10166000DE4F2883CE57D140C158DE4F3883CF5745
:10167000D140C458DE4F4883CC57D140C358DE4FC9
:101680005883CD57D1400E94E22EC258DE4F2881A8
:10169000CE57D140C158DE4F3881CF57D140C458C2
:1016A000DE4F4881CC57D140C358DE4F5881CD57CB
:1016B000D1400E94802D9B01AC010E940D2D20E0A5
:1016C00038E447EC55E40E94F82B4B015C01CC5800
:1016D000DE4F288139814A815B81C457D140C701DF
:1016E000B6010E94802D6B017C0120E030E0A90151
:1016F0000E94932B87FF0AC02BED3FE049EC50E49A
:10170000C701B6010E940D2D6B017C012BED3FE05E
:1017100049EC50E4C701B6010E94CD2E181654F4CE
:101720002BED3FE049EC50E4C701B6010E940C2DBF
:101730006B017C0120E030E044E353E4C701B601D3
:101740000E94F82B2BED3FE049E450E40E94D62D97
:101750002B013C01209188033091890340918A0339
:1017600050918B030E940C2D6B017C0120E030E036
:10177000A9010E94932B87FF0AC020E030E044EBD0
:1017800053E4C701B6010E940D2D6B017C018091CD
:10179000940390919503C659DE4F19821882CA5658
:1017A000D140C459DE4F19821882CC56D140C2595B
:1017B000DE4F19821882CE56D1404AE0BE016F5FDB
:1017C0007F4F0E946027BE016F5F7F4FCE01865919
:1017D0009E4F5FD622E0B701A601CE018C599E4FE5
:1017E000A1D622E0B301A201CE01825A9E4F9AD621
:1017F00023E0B501A401CE01885A9E4F93D64091B3
:10180000960350919703609198037091990322E099
:10181000CE018E5A9E4F86D640919A0350919B03DB
:1018200060919C0370919D0326E0CE01845B9E4FE6
:101830004AD640919E0350919F036091A0037091FE
:10184000A10326E0CE018A5B9E4F3DD640918803DE
:101850005091890360918A0370918B0322E0CE013D
:10186000805C9E4F5FD640918C0350918D036091B8
:101870008E0370918F0326E0CE01865C9E4F23D6A7
:101880004091900350919103609192037091930362
:1018900026E0CE01825D9E4F16D6BE01625D7E4F70
:1018A000CE018C5C9E4F6DD668EE72E0CE018C5CF2
:1018B0009E4FC7D5BE01665C7E4FDAD56AEE72E0F8
:1018C000C0D5BE01605C7E4FD3D569EF72E0B9D55B
:1018D000BE016A5B7E4FCCD568EE72E0B2D5BE0128
:1018E000645B7E4FC5D56AEE72E0ABD5BE016E5A21
:1018F0007E4FBED56EEF72E0A4D5BE01685A7E4F12
:10190000B7D563E073E09DD5BE01625A7E4FB0D576
:1019100068E073E096D5BE016C597E4FA9D56DE0A5
:1019200073E08FD5BE0166597E4FA2D5BC01CE01B2
:10193000019627D6CE018C5C9E4FC0D5CE01825D2C
:101940009E4FBCD5CE01865C9E4FB8D5CE01805C43
:101950009E4FB4D5CE018A5B9E4FB0D5CE01845B3D
:101960009E4FACD5CE018E5A9E4FA8D5CE01885A37
:101970009E4FA4D5CE01825A9E4FA0D5CE018C5940
:101980009E4F9CD5CE0186599E4F98D54D815E8144
:1019900069817A8181E495E0E4D282E193E00E945A
:1019A000AD1620E030E0A901C501B4010E94932BDF
:1019B000882309F448C12DEC3CEC4CEC5CE3C501F8
:1019C000B4010E94932B1816B4F42DEC3CEC4CE4BB
:1019D0005DE3C501B4010E94932B181674F42DEC3D
:1019E0003CEC4CEC5DE3C501B4010E94932B18164E
:1019F00034F414E605C019E103C01BE201C01BE189
:101A00008091800381110DC00E94E61860937C03D1
:101A100070937D0380937E0390937F0381E0809396
:101A200080038091740381110DC00E94E6186093B9
:101A3000700370937103809372039093730381E03A
:101A4000809374038091680381110DC00E94E61891
:101A500060936403709365038093660390936703B8
:101A600081E08093680380916303882311F08436BA
:101A700079F4193111F483E007C01B3211F482E0CC
:101A800003C01B3129F481E00E943F1A10936303C5
:101A900080916303893161F0193109F042C083E01C
:101AA0000E943F1A1093630384E08093620339C05D
:101AB0001931B9F580E00E943F1A80910604811126
:101AC00024C00E94E61840907C0350907D036090F3
:101AD0007E0370907F03DC01CB0184199509A60970
:101AE000B709893E9340A105B10578F00E94E61838
:101AF00060937C0370937D0380937E0390937F03B8
:101B0000809162038F5F80936203809162038530CE
:101B100028F083E00E943F1A1092620389E18093CB
:101B20006303809163038B3261F01B3209F042C082
:101B300082E00E943F1A1093630389E0809361035F
:101B400039C01B32B9F580E00E943F1A809106042B
:101B5000811124C00E94E6184090700350907103D8
:101B60006090720370907303DC01CB0184199509B6
:101B7000A609B709893E9340A105B10578F00E94F6
:101B8000E6186093700370937103809372039093CF
:101B90007303809161038F5F809361038091610380
:101BA0008A3028F082E00E943F1A109261038BE293
:101BB00080936303809163038B3161F01B3109F0E3
:101BC00042C081E00E943F1A1093630383E1809337
:101BD000600339C01B31B9F580E00E943F1A809143
:101BE0000604811124C00E94E6180091640310913C
:101BF00065032091660330916703DC01CB01801BF4
:101C0000910BA20BB30B893E9340A105B10578F06F
:101C10000E94E618609364037093650380936603E3
:101C200090936703809160038F5F8093600380913E
:101C30006003843128F081E00E943F1A1092600313
:101C40008BE1809363031091A20340908C0350902A
:101C50008D0360908E0370908F038091900390911C
:101C60009103A0919203B0919303C059DE4F8883F2
:101C70009983AA83BB83C057D14061E08FE10E9462
:101C80004318112331F061E083E20E94431811E010
:101C900005C060E083E20E94431810E020E030E0DD
:101CA000A901C059DE4F688179818A819B81C05723
:101CB000D1400E94932B882381F020E030E0A901DD
:101CC000C301B2010E94932B882339F061E081E2C5
:101CD0000E944318113031F010C160E081E20E948F
:101CE00043180BC120E030E04AE754E4C501B401D9
:101CF0000E94F82B2B013C0120E030E048EC52E43C
:101D00000E94932B87FF02C01BE101C014E620E074
:101D100030E048E452E4C301B2010E94932B87FDF6
:101D20001BE220E030E048EC51E4C301B2010E9424
:101D3000932B87FD19E140E06DE1812F0E94002087
:101D400040E067E2812F0E94002040E061E3812FA4
:101D50000E94002040E06EE2812F0E94002040E0BF
:101D60006FE2812F0E94002040E067E1812F0E94F6
:101D7000002040E06DE2812F0E94002040E069E2F7
:101D8000812F0E94002020E030EC48EA53E4C70194
:101D9000B6010E94CD2E181654F020E030E044EB3E
:101DA00051E4C701B6010E94932B87FF03C041E0B5
:101DB00067E2A0C020E030E044EB51E4C701B60187
:101DC0000E94CD2E18166CF420E030E047E852E473
:101DD000C701B6010E94932B87FF03C041E061E376
:101DE00089C020E030E047E852E4C701B6010E9414
:101DF000CD2E18166CF420E030E041EE52E4C7011D
:101E0000B6010E94932B87FF03C041E06EE272C0CF
:101E100020E030E041EE52E4C701B6010E94CD2E31
:101E200018166CF420E030E84DE153E4C701B60128
:101E30000E94932B87FF03C041E06FE25BC020E06C
:101E400030E84DE153E4C701B6010E94CD2E1816CB
:101E50006CF420E030E84AE453E4C701B6010E9484
:101E6000932B87FF03C041E067E144C020E030E8E6
:101E70004AE453E4C701B6010E94CD2E18166CF453
:101E800020E030E847E753E4C701B6010E94932BF6
:101E900087FF03C041E06DE22DC020E030E847E756
:101EA00053E4C701B6010E94CD2E18166CF420E051
:101EB00030E442E953E4C701B6010E94932B87FF47
:101EC00003C041E069E216C020E030E442E953E497
:101ED000C701B6010E94CD2E18167CF420E030EC2C
:101EE00048EA53E4C701B6010E94932B87FF05C05F
:101EF00041E06DE1812F0E9400202DEC3CEC4CEC88
:101F00005CE3C501B4010E94932B87FF02C061E02E
:101F100001C060E085E20E94431864E670E080E062
:101F200090E00E94AE18CE010196C8D2C158DE4F93
:101F30000FB6F894DEBF0FBECDBFDF91CF911F91DA
:101F40000F91FF90EF90DF90CF90BF90AF909F9058
:101F50008F907F906F905F904F903F902F9008955B
:101F60000895CF92DF92EF92FF920F931F93CF933A
:101F7000DF936C017A018B01C0E0D0E0CE15DF0564
:101F800089F0D8016D918D01D601ED91FC91019000
:101F9000F081E02DC6011995892B11F47E0102C054
:101FA0002196ECCFC701DF91CF911F910F91FF9048
:101FB000EF90DF90CF900895FC01A089B1898C91BA
:101FC000A689B78982FD0FC09C91818D8F5F8F7329
:101FD000228D821749F0218DDF01A20FB11D5D9680
:101FE0009C93818F08958C910895FC01538D448DAD
:101FF000252F30E0842F90E0821B930B541710F0B4
:10200000CF96089501970895FC01918D828D9817C0
:1020100061F0828DDF01A80FB11D5D968C91928DCC
:102020009F5F9F73928F90E008958FEF9FEF0895C9
:10203000FC01918D828D981731F0828DE80FF11D92
:10204000858D90E008958FEF9FEF0895FC01918DAD
:10205000228D892F90E0805C9F4F821B91098F73A6
:102060009927089587E094E0F1DF21E0892B09F4B6
:1020700020E0822F089584EA94E0E8DF21E0892BB4
:1020800009F420E0822F089581E495E0DFDF21E06C
:10209000892B09F420E0822F0895FC01848DDF0153
:1020A000A80FB11DA35ABF4F2C91848D90E00196CB
:1020B0008F739927848FA689B7892C93A089B189BA
:1020C0008C9180648C93938D848D981306C00288C4
:1020D000F389E02D80818F7D80830895EF92FF92B8
:1020E0000F931F93CF93DF93EC0181E0888F9B8D3B
:1020F0008C8D981305C0E889F989808185FD23C0FE
:10210000F62E0B8D10E00F5F1F4F0F731127E02E7F
:102110008C8DE8120BC00FB607FCFACFE889F9895D
:10212000808185FFF5CFCE01B8DFF2CF8B8DFE0128
:10213000E80FF11DE35AFF4FF0820B8FEA89FB890C
:102140008081806207C0EE89FF896083E889F98910
:1021500080818064808381E090E0DF91CF911F9146
:102160000F91FF90EF900895CF93DF93EC01888D4E
:102170008823C1F0EA89FB89808185FD05C0A88993
:10218000B9898C9186FD0EC00FB607FCF5CF808112
:1021900085FFF2CFA889B9898C9185FFEDCFCE015B
:1021A0007CDFE8CFDF91CF91089580E090E0892B2C
:1021B00019F06ADF81111BC080E090E0892B19F0D3
:1021C0005ADF811117C080E090E0892B19F04ADFB7
:1021D000811113C080E090E0892BA1F080E090E0B5
:1021E000892B81F00E94000081110AC008950E948D
:1021F0000000E2CF0E940000E6CF0E940000EACF7C
:102200000C94000008958BEF08950E9498310F936D
:102210001F93CF93DF93EC0188819981009729F078
:102220002A813B812617370788F48B016F5F7F4F28
:102230000E94B430009761F0998388831B830A83DE
:102240002C813D81232B11F4FC01108281E001C01F
:1022500080E0DF91CF911F910F910895EF92FF924F
:102260000F931F93CF93DF93FC0124813581611578
:10227000710511F480E018C041155105A1F07B01F2
:10228000EC018A01020F131FB801C1DF882391F30B
:10229000288139818C819D81B701820F931F0E9413
:1022A000B9311D830C8381E0DF91CF911F910F9194
:1022B000FF90EF900895CF93DF93EC01888199818F
:1022C000009711F00E941C30198218821D821C8216
:1022D0001B821A82DF91CF910895EF92FF920F93A4
:1022E0001F93CF93DF93EC017B018A01BA018FDF4B
:1022F000811103C0CE01DFDF07C01D830C83B7014E
:10230000888199810E94B931CE01DF91CF911F91CF
:102310000F91FF90EF900895CF93DF93EC018A81A6
:102320009B81059771F047E061E0CE010E94361D68
:1023300040E860E4CE010E94361D85E090E09B837A
:102340008A838A819B810597E1F38E89DF91CF9102
:102350000895CF93DF93FC01228133812130310531
:1023600049F0EC0140E061E00E94361D81E090E020
:102370009B838A8381E0DF91CF9108951F920F9212
:102380000FB60F9211242F933F938F939F93AF9388
:10239000BF938091B3039091B403A091B503B09122
:1023A000B6033091B20323E0230F2D3720F40196BA
:1023B000A11DB11D05C026E8230F0296A11DB11D68
:1023C0002093B2038093B3039093B403A093B50317
:1023D000B093B6038091B7039091B803A091B9036D
:1023E000B091BA030196A11DB11D8093B7039093DC
:1023F000B803A093B903B093BA03BF91AF919F9173
:102400008F913F912F910F900FBE0F901F901895B5
:10241000CF93DF93FC0124813581232B69F0C081A8
:10242000D181062E000C770BCE010E94A5310097BA
:1024300019F08C1B9D0B02C08FEF9FEFDF91CF91A6
:102440000895CF93DF93EC016115710559F0FB01FD
:1024500001900020E9F73197AF01461B570BFEDED4
:10246000811102C0CE0127DFCE01DF91CF91089507
:10247000CF93DF93EC01FB01448155816081718131
:10248000EDDE811102C0CE0116DFCE01DF91CF91CA
:102490000895CF93DF93EC016115710551F0FB01B5
:1024A00001900020E9F73197AF01461B570B15DF6C
:1024B00001C001DFCE01DF91CF910895FC01808141
:1024C00091810C941C30EF92FF920F931F93CF9346
:1024D000DF93CDB7DEB7A1970FB6F894DEBF0FBE7E
:1024E000CDBF7C01CB01BA01F701118210821382AA
:1024F00012821582148242E0420F8E010F5F1F4F3D
:102500000E94BA26BC01C701C4DFA1960FB6F89499
:10251000DEBF0FBECDBFDF91CF911F910F91FF9016
:10252000EF900895EF92FF920F931F93CF93DF9355
:10253000CDB7DEB7A1970FB6F894DEBF0FBECDBF03
:102540007C01CB01BA01F701118210821382128241
:102550001582148242E0420F8E010F5F1F4F0E94CE
:10256000BA26BC01C70195DFA1960FB6F894DEBF6D
:102570000FBECDBFDF91CF911F910F91FF90EF90D4
:102580000895FB01DC0111961C921E9213961C9279
:102590001E92129715961C921E92149786179707F3
:1025A00041F0608171816115710519F04481558197
:1025B00094CE0895FC01118210821382128215823A
:1025C00014826115710549F0FB0101900020E9F7C3
:1025D0003197AF01461B570B80CE0895BF92CF9223
:1025E000DF92EF92FF920F931F93CF93DF937C01C3
:1025F0006B018A01E9012417350720F4812F890135
:10260000C42FD82F64E173E0C701D4DFD60114963C
:102610008D919C91159708171907C8F48C179D0781
:1026200008F4EC01D601ED91FC911197EC0FFD1F20
:10263000B08010824D915C91BA01600F711FC7018B
:1026400028DFD601ED91FC91EC0FFD1FB082C70190
:10265000DF91CF911F910F91FF90EF90DF90CF907E
:10266000BF9008951F920F920FB60F9211240BB6D0
:102670000F922F933F934F935F936F937F938F931B
:102680009F93AF93BF93EF93FF93E0910E02F0916E
:102690000F021995FF91EF91BF91AF919F918F918B
:1026A0007F916F915F914F913F912F910F900BBE52
:1026B0000F900FBE0F901F9018951F920F920FB69C
:1026C0000F9211240BB60F922F933F934F935F936A
:1026D0006F937F938F939F93AF93BF93EF93FF93EA
:1026E000E0910C02F0910D021995FF91EF91BF91CD
:1026F000AF919F918F917F916F915F914F913F919A
:102700002F910F900BBE0F900FBE0F901F9018953A
:102710001F920F920FB60F9211240BB60F922F93A8
:102720003F934F935F936F937F938F939F93AF9359
:10273000BF93EF93FF93E0910202F091030219958A
:10274000FF91EF91BF91AF919F918F917F916F9189
:102750005F914F913F912F910F900BBE0F900FBE45
:102760000F901F9018951F920F920FB60F92112481
:102770000BB60F922F933F934F935F936F937F937B
:102780008F939F93AF93BF93EF93FF93E0910002DA
:10279000F09101021995FF91EF91BF91AF919F9137
:1027A0008F917F916F915F914F913F912F910F90FA
:1027B0000BBE0F900FBE0F901F9018951F920F9297
:1027C0000FB60F9211240BB60F922F933F934F9396
:1027D0005F936F937F938F939F93AF93BF93EF9389
:1027E000FF93E0910A02F0910B021995FF91EF918E
:1027F000BF91AF919F918F917F916F915F914F9119
:102800003F912F910F900BBE0F900FBE0F901F9016
:1028100018951F920F920FB60F9211240BB60F92BC
:102820002F933F934F935F936F937F938F939F93D8
:10283000AF93BF93EF93FF93E0910802F0910902E9
:102840001995FF91EF91BF91AF919F918F917F91DA
:102850006F915F914F913F912F910F900BBE0F9011
:102860000FBE0F901F9018951F920F920FB60F92E8
:1028700011240BB60F922F933F934F935F936F9357
:102880007F938F939F93AF93BF93EF93FF93E091C9
:102890000602F09107021995FF91EF91BF91AF9158
:1028A0009F918F917F916F915F914F913F912F9168
:1028B0000F900BBE0F900FBE0F901F9018951F9298
:1028C0000F920FB60F9211240BB60F922F933F93D6
:1028D0004F935F936F937F938F939F93AF93BF9328
:1028E000EF93FF93E0910402F09105021995FF9197
:1028F000EF91BF91AF919F918F917F916F915F9178
:102900004F913F912F910F900BBE0F900FBE0F90E4
:102910001F9018951F920F920FB60F9211240BB6AD
:102920000F922F933F934F935F936F937F938F9368
:102930009F93AF93BF93EF93FF9387E094E0ADDB5A
:10294000FF91EF91BF91AF919F918F917F916F9187
:102950005F914F913F912F910F900BBE0F900FBE43
:102960000F901F9018951F920F920FB60F9211247F
:102970000BB60F922F933F934F935F936F937F9379
:102980008F939F93AF93BF93EF93FF9387E094E070
:1029900013DBFF91EF91BF91AF919F918F917F9149
:1029A0006F915F914F913F912F910F900BBE0F90C0
:1029B0000FBE0F901F9018951F920F920FB60F9297
:1029C00011240BB60F922F933F934F935F936F9306
:1029D0007F938F939F93AF93BF93EF93FF9384EA7B
:1029E00094E05BDBFF91EF91BF91AF919F918F914D
:1029F0007F916F915F914F913F912F910F900BBEFF
:102A00000F900FBE0F901F9018951F920F920FB648
:102A10000F9211240BB60F922F933F934F935F9316
:102A20006F937F938F939F93AF93BF93EF93FF9396
:102A300084EA94E0C1DAFF91EF91BF91AF919F9149
:102A40008F917F916F915F914F913F912F910F9057
:102A50000BBE0F900FBE0F901F9018951F920F92F4
:102A60000FB60F9211240BB60F922F933F934F93F3
:102A70005F936F937F938F939F93AF93BF93EF93E6
:102A8000FF9381E495E009DBFF91EF91BF91AF9156
:102A90009F918F917F916F915F914F913F912F9176
:102AA0000F900BBE0F900FBE0F901F9018951F92A6
:102AB0000F920FB60F9211240BB60F922F933F93E4
:102AC0004F935F936F937F938F939F93AF93BF9336
:102AD000EF93FF9381E495E06FDAFF91EF91BF915F
:102AE000AF919F918F917F916F915F914F913F91A6
:102AF0002F910F900BBE0F900FBE0F901F90189547
:102B0000CF93DF93EC0145E061E0B0D740E060E4B3
:102B1000CE01ACD784E090E09B838A83DF91CF9194
:102B20000895CF93DF93FC01228133812230310558
:102B300041F0EC0141E061E099D782E090E09B83B5
:102B40008A83DF91CF910895BF92CF92DF92EF9267
:102B5000FF920F931F93CF93DF934C3F10F0C12C44
:102B600076C0142F072FD62EEC01E881F98104845A
:102B7000F585E02D1995CE01D4DFE881F981028831
:102B8000F389E02DCE011995C82E882341F340E04A
:102B90006DE0CE016BD74A8560E0CE0167D74B85EB
:102BA00060E0CE0163D74C8560E0CE015FD74D85F4
:102BB00060E0CE015BD7BFB6F894898D9A8DDC01B9
:102BC000ED91FC910088F189E02D199560E08B8DE5
:102BD0005AD2898D9A8DDC01ED91FC910190F081A2
:102BE000E02D60E81995ED2CF02E012F015068F0D2
:102BF000898D9A8DF70161917F01DC01ED91FC9146
:102C00000190F081E02D1995F1CF61E08B8D3BD2E1
:102C1000898D9A8DDC01ED91FC910288F389E02D7C
:102C20001995BFBE44E0410F62E2CE011FD78A81F1
:102C30009B81039761F043E061E0CE0117D740E448
:102C400060E4CE0113D783E090E09B838A838C2DD0
:102C5000DF91CF911F910F91FF90EF90DF90CF9078
:102C6000BF90089590E0FC013197E231F10508F042
:102C70004EC08827E556FF4F8F4F0C946B2F8091E5
:102C800080008F7703C0809180008F7D80938000CB
:102C9000089580918000877FF9CF84B58F7702C037
:102CA00084B58F7D84BD08958091B0008F7703C077
:102CB0008091B0008F7D8093B00008958091900046
:102CC0008F7707C0809190008F7D03C08091900026
:102CD000877F8093900008958091A0008F7707C030
:102CE0008091A0008F7D03C08091A000877F80939A
:102CF000A0000895809120018F7707C08091200166
:102D00008F7D03C080912001877F809320010895EB
:102D10003FB7F8948091B7039091B803A091B9039D
:102D2000B091BA0326B5A89B05C02F3F19F00196B4
:102D3000A11DB11D3FBFBA2FA92F982F8827820F41
:102D4000911DA11DB11DBC01CD0142E0660F771F91
:102D5000881F991F4A95D1F70895009761F0FC01EB
:102D600001900020E9F73197AF01481B590BBC01D6
:102D700081E495E0F6C880E090E00895CF93DF937A
:102D8000ECDFEC0182E193E0E8DF8C0F9D1FDF9127
:102D9000CF910895CF92DF92EF92FF920F931F93FE
:102DA000CF93DF93EC016A017B01E889F98982E026
:102DB00080834115514E61057105B1F060E079E005
:102DC0008DE390E0A70196010E94DB2C89019A0116
:102DD0000150110921093109369527951795079555
:102DE000980101151041A8F0E889F989108260E87E
:102DF00074E88EE190E0A70196010E94DB2CDA01D5
:102E0000C9010197A109B109B695A795979587952D
:102E10009C01EC85FD853083EE85FF852083188E2F
:102E2000EC89FD8986E08083EA89FB898081806165
:102E30008083EA89FB89808188608083EA89FB89B5
:102E4000808180688083EA89FB8980818F7D80838F
:102E5000DF91CF911F910F91FF90EF90DF90CF9076
:102E60000895382F2091050490910404213208F030
:102E700049C08091E1038111FCCF42E04093E1031E
:102E80003093E0033FEF3093DF031092DE03209393
:102E9000DD03A4EEB3E04DEB53E0FA013E2F341B0B
:102EA000321718F43D913193F9CF1092BC03209161
:102EB000BC03990F922B9093BC039091BB0391306C
:102EC00061F41092BB039091BC039093BB0090916E
:102ED000BC0093FDF8CF95EC01C095EE9093BC003B
:102EE0009091E1039230E1F39091DF039F3F79F0FD
:102EF0008091DF03803241F08091DF03803331F035
:102F000084E005C081E003C082E001C083E010924C
:102F1000E303109205041092E2030895CF93C62FA5
:102F20009091380721E02093E203909304041092DB
:102F3000E30310920504682F8EED95E00AD46C2F00
:102F40008EED95E006D481E0CF918BCF0F931F9348
:102F5000CF93DF938C01C0E0D0E0F801EC0FFD1FB0
:102F60006491662371F0E0914105F0914205019072
:102F7000F081E02D81E495E01995892B11F02196DF
:102F8000ECCF82E193E0E9DE8C0F9D1FDF91CF91C2
:102F90001F910F910895883008F04CC0A82FB0E021
:102FA000AA0FBB1FA050BE4F11967C936E9390E06A
:102FB000FC013197E730F10510F58827E355FF4F05
:102FC0008F4F0C946B2F8091690083608093690010
:102FD000E89A0895809169008C6080936900E99A6D
:102FE000089580916900806380936900EA9A08954A
:102FF00080916900806C80936900EB9A08958091BC
:103000006A00836080936A00EC9A089580916A0058
:103010008C6080936A00ED9A089580916A008063C5
:1030200080936A00EE9A089580916A00806C809384
:103030006A00EF9A0895CF93DF93282F30E0F901CB
:10304000EC5AFB4F8491F901E25FFB4FD491F901F7
:10305000E853FC4FC491CC2389F0811103DEEC2F9F
:10306000F0E0EE0FFF1FE255FC4FA591B491EC91FB
:10307000ED2381E090E021F480E002C080E090E068
:10308000DF91CF9108951F93CF93DF93282F30E0E6
:10309000F901EC5AFB4F8491F901E25FFB4FD491A7
:1030A000F901E853FC4FC491CC23C1F0162F8111D4
:1030B000D9DDEC2FF0E0EE0FFF1FEC56FC4FA59191
:1030C000B4918FB7F894111105C09C91ED2FE09544
:1030D000E92302C0EC91ED2BEC938FBFDF91CF91F0
:1030E0001F910895CF93DF9390E0FC01E25FFB4FC7
:1030F0002491FC01E853FC4F8491882361F190E016
:10310000880F991FFC01E658FC4FC591D491FC0132
:10311000EC56FC4FA591B491611109C09FB7F8948A
:103120008881209582238883EC912E230BC0623006
:1031300061F49FB7F8943881822F80958323888328
:10314000EC912E2B2C939FBF06C08FB7F894E8818B
:103150002E2B28838FBFDF91CF9108958F929F925E
:10316000AF92BF92CF92DF92EF92FF926B017C0100
:10317000CFDD4B015C01C114D104E104F104E9F09D
:10318000C7DDDC01CB0188199909AA09BB09883E72
:103190009340A105B10578F321E0C21AD108E108F6
:1031A000F10888EE880E83E0981EA11CB11CC114A2
:1031B000D104E104F10421F7DECFFF90EF90DF901E
:1031C000CF90BF90AF909F908F9008952FB7F894B5
:1031D0006091B3037091B4038091B5039091B603ED
:1031E0002FBF08950F931F93CF938091EA0590917D
:1031F000EB05DC01ED91FC910084F185E02D199542
:10320000892B09F4B9C060E070E0CB01A7DFC09161
:1032100008068091EA059091EB05DC01ED91FC91A7
:103220000284F385E02DC11108C019958093F4053F
:103230008E37D9F6809108069BC01995EC2FF0E0E7
:10324000E651FA4F8287809108068230A1F08930DA
:10325000C1F0813009F08CC09091F5059F3F09F4D1
:1032600087C01092080681E080930A0610920D062E
:1032700010920C06AAC09091F605963009F478C019
:10328000F0CF8091FD058F3E61F7E5EFF5E020E09E
:1032900030E08191280F311DB5E0EB3FFB07C9F706
:1032A0008091FB0590E0982F882731952195310971
:1032B0004091FC05840F911D2817390791F6109253
:1032C0000806E091F705E13409F44FC0E0930B06DE
:1032D0002091F90530E0322F22278091FA05280F3E
:1032E000311D30930D0620930C068E2F90E0FC01CB
:1032F000FA97E631F10580F58827EC54FF4F8F4FA0
:103300000C946B2F85E022C020FF02C089E01EC014
:1033100021FF02C084E01AC023703327232B09F455
:103320005AC08AE013C020FF02C087E00FC021FF0F
:1033300052C082E00BC020FF02C088E007C021FF1E
:103340004AC083E003C086E001C08BE080930A0698
:1033500081E080930E063FC081E080930A061092C0
:103360000D0610920C0680930E0610920F0633C0C5
:103370008F5F8093080639CF80910F06882359F11B
:1033800025DF0091EC051091ED052091EE053091BF
:10339000EF05DC01CB01801B910BA20BB30B00915D
:1033A000F0051091F1052091F2053091F305801799
:1033B0009107A207B30778F01092080610920A0648
:1033C00010920D0610920C0681E080930E0610926A
:1033D0000F0680E002C080910E06CF911F910F91E1
:1033E0000895809301067093030660930406EFEF3F
:1033F000F5E080E090E02191820F911D26E0E5301C
:10340000F207C9F7919581959109909305068093EC
:10341000060680910206811127C08091EA059091ED
:10342000EB05DC01ED91FC910280F381E02D4AE097
:1034300050E06EEF75E01995C9DE6093EC0570936E
:10344000ED058093EE059093EF058091020691E0E3
:10345000811101C090E090930F0681110FC06AE0C6
:1034600070E080E090E07ACE80910F068823A9F288
:1034700060E070E0CB0172DEB5DEF6CF0895CF9349
:10348000C82FB0DE882359F010920E0680910A06EC
:10349000853029F41092060486E493E06FDCCC2397
:1034A00079F08091060481110BC06C2F70E083E0ED
:1034B00098DF81E08093060484E593E0CF914DCCC2
:1034C000CF910895089580915908882361F09FB79E
:1034D000F8942091590880915808213019F48DBB37
:1034E0009FBF08958FBF0895FC012085918580912D
:1034F0005908882379F08FB7F89430915908313002
:1035000039F43DB3309358083DB33DBB8FBF02C083
:10351000809358082CBD9DBD08959FB7F894809165
:103520005708882319F081508093570880915708D5
:10353000811105C08CB58F7B8CBD109259089FBF3F
:1035400008958CB58F778CBD08958CB580688CBD3F
:1035500008956EBD00000DB407FEFDCF8EB5089531
:10356000FC01738362830895FC0177836683089569
:10357000FC0175836483089508950895089508955E
:103580000895FC01848995890895FC0182899389B5
:103590000895FC0180899189089580E00895FC01D7
:1035A000738362830895FC01828193810895FC01F5
:1035B000868597850895FC0181850895FC018085A5
:1035C0000895FC0187810895FC0186810895FC011E
:1035D000409595854923642B65870895FC01648790
:1035E0000895FC0163870895FC0162870895FC013A
:1035F00064830895FC016583089580E00895FC01CB
:103600002281338123303105D1F381E00895CF93B6
:10361000DF93EC01E881F9810280F381E02DCE0196
:1036200019958823B9F3DF91CF91089581E008952A
:103630000895E091B1038091B003E81730F4F0E011
:10364000E051F84F808190E008958FEF9FEF08954B
:103650009091B1038091B003981750F4E92FF0E0F6
:10366000E051F84F208130E09F5F9093B10302C09A
:103670002FEF3FEFC90108958091B00390E02091B2
:10368000B103821B91090895089580E090E00895A8
:1036900085ED8093BC008091BC0084FDFCCF10922E
:1036A000E103089540913208262F30E0240F311DA8
:1036B00021323105DCF42091E1032430C9F4FC010E
:1036C00080E090E0861758F4309132082191DC01B7
:1036D000A05FB74FA30FB11D2C930196F3CF80913C
:1036E0003208680F6093320880E0089581E0089501
:1036F00082E00895CF92DF92EF92FF920F931F9393
:10370000CF93DF937C01262F972F8A018091E203CC
:10371000882391F0C62FD72F6E01C40ED51ECC156D
:10372000DD0569F06991D701ED91FC910190F0817F
:10373000E02DC7011995F3CF642F822FB3DFC801A5
:10374000DF91CF911F910F91FF90EF90DF90CF907D
:103750000895CF93DF931F92CDB7DEB76983209191
:10376000E2032223D1F020910504203240F021E031
:1037700030E0FC013383228380E090E014C080912C
:10378000E303E82FF0E0EC51FC4F998190838F5FC9
:103790008093E3038093050404C061E0CE010196A9
:1037A00081DF81E090E00F90DF91CF910895CF937A
:1037B000DF93EC01898D9A8DDC01ED91FC910680FF
:1037C000F781E02D199561E08B8D8CDC61E08B8DAC
:1037D0005ADC64E670E080E090E0C0DC81E0DF91DC
:1037E000CF9108950F931F93CF93FC018281938112
:1037F0008430910569F08330910579F0823091052C
:1038000089F00197A1F040E452E46FE070E013C04A
:1038100040E054E264EF70E00EC040E052E16AE73D
:1038200070E009C040E059E06DE370E004C040E89A
:1038300054E86EE170E0A481B5818681978100979C
:1038400041F08130910539F08230910531F00397D4
:1038500031F090E005C094E003C098E001C09CE026
:1038600080E000E012E12AE730E0401751076207EC
:10387000730740F436952795179507958F5F863027
:10388000A1F787E021E02827119711F080E501C01A
:1038900080E7322F3695932B982B908721702187C4
:1038A000CFB7F89480915708811123C0EDEFF3E072
:1038B0008491E3E4F4E09491E82FF0E0EE0FFF1F31
:1038C000E658FC4FA591B491EC91E92319F461E01D
:1038D00085E3D9DB61E085E305DC8CB580618CBDD7
:1038E0008CB580648CBD61E084E3FCDB61E083E344
:1038F000F9DB809157088F5F80935708CFBFCF9136
:103900001F910F9108958F929F92AF92BF92CF9285
:10391000DF92EF92FF92CF93DF93EC016B0156DCC5
:103920004B015C01E12CF12C51DCDC01CB0188194D
:103930009909AA09BB098C159D05AE05BF0530F490
:103940008A819B81039781F381E001C080E0DF9150
:10395000CF91FF90EF90DF90CF90BF90AF909F906E
:103960008F9008958F929F92AF92BF92CF92DF92E5
:10397000EF92FF92CF93DF93EC016B0127DC4B01B9
:103980005C01E12CF12C22DCDC01CB0188199909C6
:10399000AA09BB098C159D05AE05BF0550F4E88149
:1039A000F9810280F381E02DCE011995882359F326
:1039B00001C080E0DF91CF91FF90EF90DF90CF903A
:1039C000BF90AF909F908F9008958F929F92AF92EB
:1039D000BF92CF92DF92EF92FF92CF93DF93FC01E1
:1039E0002789308D232B11F481E035C0EC01EEDB0B
:1039F0006B017C0189E0882E912CA12CB12CE881EF
:103A0000F9810488F589E02DCE011995882361F3A9
:103A1000DDDBAB01BC014C195D096E097F098F89A3
:103A2000988DA0E0B0E084179507A607B70790F03F
:103A30000E942227A50194010E94AF2C9B01AC019A
:103A40002F5F3F4F4F4F5F4FA4E6B0E00E94CB2C5B
:103A500085DBD5CF80E0DF91CF91FF90EF90DF90B5
:103A6000CF90BF90AF909F908F900895EF92FF926C
:103A70000F931F93CF93DF931F92CDB7DEB77C01D7
:103A8000162F0FB7F894DC0159968D919C915A9797
:103A9000DC01ED91FC910088F189E02D49831995B5
:103AA00060E0F701838DEFDAD70159968D919C91F3
:103AB0005A97DC01ED91FC91612F60680190F081D3
:103AC000E02D1995182FF701818D928DDC01ED9174
:103AD000FC910190F081E02D4981642F199561E0FE
:103AE000F701838DD0DAD70159968D919C915A9721
:103AF000DC01ED91FC910288F389E02D19950FBF4F
:103B0000812F0F90DF91CF911F910F91FF90EF9038
:103B100008950F931F93CF93DF93EC01162F0FB7E8
:103B2000F89460E08B8DAFDA898D9A8DDC01ED9190
:103B3000FC91612F6F770190F081E02D1995898DAF
:103B40009A8DDC01ED91FC910190F081E02D60E017
:103B50001995182F61E08B8D96DA0FBF812FDF91B9
:103B6000CF911F910F910895CF93DF93EC018A8538
:103B70009B85AC85BD858E839F83A887B98726DB0F
:103B80006A837B838C839D8381E089838883DF9133
:103B9000CF9108952F923F924F925F926F927F92B2
:103BA0008F929F92AF92BF92CF92DF92EF92FF924D
:103BB0000F931F93CF93DF93D82FC92F8B010E94B0
:103BC000312724E630E040E050E00E94DB2C490140
:103BD0005A019B01AC0160E876E988E990E00E9417
:103BE000492F6B017C01F80191828082ED2FFC2F1F
:103BF0002191822F022E000C990BC0970A97C0F3D7
:103C00002E3239F51F0180E8882E86E9982E88E942
:103C1000A82EB12C9AE0492E512C612C712CF10167
:103C2000C1911F010C2E000CDD0BE097CA30D105AD
:103C300080F4C501B401A30192010E94DB2C49016B
:103C40005A01DE010E94D52CC60ED71EE81EF91EB1
:103C5000E6CFA5E0B0E0A70196010E94CB2C6F5FF4
:103C60007F4F8F4F9F4F23E030E040E050E00E94B5
:103C7000DB2CF80122833383448355831682DF9142
:103C8000CF911F910F91FF90EF90DF90CF90BF9059
:103C9000AF909F908F907F906F905F904F903F90EC
:103CA0002F900895FF920F931F93CF93DF93EC0112
:103CB000FF24F39488818D3211F0F12C01C02196FC
:103CC000CE010E9431279B01AC01A4E6B0E00E9426
:103CD000CB2CFE014991242F042E000C330B2053D2
:103CE00031092A303105A8F34E3241F52181022EE7
:103CF000000C330B205331092A303105F8F44AE027
:103D0000429F8001439F100D1124012E000C220BB5
:103D1000330B600F711F821F931F0281002E000C56
:103D2000110B005311090A30110540F4012E000C4B
:103D3000220B330B600F711F821F931FFF2039F07E
:103D400090958095709561957F4F8F4F9F4FDF9134
:103D5000CF911F910F91FF9008951F920F920FB670
:103D60000F9211240BB60F922F933F934F935F93B3
:103D70006F937F938F939F93AF93BF93EF93FF9333
:103D80008091B900887F803609F49CC068F588323C
:103D900009F45BC090F4803109F454C038F48823EE
:103DA00009F4F6C0883009F44DC0F5C0883109F433
:103DB0004CC0803209F45DC0EEC0803409F468C0A4
:103DC00048F4803309F455C0883309F0E4C0809387
:103DD000DF03D8C0803509F44FC0883509F45DC0D1
:103DE000883409F0D8C0D6C0883909F4C7C0A8F40F
:103DF000883709F467C038F4883609F463C080371F
:103E000009F460C0C8C0883809F4B8C0803909F422
:103E10005FC0803809F0BFC05BC0803B09F486C03A
:103E200038F4803A09F466C0883A09F47FC0B3C018
:103E3000803C09F4A7C0883C09F4A4C0883B09F47D
:103E40008AC0A9C08091BC0310C09091DE0380910C
:103E5000DD03981770F5E091DE0381E08E0F80930B
:103E6000DE03F0E0E354FC4F80818093BB0085ECDF
:103E700086C08093DF038EC0E091DE0381E08E0F69
:103E80008093DE038091BB00F0E0E354FC4F80831D
:103E90009091DE038091DD036EC0E091DE0381E04E
:103EA0008E0F8093DE038091BB00F0E0E354FC4F63
:103EB00080838091E00381116DC081E08093BB031A
:103EC00084EA61C083E08093E10310925608CFCF6B
:103ED00080915608803208F051C0E091560881E088
:103EE0008E0F809356088091BB00F0E0EA5CF74F9C
:103EF0008083BDCF85EC8093BC001092E10380915C
:103F00005608803230F4E0915608F0E0EA5CF74F52
:103F100010826091560870E0E0913408F091350805
:103F200086E398E019951092560835C084E0809396
:103F3000E1031092330810923208E0913008F091BA
:103F40003108199580913208811105C081E0809374
:103F5000320810921008E091330881E08E0F8093B0
:103F60003308F0E0E05FF74F80818093BB009091D1
:103F7000330880913208981708F479CF85E8809348
:103F8000BC0009C085EC8093BC001092E10303C023
:103F90001092DF037DDBFF91EF91BF91AF919F9175
:103FA0008F917F916F915F914F913F912F910F90E2
:103FB0000BBE0F900FBE0F901F9018958EE33BD84D
:103FC000892B61F48EE337D8892B31F062E070E001
:103FD00080E090E0C3D8F6CF81E008958FE32BD83E
:103FE000892B11F080E008958FE325D8892B31F0DB
:103FF00062E070E080E090E0B1D8F6CF82E0089512
:104000001F93CF93DF93C82F162FD42F882379F0D7
:1040100060E08BE138D860E08BE235D860E089E180
:1040200032D8C43609F4CBE16D2F8C2F2CD86D2FEC
:10403000812FDF91CF911F9126C8CF92DF92EF920F
:10404000FF920F931F93CF93DF93EC017B018A01C3
:10405000E881F9810280F381E02D1995D82E88231B
:1040600039F1E114F104E1F001151105C9F0CFB601
:10407000F8942F8D30E023503109F801808190E0D1
:10408000821793071CF09F8D94509083F801408114
:1040900050E0BE016C5D7F4FC7010E949C31CFBED6
:1040A0008FB7F894FE01E15EFE4F10821F8E8FBF26
:1040B0008D2DDF91CF911F910F91FF90EF90DF90A9
:1040C000CF900895CF93DF93FC0122813381233079
:1040D000310561F0EC0182819381049719F0CF01E1
:1040E0000E948015C15EDE4F888101C080E0DF91B3
:1040F000CF910895DF92EF92FF920F931F93CF938A
:10410000DF93EC0162E105DD182F6CE1CE0101DDEA
:104110002A813B812430310579F4829586958695F4
:10412000837091E0892780FBEE24E0F8F12C812F49
:10413000807AE82AEF2839F48A819B810497B9F4C0
:1041400016FD22C014C0888999890196998B888BA5
:104150004FEF62E1CE018ADC4FEF62E1CE01DF91E9
:10416000CF911F910F91FF90EF90DF907FCC8A81CC
:104170009B81039709F0B4C013FFB2C08C899D895D
:1041800001969D8B8C8BB5C063E1CE01C2DCF82E0D
:1041900060E1CE01BEDC482F6DE0CE0167DCDFB60A
:1041A000F894898D9A8DDC01ED91FC910088F1895C
:1041B000E02D199560E08B8D0E944318898D9A8DB2
:1041C000DC01ED91FC910190F081E02D60E019950A
:1041D0008E01005E1F4FEF2CE00EE01671F0898D0E
:1041E0009A8DDC01ED91FC910190F081E02D60E071
:1041F0001995F80181938F01F0CF61E08B8D0E94BA
:104200004318898D9A8DDC01ED91FC910288F38928
:10421000E02D1995DFBEFF8E4FEF62E1CE0126DC67
:1042200069E1CE0176DC8E010F5D1E4F87FD8D5F4B
:1042300085958595F80180836AE1CE016ADC90E07E
:104240009F878E87D8012C918E859F8527FF07C079
:10425000820F911D27FD9A959F878E870BC024E0C2
:10426000880F991F2A95E1F76FE070E00E94582FA0
:104270007F876E87FE01E05EFE4F8081882329F0F4
:104280008E859F858D59910904C08E859F85845A9E
:1042900091099F878E878F8DFE01E15EFE4F8430EE
:1042A00090F088A18E8389A18F838AA188878BA1B2
:1042B00089878D8181110CC09E818C81981741F076
:1042C0008E818F3F29F08081882309F441CF11C06E
:1042D0008A899B8901969B8B8A8B81E08083F3CFAF
:1042E0008A819B81059709F033CF12FF31CF11707E
:1042F0001E8BCE010E9491152BCF80916108909169
:104300006208009709F0F6CE089580915F089091B9
:104310006008009709F0EECE089580915D089091B5
:104320005E08009709F0E6CE0895CF93DF93FC0175
:10433000228133812230310569F0EC01678D858D52
:104340000E94431860E08C8D0E94431882E090E048
:104350009B838A83DF91CF910895EF92FF920F9311
:104360001F93CF93DF9300D0CDB7DEB78C011FDA58
:10437000F82E811102C0F12CA2C0D8015D969C914B
:10438000923059F0933061F08EEE890F843098F7B7
:1043900067E170E0691B710905C060E070E002C070
:1043A00061E070E0E62ED80159968D919C915A9764
:1043B000DC01ED91FC910488F589E02D199540E828
:1043C00061E0C80153DB6AE070E080E090E00E94A9
:1043D000AE1861E0C8019DDB803869F660E0F80145
:1043E000858D0E947218D8015E968C915E978F3FE2
:1043F00059F480915C08843008F0BDCF91E0980FAB
:1044000090935C085E968C93F801968DE92FF0E00E
:10441000EE0FFF1FE35AF74F11830083911103C082
:104420006DE871E20AC0913019F465E871E205C0E7
:10443000923009F0A0CF6DE771E28E2D0E94CB176C
:1044400040E06EE0C80112DB40E06FE0C8010EDB27
:10445000C8010E94911543E050E06AE974E0CE0182
:10446000019625D549816DE1C80100DB4A816EE1E5
:10447000C801FCDA4B8166E2C801F8DA40E060E28C
:10448000C801F4DA48E061E2C801F0DA44EE66E01F
:10449000C801ECDA40EC67E0C801E8DA40E068E027
:1044A000C801E4DAF801E05EFE4F81E0808344E079
:1044B0006DE4C801DBDA48E869E0C801D7DA8F2D7E
:1044C0000F900F900F90DF91CF911F910F91FF9060
:1044D000EF9008951F920F920FB60F9211240BB612
:1044E0000F92CF92DF92EF92FF920F931F932F9331
:1044F0003F934F935F936F937F938F939F93AF936C
:10450000BF93CF93DF93EF93FF93C0915A08D0915D
:104510005B088A819B81049709F0AFC08B8D0E9454
:104520001B1821E0892B09F420E08E8D822719F0D9
:104530009BA19F5F9BA39AA1891771F09CA19035C5
:1045400018F02DE130E002C02BE030E09CA1290FF3
:10455000311D2CA38AA303C08CA18C5E8CA38CA1DB
:10456000803A08F4DBC08EA19FA1969587959FA302
:104570008EA38BA1853028F08EA19FA198609FA368
:104580008EA38CA1805A8CA31BA28DA1882309F431
:1045900067C088A58F5F88A78C3008F4BFC08EA144
:1045A0009FA1982F9F73892F86958695887028E004
:1045B000280F821749F0E82FF0E0E256FD4F3081D6
:1045C000931719F08F5FF5CF80E020E1829FC00143
:1045D00011242EA13FA196E0369527959A95E1F7F3
:1045E000422F3695279536952795287038E0320F5B
:1045F000231749F0E22FF0E0E256FD4F50814517B6
:1046000019F02F5FF5CF20E0822BAE0143595F4FA9
:10461000FA019081DE01A459BF4F9923A9F0FA0154
:10462000908121E0290F20839E01290F311DF9017E
:1046300081A7FA0190818C91981780F01DA281E0EA
:1046400088A3CE0172DE0AC08C939C91973008F447
:104650005FC09C91943408F05BC0E1CF18A65EC0A7
:104660008EA19FA188339B4009F058C081E08DA3A3
:1046700018A6C359DF4F188251C08A819B810397C6
:1046800009F04CC08E0100591F4FF801808191E064
:10469000980F9083811136C07E01FEE6EF0EF11C6B
:1046A000F7018081EF56FF4F9081891740F0CE01CE
:1046B0003CDE8C899D8901969D8B8C8B23C0FE01ED
:1046C000E80FF11DEF58FF4F608170E06E01FFE6CB
:1046D000CF0ED11CF601808191E0980F908302C02B
:1046E000759567958A95E2F7617077278C8D0E94A2
:1046F0004318F6018081863028F01082F70180810E
:104700008F5F8083F8018081883040F0108206C07E
:104710001DA2888999890196998B888BFF91EF91C9
:10472000DF91CF91BF91AF919F918F917F916F91C9
:104730005F914F913F912F911F910F91FF90EF90BB
:10474000DF90CF900F900BBE0F900FBE0F901F9079
:104750001895789484B5826084BD84B5816084BDE9
:1047600085B5826085BD85B5816085BD80916E000F
:10477000816080936E001092810080918100826040
:10478000809381008091810081608093810080917D
:1047900080008160809380008091B100846080936C
:1047A000B1008091B00081608093B0008091910051
:1047B000826080939100809191008160809391004C
:1047C000809190008160809390008091A100826030
:1047D0008093A1008091A10081608093A1008091CD
:1047E000A00081608093A00080912101826080936D
:1047F000210180912101816080932101809120011C
:1048000081608093200180917A00846080937A0097
:1048100080917A00826080937A0080917A00816032
:1048200080937A0080917A00806880937A00109259
:10483000C10040E052EC61E070E081E495E00E944C
:10484000CA1640E855E260E070E084EA94E00E9415
:10485000CA1640E855E260E070E087E094E00E940C
:10486000CA161092B1031092B0031092E303109293
:1048700005041092E10381E08093E0031092BB03F2
:1048800061E084E10E94431861E085E10E944318E1
:104890008091B9008E7F8093B9008091B9008D7F9F
:1048A0008093B90088E48093B80085E48093BC00CD
:1048B00080913207909133078C7F8160909333070A
:1048C0008093320761E082E00E948E178091320768
:1048D00090913307837E84609093330780933207EF
:1048E00060E281E00E948E17809132079091330739
:1048F0008F71907C80689260909333078093320729
:1049000061E08DE00E94721861E08DE10E947218F2
:1049100061E087E20E94721861E081E30E947218F0
:1049200061E08EE20E94721861E08FE20E947218CC
:1049300061E087E10E94721861E08DE20E947218C6
:1049400061E089E20E94721861E08BE10E947218B6
:1049500061E08BE20E94721861E089E10E947218A6
:1049600061E085E20E94721861E08FE10E94721896
:1049700061E081E20E94721861E083E20E94721895
:1049800062E08EE30E94721862E08FE30E94721868
:1049900085E193E00E94AD1680E196E0DEDC8111B6
:1049A00003C08DE193E002C089E293E00E94BE164D
:1049B00087E094E09093EB058093EA0581E0809393
:1049C000020660E070E08CE00E94F1190E94E61897
:1049D0006B017C010E94F21881110DC00E94E61843
:1049E000DC01CB018C199D09AE09BF09813D9740BF
:1049F000A105B10568F068EC70E080E090E00E94ED
:104A0000AE1810920E0680910A06843039F408C060
:104A100060E070E0CB010E94AE18DCCF8930D1F4A9
:104A200085E193E00E94A61784EF91E0A0E0B0E05A
:104A30008093F0059093F105A093F205B093F305F0
:104A400069E170E086E00E94F1190E9486020E94EE
:104A5000D510FBCF89E693E00E94A61788E493E087
:104A60000E94A6178BE293E00E94A617FFCFCF9378
:104A7000DF93E7E0F4E01382128248EE53E060E057
:104A800070E0448355836683778388E292E0918364
:104A9000808325ED30E03587248724ED30E03787AB
:104AA000268720ED30E0318B208B21ED30E0338BF9
:104AB000228B22ED30E0358B248B26ED30E0378BD6
:104AC000268B118E128E138E148EE4EAF4E013827C
:104AD00012824483558366837783918380832DEC90
:104AE00030E0358724872CEC30E03787268728ECA8
:104AF00030E0318B208B29EC30E0338B228B2AEC99
:104B000030E0358B248B2EEC30E0378B268B118EEA
:104B1000128E138E148EE1E4F5E013821282448328
:104B20005583668377839183808385EC90E09587B6
:104B3000848784EC90E09787868780EC90E0918B67
:104B4000808B81EC90E0938B828B82EC90E0958B54
:104B5000848B86EC90E0978B868B118E128E138E51
:104B6000148EA6EEB7E013961C921E92129715961D
:104B70001C921E92149717961C921E9216978AE307
:104B800092E011969C938E9380E518968C931897DB
:104B900019961C921997EEEDF5E013821282448368
:104BA00055836683778384E592E091838083E9E38C
:104BB000F7E010821182138212821482158216820B
:104BC000178210861286118613861486158616861D
:104BD0001786118A108A128A138A148A158A168AED
:104BE000108E178A118E128E138E148E158E12A2AD
:104BF00013A214A215A216A217A210AA11AA12AAF1
:104C000013AA14AA15AA1092770710927807109287
:104C10007D0710927E0710927F07109280071092F6
:104C200085071092860710928B0710928C071092BE
:104C30008D0710928E07109293071092940710928E
:104C4000990710929A0710929B0710929C07109256
:104C5000A1071092A2071092A7071092A80710921E
:104C6000A9071092AA071092AF071092B0071092EE
:104C7000B5071092B6071092B7071092B8071092B6
:104C8000BD071092BE0792E09093CE071092CF0717
:104C90001092D0071092D1071092D3071092D2072A
:104CA0001092D5071092D4071092D6071092D7070A
:104CB0001092D8071092D9071092DA071092DB07EA
:104CC0001092DC071092DD071092DE071092DF07CA
:104CD0001092E0071092E1071092E2071092E307AA
:104CE0001092E4071092E5071092BF07E2E3F7E0A5
:104CF000128213821482158225E832E031832083E8
:104D00008EE18683E0E1F6E0138212828FEF8483E6
:104D10008287838714861586118A108A138A128ADD
:104D2000158A148A108E178AB28FA18F2AE0238FDA
:104D300026E632E03183208310922F07958F868FED
:104D4000CAEED5E044EF51E060E070E04E835F834F
:104D5000688779878AE0EAE1F2E0AEEFB5E001909A
:104D60000D928A95E1F71E8E9F8F1CA21DA2DF91E6
:104D7000CF910895EF920F931F93CF93DF93E801A4
:104D800047FD02C034E001C034E1E42F440FFF0BC3
:104D9000F7FF03C0F195E195F109E32E022F2E2FC5
:104DA000AE01C6D0CE01DF91CF911F910F91EF9050
:104DB00008958F929F92AF92BF92CF92DF92EF921F
:104DC000FF92CF93DF93EC01688179818A819B8187
:104DD000611571058105910521F464E279ED8BE59A
:104DE00097E02DE133EF41E050E0B9D549015A0198
:104DF0009B01AC01A7EAB1E4CED56B017C01ACEE1E
:104E0000B4EFA5019401D3D5DC01CB018C0D9D1D20
:104E1000AE1DBF1DB7FF03C00197A109B04888832D
:104E20009983AA83BB83BC01CD019F77DF91CF918A
:104E3000FF90EF90DF90CF90BF90AF909F908F90BA
:104E40000895B7CF80E192E0B4CF609310027093E1
:104E50001102809312029093130208956627772718
:104E6000F4C11F93FC0199278827BC01E894119194
:104E70001032E9F3193010F01E30C8F31B3249F03C
:104E80001D3241F4689405C025D0610F711D811D4C
:104E9000911D119110531A30B8F33EF490958095FE
:104EA000709561957F4F8F4F9F4F1F910895FB0124
:104EB000DC0102C005900D9241505040D8F7089592
:104EC000BB274A3031F4992322F4BDE290958195B5
:104ED0009F4F16C0592F482F372F262F660F771F49
:104EE000881F991F660F771F881F991F620F731FF6
:104EF000841F951F660F771F881F991F0895BB2772
:104F0000FB015527AA27880F991FAA1FA41710F085
:104F1000A41B83955051B9F7A05DAA3308F0A95D91
:104F2000A193009779F7B111B1931192CB01EBC323
:104F30004F925F926F927F929F92AF92BF92CF9269
:104F4000DF92EF92FF920F931F93CF93DF93CDB732
:104F5000DEB729970FB6F894DEBF0FBECDBF6A014A
:104F6000122FB02E2BE3201720F0FF24F394F00E25
:104F700002C0BCE3FB2E0F2D27E0AE014F5F5F4F59
:104F8000CAD2AC018981982F9970913031F0E1FC3F
:104F900006C0E0FE06C090E205C09DE203C09BE2B1
:104FA00001C090E0EE2DE07183FF3CC0911102C082
:104FB00083E001C084E0811718F4212F281B01C071
:104FC00020E0E1110BC0F601822F30E2882319F0B6
:104FD00031938150FBCFC20ED11C20E0992329F0E0
:104FE000D6019C93F60131966F01C6010396E2FE4D
:104FF0000AC03EE4D6013C9341E411964C931197CC
:1050000012963C9306C03EE6F601308341E64183AA
:105010003283FC01322F40E2332309F442C0419332
:105020003150FACF82FF44C0911102C083E001C029
:1050300084E0811718F4212F281B01C020E0E11122
:105040000BC0F601822F30E2882319F03193815092
:10505000FBCFC20ED11C20E0992329F0D6019C93EE
:10506000F60131966F01C6010396E2FE0BC039E4EA
:10507000D6013C933EE411963C93119736E4129688
:105080003C9307C039E6F60130833EE6318336E6CD
:105090003283FC01322F40E2332319F04193315027
:1050A000FBCFFC01E20FF11D10828EEF9FEFB7C026
:1050B000F1E0911101C0F0E06F2F70E014161506B9
:1050C00024F49A012F5F3F4F02C021E030E0260F09
:1050D000371FBB2029F06B2D70E06F5F7F4F02C040
:1050E00060E070E0260F371F612F70E0261737074A
:1050F0001CF4121B212F01C020E03E2D387159F401
:10510000D601322F60E2332319F06D933150FBCF7B
:10511000C20ED11C20E0FF2331F0D6019C93B601D2
:105120006F5F7F4F6B01E1110BC0F601922F30E3EF
:10513000992319F031939150FBCFC20ED11C20E07E
:105140009F2D940F3A81782F7071A72E84FF03C092
:10515000313309F49150191624F4993018F098E07D
:1051600001C091E0E42F852F57FF02C0E0E080E00E
:105170006E2F782FE0E0F0E0AEE29A2E3A01691A45
:1051800071082A01461A570A0B2D10E01195019556
:1051900011096F3F8FEF780729F4D6019C92C60161
:1051A00001966C014617570784F0661677066CF473
:1051B0007F01E40CF51CA1E0B0E0AC0FBD1FEA0ECE
:1051C000FB1ED7011196BC9002C090E3B92E61502E
:1051D00071093196C60101967C016017710724F0B0
:1051E000D601BC926C01D5CF6417750741F43633F4
:1051F00020F4353321F4A11002C081E3B82EF6016A
:10520000B082F701822F90E2882319F091938150A8
:10521000FBCFF701E20FF11D108280E090E02996AC
:105220000FB6F894DEBF0FBECDBFDF91CF911F91B7
:105230000F91FF90EF90DF90CF90BF90AF909F9035
:105240007F906F905F904F9008956F927F928F92B2
:105250009F92AF92BF92CF92DF92EF92FF920F9305
:105260001F93CF93DF93EC017B016115710519F05A
:10527000DB018D939C938E010F5F1F4F7880872DEC
:1052800090E021D2892B11F0E801F5CFBDE27B122D
:1052900005C00F5F1F4F7980C1E008C0EBE27E12AE
:1052A00004C08E010E5F1F4F7980C0E06801F1E0FD
:1052B000CF1AD10843E050E068EE71E0C6010BD28E
:1052C000892BE9F4680122E0C20ED11C45E050E0D0
:1052D00063EE71E0C601FFD1892B21F4680187E0FC
:1052E000C80ED11CE114F10419F0D701CD92DC9263
:1052F000C111F9C060E070E080E89FE7FDC043E0C5
:1053000050E060EE71E0C601E6D1892B51F4E11462
:10531000F10409F4EDC00E5F1F4FF7011183008304
:10532000E7C0680160E070E0CB0100E010E0F6014A
:10533000D0EDD70DDA3050F52C2F2260622E2C2FB5
:105340002870C2FF05C0211127C00F5F1F4F24C066
:10535000222311F001501109A5E0B0E09B01AC013E
:105360001AD34B015C01880C991CAA1CBB1CC501FB
:10537000B4016D0F711D811D911D6839A9E97A076E
:105380008A07A9E19A0740F0C66005C0DE3F51F4E4
:10539000C3FD44C0C8606C2EBFEFCB1ADB0A70801F
:1053A000C62DC5CF2D2F2F7D2531C1F540814D3222
:1053B00011F4C06106C04B3221F0319621E030E09B
:1053C00006C03296D60111964C9122E030E0A0ED55
:1053D000A40FAA3018F0E21BF30B20C040E050E00D
:1053E0004038BCE05B075CF49A01220F331F220FA8
:1053F000331F420F531F440F551F4A0F511D319643
:10540000DF0111972C91A0EDA20FAA3048F3C4FF41
:1054100003C0519541955109040F151FC1FF07C0E5
:10542000E114F10421F03197D701ED93FC937FD182
:10543000C370C33019F06B017C0106C06B017C01A5
:10544000F7FAF094F7F8F09420E030E0A901C701F2
:10545000B60169D1882309F443C017FF06C011952E
:1054600001951109CFEFD1E002C0C7E1D2E05E01A2
:10547000B8E1AB1AB1084601BE2DAF2D90E2E92E7E
:10548000F12C0E151F057CF0FE01259135914591FB
:105490005491B4018B2F9A2FABD14B01B82FA92F68
:1054A0000E191F09EECF2497F594E794CA15DB0572
:1054B00041F76401EB2EFA2E8E2D880F8F2D881F59
:1054C0008F3F41F020E030E0A901C701B6012BD1A8
:1054D000811106C082E290E0909364088093630893
:1054E000C701B60109C060E070E080E89FEF04C02A
:1054F00060E070E080EC9FE7DF91CF911F910F910A
:10550000FF90EF90DF90CF90BF90AF909F908F90E3
:105510007F906F900895283008F027E03327DA0154
:10552000990F311D87FD916000966105710539F471
:1055300032602E5F3D9330E32A95E1F708959F3F57
:1055400030F080387105610509F03C5F3C5F3D93A8
:10555000913008F08068911DDF93CF931F930F93D4
:10556000FF92EF92192F987F9695E92F9695969531
:10557000E90FFF27EB58FD4F99273327EE24FF242F
:10558000A701E70105900894079428F4360FE71E59
:10559000F81E491F511D660F771F881F991F06941B
:1055A000A1F70590079428F4E70EF81E491F561F2F
:1055B000C11D770F881F991F661F0694A1F70590DC
:1055C000079428F4F80E491F561FC71FD11D880FD6
:1055D000991F661F771F0694A1F70590079420F482
:1055E000490F561FC71FD81F990F661F771F881FA7
:1055F0000694A9F784911095177041F0D695C79538
:1056000057954795F794E7941A95C1F7EBE1F2E0C7
:1056100068941590159135916591959105907FE26B
:105620007395E118F10A430B560BC90BD009C0F76B
:10563000E10CF11E431F561FC91FD01D7EF47033AD
:1056400011F48A95E6CFE894015030F0080F0AF47F
:105650000027021708F4202F2395022F7A3328F011
:1056600079E37D932A95E9F710C07D932A9589F611
:10567000069497956795379517951794E118F10A51
:10568000430B560BC90BD00998F023957E91739567
:105690007A3308F070E37C932013B8F77E91706141
:1056A0007D9330F0839571E37D9370E32A95E1F764
:1056B0001124EF90FF900F911F91CF91DF919927C7
:1056C00087FD909508959111F6C0803219F08950A8
:1056D0008550D0F70895FB01DC014150504088F01F
:1056E0008D9181341CF08B350CF4805E65916134B2
:1056F0001CF06B350CF4605E861B611171F3990B25
:105700000895881BFCCFDC01FC01672F7191772382
:10571000E1F7329704C07C916D9370836291AE176C
:10572000BF07C8F3089540D008F481E00895E894D5
:1057300009C097FB3EF490958095709561957F4FD9
:105740008F4F9F4F9923A9F0F92F96E9BB27939587
:10575000F695879577956795B795F111F8CFFAF497
:10576000BB0F11F460FF1BC06F5F7F4F8F4F9F4FC8
:1057700016C0882311F096E911C0772321F09EE826
:10578000872F762F05C0662371F096E8862F70E08C
:1057900060E02AF09A95660F771F881FDAF7880F66
:1057A0009695879597F90895990F0008550FAA0BBC
:1057B000E0E8FEEF16161706E807F907C0F0121624
:1057C0001306E407F50798F0621B730B840B950B27
:1057D00039F40A2661F0232B242B252B21F408957C
:1057E0000A2609F4A140A6958FEF811D811D089519
:1057F0000BD07BC06CD028F071D018F0952309F045
:105800005DC062C01124A5C081D0A0F3959FD1F3E3
:10581000950F50E0551F629FF001729FBB27F00D5E
:10582000B11D639FAA27F00DB11DAA1F649F6627B3
:10583000B00DA11D661F829F2227B00DA11D621F02
:10584000739FB00DA11D621F839FA00D611D221FBC
:10585000749F3327A00D611D231F849F600D211DA0
:10586000822F762F6A2F11249F5750408AF0E1F043
:1058700088234AF0EE0FFF1FBB1F661F771F881F8C
:1058800091505040A9F79E3F510570F017C061C07C
:105890005F3FECF3983EDCF3869577956795B79577
:1058A000F795E7959F5FC1F7FE2B880F911D9695A1
:1058B000879597F9089599278827089597F99F67FD
:1058C00080E870E060E008959FEF80EC0895002488
:1058D0000A941616170618060906089500240A9455
:1058E00012161306140605060895092E0394000CDB
:1058F00011F4882352F0BB0F40F4BF2B11F460FF6A
:1059000004C06F5F7F4F8F4F9F4F089557FD905892
:10591000440F551F59F05F3F71F04795880F97FB73
:10592000991F61F09F3F79F087950895121613062D
:105930001406551FF2CF4695F1DF08C0161617065C
:105940001806991FF1CF8695710561050894089591
:10595000E894BB2766277727CB0197F90895052E92
:1059600097FB16F400940FD057FD05D024D007FC08
:1059700002D046F408C050954095309521953F4F90
:105980004F4F5F4F089590958095709561957F4F2B
:105990008F4F9F4F089531D0A59F900DB49F900DCC
:1059A000A49F800D911D11240895B7FFF4CFF3DF5C
:1059B000821B930B0895A1E21A2EAA1BBB1BFD01AB
:1059C0000DC0AA1FBB1FEE1FFF1FA217B307E407DE
:1059D000F50720F0A21BB30BE40BF50B661F771F36
:1059E000881F991F1A9469F7609570958095909516
:1059F0009B01AC01BD01CF010895A29FB001B39FEF
:105A0000C001A39F700D811D1124911DB29F700DC7
:105A1000811D1124911D08955058BB27AA270ED02F
:105A200064CF55DF30F05ADF20F031F49F3F11F49E
:105A30001EF44ACF0EF4E095E7FB40CFE92F66DF76
:105A400080F3BA17620773078407950718F071F49B
:105A50009EF57ECF0EF4E0950B2EBA2FA02D0B01F4
:105A6000B90190010C01CA01A0011124FF27591BA3
:105A700099F0593F50F4503E68F11A16F040A22FA9
:105A8000232F342F4427585FF3CF4695379527951A
:105A9000A795F0405395C9F77EF41F16BA0B620B19
:105AA000730B840BBAF09150A1F0FF0FBB1F661F60
:105AB000771F881FC2F70EC0BA0F621F731F841FA3
:105AC00048F4879577956795B795F7959E3F08F0C9
:105AD000B3CF9395880F08F09927EE0F9795879588
