:1000000016C200000C945C1C0C94311C0C94061C51
:100010000C94DB1B0C94B01B0C94851B0C945A1B8A
:100020000C942F1B35C2000033C2000031C2000007
:100030002FC200002DC200002BC2000029C2000008
:1000400027C200000C94A91423C2000021C20000A2
:100050001FC200001DC200001BC200000C942D1125
:1000600017C200000C94021D0C94D91C11C2000090
:100070000FC200000DC200000BC2000009C2000048
:1000800007C2000005C2000003C2000001C2000058
:100090000C94B01C0C94871CFBC1000004C200002F
:1000A000F7C10000F5C10000F3C10000F1C100007C
:1000B000EFC10000EDC10000EBC10000E9C100008C
:1000C000E7C10000E5C10000E3C10000E1C100009C
:1000D000DFC10000DDC10000DBC10000D9C10000AC
:1000E000D7C1000068067A067D0684068B06B9062D
:1000F000C006CD06DA06E606E606E606E606E606EB
:10010000E606E606E606E606E606E606E606E6068F
:10011000E606E606E606E606E606E606E606E6067F
:10012000E606E606680675067A067D0684068B06F0
:1001300092069F06AC061310F00FF70FFE0F051086
:100140001A10211043104610351039103F107D1041
:100150004A104E10541058105C10621066106A104D
:100160007D10701074107810084AD73B3BCE016E9A
:1001700084BCBFFDC12F3D6C74319ABD56833DDAFE
:100180003D00C77F11BED9E4BB4C3E916BAAAABE0D
:10019000000000803F05A84CCDB2D44EB93836A936
:1001A000020C50B9918688083CA6AAAA2ABE000073
:1001B00000803F004E414E494E495459494E46CD6C
:1001C000CCCC3D0AD7233C17B7D13877CC2B32950E
:1001D00095E6241FB14F0A000020410000C84200EC
:1001E000401C4620BCBE4CCA1B0E5AAEC59D7400B6
:1001F000407A10F35A00A0724E18090010A5D4E8F6
:100200000000E87648170000E40B54020000CA9A88
:100210003B000000E1F505000080969800000040DA
:10022000420F000000A0860100000010270000001F
:1002300000E803000000006400000000000A000065
:100240000000000100000000002C76D888DC674F19
:100250000823DFC1DFAE59E1B1B796E5E3E453C649
:100260003AE651997696E8E6C28426EB898C9B6241
:10027000ED407C6FFCEFBC9C9F40F2BAA56FA5F4EB
:1002800090055A2AF75C936B6CF9676DC11BFCE013
:10029000E40D47FEF520E6B500D0ED902E03009466
:1002A0003577050080841E080000204E0A000000FB
:1002B000C80C333333330F986E12831141EF8D2105
:1002C00014893BE65516CFFEE6DB18D1844B381B6C
:1002D000F77C1D901DA4BBE424203284725E228131
:1002E00000C9F124ECA1E53D274446506C617965D5
:1002F00072204D696E69206F6E6C696E652E00000C
:10030000002100240027002A002D003000330001C6
:10031000010000040107010A010000220025002855
:10032000002B002E003100340002010000050108FE
:10033000010B01050505050705080808080202026A
:10034000020A0A0808040404040101010101010170
:10035000010303030303030303040707070C0C0C47
:100360000C0C0C0C0C02020202060606060606061F
:10037000060B0B0B0B0B0B0B0B01021020200808BC
:1003800010204010204080020102010804020101F7
:1003900002040810204080804020100804020180E0
:1003A0000402018040201008040201080402010137
:1003B0000204081020408001020408102040800040
:1003C000000A0B02090C0D0E0807030401000000CF
:1003D000000000000000000000000000000000001D
:1003E00000000000000000000000001211100000DA
:1003F00000000000000000000000000000000000FD
:100400000000000000000020002300260029002C2E
:10041000002F0032000001000003010601090172F3
:10042000740492740448940478C40C00161F1124B8
:100430001FBECFEFD1E2DEBFCDBF00E00CBF13E0A7
:10044000A0E0B2E0E0ECFFE500E00BBF02C00790E7
:100450000D92A234B107D9F727E0A2E4B3E001C0BE
:100460001D92A338B207E1F712E0C7E1D2E000E045
:1004700006C021970109802FFE010E94B12AC631D2
:10048000D10780E00807A9F70E9473200C94DE2FA3
:10049000B7CD85ED8093BC008091BC0084FDFCCF7E
:1004A0001092D70308951F920F920FB60F92112446
:1004B0000BB60F922F933F934F935F936F937F935E
:1004C0008F939F93AF93BF93EF93FF938091B90066
:1004D000887F803609F49CC068F5883209F45BC0D7
:1004E00090F4803109F454C038F4882309F4F6C03C
:1004F000883009F44DC0F5C0883109F44CC0803211
:1005000009F45DC0EEC0803409F468C048F480335B
:1005100009F455C0883309F0E4C08093D503D8C0EE
:10052000803509F44FC0883509F45DC0883409F07E
:10053000D8C0D6C0883909F4C7C0A8F4883709F4F0
:1005400067C038F4883609F463C0803709F460C0A6
:10055000C8C0883809F4B8C0803909F45FC0803851
:1005600009F0BFC05BC0803B09F486C038F4803A14
:1005700009F466C0883A09F47FC0B3C0803C09F42E
:10058000A7C0883C09F4A4C0883B09F48AC0A9C06C
:100590008091B20310C09091D4038091D303981737
:1005A00070F5E091D40381E08E0F8093D403F0E0E6
:1005B000ED54FC4F80818093BB0085EC86C0809316
:1005C000D5038EC0E091D40381E08E0F8093D403D5
:1005D0008091BB00F0E0ED54FC4F80839091D403F8
:1005E0008091D3036EC0E091D40381E08E0F80939D
:1005F000D4038091BB00F0E0ED54FC4F80838091E8
:10060000D60381116DC081E08093B10384EA61C09B
:1006100083E08093D7031092AE03CFCF8091AE03D7
:10062000803208F051C0E091AE0381E08E0F8093DC
:10063000AE038091BB00F0E0E257FC4F8083BDCF5A
:1006400085EC8093BC001092D7038091AE0380327A
:1006500030F4E091AE03F0E0E257FC4F108260917D
:10066000AE0370E0E0918C03F0918D038EE893E08F
:1006700019951092AE0335C084E08093D703109291
:100680008B0310928A03E0918803F09189031995F6
:1006900080918A03811105C081E080938A031092C2
:1006A0006803E0918B0381E08E0F80938B03F0E071
:1006B000E859FC4F80818093BB0090918B0380911F
:1006C0008A03981708F479CF85E88093BC0009C0A5
:1006D00085EC8093BC001092D70303C01092D50321
:1006E000D8DEFF91EF91BF91AF919F918F917F9154
:1006F0006F915F914F913F912F910F900BBE0F9093
:100700000FBE0F901F90189540918A03262F30E05E
:10071000240F311D21323105DCF42091D703243020
:10072000C9F4FC0180E090E0861758F430918A0308
:100730002191DC01A859BC4FA30FB11D2C93019648
:10074000F3CF80918A03680F60938A0380E0089555
:1007500081E0089582E008951F93CF93DF93182FCF
:10076000D62FC42F60E08BE10E947E1060E08BE208
:100770000E947E1060E089E10E947E106C2F812F24
:100780000E947E106C2F8D2FDF91CF911F910C94C2
:100790007E10962F811104C0642F892F0C947E1037
:1007A000DBCF2F923F924F925F926F927F928F9208
:1007B0009F92AF92BF92CF92DF92EF92FF920F93F0
:1007C0001F93CF93DF93CDB7DEB7C957D1400FB694
:1007D000F894DEBF0FBECDBF8091600381110DC0C4
:1007E0000E94211160935C0370935D0380935E030C
:1007F00090935F0381E0809360030E942111009138
:100800005C0310915D0320915E0330915F03DC0176
:10081000CB01801B910BA20BB30B89389341A1052F
:10082000B105B0F00E94211160935C0370935D03E9
:1008300080935E0390935F0380915B03811103C0FB
:1008400010925A0305C081E080935A0310925B0313
:100850006FE073E0CE01805C9E4F0E941B1B0E94E4
:1008600021112B013C01222423948CEF93E00E9460
:10087000A718892B09F415C38CEF93E00E94851803
:10088000382E8091080790910907A0910A07B0912E
:100890000B070196A11DB11D8093080790930907CE
:1008A000A0930A07B0930B0734E2331609F4D7C2BA
:1008B000E091020733153CF04AE0341679F05DE030
:1008C0003512DBC20BC08AE2381641F09CE23912C5
:1008D000D4C28091EF0683258093EF06EF3008F0B5
:1008E000B0C2F0E0EF50F94F10828091F0068823FB
:1008F00009F473C12091F1063FEB320F822F022ED3
:10090000000C990B363010F4C79707C021562630DB
:1009100018F48755910901C0C097282F2295207F90
:100920003091F2064FEB430F832F032E000C990BEF
:10093000463010F4C79707C03156363018F4875543
:10094000910901C0C097820F9091EF06891331C1C0
:100950008091140790911507A0911607B091170781
:100960000196A11DB11D8093140790931507A093C4
:100970001607B093170780910307882399F0809199
:100980000C0790910D07A0910E07B0910F070196EB
:10099000A11DB11D80930C0790930D07A0930E0726
:1009A000B0930F0710910007112309F46BC01130A9
:1009B00009F0D0C08091930690919406A09195067D
:1009C000B091960680938F0690939006A09391061F
:1009D000B09392060E942111609397067093980637
:1009E0008093990690939A0610938E0610938D0625
:1009F0008091A1069091A206A091A306B091A406B1
:100A000080939D0690939E06A0939F06B093A006A8
:100A10000E9421116093A5067093A6068093A706F5
:100A20009093A80610939C0610939B068091030751
:100A3000882309F48FC0EBE7F6E0ADE6B6E087E087
:100A400001900D928A95E1F7E2E8F6E0A4E7B6E0BE
:100A500087E001900D928A95E1F70E942111609341
:100A6000890670938A0680938B0690938C06109368
:100A70006C0610936B0689EA96E00E94381787EBA4
:100A800096E066C08091A1069091A206A091A3066F
:100A9000B091A40680939D0690939E06A0939F0616
:100AA000B093A0060E9421116093A5067093A6063C
:100AB0008093A7069093A80620929C0620929B06FE
:100AC00080910307882321F1EBE7F6E0ADE6B6E07D
:100AD00087E001900D928A95E1F7E2E8F6E0A4E75D
:100AE000B6E087E001900D928A95E1F70E9421110E
:100AF0006093890670938A0680938B0690938C0688
:100B000020926C0620926B0685EC96E00E943817C6
:100B10008091DD069091DE06A091DF06B091E0069F
:100B20008093D9069093DA06A093DB06B093DC0697
:100B30000E9421116093D5067093D6068093D70644
:100B40009093D8062092D4062092D30681EE96E0A8
:100B50000E9438170091060710910707011511052B
:100B600009F46FC1E0910607F091070766A177A12C
:100B7000F80186A197A10E94F62C892B09F061C18A
:100B8000B801C80140960E94FF2C0E942111D80193
:100B900090966D937D938D939C93939795962C92BD
:100BA000959794962C9294979A960D911C919B9759
:100BB000D5CF8091100790911107A0911207B091A5
:100BC00013070196A11DB11D809310079093110783
:100BD000A0931207B093130734C1809101078111CC
:100BE0005DC06EEA72E081EF96E00E94F62C892BE0
:100BF00041F064EB72E081EF96E00E94F62C892BC5
:100C000019F42092000716C06AEB72E081EF96E0BB
:100C10000E94F62C892B41F060EC72E081EF96E0A7
:100C20000E94F62C892B19F41092000703C0F2E001
:100C3000F0930007809104079091050790930707B0
:100C4000809306070091060710910707011511050B
:100C500009F4F7C0F80126A137A161EF76E0C901D8
:100C6000C858DE4F2883C857D140C758DE4F388355
:100C7000C957D1400E94F62CC858DE4F2881C8576A
:100C8000D140C758DE4F3881C957D14097FFCDC0FA
:100C9000D8019A968D919C919B97D0CFE0910007B7
:100CA000E23009F493C09091F106992309F48EC0C3
:100CB00020E2E29FF0011124E82B3197E932F1059F
:100CC00008F084C08827EE58FF4F8F4F0C94B12A4C
:100CD00081EF96E00E94D6176093A1067093A2065A
:100CE0008093A3069093A40671C081E0913409F02B
:100CF00043C043C06BE776E009C081E0933509F05B
:100D000080E08093810662C062E876E081EF96E041
:100D10000E944E175BC081E0973509F080E0809318
:100D2000880654C081EF96E00E94D6176093B30600
:100D30007093B4068093B5069093B60647C081EFD2
:100D400096E00E94D6176093C1067093C206809306
:100D5000C3069093C4063AC081EF96E00E94AA228F
:100D600060939306709394068093950690939606ED
:100D70002DC081E091330CF480E08093030726C0FE
:100D800081EF96E00E94AA226093DD067093DE0652
:100D90008093DF069093E00619C081EF96E00E94F1
:100DA000D6176093EB067093EC068093ED06909354
:100DB000EE060CC081EF96E00E94D6176093CF0636
:100DC0007093D0068093D1069093D20600910607C7
:100DD0001091070701151105A1F1E0910607F091A7
:100DE000070766A177A1F80186A197A10E94F62CBA
:100DF000892B39F5D80198962D913C91999780913E
:100E0000010790E082179307E4F02817390739F4B7
:100E100040E150E061EF76E0C8010E94062DD80164
:100E20009A960D911C919B97D5CF61EF76E0C90101
:100E30000E94F62C1816190624F410920707109237
:100E40000607809101078F5F8093010710920207C8
:100E500081E0BAE23B1280E08093F00606CD10926A
:100E60000207109201071092EF06E2E0E0930007FC
:100E70001092F00610920307F8CCEE3040F481E0B7
:100E80008E0F80930207F0E0EF50F94F308280918F
:100E9000F0068111EACC8091EF0638263092EF06F9
:100EA000E4CC0E942111DC01CB0184199509A6092B
:100EB000B7090A97A105B10508F4D7CC10926C06C2
:100EC00060916D0670916E0680E090E00E94DD26D4
:100ED0002B013C0160916F06709170068091710644
:100EE000909172060E94DD2628E23BE64EE65EE423
:100EF0000E941C299B01AC01C301B2010E9453282E
:100F000020917306222361F09B01AC015058C65911
:100F1000DE4F288339834A835B83CA56D14008C099
:100F2000C659DE4F688379838A839B83CA56D14032
:100F3000609174067091750680E090E00E94DD2655
:100F40002B013C01609176067091770680917806BE
:100F5000909179060E94DD2628E23BE64EE65EE4AB
:100F60000E941C299B01AC01C301B2010E945328BD
:100F700020917A06222361F09B01AC015058C2599E
:100F8000DE4F288339834A835B83CE56D14008C025
:100F9000C259DE4F688379838A839B83CE56D140C2
:100FA0006091640660FF09C0637082E0E9D762E483
:100FB00070E080E090E00E94E91080916A0691E084
:100FC0009093D8038093FA031092D9031092FB03F5
:100FD00063E086E395E00E947A1481E074D7809103
:100FE0006A069091D7039111FCCF91E09093D703BB
:100FF0009093D6032FEF2093D5031092D40325E0CE
:101000002093D3039093B2039091B203880F892B5E
:101010008093B2038091B103813061F41092B103E7
:101020008091B2038093BB008091BC0083FDF8CF18
:1010300085EC01C085EE8093BC008091D7038130A0
:10104000E1F38091D403863018F48091D40301C079
:1010500086E0A3EBB3E021E537E0F9019E2F921B78
:10106000981718F49D919193F9CF1092B003809343
:10107000AF03863059F16980712C762C66248A8101
:10108000682A6B8170E0762F66278C81682B0D8132
:1010900010E0102F00278E81082B4090640650909E
:1010A0006506C201F5E096958795FA95E1F7877098
:1010B000992781309105D1F0E0F08230910511F14E
:1010C000039741F57195619571091CC08E010F5F01
:1010D0001F4F36E0732E700E86E395E00E94B51226
:1010E000D8018D938D017A12F7CFC5CF7195619597
:1010F0007109072E000C880B990B0E94DF266B01EB
:101100007C0108C0072E000C880B990B0E94DF267B
:101110004B015C01852D99278770992781309105B6
:10112000A1F070F082309105E9F0039719F5662778
:101130007727601B710B072E000C880B990B16C0CC
:10114000B801110F880B990B08C066277727601B21
:10115000710B072E000C880B990B0E94DF266B0188
:101160007C0108C0B801110F880B990B0E94DF2683
:101170004B015C01452C5524469446944694B7E0B7
:101180004B225524E1E04E165104B9F088F022E0DC
:1011900042165104F9F033E04316510419F566275D
:1011A000772766197709072E000C880B990B16C054
:1011B000B301770C880B990B08C06627772766194F
:1011C0007709072E000C880B990B0E94DF266B0114
:1011D0007C0108C0B301770C880B990B0E94DF26B5
:1011E0004B015C01A7019601C501B4010E94C6280C
:1011F0002091660630916706409168065091690615
:101200000E9453286B017C0120E030E0A9010E947C
:10121000D92687FF0AC02BED3FE049EC50E4C70117
:10122000B6010E9453286B017C012BED3FE049EC95
:1012300050E4C701B6010E94132A181654F42BED8E
:101240003FE049EC50E4C701B6010E9452286B010F
:101250007C0120E030E044E353E4C701B6010E9482
:101260003E272BED3FE049E450E40E941C296B012E
:101270007C01C659DE4F88819981AA81BB81CA56FB
:10128000D1408093560390935703A0935803B09393
:101290005903C259DE4F288139814A815B81CE567C
:1012A000D1402093520330935303409354035093FF
:1012B0005503C0924E03D0924F03E0925003F09238
:1012C0005103BC01CD010E948429CE58DE4F6883B2
:1012D00079838A839B83C257D140C259DE4F68818C
:1012E00079818A819B81CE56D1400E9484292B012D
:1012F0003C01C701B6010E9484294B015C01072E05
:10130000000C880B990B0E94DF269B01AC01C701E2
:10131000B6010E94522820E030E04AE754E40E94DF
:101320003E270E9489299F938F937F936F939F926B
:101330008F92B201052C000C880B990B0E94DF26BE
:101340009B01AC01C259DE4F688179818A819B8102
:10135000CE56D1400E94522820E034E244E759E4BE
:101360000E943E270E9489299F938F937F936F93BA
:101370005F924F92CE58DE4F48815981C257D1407B
:10138000BA01550F880B990B0E94DF269B01AC0117
:10139000C659DE4F688179818A819B81CA56D140C6
:1013A0000E94522820E034E244E759E40E943E279C
:1013B0000E9489299F938F937F936F93CD58DE4F1F
:1013C0005881C357D1405F93CE58DE4F8881C257B2
:1013D000D1408F9386EC92E09F938F938E010F5FA5
:1013E0001F4F1F930F930E94152DB801CE01805CF3
:1013F0009E4F0E948C1A22E0B701A601CE01865CA6
:101400009E4F0E94A61A26E0C259DE4F488159819C
:101410006A817B81CE56D140CE018C5C9E4F0E946A
:10142000A61A26E0C659DE4F488159816A817B8120
:10143000CA56D140CE0184509F4F0E94A61ABE01C9
:1014400064507F4FCE01825D9E4F0E94021B68EE6A
:1014500072E0CE01825D9E4FA9D7BE016C5C7E4FCB
:101460000E945C1A6AEE72E0A1D7BE01665C7E4FF4
:101470000E945C1ABC01CE018A5B9E4F0E94021B37
:10148000CE01825D9E4F0E94A11ACE0184509F4FD3
:101490000E94A11ACE018C5C9E4F0E94A11ACE011F
:1014A000865C9E4F0E94A11ACE01805C9E4F0E94D6
:1014B000A11AC65BDE4FE880F980CA54D1400FB64E
:1014C000F894DEBF0FBECDBFE114F10431F4C45077
:1014D000DF4F1882CC5FD0401AC0B1E3EB16F104A5
:1014E00018F081E3E82EF12CCA5BDE4F6881798128
:1014F000C654D140A701CE0184509F4F0E94062DB3
:10150000ECEFF0E0EC0FFD1FEE0DFF1D1082CE01A1
:101510008A5B9E4F0E94A11A82E495E00E943C1DC6
:10152000882309F4A4C08BEFC65CDE4F8883CA53BE
:10153000D140AE01465C5E4FB80182E495E00E9466
:10154000D819882309F490C061E08DE0D7D5B8019F
:10155000CE018C5C9E4F0E941B1B6CE2CE018C5C0A
:101560009E4F0BD79C0140E050E0BE016C5C7E4F6B
:10157000CE01825D9E4FBBD6C25DDE4F88819981D0
:10158000CE52D1400E94A72260934A0370934B032E
:1015900080934C0390934D03CE01825D9E4F0E9439
:1015A000A11A63E2CE018C5C9E4FE7D68C016CE2FF
:1015B000CE018C5C9E4FE1D6AC014F5F5F4F98012E
:1015C000BE016C5C7E4FCE01825D9E4F90D6C25DA7
:1015D000DE4F88819981CE52D1400E94A72260932C
:1015E0004603709347038093480390934903CE01C9
:1015F000825D9E4F0E94A11A63E2CE018C5C9E4FD9
:10160000BCD6C85CDE4F28813981C853D140AC01BB
:101610004F5F5F4FBE016C5C7E4FCE01825D9E4F7F
:1016200066D6C25DDE4F88819981CE52D1400E943C
:10163000A7226093420370934303809344039093E3
:101640004503CE01825D9E4F0E94A11A60E08DE0AD
:1016500055D5CE018C5C9E4F0E94A11A80915B03F0
:101660008F5F80935B0303C08DEE92E020D442E352
:10167000BE0164507F4F82E495E00E94661D60EDDC
:1016800077E082E495E00E94971380914405909161
:101690004505049721F082E495E00E942B1D2091DE
:1016A0004A0330914B0340914C0350914D03C6596E
:1016B000DE4F288339834A835B83CA56D1404090EA
:1016C000560350905703609058037090590320912F
:1016D000520330915303409154035091550360914C
:1016E00046037091470380914803909149030E94FB
:1016F0005228C259DE4F688379838A839B83CE56F2
:10170000D140A3019201C659DE4F688179818A8157
:101710009B81CA56D1400E9452286B017C0125E36F
:101720003AEF4EE85CE30E943E2720E030E040E0E4
:101730005FE30E943E270E941E2A4B015C0125E3C5
:101740003AEF4EE85CE3C301B2010E943E270E94DB
:101750001929CE58DE4F688379838A839B83C257C9
:10176000D14025E33AEF4EE85CE3C659DE4F68818D
:1017700079818A819B81CA56D1400E943E270E946E
:101780001929C659DE4F688379838A839B83CA5699
:10179000D14025E33AEF4EE85CE3C259DE4F688161
:1017A00079818A819B81CE56D1400E943E2720E0DC
:1017B00030E040E05FE30E943E270E941E2A2B019A
:1017C0003C01A5019401C501B4010E943E274B01D3
:1017D0005C01C659DE4F288139814A815B81CA5636
:1017E000D140CE58DE4F688179818A819B81C25772
:1017F000D1400E943E27A30192010E943E27A301EF
:1018000092010E943E279B01AC01C501B4010E94D8
:1018100053284B015C019B01AC0160E070E080E863
:101820009FE30E9452280E94282A9B01AC01C50117
:10183000B401C858DE4F2883C857D140C758DE4F7F
:101840003883C957D140CA58DE4F4883C657D14064
:10185000C958DE4F5883C757D1400E94282AC8581C
:10186000DE4F2881C857D140C758DE4F3881C9574D
:10187000D140CA58DE4F4881C657D140C958DE4FC3
:101880005881C757D1400E94C6289B01AC010E94D5
:10189000532820E038E447EC55E40E943E274B01F2
:1018A0005C01C259DE4F288139814A815B81CE5665
:1018B000D140C701B6010E94C6286B017C0120E01F
:1018C00030E0A9010E94D92687FF0AC02BED3FE036
:1018D00049EC50E4C701B6010E9453286B017C011A
:1018E0002BED3FE049EC50E4C701B6010E94132AFA
:1018F000181654F42BED3FE049EC50E4C701B60153
:101900000E9452286B017C0120E030E044E353E464
:10191000C701B6010E943E272BED3FE049E450E4A9
:101920000E941C292B013C0120914E0330914F0352
:1019300040915003509151030E9452286B017C0149
:1019400020E030E0A9010E94D92687FF0AC020E0EC
:1019500030E044EB53E4C701B6010E9453286B0109
:101960007C0122E0B701A601CE018C599E4F0E9456
:10197000D41A22E0B301A201CE01825A9E4F0E94E6
:10198000D41A23E0B501A401CE01885A9E4F0E94CB
:10199000D41A4091420350914303609144037091E3
:1019A000450322E0CE018E5A9E4F0E94D41A4091E8
:1019B000460350914703609148037091490326E024
:1019C000CE01845B9E4F0E94A61A40914A0350911B
:1019D0004B0360914C0370914D0326E0CE018A5B6E
:1019E0009E4F0E94A61A40914E0350914F03609162
:1019F00050037091510322E0CE01805C9E4F0E9403
:101A0000D41A409152035091530360915403709142
:101A1000550326E0CE01865C9E4F0E94A61A409197
:101A2000560350915703609158037091590326E073
:101A3000CE01825D9E4F0E94A61ABE01625D7E4F5E
:101A4000CE018C5C9E4F0E94021B68EE72E0CE01BC
:101A50008C5C9E4FABD4BE01665C7E4F0E945C1ACC
:101A60006AEE72E0A3D4BE01605C7E4F0E945C1AF5
:101A700069EF72E09BD4BE016A5B7E4F0E945C1AE4
:101A800068EE72E093D4BE01645B7E4F0E945C1AE4
:101A90006AEE72E08BD4BE016E5A7E4F0E945C1AD1
:101AA0006EEF72E083D4BE01685A7E4F0E945C1ACA
:101AB00063E073E07BD4BE01625A7E4F0E945C1AE1
:101AC00068E073E073D4BE016C597E4F0E945C1ACB
:101AD000BC01CE0101960E94021BCE018C5C9E4F80
:101AE0000E94A11ACE01825D9E4F0E94A11ACE01D2
:101AF000865C9E4F0E94A11ACE01805C9E4F0E9480
:101B0000A11ACE018A5B9E4F0E94A11ACE01845B6E
:101B10009E4F0E94A11ACE018E5A9E4F0E94A11A7A
:101B2000CE01885A9E4F0E94A11ACE01825A9E4F22
:101B30000E94A11ACE018C599E4F0E94A11A4D817C
:101B40005E8169817A8189E994E00E9432188DE092
:101B500093E09BD110915A0340905203509053034D
:101B600060905403709055038091560390915703F1
:101B7000A0915803B0915903C659DE4F88839983C9
:101B8000AA83BB83CA56D14061E08FE1B7D211234B
:101B900011F061E001C060E083E2B0D220E030E00B
:101BA000A901C659DE4F688179818A819B81CA5615
:101BB000D1400E94D926882359F020E030E0A901C5
:101BC000C301B2010E94D926882311F061E001C04F
:101BD00060E081E293D22DEC3CEC4CEC5CE3C5017F
:101BE000B4010E94D92687FF02C061E001C060E015
:101BF00085E284D220E030E04AE754E4C501B40134
:101C00000E943E274B015C0120E030E048EC52E4AA
:101C10000E94D92687FF02C01BE201C01BE120E021
:101C200030E048E452E4C501B4010E94D92687FDA2
:101C300019E140E06DE1812F0E94C90340E067E2B5
:101C4000812F0E94C90340E061E3812F0E94C903F4
:101C500040E06EE2812F0E94C90340E06FE2812FD5
:101C60000E94C90340E067E1812F0E94C90340E060
:101C70006DE2812F0E94C90340E069E2812F0E943A
:101C8000C90320E030EC48EA53E4C701B6010E94E2
:101C9000132A181654F020E030E044EB51E4C70159
:101CA000B6010E94D92687FF03C041E067E2A0C0C9
:101CB00020E030E044EB51E4C701B6010E94132A52
:101CC00018166CF420E030E047E852E4C701B60192
:101CD0000E94D92687FF03C041E061E389C020E06C
:101CE00030E047E852E4C701B6010E94132A1816F3
:101CF0006CF420E030E041EE52E4C701B6010E94EE
:101D0000D92687FF03C041E06EE272C020E030E0D8
:101D100041EE52E4C701B6010E94132A18166CF472
:101D200020E030E84DE153E4C701B6010E94D92616
:101D300087FF03C041E06FE25BC020E030E84DE187
:101D400053E4C701B6010E94132A18166CF420E070
:101D500030E84AE453E4C701B6010E94D92687FF60
:101D600003C041E067E144C020E030E84AE453E4C6
:101D7000C701B6010E94132A18166CF420E030E85F
:101D800047E753E4C701B6010E94D92687FF03C085
:101D900041E06DE22DC020E030E847E753E4C701A1
:101DA000B6010E94132A18166CF420E030E442E9D0
:101DB00053E4C701B6010E94D92687FF03C041E062
:101DC00069E216C020E030E442E953E4C701B601FD
:101DD0000E94132A18167CF420E030EC48EA53E401
:101DE000C701B6010E94D92687FF05C041E06DE119
:101DF000812F0E94C90364E670E080E090E0E9D1A1
:101E0000CE0101960E94A11AC758DE4F0FB6F89472
:101E1000DEBF0FBECDBFDF91CF911F910F91FF901D
:101E2000EF90DF90CF90BF90AF909F908F907F907A
:101E30006F905F904F903F902F9008953FB7F89428
:101E400080911D0790911E07A0911F07B091200758
:101E500026B5A89B05C02F3F19F00196A11DB11D05
:101E60003FBFBA2FA92F982F8827820F911DA11D40
:101E7000B11DBC01CD0142E0660F771F881F991F7D
:101E80004A95D1F708950E94DE2C009769F0FC0175
:101E900001900020E9F73197AF01481B590BBC01B5
:101EA00089E994E00C94321880E090E00895CF9393
:101EB000DF93EBDFEC018DE093E0E7DF8C0F9D1FFC
:101EC000DF91CF910895382F2091FB039091FA0371
:101ED000213208F049C08091D7038111FCCF42E044
:101EE0004093D7033093D6033FEF3093D50310923E
:101EF000D4032093D303AAEDB3E043EB53E0FA01FC
:101F00003E2F341B321718F43D913193F9CF1092C4
:101F1000B2032091B203990F922B9093B203909148
:101F2000B103913061F41092B1039091B203909398
:101F3000BB009091BC0093FDF8CF95EC01C095EEED
:101F40009093BC009091D7039230E1F39091D50328
:101F50009F3F79F08091D503803241F08091D50385
:101F6000803331F084E005C081E003C082E001C02D
:101F700083E01092D9031092FB031092D8030895C6
:101F8000CF93C62F90916A0621E02093D8039093B7
:101F9000FA031092D9031092FB03682F86E395E0B1
:101FA000A9D46C2F86E395E0A5D481E0CF918BCFA7
:101FB000883008F04CC0A82FB0E0AA0FBB1FA0507B
:101FC000BE4F11967C936E9390E0FC013197E73001
:101FD000F10510F58827E556FF4F8F4F0C94B12A75
:101FE00080916900836080936900E89A08958091E8
:101FF00069008C6080936900E99A08958091690076
:10200000806380936900EA9A089580916900806CEA
:1020100080936900EB9A089580916A0083608093B1
:102020006A00EC9A089580916A008C6080936A003F
:10203000ED9A089580916A00806380936A00EE9A19
:10204000089580916A00806C80936A00EF9A0895E9
:1020500090E0FC013197E231F10508F04EC088278D
:10206000EE55FF4F8F4F0C94B12A809180008F77EF
:1020700003C0809180008F7D8093800008958091BF
:102080008000877FF9CF84B58F7702C084B58F7DBC
:1020900084BD08958091B0008F7703C08091B00017
:1020A0008F7D8093B0000895809190008F7707C056
:1020B000809190008F7D03C080919000877F8093F6
:1020C000900008958091A0008F7707C08091A000B4
:1020D0008F7D03C08091A000877F8093A00008952A
:1020E000809120018F7707C0809120018F7D03C0F0
:1020F00080912001877F8093200108951F93CF93C3
:10210000DF93282F30E0F901E154FC4F8491F9016D
:10211000E758FC4FD491F901ED5CFC4FC491CC23FE
:10212000C1F0162F811194DFEC2FF0E0EE0FFF1FAE
:10213000E75EFC4FA591B4918FB7F894111105C0DB
:102140009C91ED2FE095E92302C0EC91ED2BEC93EF
:102150008FBFDF91CF911F910895CF93DF9390E0D0
:10216000FC01E758FC4F2491FC01ED5CFC4F84918D
:10217000882361F190E0880F991FFC01E150FD4F29
:10218000C591D491FC01E75EFC4FA591B49161111A
:1021900009C09FB7F8948881209582238883EC91A9
:1021A0002E230BC0623061F49FB7F8943881822FE0
:1021B000809583238883EC912E2B2C939FBF06C0A0
:1021C0008FB7F894E8812E2B28838FBFDF91CF91B2
:1021D00008958F929F92AF92BF92CF92DF92EF922B
:1021E000FF926B017C012ADE4B015C01C114D1041A
:1021F000E104F104E9F022DEDC01CB018819990940
:10220000AA09BB09883E9340A105B10578F321E0F6
:10221000C21AD108E108F10888EE880E83E0981E02
:10222000A11CB11CC114D104E104F10421F7DECFDB
:10223000FF90EF90DF90CF90BF90AF909F908F90E6
:1022400008952FB7F8946091190770911A0780913B
:102250001B0790911C072FBF08951F920F920FB676
:102260000F9211242F933F938F939F93AF93BF931C
:102270008091190790911A07A0911B07B0911C0734
:102280003091180723E0230F2D3720F40196A11D6C
:10229000B11D05C026E8230F0296A11DB11D209394
:1022A00018078093190790931A07A0931B07B09300
:1022B0001C0780911D0790911E07A0911F07B091E8
:1022C00020070196A11DB11D80931D0790931E0745
:1022D000A0931F07B0932007BF91AF919F918F915B
:1022E0003F912F910F900FBE0F901F901895BF92A6
:1022F000CF92DF92EF92FF920F931F93CF93DF93D2
:102300007C016B018A01E9012417350720F4812F34
:102310008901C42FD82F6FE073E0C7010E941B1BF7
:10232000D60114968D919C91159708171907D0F432
:102330008C179D0708F4EC01D601ED91FC911197E3
:10234000EC0FFD1FB08010824D915C91BA01600FBF
:10235000711FC7010E948C1AD601ED91FC91EC0F00
:10236000FD1FB082C701DF91CF911F910F91FF90A8
:10237000EF90DF90CF90BF900895CF93DF93FC0153
:1023800024813581232B69F0C081D181062E000C78
:10239000770BCE010E94EB2C009719F08C1B9D0B44
:1023A00002C08FEF9FEFDF91CF910895CF93DF931E
:1023B000EC016115710561F0FB0101900020E9F766
:1023C0003197AF01461B570B0E941D1A811103C0A4
:1023D000CE010E944A1ACE01DF91CF91089508954F
:1023E00080917307882361F09FB7F8942091730759
:1023F00080917207213019F48DBB9FBF08958FBF64
:102400000895FC012085918580917307882379F0D8
:102410008FB7F89430917307313039F43DB330936E
:1024200072073DB33DBB8FBF02C0809372072CBDC6
:102430009DBD08959FB7F89480917107882319F086
:1024400081508093710780917107811105C08CB50F
:102450008F7B8CBD109273079FBF08958CB58F77CB
:102460008CBD08958CB580688CBD08956EBD00004C
:102470000DB407FEFDCF8EB50895FC017383628312
:102480000895FC01778366830895FC017583648356
:10249000089508950895089508950895FC01848984
:1024A00095890895FC01828993890895FC018089AA
:1024B0009189089580E00895FC01738362830895F3
:1024C000FC01828193810895FC018685978508959A
:1024D000FC0181850895FC0180850895FC018781B8
:1024E0000895FC0186810895FC0140959585492356
:1024F000642B65870895FC0164870895FC01638758
:102500000895FC0162870895FC0164830895FC012D
:102510006583089580E00895FC0122813381233092
:102520003105D1F381E00895CF93DF93EC01E88189
:10253000F9810280F381E02DCE0119958823B9F34A
:10254000DF91CF91089581E008950895E091B0035F
:102550008091AF03E81730F4F0E0EF5AF84F808134
:1025600090E008958FEF9FEF08959091B0038091D0
:10257000AF03981750F4E92FF0E0EF5AF84F20819D
:1025800030E09F5F9093B00302C02FEF3FEFC9018F
:1025900008958091AF0390E02091B003821B9109D0
:1025A0000895089580E090E00895CF93DF93FC01B3
:1025B000228133812230310559F0EC01678D858D00
:1025C0009DDD60E08C8D9ADD82E090E09B838A83C4
:1025D000DF91CF910895CF93DF93EC01898D9A8D90
:1025E000DC01ED91FC910680F781E02D199561E009
:1025F0008B8DB3DD61E08B8D81DD64E670E080E082
:1026000090E0E7DD81E0DF91CF9108950F931F9374
:10261000CF93FC01828193818430910569F08330EE
:10262000910579F08230910589F00197A1F040E49D
:1026300052E46FE070E013C040E054E264EF70E0F9
:102640000EC040E052E16AE770E009C040E059E0A6
:102650006DE370E004C040E854E86EE170E0A481EE
:10266000B58186819781009741F08130910539F0DD
:102670008230910531F0039731F090E005C094E08D
:1026800003C098E001C09CE080E000E012E12AE78E
:1026900030E0401751076207730740F436952795DD
:1026A000179507958F5F8630A1F787E021E02827EF
:1026B000119711F080E501C080E7322F3695932BFA
:1026C000982B908721702187CFB7F894809171075C
:1026D000811123C0E8E6F3E08491EEEAF3E09491FF
:1026E000E82FF0E0EE0FFF1FE150FD4FA591B491F0
:1026F000EC91E92319F461E085E300DD61E085E315
:102700002CDD8CB580618CBD8CB580648CBD61E0A6
:1027100084E323DD61E083E320DD809171078F5F37
:1027200080937107CFBFCF911F910F9108958F9222
:102730009F92AF92BF92CF92DF92EF92FF92CF9390
:10274000DF93EC016B017DDD4B015C01E12CF12C91
:1027500078DDDC01CB0188199909AA09BB098C1520
:102760009D05AE05BF0530F48A819B81039781F3F7
:1027700081E001C080E0DF91CF91FF90EF90DF908A
:10278000CF90BF90AF909F908F9008958F929F921F
:10279000AF92BF92CF92DF92EF92FF92CF93DF93EF
:1027A000EC016B014EDD4B015C01E12CF12C49DDAC
:1027B000DC01CB0188199909AA09BB098C159D0573
:1027C000AE05BF0550F4E881F9810280F381E02D68
:1027D000CE011995882359F301C080E0DF91CF9194
:1027E000FF90EF90DF90CF90BF90AF909F908F9031
:1027F00008958F929F92AF92BF92CF92DF92EF9205
:10280000FF92CF93DF93FC012789308D232B11F4A6
:1028100081E035C0EC0115DD6B017C0189E0882E7B
:10282000912CA12CB12CE881F9810488F589E02D47
:10283000CE011995882361F304DDAB01BC014C196D
:102840005D096E097F098F89988DA0E0B0E084173B
:102850009507A607B70790F00E949B22A501940157
:102860000E94F5279B01AC012F5F3F4F4F4F5F4FF9
:10287000A4E6B0E00E941128ACDCD5CF80E0DF9167
:10288000CF91FF90EF90DF90CF90BF90AF909F904F
:102890008F900895CF92DF92EF92FF920F931F9344
:1028A000CF93DF937C01262F972F8A018091D80345
:1028B000882391F0C62FD72F6E01C40ED51ECC15DC
:1028C000DD0571F06991D701ED91FC910190F081E6
:1028D000E02DC7011995F3CF642F822F0E94840346
:1028E000C801DF91CF911F910F91FF90EF90DF9082
:1028F000CF900895CF93DF931F92CDB7DEB7698352
:102900002091D8032223D1F02091FB03203240F004
:1029100021E030E0FC013383228380E090E015C0A9
:102920008091D903E82FF0E0E652FC4F9981908323
:102930008F5F8093D9038093FB0305C061E0CE01D4
:1029400001960E94840381E090E00F90DF91CF9187
:1029500008951F920F920FB60F9211240BB60F928B
:10296000CF92DF92EF92FF920F931F932F933F939B
:102970004F935F936F937F938F939F93AF93BF9387
:10298000CF93DF93EF93FF93C0917407D0917507B6
:102990008A819B81049709F0C8C02B8D30E0F90132
:1029A000E154FC4F8491F901E758FC4F0491F9017F
:1029B000ED5CFC4F1491112371F0811149DBE12F83
:1029C000F0E0EE0FFF1FEB5FFB4FA591B491EC9190
:1029D000E02381E009F480E081709E8D892719F061
:1029E0009BA19F5F9BA39AA1891771F09CA1903531
:1029F00018F02DE130E002C02BE030E09CA1290F5F
:102A0000311D2CA38AA303C08CA18C5E8CA38CA146
:102A1000803A08F4DAC08EA19FA1969587959FA36E
:102A20008EA38BA1853028F08EA19FA198609FA3D3
:102A30008EA38CA1805A8CA31BA28DA1882309F49C
:102A400067C088A58F5F88A78C3008F4BEC08EA1B0
:102A50009FA1982F9F73892F86958695887028E06F
:102A6000280F821749F0E82FF0E0E256FD4F308141
:102A7000931719F08F5FF5CF80E020E1829FC001AE
:102A800011242EA13FA196E0369527959A95E1F75E
:102A9000422F3695279536952795287038E0320FC6
:102AA000231749F0E22FF0E0E256FD4F5081451721
:102AB00019F02F5FF5CF20E0822BAE0143595F4F15
:102AC000FA019081DE01A459BF4F9923A9F0FA01C0
:102AD000908121E0290F20839E01290F311DF901EA
:102AE00081A7FA0190818C91981780F01DA281E056
:102AF00088A3CE015ADD0AC08C939C91973008F4CC
:102B00005EC09C91943408F05AC0E1CF18A65DC015
:102B10008EA19FA188339B4009F057C081E08DA30F
:102B200018A6C359DF4F188250C08A819B81039732
:102B300009F04BC08E0100591F4FF801808191E0D0
:102B4000980F9083811135C07E01FEE6EF0EF11CD7
:102B5000F7018081EF56FF4F9081891740F0CE0139
:102B600024DD8C899D8901969D8B8C8B22C0FE0172
:102B7000E80FF11DEF58FF4F608170E06E01FFE636
:102B8000CF0ED11CF601808191E0980F908302C096
:102B9000759567958A95E2F7617077278C8DAEDA27
:102BA000F6018081863028F01082F70180818F5FE6
:102BB0008083F8018081883040F0108206C01DA219
:102BC000888999890196998B888BFF91EF91DF9184
:102BD000CF91BF91AF919F918F917F916F915F91B5
:102BE0004F913F912F911F910F91FF90EF90DF90A8
:102BF000CF900F900BBE0F900FBE0F901F901895A7
:102C0000EF92FF920F931F93CF93DF931F92CDB755
:102C1000DEB77C01162F0FB7F894DC0159968D9121
:102C20009C915A97DC01ED91FC910088F189E02D8F
:102C30004983199560E0F701838D60DAD7015996D1
:102C40008D919C915A97DC01ED91FC91612F606808
:102C50000190F081E02D1995182FF701818D928D4B
:102C6000DC01ED91FC910190F081E02D4981642F10
:102C7000199561E0F701838D41DAD70159968D915D
:102C80009C915A97DC01ED91FC910288F389E02D2B
:102C900019950FBF812F0F90DF91CF911F910F9149
:102CA000FF90EF9008950F931F93CF93DF93EC0164
:102CB000162F0FB7F89460E08B8D20DA898D9A8DEE
:102CC000DC01ED91FC91612F6F770190F081E02D97
:102CD0001995898D9A8DDC01ED91FC910190F0811F
:102CE000E02D60E01995182F61E08B8D07DA0FBF9A
:102CF000812FDF91CF911F910F910895EF92FF9255
:102D00000F931F93CF93DF9300D0CDB7DEB78C0125
:102D100062DCF82E811102C0F12C9FC0D8015D96B3
:102D20009C91923059F0933061F08EEE890F84308F
:102D300098F767E170E0691B710905C060E070E019
:102D400002C061E070E0E62ED80159968D919C9109
:102D50005A97DC01ED91FC910488F589E02D1995D5
:102D600040E861E0C8014CDF6AE070E080E090E09C
:102D700030DA61E0C80197DF803871F660E0F80171
:102D8000858DEBD9D8015E968C915E978F3F59F473
:102D900080917607843008F0BFCF91E0980F909330
:102DA00076075E968C93F801968DE92FF0E0EE0F92
:102DB000FF1FE958F84F11830083911103C06EE0A3
:102DC0007FE10AC0913019F466E07FE105C09230DE
:102DD00009F0A2CF6EEF7EE18E2DEAD840E06EE0E2
:102DE000C8010EDF40E06FE0C8010ADFC8015BD612
:102DF00043E050E06FE174E0CE0101960E94D022E2
:102E000049816DE1C801FCDE4A816EE1C801F8DE4E
:102E10004B8166E2C801F4DE40E060E2C801F0DE0A
:102E200048E061E2C801ECDE44EE66E0C801E8DE9D
:102E300040EC67E0C801E4DE40E068E0C801E0DEA5
:102E4000F801E05EFE4F81E0808344E06DE4C8015C
:102E5000D7DE48E869E0C801D3DE8F2D0F900F90D0
:102E60000F90DF91CF911F910F91FF90EF900895F8
:102E7000CF93DF93EC018A859B85AC85BD858E83DE
:102E80009F83A887B987DDD96A837B838C839D83E1
:102E900081E089838883DF91CF9108952F923F92BB
:102EA0004F925F926F927F928F929F92AF92BF925A
:102EB000CF92DF92EF92FF920F931F93CF93DF9306
:102EC000D82FC92F8B010E94AA2224E630E040E0CF
:102ED00050E00E94212849015A019B01AC0160E8A1
:102EE00076E988E990E00E948F2A6B017C01F80165
:102EF00091828082ED2FFC2F2191822F022E000CD7
:102F0000990BC0970A97C0F32E3239F51F0180E85C
:102F1000882E86E9982E88E9A82EB12C9AE0492EB1
:102F2000512C612C712CF101C1911F010C2E000C50
:102F3000DD0BE097CA30D10580F4C501B401A301CF
:102F400092010E94212849015A01DE010E941B289A
:102F5000C60ED71EE81EF91EE6CFA5E0B0E0A70119
:102F600096010E9411286F5F7F4F8F4F9F4F23E084
:102F700030E040E050E00E942128F80122833383B2
:102F8000448355831682DF91CF911F910F91FF905B
:102F9000EF90DF90CF90BF90AF909F908F907F90F9
:102FA0006F905F904F903F902F900895FF920F93F6
:102FB0001F93CF93DF93EC01FF24F39488818D322C
:102FC00011F0F12C01C02196CE010E94AA229B0192
:102FD000AC01A4E6B0E00E941128FE014991242F23
:102FE000042E000C330B205331092A303105A8F38D
:102FF0004E3241F52181022E000C330B2053310952
:103000002A303105F8F44AE0429F8001439F100DB9
:103010001124012E000C220B330B600F711F821F35
:10302000931F0281002E000C110B005311090A306E
:10303000110540F4012E000C220B330B600F711FA1
:10304000821F931FFF2039F09095809570956195B0
:103050007F4F8F4F9F4FDF91CF911F910F91FF9027
:1030600008950895CF92DF92EF92FF920F931F93EE
:10307000CF93DF936C017A018B01C0E0D0E0CE15D5
:10308000DF0589F0D8016D918D01D601ED91FC919C
:103090000190F081E02DC6011995892B11F47E0174
:1030A00002C02196ECCFC701DF91CF911F910F9104
:1030B000FF90EF90DF90CF900895FC01A089B18937
:1030C0008C91A689B78982FD0FC09C91818D8F5FFD
:1030D0008F73228D821749F0218DDF01A20FB11D60
:1030E0005D969C93818F08958C910895FC01538D7A
:1030F000448D252F30E0842F90E0821B930B5417D2
:1031000010F0CF96089501970895FC01918D828D5E
:10311000981761F0828DDF01A80FB11D5D968C912B
:10312000928D9F5F9F73928F90E008958FEF9FEF36
:103130000895FC01918D828D981731F0828DE80FF2
:10314000F11D858D90E008958FEF9FEF0895FC01AC
:10315000918D228D892F90E0805C9F4F821B910979
:103160008F73992708958CEF93E0F1DF21E0892B8D
:1031700009F420E0822F089589E994E0E8DF21E056
:10318000892B09F420E0822F0895FC01848DDF0152
:10319000A80FB11DA35ABF4F2C91848D90E00196CA
:1031A0008F739927848FA689B7892C93A089B189B9
:1031B0008C9180648C93938D848D981306C00288C3
:1031C000F389E02D80818F7D80830895EF92FF92B7
:1031D0000F931F93CF93DF93EC0181E0888F9B8D3A
:1031E0008C8D981305C0E889F989808185FD23C0FD
:1031F000F62E0B8D10E00F5F1F4F0F731127E02E7F
:103200008C8DE8120BC00FB607FCFACFE889F9895C
:10321000808185FFF5CFCE01B8DFF2CF8B8DFE0127
:10322000E80FF11DE35AFF4FF0820B8FEA89FB890B
:103230008081806207C0EE89FF896083E889F9890F
:1032400080818064808381E090E0DF91CF911F9145
:103250000F91FF90EF900895CF93DF93EC01888D4D
:103260008823C1F0EA89FB89808185FD05C0A88992
:10327000B9898C9186FD0EC00FB607FCF5CF808111
:1032800085FFF2CFA889B9898C9185FFEDCFCE015A
:103290007CDFE8CFDF91CF91089580E090E0892B2B
:1032A00019F06ADF811120C080E090E0892B19F0CD
:1032B0005ADF81111CC080E090E0892B41F080E052
:1032C00090E0892B21F00E940000811113C080E062
:1032D00090E0892BA1F080E090E0892B81F00E94A2
:1032E000000081110AC008950E940000DDCF0E94F5
:1032F0000000E1CF0E940000EACF0C940000089586
:103300008BEF08950F931F93CF93DF93EC01888188
:103310009981009729F02A813B812617370788F485
:103320008B016F5F7F4F0E94FA2B009761F09983AA
:1033300088831B830A832C813D81232B11F4FC019C
:10334000108281E001C080E0DF91CF911F910F9149
:103350000895CF93DF93EC018A819B81059761F0FB
:1033600047E061E0CE014CDC40E860E4CE0148DC9F
:1033700085E090E09B838A838A819B810597E1F3B6
:103380008E89DF91CF910895CF93DF93FC01228145
:1033900033812130310541F0EC0140E061E030DC67
:1033A00081E090E09B838A8381E0DF91CF91089553
:1033B000CF92DF92EF92FF920F931F93CF93DF9301
:1033C000EC017B018A01E881F9810280F381E02D23
:1033D0001995D82E882339F1E114F104E1F0011593
:1033E0001105C9F0CFB6F8942F8D30E02350310984
:1033F000F801808190E0821793071CF09F8D945014
:103400009083F801408150E0BE016C5D7F4FC701A1
:103410000E94E22CCFBE8FB7F894FE01E15EFE4F12
:1034200010821F8E8FBF8D2DDF91CF911F910F9135
:10343000FF90EF90DF90CF900895EF92FF920F935F
:103440001F93CF93DF93FC012481358161157105B2
:1034500011F480E018C041155105A1F07B01EC0189
:103460008A01020F131FB8014DDF882391F32881D1
:1034700039818C819D81B701820F931F0E94FF2C9F
:103480001D830C8381E0DF91CF911F910F91FF90FD
:10349000EF900895CF93DF93EC0188819981009795
:1034A00011F00E94622B198218821D821C821B82DD
:1034B0001A82DF91CF910895CF93DF93EC01FB0146
:1034C0004481558160817181B8DF811102C0CE01D4
:1034D000E1DFCE01DF91CF910895EF92FF920F933C
:1034E0001F93CF93DF93EC017B018A01BA010ADFBE
:1034F000811103C0CE01CEDF07C01D830C83B7014D
:10350000888199810E94FF2CCE01DF91CF911F917C
:103510000F91FF90EF900895CF93DF93EC01611529
:10352000710551F0FB0101900020E9F73197AF01DF
:10353000461B570BD2DF01C0ADDFCE01DF91CF912B
:103540000895FC01808191810C94622BEF92FF928F
:103550000F931F93CF93DF93CDB7DEB7A1970FB62D
:10356000F894DEBF0FBECDBF7C01CB01BA01F701DD
:1035700011821082138212821582148242E0420F5D
:103580008E010F5F1F4F6FD7BC01C701C5DFA1962A
:103590000FB6F894DEBF0FBECDBFDF91CF911F9164
:1035A0000F91FF90EF900895EF92FF920F931F936A
:1035B000CF93DF93CDB7DEB7A1970FB6F894DEBFF8
:1035C0000FBECDBF7C01CB01BA01F7011182108281
:1035D000138212821582148242E0420F8E010F5F25
:1035E0001F4F41D7BC01C70197DFA1960FB6F894D2
:1035F000DEBF0FBECDBFDF91CF911F910F91FF9026
:10360000EF900895FB01DC0111961C921E92139617
:103610001C921E92129715961C921E921497861752
:10362000970741F0608171816115710519F044813E
:10363000558153CF0895FC011182108213821282AA
:10364000158214826115710549F0FB01019000207B
:10365000E9F73197AF01461B570B3FCF08951F92F3
:103660000F920FB60F9211240BB60F922F933F9328
:103670004F935F936F937F938F939F93AF93BF937A
:10368000EF93FF93E0910E02F0910F021995FF91D5
:10369000EF91BF91AF919F918F917F916F915F91CA
:1036A0004F913F912F910F900BBE0F900FBE0F9037
:1036B0001F9018951F920F920FB60F9211240BB600
:1036C0000F922F933F934F935F936F937F938F93BB
:1036D0009F93AF93BF93EF93FF93E0910C02F09110
:1036E0000D021995FF91EF91BF91AF919F918F912D
:1036F0007F916F915F914F913F912F910F900BBEF2
:103700000F900FBE0F901F9018951F920F920FB63B
:103710000F9211240BB60F922F933F934F935F9309
:103720006F937F938F939F93AF93BF93EF93FF9389
:10373000E0910202F09103021995FF91EF91BF9180
:10374000AF919F918F917F916F915F914F913F9139
:103750002F910F900BBE0F900FBE0F901F901895DA
:103760001F920F920FB60F9211240BB60F922F9348
:103770003F934F935F936F937F938F939F93AF93F9
:10378000BF93EF93FF93E0910002F091010219952E
:10379000FF91EF91BF91AF919F918F917F916F9129
:1037A0005F914F913F912F910F900BBE0F900FBEE5
:1037B0000F901F9018951F920F920FB60F92112421
:1037C0000BB60F922F933F934F935F936F937F931B
:1037D0008F939F93AF93BF93EF93FF93E0910A0270
:1037E000F0910B021995FF91EF91BF91AF919F91CD
:1037F0008F917F916F915F914F913F912F910F909A
:103800000BBE0F900FBE0F901F9018951F920F9236
:103810000FB60F9211240BB60F922F933F934F9335
:103820005F936F937F938F939F93AF93BF93EF9328
:10383000FF93E0910802F09109021995FF91EF9131
:10384000BF91AF919F918F917F916F915F914F91B8
:103850003F912F910F900BBE0F900FBE0F901F90B6
:1038600018951F920F920FB60F9211240BB60F925C
:103870002F933F934F935F936F937F938F939F9378
:10388000AF93BF93EF93FF93E0910602F09107028D
:103890001995FF91EF91BF91AF919F918F917F917A
:1038A0006F915F914F913F912F910F900BBE0F90B1
:1038B0000FBE0F901F9018951F920F920FB60F9288
:1038C00011240BB60F922F933F934F935F936F93F7
:1038D0007F938F939F93AF93BF93EF93FF93E09169
:1038E0000402F09105021995FF91EF91BF91AF91FC
:1038F0009F918F917F916F915F914F913F912F9108
:103900000F900BBE0F900FBE0F901F9018951F9237
:103910000F920FB60F9211240BB60F922F933F9375
:103920004F935F936F937F938F939F93AF93BF93C7
:10393000EF93FF938CEF93E028DCFF91EF91BF9121
:10394000AF919F918F917F916F915F914F913F9137
:103950002F910F900BBE0F900FBE0F901F901895D8
:103960001F920F920FB60F9211240BB60F922F9346
:103970003F934F935F936F937F938F939F93AF93F7
:10398000BF93EF93FF938CEF93E097DBFF91EF9161
:10399000BF91AF919F918F917F916F915F914F9167
:1039A0003F912F910F900BBE0F900FBE0F901F9065
:1039B00018951F920F920FB60F9211240BB60F920B
:1039C0002F933F934F935F936F937F938F939F9327
:1039D000AF93BF93EF93FF9389E994E0D6DBFF9118
:1039E000EF91BF91AF919F918F917F916F915F9177
:1039F0004F913F912F910F900BBE0F900FBE0F90E4
:103A00001F9018951F920F920FB60F9211240BB6AC
:103A10000F922F933F934F935F936F937F938F9367
:103A20009F93AF93BF93EF93FF9389E994E045DBB6
:103A3000FF91EF91BF91AF919F918F917F916F9186
:103A40005F914F913F912F910F900BBE0F900FBE42
:103A50000F901F901895CF93DF93EC0145E061E044
:103A6000CFD840E060E4CE01CBD884E090E09B83E7
:103A70008A83DF91CF910895CF93DF93FC01228158
:103A800033812330310559F0EC0182819381049711
:103A900011F0CF01E0DFC15EDE4F888101C080E020
:103AA000DF91CF910895CF93DF93FC012281338181
:103AB0002230310541F0EC0141E061E0A1D882E023
:103AC00090E09B838A83DF91CF910895BF92CF923C
:103AD000DF92EF92FF920F931F93CF93DF934C3FB0
:103AE00010F0C12C78C0142F072FD62EEC01E881DE
:103AF000F9810484F585E02D1995CE01D4DFE881A4
:103B0000F9810288F389E02DCE011995C82E88230A
:103B100041F340E06DE0CE0173D84A8560E0CE010C
:103B20006FD84B8560E0CE016BD84C8560E0CE014C
:103B300067D84D8560E0CE0163D8BFB6F894898D13
:103B40009A8DDC01ED91FC910088F189E02D1995A9
:103B500060E08B8D0E947E10898D9A8DDC01ED9145
:103B6000FC910190F081E02D60E81995ED2CF02E8C
:103B7000012F015068F0898D9A8DF70161917F01C5
:103B8000DC01ED91FC910190F081E02D1995F1CFD0
:103B900061E08B8D0E947E10898D9A8DDC01ED9104
:103BA000FC910288F389E02D1995BFBE44E0410FD6
:103BB00062E2CE0125D88A819B81039761F043E0C0
:103BC00061E0CE011DD840E460E4CE0119D883E065
:103BD00090E09B838A838C2DDF91CF911F910F9171
:103BE000FF90EF90DF90CF90BF900895DF92EF921B
:103BF000FF920F931F93CF93DF93EC0162E153D8B1
:103C0000182F6CE1CE014FD82A813B812430310539
:103C100079F4829586958695837091E0892780FB5B
:103C2000EE24E0F8F12C812F807AE82AEF2839F48D
:103C30008A819B810497C9F416FD24C016C0888927
:103C400099890196998B888B4FEF62E1CE010E9492
:103C500000164FEF62E1CE01DF91CF911F910F91DE
:103C6000FF90EF90DF900C9400168A819B81039760
:103C700009F0B8C013FFB6C08C899D8901969D8B51
:103C80008C8BB9C063E1CE010ED8F82E60E1CE0175
:103C90000AD8482F6DE0CE010E940016DFB6F894D6
:103CA000898D9A8DDC01ED91FC910088F189E02DE0
:103CB000199560E08B8D0E947E10898D9A8DDC01B4
:103CC000ED91FC910190F081E02D60E019958E015D
:103CD000005E1F4FEF2CE00EE01671F0898D9A8D7B
:103CE000DC01ED91FC910190F081E02D60E01995EF
:103CF000F80181938F01F0CF61E08B8D0E947E10DF
:103D0000898D9A8DDC01ED91FC910288F389E02D7B
:103D10001995DFBEFF8E4FEF62E1CE010E940016C3
:103D200069E1CE010E9453168E010F5D1E4F87FD83
:103D30008D5F85958595F80180836AE1CE010E94AB
:103D4000531690E09F878E87D8012C918E859F8592
:103D500027FF07C0820F911D27FD9A959F878E87A9
:103D60000BC024E0880F991F2A95E1F76FE070E0FF
:103D70000E949E2A7F876E87FE01E05EFE4F808153
:103D8000882329F08E859F858D59910904C08E85E1
:103D90009F85845A91099F878E878F8DFE01E15EF2
:103DA000FE4F843090F088A18E8389A18F838AA1F1
:103DB00088878BA189878D8181110CC09E818C8120
:103DC000981741F08E818F3F29F08081882309F474
:103DD0003BCF11C08A899B8901969B8B8A8B81E09E
:103DE0008083F3CF8A819B81059709F02DCF12FF45
:103DF0002BCF11701E8BCE0156DE26CF80917B0714
:103E000090917C07009709F0F1CE08958091790791
:103E100090917A07009709F0E9CE0895809177078D
:103E200090917807009709F0E1CE0895CF93DF9342
:103E3000ECEFF3E01382128248EE53E060E070E0B2
:103E4000448355836683778388E292E091838083FD
:103E50002DEC30E0358724872CEC30E0378726873F
:103E600028EC30E0318B208B29EC30E0338B228B37
:103E70002AEC30E0358B248B2EEC30E0378B268B10
:103E8000118E128E138E148EE9E9F4E013821282E1
:103E900044835583668377839183808385EC90E0A8
:103EA0009587848784EC90E09787868780EC90E004
:103EB000918B808B81EC90E0938B828B82EC90E0F5
:103EC000958B848B86EC90E0978B868B118E128E6F
:103ED000138E148EA7E4B7E013961C921E921297CD
:103EE00015961C921E92149717961C921E92169766
:103EF0008AE392E011969C938E9380E518968C93BA
:103F0000189719961C921997E6E3F5E0138212822E
:103F1000448355836683778384E592E0918380832D
:103F2000EBE6F6E01082118213821282148215826F
:103F300016821782108612861186138614861586BD
:103F400016861786118A108A128A138A148A158A8D
:103F5000168A108E178A118E128E138E148E158E5D
:103F600012A213A214A215A216A217A210AA11AA95
:103F700012AA13AA14AA15AA1092A9061092AA06A8
:103F80001092AF061092B0061092B1061092B206CF
:103F90001092B7061092B8061092BD061092BE0697
:103FA0001092BF061092C0061092C5061092C60667
:103FB0001092CB061092CC061092CD061092CE062F
:103FC0001092D3061092D4061092D9061092DA06F7
:103FD0001092DB061092DC061092E1061092E206C7
:103FE0001092E7061092E8061092E9061092EA068F
:103FF0001092EF061092F00692E090930007109254
:104000000107109202071092030710920507109201
:1040100004071092070710920607109208071092E3
:10402000090710920A0710920B0710920C071092C2
:104030000D0710920E0710920F07109210071092A2
:104040001107109212071092130710921407109282
:10405000150710921607109217071092F106E4E662
:10406000F6E0128213821482158225E832E0318351
:1040700020838EE18683E2E4F5E0138212828FEFE3
:1040800084838287838714861586118A108A138A0F
:10409000128A158A148A108E178AB28FA18F2AE08D
:1040A000238F26E632E03183208310926106958FBC
:1040B000868FC1E2D7E044EF51E060E070E04E83CC
:1040C0005F83688779878AE0EAE1F2E0A5E3B7E0F9
:1040D00001900D928A95E1F71E8E9F8F1CA21DA262
:1040E000DF91CF910895789484B5826084BD84B5C2
:1040F000816084BD85B5826085BD85B5816085BDE3
:1041000080916E00816080936E001092810080919A
:104110008100826080938100809181008160809322
:104120008100809180008160809380008091B10047
:1041300084608093B1008091B00081608093B00072
:1041400080919100826080939100809191008160C4
:104150008093910080919000816080939000809185
:10416000A10082608093A1008091A1008160809372
:10417000A1008091A00081608093A0008091210126
:1041800082608093210180912101816080932101CF
:104190008091200181608093200180917A00846069
:1041A00080937A0080917A00826080937A00809177
:1041B0007A00816080937A0080917A008068809391
:1041C0007A001092C100E091A904F091AA0422E0C3
:1041D0002083E091A504F091A6041082E091A70449
:1041E000F091A80480E180831092B104E091AD04C5
:1041F000F091AE0496E09083E091AB04F091AC04B2
:10420000808180618083E091AB04F091AC04808177
:1042100088608083E091AB04F091AC048081806879
:104220008083E091AB04F091AC0480818F7D80832A
:10423000E0910C04F0910D042083E0910804F091CA
:1042400009041082E0910A04F0910B048FEC808342
:1042500010921404E0911004F09111049083E09105
:104260000E04F0910F04808180618083E0910E0440
:10427000F0910F04808188608083E0910E04F091BA
:104280000F04808180688083E0910E04F0910F0418
:1042900080818F7D80831092B0031092AF031092C3
:1042A000D9031092FB031092D70381E08093D603C9
:1042B0001092B10361E084E10E947E1061E085E12B
:1042C0000E947E108091B9008E7F8093B90080910A
:1042D000B9008D7F8093B90088E48093B80085E4AD
:1042E0008093BC0088ED99EEA7E9BEE38093660653
:1042F00090936706A0936806B09369068091640660
:10430000909165068C7F816090936506809364062A
:1043100061E082E00E94C00F809164069091650682
:10432000837E8460909365068093640660E281E0FA
:104330000E94C00F80916406909165068F71907CF9
:1043400080689260909365068093640661E08DE0DA
:104350000E94AD1061E08DE10E94AD1061E087E246
:104360000E94AD1061E081E30E94AD1061E08EE239
:104370000E94AD1061E08FE20E94AD1061E087E124
:104380000E94AD1061E08DE20E94AD1061E089E213
:104390000E94AD1061E08BE10E94AD1061E08BE204
:1043A0000E94AD1061E089E10E94AD1061E085E2FC
:1043B0000E94AD1061E08FE10E94AD1061E081E2EA
:1043C0000E94AD1061E083E20E94AD1080E193E0B5
:1043D0000E94450F82E495E00E947E16811107C07D
:1043E00089E193E00E94570FC9EED2E010C085E248
:1043F00093E0F8CFE0919904F0919A040190F08154
:10440000E02D89E994E019952196892B21F0FE0190
:1044100064916111EFCF8DE093E00E94450F84EF2E
:1044200091E0A0E0B0E08093270790932807A09345
:104430002907B0932A0741E06FE28BE10E94AC03A9
:1044400061E085E20E947E1060ED77E080E090E020
:104450000E94E91060E085E20E947E100E94D10374
:104460000E944D19FBCFEF920F931F93CF93DF93D1
:10447000E80147FD02C034E001C034E1E42F440FFD
:10448000FF0BF7FF03C0F195E195F109E32E022F31
:104490002E2FAE01A3D0CE01DF91CF911F910F91AE
:1044A000EF9008958F929F92AF92BF92CF92DF923A
:1044B000EF92FF92CF93DF93EC01688179818A813B
:1044C0009B81611571058105910521F464E279ED07
:1044D0008BE597E02DE133EF41E050E086D54901CF
:1044E0005A019B01AC01A7EAB1E49BD56B017C01A9
:1044F000ACEEB4EFA5019401A0D5DC01CB018C0D8D
:104500009D1DAE1DBF1DB7FF03C00197A109B04897
:1045100088839983AA83BB83BC01CD019F77DF91F8
:10452000CF91FF90EF90DF90CF90BF90AF909F9092
:104530008F900895B7CF80E192E0B4CF60931002DE
:1045400070931102809312029093130208956627CC
:104550007727D1C11F93FC0199278827BC01E894D4
:1045600011911032E9F3193010F01E30C8F31B32EC
:1045700049F01D3241F4689405C01BD0610F711DD4
:10458000811D911D119110531A30B8F33EF490958E
:104590008095709561957F4F8F4F9F4F1F91089524
:1045A000FB01DC0102C005900D9241505040D8F74C
:1045B0000895592F482F372F262F660F771F881FF2
:1045C000991F660F771F881F991F620F731F841F23
:1045D000951F660F771F881F991F08954F925F924E
:1045E0006F927F929F92AF92BF92CF92DF92EF92A3
:1045F000FF920F931F93CF93DF93CDB7DEB7299729
:104600000FB6F894DEBF0FBECDBF6A01122FB02ED9
:104610002BE3201720F0FF24F394F00E02C0BCE33C
:10462000FB2E0F2D27E0AE014F5F5F4FCAD2AC01CA
:104630008981982F9970913031F0E1FC06C0E0FE3D
:1046400006C090E205C09DE203C09BE201C090E07D
:10465000EE2DE07183FF3CC0911102C083E001C0E8
:1046600084E0811718F4212F281B01C020E0E111FC
:104670000BC0F601822F30E2882319F0319381506C
:10468000FBCFC20ED11C20E0992329F0D6019C93C8
:10469000F60131966F01C6010396E2FE0AC03EE4C0
:1046A000D6013C9341E411964C93119712963C939A
:1046B00006C03EE6F601308341E641833283FC01C9
:1046C000322F40E2332309F442C041933150FACFF4
:1046D00082FF44C0911102C083E001C084E08117D1
:1046E00018F4212F281B01C020E0E1110BC0F601B6
:1046F000822F30E2882319F031938150FBCFC20E14
:10470000D11C20E0992329F0D6019C93F601319623
:104710006F01C6010396E2FE0BC039E4D6013C935B
:104720003EE411963C93119736E412963C9307C0F1
:1047300039E6F60130833EE6318336E63283FC010A
:10474000322F40E2332319F041933150FBCFFC016B
:10475000E20FF11D10828EEF9FEFB7C0F1E09111D3
:1047600001C0F0E06F2F70E01416150624F49A01D2
:104770002F5F3F4F02C021E030E0260F371FBB20E4
:1047800029F06B2D70E06F5F7F4F02C060E070E03A
:10479000260F371F612F70E0261737071CF4121BF6
:1047A000212F01C020E03E2D387159F4D601322F5F
:1047B00060E2332319F06D933150FBCFC20ED11C50
:1047C00020E0FF2331F0D6019C93B6016F5F7F4F4D
:1047D0006B01E1110BC0F601922F30E3992319F020
:1047E00031939150FBCFC20ED11C20E09F2D940F2E
:1047F0003A81782F7071A72E84FF03C0313309F4FA
:104800009150191624F4993018F098E001C091E005
:10481000E42F852F57FF02C0E0E080E06E2F782F55
:10482000E0E0F0E0AEE29A2E3A01691A71082A013E
:10483000461A570A0B2D10E01195019511096F3F8B
:104840008FEF780729F4D6019C92C60101966C017E
:104850004617570784F0661677066CF47F01E40C60
:10486000F51CA1E0B0E0AC0FBD1FEA0EFB1ED701A6
:104870001196BC9002C090E3B92E61507109319637
:10488000C60101967C016017710724F0D601BC9225
:104890006C01D5CF6417750741F4363320F43533F6
:1048A00021F4A11002C081E3B82EF601B082F70115
:1048B000822F90E2882319F091938150FBCFF7016A
:1048C000E20FF11D108280E090E029960FB6F89477
:1048D000DEBF0FBECDBFDF91CF911F910F91FF9033
:1048E000EF90DF90CF90BF90AF909F907F906F90B0
:1048F0005F904F9008956F927F928F929F92AF92A8
:10490000BF92CF92DF92EF92FF920F931F93CF93BC
:10491000DF93EC017B016115710519F0DB018D93CB
:104920009C938E010F5F1F4F7880872D90E021D2DE
:10493000892B11F0E801F5CFBDE27B1205C00F5FB6
:104940001F4F7980C1E008C0EBE27E1204C08E01E7
:104950000E5F1F4F7980C0E06801F1E0CF1AD108E7
:1049600043E050E06CEB71E0C6010BD2892BE9F417
:10497000680122E0C20ED11C45E050E067EB71E017
:10498000C601FFD1892B21F4680187E0C80ED11C34
:10499000E114F10419F0D701CD92DC92C111F9C0F4
:1049A00060E070E080E89FE7FDC043E050E064EB2A
:1049B00071E0C601E6D1892B51F4E114F10409F448
:1049C000EDC00E5F1F4FF70111830083E7C0680140
:1049D00060E070E0CB0100E010E0F601D0EDD70D13
:1049E000DA3050F52C2F2260622E2C2F2870C2FF57
:1049F00005C0211127C00F5F1F4F24C0222311F0D3
:104A000001501109A5E0B0E09B01AC010AD34B01B4
:104A10005C01880C991CAA1CBB1CC501B4016D0F5C
:104A2000711D811D911D6839A9E97A078A07A9E1DD
:104A30009A0740F0C66005C0DE3F51F4C3FD44C094
:104A4000C8606C2EBFEFCB1ADB0A7080C62DC5CFB5
:104A50002D2F2F7D2531C1F540814D3211F4C061DC
:104A600006C04B3221F0319621E030E006C032968C
:104A7000D60111964C9122E030E0A0EDA40FAA30AF
:104A800018F0E21BF30B20C040E050E04038BCE0DF
:104A90005B075CF49A01220F331F220F331F420F72
:104AA000531F440F551F4A0F511D3196DF011197B7
:104AB0002C91A0EDA20FAA3048F3C4FF03C051957A
:104AC00041955109040F151FC1FF07C0E114F104FE
:104AD00021F03197D701ED93FC936FD1C370C330B0
:104AE00019F06B017C0106C06B017C01F7FAF094B0
:104AF000F7F8F09420E030E0A901C701B60159D1E0
:104B0000882309F443C017FF06C0119501951109C8
:104B1000C3EDD1E002C0CBEED1E05E01B8E1AB1A4B
:104B2000B1084601BE2DAF2D90E2E92EF12C0E15F5
:104B30001F057CF0FE012591359145915491B401FA
:104B40008B2F9A2F9BD14B01B82FA92F0E191F091C
:104B5000EECF2497F594E794CA15DB0541F764017D
:104B6000EB2EFA2E8E2D880F8F2D881F8F3F41F050
:104B700020E030E0A901C701B6011BD1811106C0B8
:104B800082E290E090937E0780937D07C701B60193
:104B900009C060E070E080E89FEF04C060E070E072
:104BA00080EC9FE7DF91CF911F910F91FF90EF90E5
:104BB000DF90CF90BF90AF909F908F907F906F903D
:104BC0000895283008F027E03327DA01990F311DC6
:104BD00087FD916000966105710539F432602E5FA2
:104BE0003D9330E32A95E1F708959F3F30F08038F8
:104BF0007105610509F03C5F3C5F3D93913008F021
:104C00008068911DDF93CF931F930F93FF92EF92D4
:104C1000192F987F9695E92F96959695E90FFF277E
:104C2000E75BFD4F99273327EE24FF24A701E70117
:104C300005900894079428F4360FE71EF81E491FC4
:104C4000511D660F771F881F991F0694A1F70590C5
:104C5000079428F4E70EF81E491F561FC11D770F51
:104C6000881F991F661F0694A1F70590079428F4E2
:104C7000F80E491F561FC71FD11D880F991F661FA9
:104C8000771F0694A1F70590079420F4490F561F4B
:104C9000C71FD81F990F661F771F881F0694A9F793
:104CA00084911095177041F0D695C7955795479503
:104CB000F794E7941A95C1F7EFEEF1E06894159038
:104CC000159135916591959105907FE27395E11865
:104CD000F10A430B560BC90BD009C0F7E10CF11ECA
:104CE000431F561FC91FD01D7EF4703311F48A95DF
:104CF000E6CFE894015030F0080F0AF400270217BD
:104D000008F4202F2395022F7A3328F079E37D933E
:104D10002A95E9F710C07D932A9589F60694979510
:104D20006795379517951794E118F10A430B560BC1
:104D3000C90BD00998F023957E9173957A3308F0CA
:104D400070E37C932013B8F77E9170617D9330F00F
:104D5000839571E37D9370E32A95E1F71124EF9039
:104D6000FF900F911F91CF91DF91992787FD90952B
:104D700008959111E6C0803219F089508550D0F71E
:104D80000895FB01DC014150504088F08D91813441
:104D90001CF08B350CF4805E659161341CF06B3532
:104DA0000CF4605E861B611171F3990B0895881BEA
:104DB000FCCF40D008F481E00895E89409C097FB47
:104DC0003EF490958095709561957F4F8F4F9F4FE2
:104DD0009923A9F0F92F96E9BB279395F695879526
:104DE00077956795B795F111F8CFFAF4BB0F11F4E9
:104DF00060FF1BC06F5F7F4F8F4F9F4F16C0882390
:104E000011F096E911C0772321F09EE8872F762FC5
:104E100005C0662371F096E8862F70E060E02AF006
:104E20009A95660F771F881FDAF7880F96958795F2
:104E300097F90895990F0008550FAA0BE0E8FEEFC7
:104E400016161706E807F907C0F012161306E4074E
:104E5000F50798F0621B730B840B950B39F40A2647
:104E600061F0232B242B252B21F408950A2609F425
:104E7000A140A6958FEF811D811D08950BD07BC0A9
:104E80006CD028F071D018F0952309F05DC062C095
:104E90001124A5C081D0A0F3959FD1F3950F50E0C8
:104EA000551F629FF001729FBB27F00DB11D639FDC
:104EB000AA27F00DB11DAA1F649F6627B00DA11D82
:104EC000661F829F2227B00DA11D621F739FB00D28
:104ED000A11D621F839FA00D611D221F749F332798
:104EE000A00D611D231F849F600D211D822F762F31
:104EF0006A2F11249F5750408AF0E1F088234AF02E
:104F0000EE0FFF1FBB1F661F771F881F9150504079
:104F1000A9F79E3F510570F017C061C05F3FECF3E9
:104F2000983EDCF3869577956795B795F795E79565
:104F30009F5FC1F7FE2B880F911D9695879597F976
:104F4000089599278827089597F99F6780E870E06A
:104F500060E008959FEF80EC089500240A941616EF
:104F6000170618060906089500240A941216130657
:104F7000140605060895092E0394000C11F48823E5
:104F800052F0BB0F40F4BF2B11F460FF04C06F5F01
:104F90007F4F8F4F9F4F089557FD9058440F551FD7
:104FA00059F05F3F71F04795880F97FB991F61F0AB
:104FB0009F3F79F087950895121613061406551F22
:104FC000F2CF4695F1DF08C0161617061806991F8E
:104FD000F1CF86957105610508940895E894BB2783
:104FE00066277727CB0197F90895052E97FB16F4CE
:104FF00000940FD057FD05D024D007FC02D046F412
:1050000008C050954095309521953F4F4F4F5F4FC9
:10501000089590958095709561957F4F8F4F9F4F24
:10502000089531D0A59F900DB49F900DA49F800D41
:10503000911D11240895B7FFF4CFF3DF821B930B6A
:105040000895A1E21A2EAA1BBB1BFD010DC0AA1FC9
:10505000BB1FEE1FFF1FA217B307E407F50720F0E1
:10506000A21BB30BE40BF50B661F771F881F991F5C
:105070001A9469F760957095809590959B01AC01A5
:10508000BD01CF010895A29FB001B39FC001A39FAE
:10509000700D811D1124911DB29F700D811D112471
:1050A000911D08955058BB27AA270ED064CF55DF15
:1050B00030F05ADF20F031F49F3F11F41EF44ACF54
:1050C0000EF4E095E7FB40CFE92F66DF80F3BA17D7
:1050D000620773078407950718F071F49EF57ECF79
:1050E0000EF4E0950B2EBA2FA02D0B01B901900103
:1050F0000C01CA01A0011124FF27591B99F0593F47
:1051000050F4503E68F11A16F040A22F232F342F8E
:105110004427585FF3CF469537952795A795F040DC
:105120005395C9F77EF41F16BA0B620B730B840BF1
:10513000BAF09150A1F0FF0FBB1F661F771F881FA9
:10514000C2F70EC0BA0F621F731F841F48F4879501
:1051500077956795B795F7959E3F08F0B3CF9395F0
:10516000880F08F09927EE0F979587950895F5DE3B
:1051700058F080E891E009F49EEFF6DE28F040E870
:1051800051E059F45EEF09C0E5CE28CFE92FE07871
:1051900003DF68F3092E052AC1F3261737074807EE
:1051A000590738F00E2E07F8E02569F0E025E06495
:1051B0000AC0EF6307F8009407FADB01B9019D010B
:1051C000DC01CA01AD01EF9346D0D5DE0AD05F9174
:1051D000552331F02BED3FE049E450FD49EC63CF1E
:1051E0000895DF93DD27B92FBF7740E85FE31616F8
:1051F000170648075B0710F4D92F19D19F938F9397
:105200007F936F9363D1E8E6F1E0AFD0B4DE2F91E6
:105210003F914F915F913EDEDD2349F09058A2EA25
:105220002AED3FE049EC5FE3D0785D274DDFDF9169
:10523000A2CEC1D0E395E6C00CD09DCE95DE40F065
:105240008CDE30F021F45F3F19F07ECE5111C7CED5
:1052500081CEA2DE98F39923C9F35523B1F3951BB0
:10526000550BBB27AA2762177307840738F09F5F87
:105270005F4F220F331F441FAA1FA9F333D00E2EF6
:105280003AF0E0E830D091505040E695001CCAF763
:1052900029D0FE2F27D0660F771F881FBB1F261728
:1052A00037074807AB07B0E809F0BB0B802DBF01FB
:1052B000FF2793585F4F2AF09E3F510568F044CE78
:1052C0008ECE5F3FECF3983EDCF38695779567953D
:1052D000B795F7959F5FC9F7880F911D96958795AC
:1052E00097F90895E1E0660F771F881FBB1F6217CB
:1052F00073078407BA0720F0621B730B840BBA0B89
:10530000EE1F88F7E095089504D06894B11167CE38
:1053100008954ADE88F09F5790F0B92F9927B7512A
:10532000A0F0D1F0660F771F881F991F1AF0BA9569
:10533000C9F712C0B13081F051DEB1E008954ECE10
:10534000672F782F8827B85F39F0B93FCCF386955F
:1053500077956795B395D9F73EF4909580957095BC
:1053600061957F4F8F4F9F4F0895DF93CF931F938A
:105370000F93FF92EF92DF927B018C01689405C03E
:10538000DA2EEF0187DDFE01E894A5912591359194
:1053900045915591AEF3EF0197DEFE019701A8010B
:1053A000DA9479F7DF90EF90FF900F911F91CF91F2
:1053B000DF910895CFCDF8DDE8F3E894E0E0BB2776
:1053C0009F57F0F02AED3FE049EC06C0EE0FBB0F0F
:1053D000661F771F881F28F0B23A62077307840799
:1053E00028F0B25A620B730B840BE3959A9572F70F
:1053F000803830F49A95BB0F661F771F881FD2F74D
:10540000904869C0EF93E0FF06C0A2EA2AED3FE0B2
:1054100049EC5FEB59DEAFDD0F90039401FC90582F
:10542000E5E9F1E06BC006DD08F48FEF08959B011C
:10543000AC0160E070E080E89FE3FECE9F93BBDFAD
:105440000F9007FCEE5FDECF11F40EF483CD41C068
:10545000ABDDD0F39923D9F3CEF39F57550B87FFDC
:1054600046D00024A0E640EA9001805856959795D2
:1054700028F4805C660F771F881F20F026173707F7
:10548000480730F4621B730B840B202931294A2B07
:10549000A69517940794202531254A2758F7660FBB
:1054A000771F881F20F026173707480730F4620B54
:1054B000730B840B200D311D411DA09581F7B9019F
:1054C000842F9158880F9695879508959B01AC017C
:1054D000D5CC9F3F31F0915020F487957795679513
:1054E000B795880F911D9695879597F908959150D6
:1054F0005040660F771F881FD2F708959F938F93B0
:105500007F936F93FF93EF939B01AC01B7DCEF9117
:10551000FF912BDF2F913F914F915F91AFCCDB013A
:105520008F939F937EDDBF91AF91A29F800D911DC0
:10553000A39F900DB29F900D1124089597FB072E05
:1055400016F4009406D077FD08D013D007FC05D0E0
:105550003EF4909581959F4F0895709561957F4F8A
:105560000895EE0FFF1F881F8BBF0790F691E02D67
:105570001994AA1BBB1B51E107C0AA1FBB1FA6178A
:10558000B70710F0A61BB70B881F991F5A95A9F7EC
:1055900080959095BC01CD010895CF93DF93823023
:1055A000910510F482E090E0E0918107F09182078C
:1055B00020E030E0C0E0D0E0309711F1408151812F
:1055C00048175907C0F04817590761F48281938141
:1055D000209719F09B838A832BC090938207809336
:1055E000810726C02115310519F04217530718F419
:1055F0009A01BE01DF01EF010280F381E02DDCCFD3
:105600002115310509F1281B390B2430310590F49F
:1056100012968D919C9113976115710521F0FB01F4
:105620009383828304C09093820780938107FD0156
:10563000329644C0FD01E20FF31F819391932250F3
:1056400031092D933C933AC020917F073091800718
:10565000232B41F4209116023091170230938007DA
:1056600020937F07209114023091150221153105F6
:1056700041F42DB73EB74091180250911902241BF6
:10568000350BE0917F07F0918007E217F307A0F454
:105690002E1B3F0B2817390778F0AC014E5F5F4F88
:1056A0002417350748F04E0F5F1F50938007409333
:1056B0007F078193919302C0E0E0F0E0CF01DF919A
:1056C000CF9108950F931F93CF93DF93009709F421
:1056D0008CC0FC01329713821282009181071091D5
:1056E00082070115110581F420813181820F931FFA
:1056F00020917F07309180072817390779F5F093BB
:105700008007E0937F0771C0D80140E050E0AE17FA
:10571000BF0750F412962D913C911397AD012115BE
:10572000310509F1D901F3CF9D01DA0133832283D9
:1057300060817181860F971F8217930769F4EC01CE
:1057400028813981260F371F2E5F3F4F31832083F9
:105750008A819B8193838283452B29F4F09382076E
:10576000E093810742C01396FC93EE931297ED01EC
:10577000499159919E01240F351FE217F30771F4E7
:1057800080819181840F951F029611969C938E9330
:105790008281938113969C938E931297E0E0F0E0C0
:1057A000D80112968D919C911397009719F0F801EA
:1057B0008C01F6CF8D919C9198012E5F3F4F820F07
:1057C000931F20917F07309180072817390769F4CC
:1057D000309729F4109282071092810702C0138239
:1057E00012821093800700937F07DF91CF911F9162
:1057F0000F9108956F927F928F929F92AF92BF9276
:10580000CF92DF92EF92FF920F931F93CF93DF938C
:10581000EC01009781F4CB01DF91CF911F910F91A3
:10582000FF90EF90DF90CF90BF90AF909F908F90C0
:105830007F906F90B2CEFC01E60FF71F9C012250C3
:105840003109E217F30708F4A8C0D9010D911C91A2
:10585000119706171707A8F00530110508F49BC02B
:10586000C80104978617970708F495C002501109DC
:10587000061B170B019311936D937C93CF0122DFCD
:105880008AC05B01A01AB10A4C01800E911EA09142
:105890008107B091820740E050E0E12CF12C109795
:1058A00009F44AC0A815B905D1F56D907C901197FF
:1058B000630182E0C80ED11CCA14DB0480F1A3018D
:1058C0004A195B096A0182E0C80ED11C1296BC908D
:1058D00012971396AC91B5E0CB16D10440F0B2828A
:1058E000A38351834083D9016D937C930AC00E5FDB
:1058F0001F4FC301800F911FF90191838083EB2D0E
:10590000FA2FE114F10431F0D7011396FC93EE93D2
:10591000129741C0F0938207E09381073CC08D91BC
:105920009C9111974817590708F4AC017D01129614
:105930000D90BC91A02DB3CF80917F0790918007EF
:1059400088159905E1F446175707C8F480911402A9
:1059500090911502009741F48DB79EB740911802BF
:1059600050911902841B950BE817F907B0F4F093D6
:105970008007E0937F07F901718360830CC0CB013E
:105980000CDE7C01009749F0A801BE011BD0CE01BE
:1059900099DEC70104C0CE0102C080E090E0DF9133
:1059A000CF911F910F91FF90EF90DF90CF90BF901C
:1059B000AF909F908F907F906F90089581E090E0DE
:1059C000F894FCC2FB01DC0102C001900D92415031
:1059D0005040D8F70895FC018191861721F0882363
:1059E000D9F7992708953197CF010895FB01DC017C
:1059F0008D91019080190110D9F3990B0895FB0145
:105A0000DC0101900D920020E1F70895FB01DC011B
:105A10004150504048F001900D920020C9F701C05C
:105A20001D9241505040E0F708950F931F93CF937C
:105A3000DF93CDB7DEB72E970FB6F894DEBF0FBE5B
:105A4000CDBF0E891F8986E08C831A8309838FEF6F
:105A50009FE79E838D83AE01465E5F4F688D798D93
:105A6000CE01019611D02F813885F801E20FF31F86
:105A700010822E960FB6F894DEBF0FBECDBFDF9119
:105A8000CF911F910F9108952F923F924F925F9265
:105A90006F927F928F929F92AF92BF92CF92DF923E
:105AA000EF92FF920F931F93CF93DF93CDB7DEB7A3
:105AB0002C970FB6F894DEBF0FBECDBF7C016B01F3
:105AC0008A01FC0117821682838181FFB0C1CE0159
:105AD00001964C01F7019381F60193FD859193FFA7
