:10000000DEC100004EC5000021C50000F4C40000A0
:10001000C7C400009AC400006DC4000040C40000C2
:1000200013C40000FDC10000FBC10000F9C10000C5
:10003000F7C10000F5C10000F3C10000F1C10000EC
:10004000EFC1000017C60000EBC10000E9C10000CD
:10005000E7C10000E5C10000E3C100000C9471118C
:10006000DFC10000D1C50000A6C50000D9C1000055
:10007000D7C10000D5C10000D3C10000D1C100002C
:10008000CFC10000CDC10000CBC10000C9C100003C
:100090005CC5000031C50000C3C100000C94FA1516
:1000A000BFC10000BDC10000BBC10000B9C100005C
:1000B000B7C10000B5C10000B3C10000B1C100006C
:1000C000AFC10000ADC10000ABC10000A9C100007C
:1000D000A7C10000A5C10000A3C10000A1C100008C
:1000E0009FC100006E0B800B830B8A0B910BBF0B23
:1000F000C60BD30BE00BEC0BEC0BEC0BEC0BEC0B93
:10010000EC0BEC0BEC0BEC0BEC0BEC0BEC0BEC0B37
:10011000EC0BEC0BEC0BEC0BEC0BEC0BEC0BEC0B27
:10012000EC0BEC0B6E0B7B0B800B830B8A0B910B98
:10013000980BA50BB20B140FF10EF80EFF0E060F65
:100140001B0F220F810F840F730F770F7D0FBB0FD3
:10015000880F8C0F920F960F9A0FA00FA40FA80F65
:10016000BB0FAE0FB20FB60F084AD73B3BCE016EA6
:1001700084BCBFFDC12F3D6C74319ABD56833DDAFE
:100180003D00C77F11BED9E4BB4C3E916BAAAABE0D
:10019000000000803F0000407A10F35A00A0724E29
:1001A00018090010A5D4E80000E87648170000E41C
:1001B0000B54020000CA9A3B000000E1F505000064
:1001C00080969800000040420F000000A0860100C9
:1001D0000000102700000000E80300000000640099
:1001E000000000000A000000000001000000000004
:1001F0002C76D888DC674F0823DFC1DFAE59E1B128
:10020000B796E5E3E453C63AE651997696E8E6C236
:100210008426EB898C9B62ED407C6FFCEFBC9C9F3D
:1002200040F2BAA56FA5F490055A2AF75C936B6C5F
:10023000F9676DC11BFCE0E40D47FEF520E6B50053
:10024000D0ED902E0300943577050080841E0800C1
:1002500000204E0A000000C80C333333330F986E71
:1002600012831141EF8D2114893BE65516CFFEE62E
:10027000DB18D1844B381BF77C1D901DA4BBE424F4
:10028000203284725E228100C9F124ECA1E53D2771
:10029000000020002300260029002C002F0032003F
:1002A0000001000003010601090172740492740444
:1002B00048940478C40C00002100240027002A0080
:1002C0002D003000330001010000040107010A0184
:1002D00000002200250028002B002E0031003400F1
:1002E00002010000050108010B01050505050705D0
:1002F00008080808020202020A0A080804040404A2
:1003000001010101010101010303030303030303CD
:10031000040707070C0C0C0C0C0C0C0C020202025C
:1003200006060606060606060B0B0B0B0B0B0B0B45
:1003300001021020200808102040102040800201F7
:1003400002010804020101020408102040808040DC
:1003500020100804020180040201804020100804DB
:100360000201080402010102040810204080010279
:1003700004081020408000000A0B02090C0D0E0832
:10038000070304010000000000000000000000005E
:10039000000000000000000000000000000000005D
:1003A000000012111000000000000000000000001A
:1003B0000000000000000000000000006C19112483
:1003C0001FBECFEFD1E2DEBFCDBF00E00CBF12E019
:1003D000A0E0B2E0ECE7F6E400E00BBF02C007905B
:1003E0000D92A83EB107D9F726E0A8EEB2E001C011
:1003F0001D92A53EB207E1F711E0CFEDD1E000E09C
:1004000006C021970109802FFE010E94F320CE3DF6
:10041000D10780E00807A9F70E94D4170C943C2369
:10042000EFCD0895CF92DF92EF92FF920F931F933B
:10043000CF93DF936C017A018B01C0E0D0E0CE1541
:10044000DF0581F0D8016D918D01D601ED91FC9110
:100450000190F081E02DC6011995892B11F02196AC
:10046000EECF7E01C701DF91CF911F910F91FF90D9
:10047000EF90DF90CF900895FC01538D448D252F90
:1004800030E0842F90E0821B930B541710F0CF962E
:10049000089501970895FC01918D828D981761F060
:1004A000828DDF01A80FB11D5D968C91928D9F5FAB
:1004B0009F73928F90E008958FEF9FEF0895FC0156
:1004C000918D828D981731F0828DE80FF11D858D09
:1004D00090E008958FEF9FEF0895FC01918D228D9C
:1004E000892F90E0805C9F4F821B91098F73992721
:1004F00008958BEB93E0F1DF21E0892B09F420E0F4
:10050000822F089588E594E0E8DF21E0892B09F443
:1005100020E0822F0895FC01848DDF01A80FB11D1A
:10052000A35ABF4F2C91848D90E001968F73992729
:10053000848FA689B7892C93A089B1898C91837007
:1005400080648C93938D848D981306C00288F38900
:10055000E02D80818F7D80830895EF92FF920F932D
:100560001F93CF93DF93EC0181E0888F9B8D8C8D5F
:10057000981305C0E889F989808185FD25C0F62E8C
:100580000B8D10E00F5F1F4F0F731127E02E8C8D26
:10059000E8120BC00FB607FCFACFE889F989808111
:1005A00085FFF5CFCE01B7DFF2CF8B8DFE01E80FCF
:1005B000F11DE35AFF4FF0829FB7F8940B8FEA8941
:1005C000FB89808180620AC09FB7F894EE89FF8919
:1005D0006083E889F98980818370806480839FBF0C
:1005E00081E090E0DF91CF911F910F91FF90EF900C
:1005F0000895CF93DF93EC01888D8823C1F0EA89B9
:10060000FB89808185FD05C0A889B9898C9186FD0B
:100610000EC00FB607FCF5CF808185FFF2CFA88909
:10062000B9898C9185FFEDCFCE0175DFE8CFDF91E1
:10063000CF91089580E090E0892B19F063DF81115C
:1006400020C080E090E0892B19F053DF81111CC09D
:1006500080E090E0892B41F080E090E0892B21F050
:100660000E940000811113C080E090E0892BA1F06E
:1006700080E090E0892B81F00E94000081110AC087
:1006800008950E940000DDCF0E940000E1CF0E948B
:100690000000EACF0C94000008958BEF0895CF92EC
:1006A000DF92EF92FF920F931F93CF93DF93EC01B2
:1006B0007B018A01E881F9810280F381E02D19959F
:1006C000D82E882331F1E114F104D9F00115110578
:1006D000C1F0CFB6F8948F8D90E00397F801208198
:1006E00030E0281739071CF08F8D84508083F80183
:1006F000408150E0BE016C5D7F4FC7010E94142312
:10070000CFBE8FB7F894FE01E15EFE4F10821F8EC0
:100710008FBF8D2DDF91CF911F910F91FF90EF90A3
:10072000DF90CF9008958091ED029091EE020097B6
:1007300011F00C94EA0F08958091EB029091EC0275
:10074000009711F00C94EA0F08958091E9029091BE
:10075000EA02009711F00C94EA0F08950F931F938B
:10076000CF93DF93EC0188819981009729F02A814A
:100770003B812617370788F48B016F5F7F4F0E94FC
:100780003022009761F0998388831B830A832C8130
:100790003D81232B11F4FC01108281E001C080E037
:1007A000DF91CF911F910F910895CF93DF93EC01CB
:1007B00088819981009711F00E94A72119821882DF
:1007C0001D821C821B821A82DF91CF910895EF92C5
:1007D000FF920F931F93CF93DF93CDB7DEB7A1970F
:1007E0000FB6F894DEBF0FBECDBF7C01CB01BA01BE
:1007F000F70111821082138212821582148242E064
:10080000420F8E010F5F1F4F0E94AC1A009769F0D4
:10081000FC0101900020E9F73197AF01481B590B0B
:10082000BC01C7010E94011202C0C701BEDFA19630
:100830000FB6F894DEBF0FBECDBFDF91CF911F91F1
:100840000F91FF90EF9008951F920F920FB60F92A5
:1008500011240BB60F922F933F934F935F936F9397
:100860007F938F939F93AF93BF93EF93FF93E09109
:100870000E02F0910F021995FF91EF91BF91AF9188
:100880009F918F917F916F915F914F913F912F91A8
:100890000F900BBE0F900FBE0F901F9018951F92D8
:1008A0000F920FB60F9211240BB60F922F933F9316
:1008B0004F935F936F937F938F939F93AF93BF9368
:1008C000EF93FF93E0910C02F0910D021995FF91C7
:1008D000EF91BF91AF919F918F917F916F915F91B8
:1008E0004F913F912F910F900BBE0F900FBE0F9025
:1008F0001F9018951F920F920FB60F9211240BB6EE
:100900000F922F933F934F935F936F937F938F93A8
:100910009F93AF93BF93EF93FF93E0910202F09107
:1009200003021995FF91EF91BF91AF919F918F9124
:100930007F916F915F914F913F912F910F900BBEDF
:100940000F900FBE0F901F9018951F920F920FB629
:100950000F9211240BB60F922F933F934F935F93F7
:100960006F937F938F939F93AF93BF93EF93FF9377
:10097000E0910002F09101021995FF91EF91BF9172
:10098000AF919F918F917F916F915F914F913F9127
:100990002F910F900BBE0F900FBE0F901F901895C8
:1009A0001F920F920FB60F9211240BB60F922F9336
:1009B0003F934F935F936F937F938F939F93AF93E7
:1009C000BF93EF93FF93E0910A02F0910B02199508
:1009D000FF91EF91BF91AF919F918F917F916F9117
:1009E0005F914F913F912F910F900BBE0F900FBED3
:1009F0000F901F9018951F920F920FB60F9211240F
:100A00000BB60F922F933F934F935F936F937F9308
:100A10008F939F93AF93BF93EF93FF93E09108025F
:100A2000F09109021995FF91EF91BF91AF919F91BC
:100A30008F917F916F915F914F913F912F910F9087
:100A40000BBE0F900FBE0F901F9018951F920F9224
:100A50000FB60F9211240BB60F922F933F934F9323
:100A60005F936F937F938F939F93AF93BF93EF9316
:100A7000FF93E0910602F09107021995FF91EF9123
:100A8000BF91AF919F918F917F916F915F914F91A6
:100A90003F912F910F900BBE0F900FBE0F901F90A4
:100AA00018951F920F920FB60F9211240BB60F924A
:100AB0002F933F934F935F936F937F938F939F9366
:100AC000AF93BF93EF93FF93E0910402F09105027F
:100AD0001995FF91EF91BF91AF919F918F917F9168
:100AE0006F915F914F913F912F910F900BBE0F909F
:100AF0000FBE0F901F9018951F920F920FB60F9276
:100B000011240BB60F922F933F934F935F936F93E4
:100B10007F938F939F93AF93BF93EF93FF938BEB51
:100B200093E0F9DCFF91EF91BF91AF919F918F918D
:100B30007F916F915F914F913F912F910F900BBEDD
:100B40000F900FBE0F901F9018951F920F920FB627
:100B50000F9211240BB60F922F938F939F93EF93C5
:100B6000FF93E091CB03F091CC038081E091D1031E
:100B7000F091D20382FD12C090818091D4038F5FE7
:100B80008F732091D503821751F0E091D403F0E0E8
:100B9000E554FC4F958F8093D40301C08081FF9171
:100BA000EF919F918F912F910F900BBE0F900FBEE1
:100BB0000F901F9018951F920F920FB60F9211244D
:100BC0000BB60F922F933F934F935F936F937F9347
:100BD0008F939F93AF93BF93EF93FF9388E594E038
:100BE0009ADCFF91EF91BF91AF919F918F917F918F
:100BF0006F915F914F913F912F910F900BBE0F908E
:100C00000FBE0F901F9018951F920F920FB60F9264
:100C100011240BB60F922F938F939F93EF93FF9313
:100C2000E0916804F09169048081E0916E04F09194
:100C30006F0482FD12C09081809171048F5F8F7369
:100C400020917204821751F0E0917104F0E0E85AAB
:100C5000FB4F958F8093710401C08081FF91EF91CC
:100C60009F918F912F910F900BBE0F900FBE0F9001
:100C70001F9018951F920F920FB60F9211240BB66A
:100C80000F922F933F934F935F936F937F938F9325
:100C90009F93AF93BF93CF93DF93EF93FF93809195
:100CA000020090910300049709F0C5C020911B0039
:100CB00030E0F901EA58FC4F8491F901E05DFC4F06
:100CC000D491F901E651FD4FC491CC2379F0811103
:100CD0000E94660FEC2FF0E0EE0FFF1FE057FD4F74
:100CE000A591B491EC91ED2381E009F480E081704D
:100CF00090911E00892719F093B19F5F93B992B12B
:100D0000981759F094B1903510F09DE101C09BE027
:100D100024B1920F94B982B903C084B18C5E84B9B6
:100D200084B1803A08F4DAC086B197B19695879578
:100D300097B986B983B1853028F086B197B19860AC
:100D400097B986B984B1805A84B913B885B188231C
:100D500009F465C088B18F5F88B98C3008F4BEC0D3
:100D600086B197B1982F9F73892F86958695887045
:100D700028E0280F281749F0E82FF0E0E65EFD4F45
:100D80003081931719F08F5FF5CF80E020E1829FCB
:100D9000C001112426B137B196E0369527959A9572
:100DA000E1F7422F3695279536952795287038E03C
:100DB000320F321749F0E22FF0E0E65EFD4F50812E
:100DC000451719F02F5FF5CF20E0822B90916D0031
:100DD0009923B1F0E0916D0091E09E0F90936D002A
:100DE000F0E081A790916D0080916C009817A8F0B9
:100DF00015B881E080B980E090E00E94290F0DC015
:100E000080936C0090916C00973008F45DC09091D5
:100E10006C00943408F058C0DDCF18B85FC086B1BC
:100E200097B188339B4009F059C081E085B918B863
:100E300010926D0053C080910200909103000397BF
:100E400009F04CC08091700091E0980F9093700071
:100E5000811133C0E0916E008091FF00E81768F0C7
:100E600080E090E0F6D780911400909115000196F3
:100E7000909315008093140020C0F0E0EF58FF4FCE
:100E8000608170E080916F0091E0980F90936F0007
:100E900002C0759567958A95E2F7617080911C0094
:100EA0000E94BC0F80916F00863038F010926F0066
:100EB00080916E008F5F80936E008091700088300B
:100EC00068F0109270000AC015B8809110009091DF
:100ED000110001969093110080931000FF91EF9103
:100EE000DF91CF91BF91AF919F918F917F916F9142
:100EF0005F914F913F912F910F900BBE0F900FBEBE
:100F00000F901F901895FF920F931F93CF93DF932D
:100F1000EC01162FF42E0FB7F894898D9A8DDC0111
:100F2000ED91FC910088F189E02D199560E08B8DA1
:100F30000E94BC0F898D9A8D612F6068DC01ED9154
:100F4000FC910190F081E02D1995182F898D9A8DD3
:100F5000DC01ED91FC910190F081E02D6F2D199550
:100F600061E08B8D0E94BC0F898D9A8DDC01ED9123
:100F7000FC910288F389E02D19950FBF812FDF9135
:100F8000CF911F910F91FF900895CF93DF93EC01C4
:100F90008A819B81059761F047E061E0CE01B3DF74
:100FA00040E860E4CE01AFDF85E090E09B838A8378
:100FB0008A819B810597E1F38E89DF91CF91089516
:100FC000CF93DF93FC01228133812130310541F041
:100FD000EC0140E061E097DF81E090E09B838A8351
:100FE00081E0DF91CF910895BF92CF92DF92EF928F
:100FF000FF920F931F93CF93DF934C3F10F0E12CA0
:1010000076C0142F072FF62EEC01E881F9810484B5
:10101000F585E02D1995CE01B9D6E881F9810288D0
:10102000F389E02DCE011995E82E882341F340E0A5
:101030006DE0CE0168DF4A8560E0CE0164DF4B855C
:1010400060E0CE0160DF4C8560E0CE015CDF4D8565
:1010500060E0CE0158DFBFB6F894898D9A8DDC012F
:10106000ED91FC910088F189E02D199560E08B8D60
:1010700083D7898D9A8DDC01ED91FC910190F081EF
:10108000E02D60E81995CF2CD02E012F015068F08B
:10109000898D9A8DF60161916F01DC01ED91FC91D2
:1010A0000190F081E02D1995F1CF61E08B8D64D72F
:1010B000898D9A8DDC01ED91FC910288F389E02DF8
:1010C0001995BFBE44E0410F62E2CE011CDF8A8168
:1010D0009B81039761F043E061E0CE0114DF40E4BF
:1010E00060E4CE0110DF83E090E09B838A838E2D45
:1010F000DF91CF911F910F91FF90EF90DF90CF90F4
:10110000BF900895CF93DF93FC0122813381233078
:101110003105A9F0EC0182819381049761F045E0EB
:1011200061E0CF01F0DE40E060E4CE01ECDE84E07F
:1011300090E09B838A83C15EDE4F888101C080E09E
:10114000DF91CF9108950F931F93CF93DF93EC011D
:10115000162F0FB7F89460E08B8D0ED7898D9A8D7E
:10116000612F6F77DC01ED91FC910190F081E02D12
:101170001995898D9A8DDC01ED91FC910190F0819A
:10118000E02D60E01995182F61E08B8DF5D60FBF2B
:10119000812FDF91CF911F910F910895EF92FF92D0
:1011A0000F931F93CF93DF9300D0CDB7DEB78C01A1
:1011B0000E949013F82E811102C0F12CA0C0D8011A
:1011C0005D968C91823059F0833061F09EEE980FDD
:1011D000943098F767E170E0681B710905C060E022
:1011E00070E002C061E070E0E62ED80159968D9162
:1011F0009C915A97DC01ED91FC910488F589E02DD2
:10120000199540E861E0C8017EDE6AE070E080E0A8
:1012100090E00E942D1161E0C80195DF803869F6E9
:1012200060E0F801858DDDD7D8015E968C915E97E0
:101230008F3F59F48091E802843008F0BECF91E0EE
:10124000980F9093E8025E968C93F801868DE82FB4
:10125000F0E0EE0FFF1FE751FD4F11830083811176
:1012600003C065EA73E00AC0813019F46CE973E0E9
:1012700005C0823009F0A1CF63E973E08E2D99D5C6
:1012800040E06EE0C8013FDE40E06FE0C8013BDEB9
:10129000C8017CD543E050E06AEA72E0CE010196D5
:1012A0000E948D1B49816DE1C8012DDE4A816EE1EE
:1012B000C80129DE4B8166E2C80125DE40E060E21C
:1012C000C80121DE48E061E2C8011DDE44EE66E0AF
:1012D000C80119DE40EC67E0C80115DE40E068E0B7
:1012E000C80111DEF801E05EFE4F81E0808344E03A
:1012F0006DE4C80108DE48E869E0C80104DE8F2D0E
:101300000F900F900F90DF91CF911F910F91FF9051
:10131000EF9008952F923F924F925F926F927F923B
:101320008F929F92AF92BF92CF92DF92EF92FF92F5
:101330000F931F93CF93DF93CDB7DEB7A2970FB66E
:10134000F894DEBF0FBECDBF1C01BFD72B013C01FF
:101350008BEB93E0C2D8892B09F4A6C28BEB93E008
:101360009AD88B8F8091C7069091C806A091C90624
:10137000B091CA060196A11DB11D8093C706909336
:10138000C806A093C906B093CA062B8D243209F46F
:1013900067C2E091C106253234F42A3079F02D304D
:1013A00009F06CC20BC03B8D3A3241F03C3209F07F
:1013B00065C28091AE0683278093AE06EF3008F0B9
:1013C00040C2F0E0E055F94F10828091AF068823CB
:1013D00009F41DC12091B0063FEB320F822F022E7F
:1013E000000C990B363010F4C79707C021562630F1
:1013F00018F48755910901C0C097282F2295207FA6
:101400003091B1064FEB430F832F032E000C990B45
:10141000463010F4C79707C03156363018F4875558
:10142000910901C0C097820F9091AE068913DBC06D
:101430008091D3069091D406A091D506B091D6069E
:101440000196A11DB11D8093D3069093D406A0935D
:10145000D506B093D6068091C206882399F0809174
:10146000CB069091CC06A091CD06B091CE06019608
:10147000A11DB11D8093CB069093CC06A093CD0601
:10148000B093CE061091BF061123B1F1113009F0CF
:1014900081C08CE496E00E9405158AE596E00E94E2
:1014A00005158091C206882309F474C087E0EAE339
:1014B000F6E0ACE2B6E001900D928A95E1F787E0A4
:1014C000E1E4F6E0A3E3B6E001900D928A95E1F73E
:1014D000FCD6609348067093490680934A06909321
:1014E0004B0610932B0610932A0688E696E00E947E
:1014F000EF1486E796E04CC08AE596E00E94051559
:101500008091C206882321F187E0EAE3F6E0ACE2AD
:10151000B6E001900D928A95E1F787E0E1E4F6E00C
:10152000A3E3B6E001900D928A95E1F7CED66093E1
:1015300048067093490680934A0690934B0641E013
:1015400040932B0640932A0684E896E00E94EF140D
:1015500080919C0690919D06A0919E06B0919F0659
:101560008093980690939906A0939A06B0939B0651
:10157000ACD66093940670939506809396069093EC
:10158000970651E0509393065093920680EA96E0B6
:101590000E94EF140091C5061091C60601151105B1
:1015A00009F44FC1E091C506F091C60666A177A186
:1015B000D80196968D919C9197970E941D23892B17
:1015C00009F03FC1B801C80140960E9426237DD68C
:1015D000F80160A371A382A393A321E025A324A310
:1015E00002A513A5DBCF8091CF069091D006A091E4
:1015F000D106B091D2060196A11DB11D8093CF06F0
:101600009093D006A093D106B093D2061AC18091D0
:10161000C006811149C064EA72E080EB96E00E9446
:101620001D23892B41F06AEA72E080EB96E00E946C
:101630001D23892B21F431E03093BF0616C060EBE7
:1016400072E080EB96E00E941D23892B41F066EB4F
:1016500072E080EB96E00E941D23892B19F4109212
:10166000BF0603C042E04093BF068091C30690913D
:10167000C4069093C6068093C5060091C5061091D6
:10168000C6060115110509F4DCC060EB76E0D8014F
:1016900096968D919C9197970E941D2397FFCBC0A2
:1016A000F80182A593A5E5CFE091BF06E23009F4E9
:1016B00093C09091B006992309F48EC020E2E29F76
:1016C000F0011124E82B3197E932F10508F084C0CC
:1016D0008827EE58FF4F8F4F0C94F32080EB96E055
:1016E0000E94A21560936006709361068093620663
:1016F0009093630671C081E0913409F043C043C008
:101700006AE376E009C081E0933509F080E08093D8
:10171000400662C061E476E080EB96E00E941B1513
:101720005BC081E0973509F080E08093470654C0A4
:1017300080EB96E00E94A215609372067093730688
:10174000809374069093750647C080EB96E00E94E4
:10175000A215609380067093810680938206909311
:1017600083063AC080EB96E00E94671B60935206A6
:101770007093530680935406909355062DC081E0D4
:1017800091330CF480E08093C20626C080EB96E093
:101790000E94671B60939C0670939D0680939E0633
:1017A00090939F0619C080EB96E00E94A21560936B
:1017B000AA067093AB068093AC069093AD060CC05E
:1017C00080EB96E00E94A21560938E0670938F06C0
:1017D00080939006909391060091C5061091C606DD
:1017E0000115110571F1E091C506F091C60666A1DB
:1017F00077A1D80196968D919C9197970E941D2371
:10180000892BF9F4F80120A531A58091C00690E05C
:1018100082179307B4F02817390739F440E150E0F4
:1018200060EB76E0C8010E942D23D8019A960D91B5
:101830001C919B97D5CF892B21F01092C606109250
:10184000C5068091C0068F5F8093C0061092C106C6
:1018500081E0BB8DBA3209F080E08093AF0678CD8D
:101860001092C1061092C0061092AE06E2E0E0931C
:10187000BF061092AF061092C2066ACDEE3048F451
:1018800081E08E0F8093C106F0E0E055F94F2B8D7B
:1018900020838091AF0681115BCD8091AE063B8D98
:1018A00083278093AE0654CD10D5DC01CB0184197B
:1018B0009509A609B70984369105A105B10508F473
:1018C00047CD10922B0660912E0670912F068091C5
:1018D0003006909131060E94FD1D28E23BE64EE65F
:1018E0005EE40E9436202B013C0160912C06709131
:1018F0002D0680E090E00E94FD1D9B01AC01C3011C
:10190000B2010E94701F20913206222341F09B01F8
:10191000AC0150582F8F38A349A35AA304C06F8F2E
:1019200078A389A39AA360913506709136068091B9
:101930003706909138060E94FD1D28E23BE64EE6F0
:101940005EE40E9436202B013C01609133067091C9
:10195000340680E090E00E94FD1D9B01AC01C301B4
:10196000B2010E94701F209139062B013C012223F5
:1019700021F077FA709477F870946091230660FFF5
:1019800009C0637082E00E94BC1762E470E080E0EE
:1019900090E063D48091290691E09093970380931F
:1019A000B903109298031092BA0363E085EF94E0B4
:1019B00089D681E00E946017809129069091960354
:1019C0009111FCCF91E090939603909395032FEFA4
:1019D000209394031092930325E020939203909315
:1019E000710390917103880F892B8093710380910B
:1019F0007003813061F410927003809171038093C1
:101A0000BB008091BC0083FDF8CF85EC01C085EE62
:101A10008093BC00809196038130E1F38091930321
:101A2000863018F49091930301C096E0E2E7F3E06A
:101A3000A1EFB2E080E0891721F021912D938F5F13
:101A4000FACF1092F0028093EF02AE01495F5F4F30
:101A50005A8F498F863059F169817A81962F872F65
:101A60009C8F8B8F6B817C817627672776270D81F2
:101A70001E81102701271027A0912306B09124066C
:101A8000BE8FAD8FCD0145E0969587954A95E1F7DC
:101A90008770992781309105C9F0D8F0823091057F
:101AA00009F1039739F57195619571091BC08E0194
:101AB0000F5F1F4F85EF94E088D5F80181938F0168
:101AC000298D3A8DE217F307A9F7C6CF7195619575
:101AD0007109072E000C880B990B0E94FF1D6B01EA
:101AE0007C0108C0072E000C880B990B0E94FF1D7B
:101AF0004B015C014D8D5E8D852F9927877099274D
:101B000081309105A1F070F082309105E9F00397E2
:101B100019F566277727601B710B072E000C880BC1
:101B2000990B16C0B801110F880B990B08C06627D6
:101B30007727601B710B072E000C880B990B0E94F6
:101B4000FF1D6B017C0108C0B801110F880B990BB8
:101B50000E94FF1D4B015C018D8D9E8D892F992761
:101B60008695869586958770992781309105B9F07D
:101B700078F08230910509F1039749F56B8D7C8DE2
:101B8000719561957109072E000C880B990B1BC08C
:101B9000AB8DBC8DBD01BB0F880B990B09C06B8D44
:101BA0007C8D719561957109072E000C880B990B3E
:101BB0000E94FF1D6B017C010AC0EB8DFC8DBF01F3
:101BC000FF0F880B990B0E94FF1D4B015C01A701C1
:101BD0009601C501B4010E94E31F209125063091B2
:101BE000260640912706509128060E94701F6B011F
:101BF0007C0120E030E0A9010E94F91D87FF0AC0A6
:101C00002BED3FE049EC50E4C701B6010E94701F84
:101C10006B017C012BED3FE049EC50E4C701B601BC
:101C20000E94C320181654F42BED3FE049EC50E419
:101C3000C701B6010E946F1F6B017C0120E030E0FC
:101C400044E353E4C701B6010E945E1E2BED3FE062
:101C500049E450E40E943620AB01BC018F8D98A16D
:101C6000A9A1BAA18093190390931A03A0931B030F
:101C7000B0931C0340921503509216036092170311
:101C8000709218034093110350931203609313034F
:101C90007093140322E0CE0101960E94E70326E030
:101CA000B301A201CE0107960E94E70326E04F8D03
:101CB00058A169A17AA1CE010D960E94E7031C8A62
:101CC0001B8A1E8A1D8A188E1F8A41E050E06CEB29
:101CD00072E0CE01439695D3BE01635F7F4FCE0184
:101CE00043960E944E176EEB72E073D3BE01695F9C
:101CF0007F4F0E944E1760EC72E06BD3BE016F5FA6
:101D00007F4F0E944E17D10111961C921E9213967E
:101D10001C921E92129715961C921E9214972816CA
:101D2000390651F0FC01608171816115710521F066
:101D300044815581C10165D38B899C890E94A7216B
:101D40008D859E850E94A7218F8198850E94A7215D
:101D500089819A810E94A721C101A2960FB6F894A9
:101D6000DEBF0FBECDBFDF91CF911F910F91FF90CE
:101D7000EF90DF90CF90BF90AF909F908F907F902B
:101D80006F905F904F903F902F900895CF93DF9387
:101D9000FC01228133812230310541F0EC0141E028
:101DA00061E0B1D882E090E09B838A83DF91CF919C
:101DB0000895883008F04CC0A82FB0E0AA0FBB1FD0
:101DC000A050BE4F11967C936E9390E0FC0131972A
:101DD000E730F10510F58827E556FF4F8F4F0C943B
:101DE000F32080916900836080936900E89A0895E8
:101DF000809169008C6080936900E99A08958091D0
:101E00006900806380936900EA9A0895809169006F
:101E1000806C80936900EB9A089580916A008360DA
:101E200080936A00EC9A089580916A008C60809398
:101E30006A00ED9A089580916A00806380936A0039
:101E4000EE9A089580916A00806C80936A00EF9A00
:101E50000895CF93DF93FC01228133812230310535
:101E600059F0EC01678D858D87D060E08C8D84D032
:101E700082E090E09B838A83DF91CF9108953FB702
:101E8000F8948091260390912703A0912803B091A4
:101E9000290326B5A89B05C02F3F19F00196A11D67
:101EA000B11D3FBFBA2FA92F982F8827820F911DF0
:101EB000A11DB11DBC01CD0142E0660F771F881F37
:101EC000991F4A95D1F708950E94102390E0FC01D4
:101ED0003197E231F10508F04EC08827EE55FF4FEB
:101EE0008F4F0C94F320809180008F7703C08091F6
:101EF00080008F7D80938000089580918000877F8F
:101F0000F9CF84B58F7702C084B58F7D84BD0895E5
:101F10008091B0008F7703C08091B0008F7D809357
:101F2000B0000895809190008F7707C08091900055
:101F30008F7D03C080919000877F809390000895EB
:101F40008091A0008F7707C08091A0008F7D03C093
:101F50008091A000877F8093A00008958091200148
:101F60008F7707C0809120018F7D03C08091200171
:101F7000877F8093200108951F93CF93DF93282FAD
:101F800030E0F901EA58FC4F8491F901E05DFC4F23
:101F9000D491F901E651FD4FC491CC23B9F0162F2D
:101FA000811194DFEC2FF0E0EE0FFF1FE053FD4FA7
:101FB000A591B4919FB7F894111104C08C91D0955C
:101FC000D82302C0EC91DE2BDC939FBFDF91CF9131
:101FD0001F910895CF92DF92EF92FF921F93CF93BC
:101FE000DF93EC0162E1AFD8182F6CE1CE01ABD8E2
:101FF0002A813B812430310579F482958695869536
:10200000837091E0892780FBEE24E0F8F12C812F8A
:10201000807AE82AEF2839F48A819B810497C9F4F1
:1020200016FD24C016C0888999890196998B888BE2
:102030004FEF62E1CE010E9483074FEF62E1CE01D4
:10204000DF91CF911F91FF90EF90DF90CF900C9494
:1020500083078A819B81039709F0B7C013FFB5C03E
:102060008C899D8901969D8B8C8BB8C063E1CE01D4
:102070006AD8F82E60E1CE0166D8482F6DE0CE0117
:102080000E948307EFB6F894898D9A8DDC01ED915B
:10209000FC910088F189E02D199560E08B8D6CDF53
:1020A000898D9A8DDC01ED91FC910190F081E02DFC
:1020B00060E019956E01B0E2CB0ED11C1F2D1123EB
:1020C00079F0898D9A8DDC01ED91FC910190F08180
:1020D000E02D60E01995F60181936F011150EFCF6B
:1020E00061E08B8D49DF898D9A8DDC01ED91FC914A
:1020F0000288F389E02D1995EFBEFF8E4FEF62E164
:10210000CE010E94830769E1CE011DD87E01BFED9B
:10211000EB1ABEEFFB0A87FD8D5F85958595F7016C
:1021200080836AE1CE010FD890E09F878E87D70128
:102130002C918E859F8527FF07C0820F911D27FD5B
:102140009A959F878E870BC024E0880F991F2A9548
:10215000E1F76FE070E00E94E0207F876E87FE016C
:10216000E05EFE4F8081882329F08E859F858D5902
:10217000910904C08E859F85845A91099F878E8717
:102180008F8DFE01E15EFE4F843090F088A18E833A
:1021900089A18F838AA188878BA189878D818111ED
:1021A0000CC09E818C81981741F08E818F3F29F061
:1021B0008081882309F43CCF11C08A899B890196CC
:1021C0009B8B8A8B81E08083F3CF8A819B810597EB
:1021D00009F02ECF12FF2CCF11701E8BCE01D6DD51
:1021E00027CFCF93DF9390E0FC01E05DFC4F24917B
:1021F000FC01E651FD4F8491882361F190E0880F46
:10220000991FFC01EA54FD4FC591D491FC01E053A4
:10221000FD4FA591B491611109C09FB7F8948881D1
:10222000209582238883EC912E230BC0623061F4C9
:102230009FB7F8948881322F309583238883EC915F
:102240002E2B2C939FBF06C08FB7F894E8812E2BBE
:1022500028838FBFDF91CF9108958F929F92AF9285
:10226000BF92CF92DF92EF92FF926B017C0107DE6B
:102270004B015C01C114D104E104F104E9F0FFDD7C
:10228000DC01CB0188199909AA09BB09883E934052
:10229000A105B10578F321E0C21AD108E108F108DF
:1022A00088EE880E83E0981EA11CB11CC114D104D5
:1022B000E104F10421F7DECFFF90EF90DF90CF90A3
:1022C000BF90AF909F908F9008952FB7F894609132
:1022D00022037091230380912403909125032FBF43
:1022E00008951F920F920FB60F9211242F933F93D0
:1022F0008F939F93AF93BF93809122039091230379
:10230000A0912403B09125033091210323E0230FF2
:102310002D3720F40196A11DB11D05C026E8230F1D
:102320000296A11DB11D2093210380932203909357
:102330002303A0932403B093250380912603909157
:102340002703A0912803B09129030196A11DB11D77
:102350008093260390932703A0932803B093290327
:10236000BF91AF919F918F913F912F910F900FBE91
:102370000F901F901895EF92FF920F931F93CF939A
:10238000DF936115710511F480E01CC04115510502
:10239000C1F07B01EC018C819D818A01080F191F1E
:1023A000B801CE010E94AE03882371F328813981E0
:1023B0008C819D81B701820F931F0E9426231D836C
:1023C0000C8381E0DF91CF911F910F91FF90EF90EF
:1023D0000895CF93DF93EC016115710559F0FB016E
:1023E00001900020E9F73197AF01461B570BC3DF7F
:1023F000811103C0CE010E94D503CE01DF91CF91A0
:102400000895EF92FF920F931F93CF93DF93EC0108
:102410007B018A01BA010E94AE03811104C0CE0182
:102420000E94D50307C01D830C83B7018881998161
:102430000E942623CE01DF91CF911F910F91FF9033
:10244000EF900895089580916F03882361F09FB7FE
:10245000F89420916F0380916E03213019F48DBBA5
:102460009FBF08958FBF0895FC01208591858091BD
:102470006F03882379F08FB7F89430916F03313070
:1024800039F43DB330936E033DB33DBB8FBF02C003
:1024900080936E032CBD9DBD08959FB7F8948091E5
:1024A0006D03882319F0815080936D0380916D0333
:1024B000811105C08CB58F7B8CBD10926F039FBFBF
:1024C00008958CB58F778CBD08958CB580688CBDD0
:1024D00008956EBD00000DB407FEFDCF8EB50895C2
:1024E000FC01738362830895FC01778366830895FA
:1024F000FC0175836483089508950895FC0184891F
:1025000095890895FC01828993890895FC01808949
:102510009189089580E00895FC0173836283089592
:10252000FC01828193810895FC0186859785089539
:10253000FC0181850895FC0180850895FC01878157
:102540000895FC0186810895FC01409595854923F5
:10255000642B65870895FC0164870895FC016387F7
:102560000895FC0162870895FC0164830895FC01CD
:1025700065830895FC012281338123303105D1F335
:1025800081E00895CF93DF93EC01E881F981028027
:10259000F381E02DCE0119958823B9F3DF91CF9116
:1025A000089581E00895089508950895E091F00256
:1025B0008091EF02E81730F4F0E0EF50FD4F80819A
:1025C00090E008958FEF9FEF08959091F002809131
:1025D000EF02981750F4E92FF0E0EF50FD4F208103
:1025E00030E09F5F9093F00202C02FEF3FEFC901F0
:1025F00008958091EF0290E02091F002821B9109F2
:10260000089580E090E0089585ED8093BC0080916E
:10261000BC0084FDFCCF10929603089540914A03BC
:10262000262F30E0240F311D21323105DCF42091BA
:1026300096032430C9F4FC0180E090E0861758F43A
:1026400030914A032191DC01A65DBC4FA30FB11D5F
:102650002C930196F3CF80914A03680F60934A034D
:1026600080E0089581E0089582E00895CF92DF929E
:10267000EF92FF920F931F93CF93DF937C01CB01D7
:102680008A0120919703222389F0EB016B01C40E8C
:10269000D51ECC15DD0561F06991D701ED91FC9156
:1026A0000190F081E02DC7011995F3CF642FB6DFBB
:1026B000C801DF91CF911F910F91FF90EF90DF90B4
:1026C000CF900895CF93DF931F92CDB7DEB7698384
:1026D000209197032223D1F02091BA03203240F0B9
:1026E00021E030E0FC013383228380E090E014C0DD
:1026F00080919803E82FF0E0E756FC4F9981908392
:102700008F5F809398038093BA0304C061E0CE0189
:10271000019684DF81E090E00F90DF91CF910895E2
:10272000CF93DF93EC01898D9A8DDC01ED91FC91C3
:102730000680F781E02D199561E08B8D52DD61E017
:102740008B8D1ADC64E670E080E090E086DD81E04D
:10275000DF91CF9108950F931F93CF93FC01828156
:1027600093818430910569F08330910579F082304E
:10277000910589F00197A1F040E452E46FE070E028
:1027800013C040E054E264EF70E00EC040E052E15C
:102790006AE770E009C040E059E06DE370E004C012
:1027A00040E854E86EE170E086819781009771F00F
:1027B0008130910539F08230910531F0039731F481
:1027C0009CE005C094E003C098E001C090E000E008
:1027D00012E12AE730E080E04017510762077307F3
:1027E00040F436952795179507958F5F8630A1F7AA
:1027F00087E021E02827448155814130510511F0BF
:1028000080E501C080E7322F3695932B982B908777
:1028100021702187CFB7F89480916D03811123C077
:10282000EFE1F3E08491E5E6F3E09491E82FF0E046
:10283000EE0FFF1FEA54FD4FA591B491EC91E923EF
:1028400019F461E085E398DB61E085E3CADC8CB5CF
:1028500080618CBD8CB580648CBD61E084E3C1DC9B
:1028600061E083E3BEDC80916D038F5F80936D0335
:10287000CFBFCF911F910F9108958F929F92AF92EA
:10288000BF92CF92DF92EF92FF92CF93DF93EC0152
:102890006B011BDD4B015C01E12CF12C16DDDC0131
:1028A000CB0188199909AA09BB098C159D05AE05AC
:1028B000BF0530F48A819B81039781F381E001C0D9
:1028C00080E0DF91CF91FF90EF90DF90CF90BF90AD
:1028D000AF909F908F9008958F929F92AF92BF92EA
:1028E000CF92DF92EF92FF92CF93DF93EC016B01D7
:1028F000ECDC4B015C01E12CF12CE7DCDC01CB01D1
:1029000088199909AA09BB098C159D05AE05BF0553
:1029100050F4E881F9810280F381E02DCE01199510
:10292000882359F301C080E0DF91CF91FF90EF90B1
:10293000DF90CF90BF90AF909F908F9008958F922F
:102940009F92AF92BF92CF92DF92EF92FF92CF937E
:10295000DF93FC012789308D232B99F1EC01B5DC45
:102960004B015C0189E0C82ED12CE12CF12CE881CF
:10297000F9810488F589E02DCE011995882309F1A4
:10298000A4DCAB01BC01481959096A097B098F898C
:10299000988DA0E0B0E084179507A607B70798F0D8
:1029A00042D6A70196010E94121F9B01AC012F5F26
:1029B0003F4F4F4F5F4FA4E6B0E00E942E1F4DDC0B
:1029C000D6CF81E001C080E0DF91CF91FF90EF9002
:1029D000DF90CF90BF90AF909F908F900895CF934E
:1029E000DF93EC018A859B85AC85BD858E839F83B3
:1029F000A887B9876ADC6A837B838C839D8381E0A7
:102A000089838883DF91CF910895CF93DF93EC0181
:102A10008E819F81A885B9858A839B83AC83BD8382
:102A200054DC6A877B878C879D8781E089838883D4
:102A3000DF91CF9108952F923F924F925F926F92C4
:102A40007F928F929F92AF92BF92CF92DF92EF923E
:102A5000FF920F931F93CF93DF93D82FC92F8B0132
:102A600036D624E630E040E050E00E943E1F4901A7
:102A70005A019B01AC0160E876E988E990E00E9488
:102A8000D1206B017C01F80191828082ED2FFC2F17
:102A90002191822F022E000C990BC0970A97C0F348
:102AA0002E3239F51F0180E8882E86E9982E88E9B4
:102AB000A82EB12C9AE0492E512C612C712CF101D9
:102AC000C1911F010C2E000CDD0BE097CA30D1051F
:102AD00080F4C501B401A30192010E943E1F490187
:102AE0005A01DE010E94381FC60ED71EE81EF91ECD
:102AF000E6CFA5E0B0E0A70196010E942E1F6F5F10
:102B00007F4F8F4F9F4F23E030E040E050E00E9426
:102B10003E1FF80122833383448355831682DF915D
:102B2000CF911F910F91FF90EF90DF90CF90BF90CA
:102B3000AF909F908F907F906F905F904F903F905D
:102B40002F900895FF920F931F93CF93DF93EC0183
:102B5000F8802DE2F21201C02196CE01B8D59B017A
:102B6000AC01A4E6B0E00E942E1FFE014991242F83
:102B7000042E000C330B205331092A303105A8F301
:102B80004E3241F52181022E000C330B20533109C6
:102B90002A303105F8F44AE0429F8001439F100D2E
:102BA0001124012E000C220B330B600F711F821FAA
:102BB000931F0281002E000C110B005311090A30E3
:102BC000110540F4012E000C220B330B600F711F16
:102BD000821F931F2DE2F21207C090958095709589
:102BE00061957F4F8F4F9F4FDF91CF911F910F9135
:102BF000FF9008951F920F920FB60F9211240BB6FB
:102C00000F922F933F934F935F936F937F938F9385
:102C10009F93AF93BF93EF93FF938091B900887F09
:102C2000803609F49CC068F5883209F45BC090F4E2
:102C3000803109F454C038F4882309F4F6C0883090
:102C400009F44DC0F5C0883109F44CC0803209F454
:102C50005DC0EEC0803409F468C048F4803309F4E4
:102C600055C0883309F0E4C080939403D8C0803500
:102C700009F44FC0883509F45DC0883409F0D8C024
:102C8000D6C0883909F4C7C0A8F4883709F467C0EA
:102C900038F4883609F463C0803709F460C0C8C0CE
:102CA000883809F4B8C0803909F45FC0803809F069
:102CB000BFC05BC0803B09F486C038F4803A09F499
:102CC00066C0883A09F47FC0B3C0803C09F4A7C04D
:102CD000883C09F4A4C0883B09F48AC0A9C080914B
:102CE000710310C09091930380919203981770F52F
:102CF000E091930381E08E0F80939303F0E0EE5810
:102D0000FC4F80818093BB0085EC86C08093940348
:102D10008EC0E091930381E08E0F809393038091A6
:102D2000BB00F0E0EE58FC4F8083909193038091BC
:102D300092036EC0E091930381E08E0F8093930322
:102D40008091BB00F0E0EE58FC4F808380919503AA
:102D500081116DC081E08093700384EA61C083E0DB
:102D60008093960310926C03CFCF80916C038032D6
:102D700008F051C0E0916C0381E08E0F80936C03EA
:102D80008091BB00F0E0E45BFC4F8083BDCF85EC1D
:102D90008093BC001092960380916C03803230F4D3
:102DA000E0916C03F0E0E45BFC4F108260916C03F7
:102DB00070E0E0911D03F0911E038CE493E01995FF
:102DC00010926C0335C084E08093960310924B03FD
:102DD00010924A03E0911F03F0912003199580910E
:102DE0004A03811105C081E080934A0310922A03AF
:102DF000E0914B0381E08E0F80934B03F0E0E65DA2
:102E0000FC4F80818093BB0090914B0380914A03DB
:102E1000981708F479CF85E88093BC0009C085EC49
:102E20008093BC001092960303C010929403ECDBD5
:102E3000FF91EF91BF91AF919F918F917F916F9192
:102E40005F914F913F912F910F900BBE0F900FBE4E
:102E50000F901F90189542E050E065EE72E088E513
:102E600094E00C941202CF93DF93009779F0FC0169
:102E700001900020E9F73197AF01481B590BBC01C5
:102E800088E594E00E941202EC0102C0C0E0D0E0AC
:102E9000E2DF8C0F9D1FDF91CF910895CF93DF93D9
:102EA000EC01FB01448155816081718164DA8111FB
:102EB00003C0CE010E94D503CE01DF91CF910895CA
:102EC000282F3091BA03313208F04AC0809196031E
:102ED0008111FCCF9091B90342E040939603209377
:102EE00095032FEF20939403109293033093920352
:102EF000E9E9F3E0A2E7B3E020E0321721F04191E5
:102F00004D932F5FFACF1092710320917103990FA7
:102F1000922B9093710390917003913061F4109211
:102F20007003909171039093BB009091BC0093FD4E
:102F3000F8CF95EC01C095EE9093BC00909196036C
:102F40009230E1F3909194039F3F79F08091940344
:102F5000803241F080919403803331F084E005C0E9
:102F600081E003C082E001C083E0109298031092D8
:102F7000BA03109297030895CF93C62F9091290614
:102F800021E0209397039093B90310929803109235
:102F9000BA03682F85EF94E095DB6C2F85EF94E002
:102FA00091DB81E0CF918CCFCF93DF93CDB7DEB7AC
:102FB000E8970FB6F894DEBF0FBECDBF789484B506
:102FC000826084BD84B5816084BD85B5826085BD25
:102FD00085B5816085BD80916E00816080936E00B3
:102FE00010928100809181008260809381008091A5
:102FF0008100816080938100809180008160809356
:1030000080008091B10084608093B1008091B00015
:1030100081608093B00080919100826080939100E4
:1030200080919100816080939100809190008160F7
:10303000809390008091A10082608093A100809194
:10304000A10081608093A1008091A00081608093A5
:10305000A000809121018260809321018091210153
:103060008160809321018091200181608093200103
:1030700080917A00846080937A0080917A008260E7
:1030800080937A0080917A00816080937A008091A9
:103090007A00806880937A001092C100E091680401
:1030A000F091690422E02083E0916404F0916504CA
:1030B0001082E0916604F091670480E180831092B1
:1030C0007004E0916C04F0916D0496E09083E091BF
:1030D0006A04F0916B04808180618083E0916A04CE
:1030E000F0916B04808188608083E0916A04F091A4
:1030F0006B04808180688083E0916A04F0916B04A6
:1031000080818F7D8083E091CB03F091CC0320837D
:10311000E091C703F091C8031082E091C903F091D8
:10312000CA038FEC80831092D303E091CF03F09118
:10313000D0039083E091CD03F091CE038081806134
:103140008083E091CD03F091CE03808188608083FD
:10315000E091CD03F091CE03808180688083E0917F
:10316000CD03F091CE0380818F7D80831092F00299
:103170001092EF02109298031092BA0310929603E5
:1031800081E0809395031092700361E084E10E94D6
:10319000BC0F61E085E10E94BC0F8091B9008E7F79
:1031A0008093B9008091B9008D7F8093B90088E445
:1031B0008093B80085E48093BC0083ED92E1909306
:1031C000200380931F0384ED92E190931E0380936C
:1031D0001D0388ED99EEA7E9BEE380932506909341
:1031E0002606A0932706B093280680912306909187
:1031F00024068C7F8160909324068093230661E0EF
:1032000082E0BADE8091230690912406837E84605A
:10321000909324068093230660E281E0ADDE8091E6
:103220002306909124068F71907C80689260909321
:1032300024068093230661E08DE00E94F11081E076
:1032400095E00E94CE08811103C084EC92E002C098
:1032500080ED92E008DECE0101960E948A094D8140
:103260005E8169817A8188E594E00E941202F3DD33
:1032700089819A810E94A721CE01C3960E948A0962
:103280000FA918AD0115110511F4198213C00133EE
:10329000110510F001E310E06BA97CA9A801CE0193
:1032A00001960E942D23E1E0F0E0EC0FFD1FE00FFE
:1032B000F11F10828BA99CA90E94A72142E3BE01A5
:1032C0006F5F7F4F81E095E00E94F40781E095E019
:1032D00051D90E941A03BFCFEBEBF3E013821282A5
:1032E00048EE53E060E070E0448355836683778363
:1032F0008EE292E0918380832DEC30E03587248745
:103300002CEC30E03787268728EC30E0318B208B9F
:1033100029EC30E0338B228B2AEC30E0358B248B88
:103320002EEC30E0378B268B118E128E138E148E7E
:10333000E8E5F4E013821282448355836683778341
:103340009183808385EC90E09587848784EC90E07E
:103350009787868780EC90E0918B808B81EC90E062
:10336000938B828B82EC90E0958B848B86EC90E043
:10337000978B868B118E128E138E148EA7EDB6E06E
:1033800013961C921E92129715961C921E921497D9
:1033900017961C921E92169780E492E011969C93C9
:1033A0008E9380E518968C93189719961C9219970E
:1033B000E5EFF4E0138212824483558366837783BA
:1033C0008AE592E091838083EAE2F6E0108211823E
:1033D0001382128214821582168217821086128638
:1033E000118613861486158616861786118A108A0A
:1033F000128A138A148A158A168A108E178A118ED9
:10340000128E138E148E158E12A213A214A215A260
:1034100016A217A210AA11AA12AA13AA14AA15AAD0
:1034200016AE17AE10926E0610926F0610927006CE
:1034300010927106109276061092770610927C0612
:1034400010927D0610927E0610927F0610928406DE
:103450001092850610928A0610928B0610928C06A6
:1034600010928D0610929206109293061092980672
:103470001092990610929A0610929B061092A0063E
:103480001092A1061092A6061092A7061092A80606
:103490001092A9061092AE061092AF0692E0909399
:1034A000BF061092C0061092C1061092C20610927A
:1034B000C4061092C3061092C6061092C50610925A
:1034C000C7061092C8061092C9061092CA0610923A
:1034D000CB061092CC061092CD061092CE0610921A
:1034E000CF061092D0061092D1061092D2061092FA
:1034F000D3061092D4061092D5061092D6061092DA
:10350000B006E3E2F6E0128213821482158225E807
:1035100032E0318320838EE18683E1E0F5E013829F
:1035200012828FEF84838287838714861586118A9F
:10353000108A138A128A158A148A108E178AB28FFB
:10354000A18F2AE0238F2CE632E031832083109272
:103550002006958F868F0895EF920F931F93CF9338
:10356000DF93E80147FD02C034E001C034E1042EDE
:10357000000C550B57FF03C0519541955109E32E9F
:10358000022F242FAE01E7D0CE01DF91CF911F9102
:103590000F91EF9008958F929F92AF92BF92CF922A
:1035A000DF92EF92FF92CF93DF93EC0168817981F4
:1035B0008A819B81611571058105910521F464E281
:1035C00079ED8BE597E02DE133EF41E050E02AD42F
:1035D00049015A019B01AC01A7EAB1E43FD46B0158
:1035E0007C01ACEEB4EFA501940144D4DC01CB0125
:1035F0008C0D9D1DAE1DBF1DB7FF03C00197A10916
:10360000B04888839983AA83BB83BC01CD019F778F
:10361000DF91CF91FF90EF90DF90CF90BF90AF9070
:103620009F908F9008958F929F92AF92BF92CF926A
:10363000DF92EF92FF9260911002709111028091DF
:10364000120290911302611571058105910521F413
:1036500064E279ED8BE597E02DE133EF41E050E056
:10366000E1D349015A019B01AC01A7EAB1E4F6D3C9
:103670006B017C01ACEEB4EFA5019401FBD3DC013E
:10368000CB018C0D9D1DAE1DBF1DB7FF03C0019763
:10369000A109B0488093100290931102A0931202E6
:1036A000B0931302BC01CD019F77FF90EF90DF90A4
:1036B000CF90BF90AF909F908F900895609310022D
:1036C00070931102809312029093130208951F9336
:1036D000FC0199278827BC01E89411911032E9F385
:1036E000193010F01E30C8F31B3249F01D3241F47E
:1036F000689405C01BD0610F711D811D911D119132
:1037000010531A30B8F33EF49095809570956195FA
:103710007F4F8F4F9F4F1F910895FB01DC0102C027
:1037200005900D9241505040D8F70895592F482FD9
:10373000372F262F660F771F881F991F660F771F59
:10374000881F991F620F731F841F951F660F771FB5
:10375000881F991F08958F929F92AF92BF92CF9228
:10376000DF92EF92FF920F931F93CF93DF93CDB72A
:10377000DEB729970FB6F894DEBF0FBECDBF6A0142
:10378000122FB02E2BE3201720F0FF24F394F00E1D
:1037900002C02CE3F22E0F2D27E0AE014F5F5F4FEA
:1037A00050D1BC014981842F8970813031F0E1FC16
:1037B00006C0E0FE06C090E205C09DE203C09BE2A9
:1037C00001C090E05E2D507143FF3CC0911102C0DA
:1037D00083E001C084E0811718F4212F281B01C069
:1037E00020E051110BC0F601822F30E2882319F03E
:1037F00031938150FBCFC20ED11C20E0992329F0D8
:10380000D6019C93F60131966F01C6010396E2FE44
:103810000AC03EE4D6013C9341E411964C931197C3
:1038200012963C9306C03EE6F601308341E64183A2
:103830003283FC01322F40E2332309F442C041932A
:103840003150FACF42FF44C0911102C083E001C061
:1038500084E0811718F4212F281B01C020E05111AA
:103860000BC0F601822F30E2882319F0319381508A
:10387000FBCFC20ED11C20E0992329F0D6019C93E6
:10388000F60131966F01C6010396E2FE0BC039E4E2
:10389000D6013C933EE411963C93119736E4129680
:1038A0003C9307C039E6F60130833EE6318336E6C5
:1038B0003283FC01322F40E2332319F0419331501F
:1038C000FBCFFC01E20FF11D10828EEF9FEFA6C02F
:1038D00021E030E0911102C020E030E0161617061A
:1038E0001CF4FB01319602C0E1E0F0E02E0F3F1F17
:1038F000BB2021F0EB2DF0E0319602C0E0E0F0E0DB
:103900002E0F3F1FE12FF0E02E173F071CF4121B74
:10391000212F01C020E08E2D887159F4F601822FED
:1039200030E2882319F031938150FBCFC20ED11CB5
:1039300020E0992329F0D6019C93F60131966F017E
:1039400051110BC0F601822F90E3882319F0919357
:103950008150FBCFC20ED11C20E00F2D060F9A81A3
:10396000342F307144FF03C0913309F40150101615
:1039700024F4093018F008E001C001E0AB0177FF42
:1039800002C040E050E0FB01E41BF50BA1E0B0E019
:10399000AC0FBD1FEA0FFB1F8EE2A82E4B01801A51
:1039A00091080B2D10E01195019511094F3FBFEFC4
:1039B0005B0721F4D601AC9211966D01641775076F
:1039C0002CF08416950614F4818101C080E34150E7
:1039D00051093196D60111967D014017510724F007
:1039E000D6018C936701E2CF6417750739F49633DB
:1039F00020F4953319F4311101C081E3F60180837D
:103A0000F701822F90E2882319F091938150FBCF28
:103A1000F701E20FF11D108280E090E029960FB6C9
:103A2000F894DEBF0FBECDBFDF91CF911F910F91F4
:103A3000FF90EF90DF90CF90BF90AF909F908F90CE
:103A40000895283008F027E03327DA01990F311D57
:103A500087FD916000966105710539F432602E5F33
:103A60003D9330E32A95E1F708959F3F30F0803889
:103A70007105610509F03C5F3C5F3D93913008F0B2
:103A80008068911DDF93CF931F930F93FF92EF9266
:103A9000192F987F9695E92F96959695E90FFF2710
:103AA000E051FE4F99273327EE24FF24A701E701B9
:103AB00005900894079428F4360FE71EF81E491F56
:103AC000511D660F771F881F991F0694A1F7059057
:103AD000079428F4E70EF81E491F561FC11D770FE3
:103AE000881F991F661F0694A1F70590079428F474
:103AF000F80E491F561FC71FD11D880F991F661F3B
:103B0000771F0694A1F70590079420F4490F561FDC
:103B1000C71FD81F990F661F771F881F0694A9F724
:103B200084911095177041F0D695C7955795479594
:103B3000F794E7941A95C1F7E6E9F1E068941590D7
:103B4000159135916591959105907FE27395E118F6
:103B5000F10A430B560BC90BD009C0F7E10CF11E5B
:103B6000431F561FC91FD01D7EF4703311F48A9570
:103B7000E6CFE894015030F0080F0AF4002702174E
:103B800008F4202F2395022F7A3328F079E37D93D0
:103B90002A95E9F710C07D932A9589F606949795A2
:103BA0006795379517951794E118F10A430B560B53
:103BB000C90BD00998F023957E9173957A3308F05C
:103BC00070E37C932013B8F77E9170617D9330F0A1
:103BD000839571E37D9370E32A95E1F71124EF90CB
:103BE000FF900F911F91CF91DF91992787FD9095BD
:103BF000089540D008F481E00895E89409C097FB47
:103C00003EF490958095709561957F4F8F4F9F4FB3
:103C10009923A9F0F92F96E9BB279395F6958795F7
:103C200077956795B795F111F8CFFAF4BB0F11F4BA
:103C300060FF1BC06F5F7F4F8F4F9F4F16C0882361
:103C400011F096E911C0772321F09EE8872F762F97
:103C500005C0662371F096E8862F70E060E02AF0D8
:103C60009A95660F771F881FDAF7880F96958795C4
:103C700097F90895990F0008550FAA0BE0E8FEEF99
:103C800016161706E807F907C0F012161306E40720
:103C9000F50798F0621B730B840B950B39F40A2619
:103CA00061F0232B242B252B21F408950A2609F4F7
:103CB000A140A6958FEF811D811D08950BD078C07E
:103CC00069D028F06ED018F0952309F05AC05FC073
:103CD0001124A2C07ED0A0F3959FD1F3950F50E0A0
:103CE000551F629FF001729FBB27F00DB11D639FAE
:103CF000AA27F00DB11DAA1F649F6627B00DA11D54
:103D0000661F829F2227B00DA11D621F739FB00DF9
:103D1000A11D621F839FA00D611D221F749F332769
:103D2000A00D611D231F849F600D211D822F762F02
:103D30006A2F11249F5750408AF0E1F088234AF0FF
:103D4000EE0FFF1FBB1F661F771F881F915050404B
:103D5000A9F79E3F510570F014C05EC05F3FECF3C1
:103D6000983EDCF3869577956795B795F795E79537
:103D70009F5FC1F7FE2B880F911D9695879597F948
:103D8000089597F99F6780E870E060E008959FEFDD
:103D900080EC089500240A941616170618060906E2
:103DA000089500240A9412161306140605060895B1
:103DB000092E0394000C11F4882352F0BB0F40F439
:103DC000BF2B11F460FF04C06F5F7F4F8F4F9F4F79
:103DD000089557FD9058440F551F59F05F3F71F0FB
:103DE0004795880F97FB991F61F09F3F79F0879562
:103DF0000895121613061406551FF2CF4695F1DFEB
:103E000008C0161617061806991FF1CF869571057A
:103E1000610508940895E894BB2766277727CB01AE
:103E200097F90895052E97FB16F400940FD057FDCF
:103E300005D024D007FC02D046F408C05095409528
:103E4000309521953F4F4F4F5F4F08959095809546
:103E5000709561957F4F8F4F9F4F089531D0A59FEB
:103E6000900DB49F900DA49F800D911D1124089575
:103E7000B7FFF4CFF3DF821B930B0895A1E21A2E54
:103E8000AA1BBB1BFD010DC0AA1FBB1FEE1FFF1FFE
:103E9000A217B307E407F50720F0A21BB30BE40B4E
:103EA000F50B661F771F881F991F1A9469F7609595
:103EB0007095809590959B01AC01BD01CF0108954F
:103EC000A29FB001B39FC001A39F700D811D11245B
:103ED000911DB29F700D811D1124911D08955058A0
:103EE000BB27AA270ED064CF55DF30F05ADF20F071
:103EF00031F49F3F11F41EF44ACF0EF4E095E7FB36
:103F000040CFE92F66DF80F3BA1762077307840793
:103F1000950718F071F49EF57ECF0EF4E0950B2E08
:103F2000BA2FA02D0B01B90190010C01CA01A0010B
:103F30001124FF27591B99F0593F50F4503E68F166
:103F40001A16F040A22F232F342F4427585FF3CFA7
:103F5000469537952795A795F0405395C9F77EF478
:103F60001F16BA0B620B730B840BBAF09150A1F0C1
:103F7000FF0FBB1F661F771F881FC2F70EC0BA0F47
:103F8000621F731F841F48F4879577956795B795CF
:103F9000F7959E3F08F0B3CF9395880F08F09927C7
:103FA000EE0F979587950895F5DE58F080E891E03B
:103FB00009F49EEFF6DE28F040E851E059F45EEF98
:103FC00009C0E5CE28CFE92FE07803DF68F3092E9A
:103FD000052AC1F3261737074807590738F00E2E70
:103FE00007F8E02569F0E025E0640AC0EF6307F810
:103FF000009407FADB01B9019D01DC01CA01AD01A2
:10400000EF9343D0D5DE0AD05F91552331F02BEDED
:104010003FE049E450FD49EC63CF0895DF93DD278D
:10402000B92FBF7740E85FE31616170648075B070E
:1040300010F4D92FACD09F938F937F936F93AED012
:10404000E8E6F1E07BD0B4DE2F913F914F915F9194
:1040500041DEDD2349F09058A2EA2AED3FE049EC29
:104060005FE3D0785D274DDFDF91A2CE0CD0A0CEEC
:1040700098DE40F08FDE30F021F45F3F19F081CE02
:104080005111CACE84CEA5DE98F39923C9F35523E6
:10409000B1F3951B550BBB27AA276217730784073B
:1040A00038F09F5F5F4F220F331F441FAA1FA9F3F1
:1040B00033D00E2E3AF0E0E830D091505040E695E3
:1040C000001CCAF729D0FE2F27D0660F771F881F44
:1040D000BB1F261737074807AB07B0E809F0BB0B33
:1040E000802DBF01FF2793585F4F2AF09E3F510557
:1040F00068F047CE91CE5F3FECF3983EDCF38695B7
:1041000077956795B795F7959F5FC9F7880F911DCC
:104110009695879597F90895E1E0660F771F881FB8
:10412000BB1F621773078407BA0720F0621B730B6B
:10413000840BBA0BEE1F88F7E0950895DF93CF93B9
:104140001F930F93FF92EF92DF927B018C01689493
:1041500005C0DA2EEF01BEDDFE01E894A5912591A0
:10416000359145915591AEF3EF01CBDEFE019701FC
:10417000A801DA9479F7DF90EF90FF900F911F91EB
:10418000CF91DF91089576DD08F48FEF08959B01BC
:10419000AC0160E070E080E89FE368CF9B01AC0178
:1041A0008DCDDB018F939F9359DEBF91AF91A29F7D
:1041B000800D911DA39F900DB29F900D1124089525
:1041C00097FB072E16F4009406D077FD08D013D085
:1041D00007FC05D03EF4909581959F4F089570950A
:1041E00061957F4F0895EE0FFF1F881F8BBF0790CB
:1041F000F691E02D1994AA1BBB1B51E107C0AA1F21
:10420000BB1FA617B70710F0A61BB70B881F991F77
:104210005A95A9F780959095BC01CD0108950F930B
:104220001F93CF93DF938230910510F482E090E0EA
:10423000E091E306F091E40620E030E0A0E0B0E099
:10424000309719F140815181028113814817590734
:10425000C8F08417950769F4109731F012960C9303
:10426000129713961C9327C00093E3061093E4065D
:1042700022C02115310519F04217530718F49A018D
:10428000BD01EF01DF01F801DBCF21153105F9F0A8
:10429000281B390B2430310580F48A819B816115FC
:1042A000710521F0FB019383828304C09093E4069F
:1042B0008093E306FE01329644C0FE01E20FF31F35
:1042C0008193919322503109398328833AC02091F8
:1042D000E1063091E206232B41F420911602309141
:1042E00017023093E2062093E106209114023091E8
:1042F00015022115310541F42DB73EB74091180242
:1043000050911902241B350BE091E106F091E20671
:10431000E217F307A0F42E1B3F0B2817390778F09C
:10432000AC014E5F5F4F2417350748F04E0F5F1FFB
:104330005093E2064093E1068193919302C0E0E03E
:10434000F0E0CF01DF91CF911F910F910895CF93AE
:10435000DF93009709F481C0FC0132971382128227
:10436000A091E306B091E406109781F42081318199
:10437000820F931F2091E1063091E206281739073A
:1043800051F5F093E206E093E10667C0ED0120E00D
:1043900030E0CE17DF0740F44A815B819E01411572
:1043A0005105F1F0EA01F5CFD383C28340815181F9
:1043B000840F951FC817D90759F488819981840FF4
:1043C000951F0296918380838A819B819383828348
:1043D0002115310529F4F093E406E093E3063DC08E
:1043E000E901FB83EA8349915991C40FD51FEC176A
:1043F000FD0761F480819181840F951F0296E90188
:1044000099838883828193819B838A83E0E0F0E0B3
:1044100012968D919C911397009719F0FD01DC0184
:10442000F7CF8D919C9111979D012E5F3F4F820F89
:10443000931F2091E1063091E2062817390769F4AD
:10444000309729F41092E4061092E30602C013821A
:104450001282B093E206A093E106DF91CF91089516
:104460006F927F928F929F92AF92BF92CF92DF9284
:10447000EF92FF920F931F93CF93DF93009781F4F6
:10448000CB01DF91CF911F910F91FF90EF90DF90C3
:10449000CF90BF90AF909F908F907F906F90BFCE46
:1044A000FC01E60FF71F9C0122503109E217F307C8
:1044B00008F4A5C0EC01D9010D911C9111970617C4
:1044C0001707A8F00530110508F497C0C801049734
:1044D0008617970708F491C002501109061B170BA5
:1044E000019311936D937C93CF0131DF86C05B0103
:1044F000A01AB10A4C01800E911EA091E306B09162
:10450000E406612C712CE12CF12C109709F446C0C3
:104510008D919C911197A815B905B1F56C0142E0F8
:10452000C40ED11CCA14DB0478F14C018A189B0814
:10453000640142E0C40ED11C1296BC9012971396EF
:10454000AC91B5E0CB16D10440F0B282A383918246
:104550008082D9016D937C9309C00E5F1F4F800F3D
:10456000911FF90191838083EB2DFA2FE114F1045F
:1045700031F0D7011396FC93EE9312973EC0F0935F
:10458000E406E093E30639C06816790608F43C01B6
:104590007D0112960D90BC91A02DB7CF8091E106C0
:1045A0009091E20688169906E1F466167706C8F43B
:1045B0008091140290911502009741F48DB79EB737
:1045C0004091180250911902841B950BE817F907C6
:1045D000B0F4F093E206E093E106F90171836083A1
:1045E0000CC0CB011CDE7C01009749F0A801BE0184
:1045F0001BD0CE01ACDEC70104C0CE0102C080E0FA
:1046000090E0DF91CF911F910F91FF90EF90DF909D
:10461000CF90BF90AF909F908F907F906F900895B4
:1046200081E090E0F89428C0FB01DC0102C0019019
:104630000D9241505040D8F70895FB01DC018D9157
:10464000019080190110D9F3990B0895FB01DC0149
:1046500001900D920020E1F70895FB01DC0141502B
:10466000504048F001900D920020C9F701C01D9202
:0C46700041505040E0F70895F894FFCF4F
:10467C001102110211021102110211021102110296
:10468C00010000000000E50680000D0E1315161940
:10469C001A1C232526292A2C323400000000AD02D6
:1046AC0012023C02F9026D024B025F020000000094
:1046BC00691265126112AB134D12781274127012DA
:1046CC00341223122212000000006213361301135D
:1046DC00D512F912E512D61200000000CE0882089D
:1046EC004F03F4074D03C212BA123D146C149F14FD
:1046FC00C507B412B112AE12AB12A412B712A112AA
:10470C009E129B129812941290128C12E007861231
:10471C0082127E124750524D4300474E524D430079
:10472C00475047474100474E4747410028002C005F
:10473C0029202300696E6974206661696C656400C8
:10474C000A0A7266393520696E697420636F6D7060
:08475C006C657465000D0A0094
:00000001FF
