:10000000FCC100000C9414160C94E9150C94BE1558
:100010000C9493150C9468150C943D150C941215C2
:100020000C94E7141BC2000019C2000017C20000A4
:1000300015C2000013C2000011C200000FC2000070
:100040000DC200000C94D41909C2000007C20000C0
:1000500005C2000003C2000001C200000C94FC0EA7
:10006000FDC100000C94BA160C949116F7C1000063
:10007000F5C10000F3C10000F1C10000EFC10000B4
:10008000EDC10000EBC10000E9C10000E7C10000C4
:100090000C9468160C943F16E1C10000FDC10000ED
:1000A000DDC10000DBC10000D9C10000D7C10000E4
:1000B000D5C10000D3C10000D1C10000CFC10000F4
:1000C000CDC10000CBC10000C9C10000C7C1000004
:1000D000C5C10000C3C10000C1C10000BFC1000014
:1000E000BDC100000006120615061C0623065106B7
:1000F0005806650672067E067E067E067E067E062B
:100100007E067E067E067E067E067E067E067E06CF
:100110007E067E067E067E067E067E067E067E06BF
:100120007E067E0600060D06120615061C06230630
:100130002A0637064406E20DBF0DC60DCD0DD40DBF
:10014000E90DF00D120E150E040E080E0E0E4C0EDB
:10015000190E1D0E230E270E2B0E310E350E390EE5
:100160004C0E3F0E430E470E084AD73B3BCE016E66
:1001700084BCBFFDC12F3D6C74319ABD56833DDAFE
:100180003D00C77F11BED9E4BB4C3E916BAAAABE0D
:10019000000000803F004E414E494E495459494E9F
:1001A00046CDCCCC3D0AD7233C17B7D13877CC2BE2
:1001B000329595E6241FB14F0A000020410000C887
:1001C0004200401C4620BCBE4CCA1B0E5AAEC59D08
:1001D0007400407A10F35A00A0724E18090010A55E
:1001E000D4E80000E87648170000E40B5402000051
:1001F000CA9A3B000000E1F50500008096980000D7
:100200000040420F000000A08601000000102700FF
:10021000000000E803000000006400000000000A85
:1002200000000000000100000000002C76D888DCEF
:10023000674F0823DFC1DFAE59E1B1B796E5E3E4CC
:1002400053C63AE651997696E8E6C28426EB898C45
:100250009B62ED407C6FFCEFBC9C9F40F2BAA56FA7
:10026000A5F490055A2AF75C936B6CF9676DC11B76
:10027000FCE0E40D47FEF520E6B500D0ED902E033E
:1002800000943577050080841E080000204E0A0087
:100290000000C80C333333330F986E12831141EFD3
:1002A0008D2114893BE65516CFFEE6DB18D1844B31
:1002B000381BF77C1D901DA4BBE424203284725EA1
:1002C000228100C9F124ECA1E53D27000021002492
:1002D0000027002A002D0030003300010100000437
:1002E0000107010A0100002200250028002B002E32
:1002F000003100340002010000050108010B010576
:10030000050505070508080808020202020A0A088E
:1003100008040404040101010101010101030303B4
:100320000303030303040707070C0C0C0C0C0C0C51
:100330000C0202020206060606060606060B0B0B58
:100340000B0B0B0B0B010210202008081020401093
:100350002040800201020108040201010204081089
:1003600020408080402010080402018004020180A7
:1003700040201008040201080402010102040810D0
:10038000204080010204081020408000000A0B0277
:10039000090C0D0E08070304010000000000000016
:1003A000000000000000000000000000000000004D
:1003B000000000000000001211100000000000000A
:1003C000000000000000000000000000000000002D
:1003D0000072740492740448940478C40C000020E1
:1003E000002300260029002C002F0032000001000D
:1003F0000003010601090100A71C11241FBECFEF55
:10040000D1E2DEBFCDBF00E00CBF13E0A0E0B2E060
:10041000E6E1F9E500E00BBF02C007900D92AA32B9
:10042000B107D9F727E0AAE2B3E001C01D92A733D4
:10043000B207E1F711E0CDEFD1E000E006C021976F
:100440000109802FFE010E945C27CC3FD10780E08C
:100450000807A9F70E94E91D0C94892CD1CD85EDE0
:100460008093BC008091BC0084FDFCCF1092B1034E
:100470000895CF93DF93962F811103C0642F892FA6
:1004800007C0C42FD62F642F0E944D0E6C2F8D2FC6
:10049000DF91CF910C944D0E1F920F920FB60F92D9
:1004A00011240BB60F922F933F934F935F936F934B
:1004B0007F938F939F93AF93BF93EF93FF9380911D
:1004C000B900887F803609F49CC068F5883209F449
:1004D0005BC090F4803109F454C038F4882309F4E7
:1004E000F6C0883009F44DC0F5C0883109F44CC01D
:1004F000803209F45DC0EEC0803409F468C048F46D
:10050000803309F455C0883309F0E4C08093AF0309
:10051000D8C0803509F44FC0883509F45DC08834EF
:1005200009F0D8C0D6C0883909F4C7C0A8F4883704
:1005300009F467C038F4883609F463C0803709F4D9
:1005400060C0C8C0883809F4B8C0803909F45FC0F9
:10055000803809F0BFC05BC0803B09F486C038F426
:10056000803A09F466C0883A09F47FC0B3C0803C81
:1005700009F4A7C0883C09F4A4C0883B09F48AC0E8
:10058000A9C080918C0310C09091AE038091AD03FF
:10059000981770F5E091AE0381E08E0F8093AE0363
:1005A000F0E0E357FC4F80818093BB0085EC86C070
:1005B0008093AF038EC0E091AE0381E08E0F8093F5
:1005C000AE038091BB00F0E0E357FC4F8083909135
:1005D000AE038091AD036EC0E091AE0381E08E0F5B
:1005E0008093AE038091BB00F0E0E357FC4F808323
:1005F0008091B00381116DC081E080938B0384EA08
:1006000061C083E08093B10310928803CFCF8091C3
:100610008803803208F051C0E091880381E08E0F9A
:10062000809388038091BB00F0E0E859FC4F808301
:10063000BDCF85EC8093BC001092B10380918803FC
:10064000803230F4E0918803F0E0E859FC4F1082EA
:100650006091880370E0E0916603F091670388E69B
:1006600093E019951092880335C084E08093B1031C
:100670001092650310926403E0916203F0916303AA
:10068000199580916403811105C081E08093640312
:1006900010924203E091650381E08E0F8093650321
:1006A000F0E0EE5BFC4F80818093BB00909165038E
:1006B00080916403981708F479CF85E88093BC0093
:1006C00009C085EC8093BC001092B10303C0109266
:1006D000AF03C5DEFF91EF91BF91AF919F918F91D5
:1006E0007F916F915F914F913F912F910F900BBE32
:1006F0000F900FBE0F901F90189540916403262F06
:1007000030E0240F311D21323105DCF42091B1039A
:100710002430C9F4FC0180E090E0861758F4309151
:1007200064032191DC01AE5BBC4FA30FB11D2C9380
:100730000196F3CF80916403680F6093640380E0B7
:10074000089581E0089582E008952F923F924F929C
:100750005F926F927F928F929F92AF92BF92CF9251
:10076000DF92EF92FF920F931F93CF93DF93CDB75A
:10077000DEB7C556D1400FB6F894DEBF0FBECDBF71
:1007800066EF72E0CE01805C9E4F0E94D3140E94FF
:10079000F00E2B013C012224239486ED93E00E946D
:1007A0005610892B09F415C386ED93E00E9434108E
:1007B000382E8091E2069091E306A091E406B09174
:1007C000E5060196A11DB11D8093E2069093E30614
:1007D000A093E406B093E50624E2321609F4D7C2EA
:1007E000E091DC0623153CF03AE0331679F04DE059
:1007F0003412DBC20BC05AE2351641F08CE23812DB
:10080000D4C28091C90683258093C906EF3008F0D1
:10081000B0C2F0E0E553F94F10828091CA068823F8
:1008200009F473C12091CB063FEB320F822F022EC9
:10083000000C990B363010F4C79707C021562630AC
:1008400018F48755910901C0C097282F2295207F61
:100850003091CC064FEB430F832F032E000C990BE6
:10086000463010F4C79707C03156363018F4875514
:10087000910901C0C097820F9091C906891331C1B7
:100880008091EE069091EF06A091F006B091F106EE
:100890000196A11DB11D8093EE069093EF06A093E3
:1008A000F006B093F1068091DD06882399F08091DF
:1008B000E6069091E706A091E806B091E906019658
:1008C000A11DB11D8093E6069093E706A093E8066C
:1008D000B093E9061091DA06112309F46BC01130C8
:1008E00009F0D0C080916D0690916E06A0916F06C0
:1008F000B09170068093690690936A06A0936B0688
:10090000B0936C060E94F00E6093710670937206AD
:10091000809373069093740610936806109367068D
:1009200080917B0690917C06A0917D06B0917E0619
:100930008093770690937806A0937906B0937A0611
:100940000E94F00E60937F0670938006809381066C
:100950009093820610937606109375068091DD06BB
:10096000882309F48FC0E5E5F6E0A7E4B6E087E068
:1009700001900D928A95E1F7ECE5F6E0AEE4B6E081
:1009800087E001900D928A95E1F70E94F00E609346
:1009900063067093640680936506909366061093D1
:1009A00046061093450683E896E00E94AF1B81E956
:1009B00096E066C080917B0690917C06A0917D06B2
:1009C000B0917E068093770690937806A09379067F
:1009D000B0937A060E94F00E60937F0670938006B3
:1009E0008093810690938206209276062092750667
:1009F0008091DD06882321F1E5E5F6E0A7E4B6E085
:100A000087E001900D928A95E1F7ECE5F6E0AEE41F
:100A1000B6E087E001900D928A95E1F70E94F00E12
:100A200060936306709364068093650690936606F0
:100A300020924606209245068FE996E00E94AF1B61
:100A40008091B7069091B806A091B906B091BA0608
:100A50008093B3069093B406A093B506B093B60600
:100A60000E94F00E6093AF067093B0068093B106BB
:100A70009093B2062092AE062092AD068BEB96E0E4
:100A80000E94AF1B0091E0061091E10601151105CF
:100A900009F46FC1E091E006F091E10666A177A14B
:100AA000F80186A197A10E94A129892B09F061C1B3
:100AB000B801C80140960E94AA290E94F00ED801F0
:100AC00090966D937D938D939C93939795962C928E
:100AD000959794962C9294979A960D911C919B972A
:100AE000D5CF8091EA069091EB06A091EC06B091EB
:100AF000ED060196A11DB11D8093EA069093EB06C9
:100B0000A093EC06B093ED0634C18091DB06811111
:100B10005DC064EA72E08BEC96E00E94A129892B0B
:100B200041F06AEA72E08BEC96E00E94A129892BE1
:100B300019F42092DA0616C060EB72E08BEC96E0B6
:100B40000E94A129892B41F066EB72E08BEC96E0C4
:100B50000E94A129892B19F41092DA0603C0F2E051
:100B6000F093DA068091DE069091DF069093E1061D
:100B70008093E0060091E0061091E1060115110551
:100B800009F4F7C0F80126A137A16BEC76E0C901A2
:100B9000CC59DE4F2883C456D140CB59DE4F388321
:100BA000C556D1400E94A129CC59DE4F2881C45698
:100BB000D140CB59DE4F3881C556D14097FFCDC0CB
:100BC000D8019A968D919C919B97D0CFE091DA06AF
:100BD000E23009F493C09091CB06992309F48EC0BA
:100BE00020E2E29FF0011124E82B3197E932F10570
:100BF00008F084C08827EE58FF4F8F4F0C945C2775
:100C00008BEC96E00E944D1C60937B0670937C06F3
:100C100080937D0690937E0671C081E0913409F047
:100C200043C043C065E576E009C081E0933509F033
:100C300080E080935B0662C06CE576E08BEC96E02A
:100C40000E94C61B5BC081E0973509F080E080936D
:100C5000620654C08BEC96E00E944D1C60938D069A
:100C600070938E0680938F069093900647C08BEC0E
:100C700096E00E944D1C60939B0670939C068093A7
:100C80009D0690939E063AC08BEC96E00E94FF1F53
:100C900060936D0670936E0680936F069093700656
:100CA0002DC081E091330CF480E08093DD0626C0F6
:100CB0008BEC96E00E94FF1F6093B7067093B80616
:100CC0008093B9069093BA0619C08BEC96E00E9407
:100CD0004D1C6093C5067093C6068093C70690931B
:100CE000C8060CC08BEC96E00E944D1C6093A906D0
:100CF0007093AA068093AB069093AC060091E00631
:100D00001091E10601151105A1F1E091E006F091C5
:100D1000E10666A177A1F80186A197A10E94A12909
:100D2000892B39F5D80198962D913C91999780910E
:100D3000DB0690E082179307E4F02817390739F4AF
:100D400040E150E06BEC76E0C8010E94B129D80187
:100D50009A960D911C919B97D5CF6BEC76E0C901CB
:100D60000E94A1291816190624F41092E106109287
:100D7000E0068091DB068F5F8093DB061092DC0635
:100D800081E0BAE23B1280E08093CA0606CD109261
:100D9000DC061092DB061092C906E2E0E093DA0668
:100DA0001092CA061092DD06F8CCEE3040F481E0D5
:100DB0008E0F8093DC06F0E0E553F94F308280918E
:100DC000CA068111EACC8091C90638263092C9063C
:100DD000E4CC0E94F00EDC01CB0184199509A60930
:100DE000B7090A97A105B10508F4D7CC10924606B9
:100DF000609147067091480680E090E00E9432249E
:100E00002B013C016091490670914A0680914B0686
:100E100090914C060E94322428E23BE64EE65EE4C6
:100E20000E946E269B01AC01C301B2010E94A8255D
:100E300020914D06222361F09B01AC015058C85A05
:100E4000DE4F288339834A835B83C855D14008C06D
:100E5000C85ADE4F688379838A839B83C855D14003
:100E600060914E0670914F0680E090E00E9432241F
:100E70002B013C0160915006709151068091520601
:100E8000909153060E94322428E23BE64EE65EE44F
:100E90000E946E269B01AC01C301B2010E94A825ED
:100EA00020915406222361F09B01AC015058C45A92
:100EB000DE4F288339834A835B83CC55D14008C0F9
:100EC000C45ADE4F688379838A839B83CC55D14093
:100ED00060913E0660FF08C0637082E01ED662E447
:100EE00070E080E090E044D78091440691E09093D8
:100EF000B2038093D4031092B3031092D50363E03E
:100F000080E195E00E94A51981E0AAD58091440670
:100F10009091B1039111FCCF91E09093B103909324
:100F2000B0032FEF2093AF031092AE0325E0209380
:100F3000AD0390938C0390918C03880F892B809341
:100F40008C0380918B03813061F410928B0380912C
:100F50008C038093BB008091BC0083FDF8CF85ECAF
:100F600001C085EE8093BC008091B1038130E1F334
:100F70008091AE03863018F48091AE0301C086E004
:100F8000ADE8B3E02CE037E0F9019E2F921B9817F3
:100F900018F49D919193F9CF10928A03809389035D
:100FA000863059F16980712C762C66248A81682AF2
:100FB0006B8170E0762F66278C81682B0D8110E0A5
:100FC000102F00278E81082B40903E0650903F0640
:100FD000C201E5E096958795EA95E1F78770992734
:100FE00081309105D1F0E0F08230910511F1039745
:100FF00041F57195619571091CC08E010F5F1F4FFE
:1010000026E0722E700E80E195E00E94D117D80183
:101010008D938D017A12F7CFC5CF719561957109C6
:10102000072E000C880B990B0E9434246B017C0165
:1010300008C0072E000C880B990B0E9434244B012A
:101040005C01852D99278770992781309105A1F042
:1010500070F082309105E9F0039719F5662777273C
:10106000601B710B072E000C880B990B16C0B80182
:10107000110F880B990B08C066277727601B710B2F
:10108000072E000C880B990B0E9434246B017C0105
:1010900008C0B801110F880B990B0E9434244B0132
:1010A0005C01452C5524469446944694B7E04B2267
:1010B0005524E1E04E165104B9F088F022E04216C2
:1010C0005104F9F033E04316510419F566277727E8
:1010D00066197709072E000C880B990B16C0B3010F
:1010E000770C880B990B08C0662777276619770954
:1010F000072E000C880B990B0E9434246B017C0195
:1011000008C0B301770C880B990B0E9434244B0163
:101110005C01A7019601C501B4010E941B26209124
:1011200040063091410640914206509143060E948C
:10113000A8256B017C0120E030E0A9010E942E244B
:1011400087FF0AC02BED3FE049EC50E4C701B60130
:101150000E94A8256B017C012BED3FE049EC50E497
:10116000C701B6010E942C27181654F42BED3FE05E
:1011700049EC50E4C701B6010E94A7256B017C0130
:1011800020E030E044E353E4C701B6010E94932419
:101190002BED3FE049E450E40E946E264B015C01D8
:1011A000C85ADE4F88819981AA81BB81C855D14038
:1011B00080933E0390933F03A0934003B093410379
:1011C000C45ADE4F288139814A815B81CC55D14098
:1011D00020933A0330933B0340933C0350933D03E9
:1011E0008092360390923703A0923803B09239036D
:1011F000BC01CD010E94D626C05ADE4F6883798398
:101200008A839B83C056D140C45ADE4F688179815E
:101210008A819B81CC55D1400E94D6262B013C016E
:10122000C501B4010E94D6266B017C01072E000C7B
:10123000880B990B0E9434249B01AC01C501B401B9
:101240000E94A72520E030E04AE754E40E9493245E
:101250000E94DB269F938F937F936F93DF92CF92B1
:10126000B201052C000C880B990B0E9434249B01C1
:10127000AC01C45ADE4F688179818A819B81CC554B
:10128000D1400E94A72520E034E244E759E40E94BF
:1012900093240E94DB269F938F937F936F935F929B
:1012A0004F92C05ADE4F48815981C056D140BA0191
:1012B000550F880B990B0E9434249B01AC01C85A2E
:1012C000DE4F688179818A819B81C855D1400E9417
:1012D000A72520E034E244E759E40E9493240E94C9
:1012E000DB269F938F937F936F93CF59DE4F588167
:1012F000C156D1405F93C05ADE4F8881C056D1405D
:101300008F938CEB92E09F938F93DE0111967D017A
:10131000BF93AF930E94C029B701CE01805C9E4F5E
:10132000F6D522E0B501A401CE01865C9E4F0E9455
:101330008B1426E0C45ADE4F488159816A817B8133
:10134000CC55D140CE018C5C9E4F0E948B1426E080
:10135000C85ADE4F488159816A817B81C855D14086
:10136000CE0184509F4F0E948B14BE0164507F4F6A
:10137000CE01825D9E4F0E94BA146EED72E0CE01E6
:10138000825D9E4F9CD5BE016C5C7E4FAFD560EEFA
:1013900072E095D5BE01665C7E4FA8D5BC01CE013A
:1013A0008A5B9E4F0E94BA14CE01825D9E4F0E94BE
:1013B0008614CE0184509F4F0E948614CE018C5C0F
:1013C0009E4F0E948614CE01865C9E4F0E9486141A
:1013D000CE01805C9E4F0E948614C65BDE4F088162
:1013E0001981CA54D1400FB6F894DEBF0FBECDBFED
:1013F0000115110531F4C450DF4F1882CC5FD04085
:1014000018C00133110510F001E310E0CA5BDE4F94
:1014100068817981C654D140A801CE0184509F4F84
:101420000E94B129ECEFF0E0EC0FFD1FE00FF11F7F
:101430001082CE018A5B9E4F0E9486148CE195E05B
:101440000E94F416882309F49EC08BEFC65CDE4F21
:101450008883CA53D140AE01465C5E4FB7018CE130
:1014600095E0DBD7882309F48BC061E08DE015D4CB
:10147000B701CE018C5C9E4F0E94D3146CE2CE016A
:101480008C5C9E4F03D59C0140E050E0BE016C5C3B
:101490007E4FCE01825D9E4F4FD5C25DDE4F88816B
:1014A0009981CE52D1400E94FC1F60933203709309
:1014B00033038093340390933503CE01825D9E4FB6
:1014C0000E94861463E2CE018C5C9E4FDFD48C01B7
:1014D0006CE2CE018C5C9E4FD9D4AC014F5F5F4F64
:1014E0009801BE016C5C7E4FCE01825D9E4F24D57B
:1014F000C25DDE4F88819981CE52D1400E94FC1F8F
:1015000060932E0370932F038093300390933103E5
:10151000CE01825D9E4F0E94861463E2CE018C5CF8
:101520009E4FB4D4C85CDE4F28813981C853D14066
:10153000AC014F5F5F4FBE016C5C7E4FCE01825DA0
:101540009E4FFAD4C25DDE4F88819981CE52D14040
:101550000E94FC1F60932A0370932B0380932C033B
:1015600090932D03CE01825D9E4F0E94861460E011
:101570008DE093D3CE018C5C9E4F0E94861403C0F5
:1015800083EE92E061D28090360390903703A09072
:101590003803B090390340E06DE18BE10E943902DD
:1015A00040E067E28BE10E94390240E061E38BE1B9
:1015B0000E94390240E06EE28BE10E94390240E075
:1015C0006FE28BE10E94390240E067E18BE10E940B
:1015D000390240E06DE28BE10E94390240E069E2AD
:1015E0008BE10E94390220E030EC48EA53E4C50167
:1015F000B4010E942C27181654F020E030E044EB90
:1016000051E4C501B4010E942E2487FF03C041E0CC
:1016100067E2A0C020E030E044EB51E4C501B40132
:101620000E942C2718166CF420E030E047E852E4C2
:10163000C501B4010E942E2487FF03C041E061E38D
:1016400089C020E030E047E852E4C501B4010E94BF
:101650002C2718166CF420E030E041EE52E4C5016E
:10166000B4010E942E2487FF03C041E06EE272C0E5
:1016700020E030E041EE52E4C501B4010E942C2785
:1016800018166CF420E030E84DE153E4C501B401D4
:101690000E942E2487FF03C041E06FE25BC020E080
:1016A00030E84DE153E4C501B4010E942C2718161F
:1016B0006CF420E030E84AE453E4C501B4010E9430
:1016C0002E2487FF03C041E067E144C020E030E8FA
:1016D0004AE453E4C501B4010E942C2718166CF4A7
:1016E00020E030E847E753E4C501B4010E942E240E
:1016F00087FF03C041E06DE22DC020E030E847E7FE
:1017000053E4C501B4010E942C2718166CF420E0A4
:1017100030E442E953E4C501B4010E942E2487FF5E
:1017200003C041E069E216C020E030E442E953E43E
:10173000C501B4010E942C2718167CF420E030EC7F
:1017400048EA53E4C501B4010E942E2487FF05C076
:1017500041E06DE18BE10E94390242E3BE01645039
:101760007F4F8CE195E0C3D560ED77E08CE195E0AB
:101770000E94BC1880911E0590911F05049721F0CE
:101780008CE195E00E94E31660912A0370912B038F
:1017900080912C0390912D03CE5ADE4F198218822E
:1017A000C255D140CC5ADE4F19821882C455D1405F
:1017B000CA5ADE4F19821882C655D140870122E0ED
:1017C00044E00E94881FBC01CE018E5A9E4F9FD3D9
:1017D00040912E0350912F0360913003709131039B
:1017E00026E0CE01845B9E4F0E948B144091320311
:1017F00050913303609134037091350326E0CE019C
:101800008A5B9E4F0E948B14609136037091370360
:101810008091380390913903C05CDE4F19821882A1
:10182000C054D140CE5BDE4F19821882C254D140E1
:10183000CC5BDE4F19821882C454D14022E044E0D0
:101840000E94881FBC01CE01805C9E4F60D34091F6
:101850003A0350913B0360913C0370913D0326E0B5
:10186000CE01865C9E4F0E948B1440913E035091A6
:101870003F03609140037091410326E0CE01825DF9
:101880009E4F0E948B14BE01625D7E4FCE018C5C28
:101890009E4F0E94BA146EED72E0CE018C5C9E4F9A
:1018A0000ED3BE01665C7E4F21D360EE72E007D39B
:1018B000BE01605C7E4F1AD36FEE72E000D3BE01B2
:1018C0006A5B7E4F13D36EED72E0F9D2BE01645BAA
:1018D0007E4F0CD360EE72E0F2D2BE016E5A7E4FA4
:1018E00005D3BC01C7010E94BA14CE018C5C9E4F87
:1018F0000E948614CE01825D9E4F0E948614CE0106
:10190000865C9E4F0E948614CE01805C9E4FFED75F
:10191000CE018A5B9E4FFAD7CE01845B9E4FF6D7ED
:10192000CE018E5A9E4FF2D74D815E8169817A81B8
:1019300083E794E046D384EF92E075D064E670E0EC
:1019400080E090E015D2C701E1D7CB59DE4F0FB64A
:10195000F894DEBF0FBECDBFDF91CF911F910F91E5
:10196000FF90EF90DF90CF90BF90AF909F908F90BF
:101970007F906F905F904F903F902F9008953FB76A
:10198000F8948091F7069091F806A091F906B0912D
:10199000FA0626B5A89B05C02F3F19F00196A11D98
:1019A000B11D3FBFBA2FA92F982F8827820F911DF5
:1019B000A11DB11DBC01CD0142E0660F771F881F3C
:1019C000991F4A95D1F708950E948929EF92FF92B5
:1019D0000F931F93CF93DF93FC0124813581611511
:1019E000710511F480E018C041155105A1F07B018B
:1019F000EC018A01020F131FB80130D7882391F33D
:101A0000288139818C819D81B701820F931F0E94AB
:101A1000AA291D830C8381E0DF91CF911F910F9143
:101A2000FF90EF900895009761F0FC010190002075
:101A3000E9F73197AF01481B590BBC0183E794E0EC
:101A4000C0C280E090E00895CF93DF93ECDFEC011B
:101A500084EF92E0E8DF8C0F9D1FDF91CF91089516
:101A6000382F2091D5039091D403213208F049C03A
:101A70008091B1038111FCCF42E04093B1033093D8
:101A8000B0033FEF3093AF031092AE032093AD034A
:101A9000A4EBB3E04DE853E0FA013E2F341B3217BC
:101AA00018F43D913193F9CF10928C0320918C035F
:101AB000990F922B90938C0390918B03913061F44A
:101AC00010928B0390918C039093BB009091BC007B
:101AD00093FDF8CF95EC01C095EE9093BC009091EA
:101AE000B1039230E1F39091AF039F3F79F0809181
:101AF000AF03803241F08091AF03803331F084E056
:101B000005C081E003C082E001C083E01092B3030E
:101B10001092D5031092B2030895CF93C62F9091DF
:101B2000440621E02093B2039093D4031092B303B0
:101B30001092D503682F80E195E00E94A5196C2FC3
:101B400080E195E00E94A51981E0CF9189CF88308E
:101B500008F04CC0A82FB0E0AA0FBB1FA050BE4F8A
:101B600011967C936E9390E0FC013197E730F1057C
:101B700010F58827E556FF4F8F4F0C945C27809116
:101B80006900836080936900E89A089580916900F4
:101B90008C6080936900E99A089580916900806360
:101BA00080936900EA9A089580916900806C80931F
:101BB0006900EB9A089580916A00836080936A00BF
:101BC000EC9A089580916A008C6080936A00ED9A87
:101BD000089580916A00806380936A00EE9A089568
:101BE00080916A00806C80936A00EF9A089590E07B
:101BF000FC013197E231F10508F04EC08827EE551F
:101C0000FF4F8F4F0C945C27809180008F7703C02B
:101C1000809180008F7D8093800008958091800066
:101C2000877FF9CF84B58F7702C084B58F7D84BD5F
:101C300008958091B0008F7703C08091B0008F7DB0
:101C40008093B0000895809190008F7707C08091B5
:101C500090008F7D03C080919000877F80939000DB
:101C600008958091A0008F7707C08091A0008F7D9C
:101C700003C08091A000877F8093A0000895809189
:101C800020018F7707C0809120018F7D03C0809154
:101C90002001877F8093200108951F93CF93DF93C6
:101CA000282F30E0F901E557FC4F8491F901EB5BF7
:101CB000FC4FD491F901E150FD4FC491CC23C1F008
:101CC000162F811194DFEC2FF0E0EE0FFF1FEB5188
:101CD000FD4FA591B4918FB7F894111105C09C9157
:101CE000ED2FE095E92302C0EC91ED2BEC938FBF33
:101CF000DF91CF911F910895CF93DF9390E0FC0186
:101D0000EB5BFC4F2491FC01E150FD4F8491882353
:101D100061F190E0880F991FFC01E553FD4FC591DB
:101D2000D491FC01EB51FD4FA591B491611109C013
:101D30009FB7F8948881209582238883EC912E2385
:101D40000BC0623061F49FB7F8943881822F809580
:101D500083238883EC912E2B2C939FBF06C08FB7D3
:101D6000F894E8812E2B28838FBFDF91CF910895BF
:101D70008F929F92AF92BF92CF92DF92EF92FF929B
:101D80006B017C01FCDD4B015C01C114D104E10459
:101D9000F104E9F0F4DDDC01CB0188199909AA0905
:101DA000BB09883E9340A105B10578F321E0C21A32
:101DB000D108E108F10888EE880E83E0981EA11C86
:101DC000B11CC114D104E104F10421F7DECFFF906E
:101DD000EF90DF90CF90BF90AF909F908F9008953D
:101DE0002FB7F8946091F3067091F4068091F50690
:101DF0009091F6062FBF08951F920F920FB60F9283
:101E000011242F933F938F939F93AF93BF93809110
:101E1000F3069091F406A091F506B091F606309184
:101E2000F20623E0230F2D3720F40196A11DB11DEA
:101E300005C026E8230F0296A11DB11D2093F206CE
:101E40008093F3069093F406A093F506B093F606FC
:101E50008091F7069091F806A091F906B091FA06E4
:101E60000196A11DB11D8093F7069093F806A093EB
:101E7000F906B093FA06BF91AF919F918F913F9170
:101E80002F910F900FBE0F901F901895CF93DF9357
:101E9000FC0124813581232B69F0C081D181062E7C
:101EA000000C770BCE010E949629009719F08C1B2D
:101EB0009D0B02C08FEF9FEFDF91CF910895CF93DD
:101EC000DF93EC016115710559F0FB0101900020D1
:101ED000E9F73197AF01461B570B78DD811102C03E
:101EE000CE01E3D4CE01DF91CF910895CF93DF935C
:101EF000EC01FB01448155816081718167DD8111B5
:101F000002C0CE01D2D4CE01DF91CF910895CF93FC
:101F1000DF93EC016115710551F0FB010190002088
:101F2000E9F73197AF01461B570BD1D401C0BDD49F
:101F3000CE01DF91CF910895BF92CF92DF92EF92C1
:101F4000FF920F931F93CF93DF937C016B018A0164
:101F5000E9012417350720F4812F8901C42FD82FD8
:101F600066EF72E0C7011FD5D60114968D919C9142
:101F7000159708171907C8F48C179D0708F4EC018A
:101F8000D601ED91FC911197EC0FFD1FB0801082EE
:101F90004D915C91BA01600F711FC701B8DFD60186
:101FA000ED91FC91EC0FFD1FB082C701DF91CF9145
:101FB0001F910F91FF90EF90DF90CF90BF90089509
:101FC0000895CF92DF92EF92FF920F931F93CF93DA
:101FD000DF936C017A018B01C0E0D0E0CE15DF0504
:101FE00089F0D8016D918D01D601ED91FC910190A0
:101FF000F081E02DC6011995892B11F47E0102C0F4
:102000002196ECCFC701DF91CF911F910F91FF90E7
:10201000EF90DF90CF900895FC01A089B1898C9159
:10202000A689B78982FD0FC09C91818D8F5F8F73C8
:10203000228D821749F0218DDF01A20FB11D5D961F
:102040009C93818F08958C910895FC01538D448D4C
:10205000252F30E0842F90E0821B930B541710F053
:10206000CF96089501970895FC01918D828D981760
:1020700061F0828DDF01A80FB11D5D968C91928D6C
:102080009F5F9F73928F90E008958FEF9FEF089569
:10209000FC01918D828D981731F0828DE80FF11D32
:1020A000858D90E008958FEF9FEF0895FC01918D4D
:1020B000228D892F90E0805C9F4F821B91098F7346
:1020C0009927089586ED93E0F1DF21E0892B09F44B
:1020D00020E0822F089583E794E0E8DF21E0892B58
:1020E00009F420E0822F0895FC01848DDF01A80F00
:1020F000B11DA35ABF4F2C91848D90E001968F7330
:102100009927848FA689B7892C93A089B1898C914E
:1021100080648C93938D848D981306C00288F38914
:10212000E02D80818F7D80830895EF92FF920F9341
:102130001F93CF93DF93EC0181E0888F9B8D8C8D73
:10214000981305C0E889F989808185FD23C0F62EA2
:102150000B8D10E00F5F1F4F0F731127E02E8C8D3A
:10216000E8120BC00FB607FCFACFE889F989808125
:1021700085FFF5CFCE01B8DFF2CF8B8DFE01E80FE2
:10218000F11DE35AFF4FF0820B8FEA89FB898081B2
:10219000806207C0EE89FF896083E889F9898081C0
:1021A0008064808381E090E0DF91CF911F910F9157
:1021B000FF90EF900895CF93DF93EC01888D8823F3
:1021C000C1F0EA89FB89808185FD05C0A889B989AC
:1021D0008C9186FD0EC00FB607FCF5CF808185FF80
:1021E000F2CFA889B9898C9185FFEDCFCE017CDF34
:1021F000E8CFDF91CF91089580E090E0892B19F02E
:102200006ADF811120C080E090E0892B19F05ADF4D
:1022100081111CC080E090E0892B41F080E090E0CB
:10222000892B21F00E940000811113C080E090E012
:10223000892BA1F080E090E0892B81F00E940000C2
:1022400081110AC008950E940000DDCF0E940000A5
:10225000E1CF0E940000EACF0C94000008958BEFBC
:102260000895CF93DF93EC018A819B81059771F0EC
:1022700047E061E0CE010E942D1B40E860E4CE0102
:102280000E942D1B85E090E09B838A838A819B813D
:102290000597E1F38E89DF91CF910895CF93DF9376
:1022A000FC01228133812130310549F0EC0140E00D
:1022B00061E00E942D1B81E090E09B838A8381E096
:1022C000DF91CF910895CF93DF93FC012281338179
:1022D0002230310549F0EC0141E061E00E942D1B04
:1022E00082E090E09B838A83DF91CF910895BF9233
:1022F000CF92DF92EF92FF920F931F93CF93DF93D2
:102300004C3F10F0C12C7EC0142F072FD62EEC01AD
:10231000E881F9810484F585E02D1995CE01D3DF9C
:10232000E881F9810288F389E02DCE011995C82E44
:10233000882341F340E06DE0CE010E942D1B4A85C9
:1023400060E0CE010E942D1B4B8560E0CE010E9413
:102350002D1B4C8560E0CE010E942D1B4D8560E059
:10236000CE010E942D1BBFB6F894898D9A8DDC0199
:10237000ED91FC910088F189E02D199560E08B8D3D
:102380008CDC898D9A8DDC01ED91FC910190F081BE
:10239000E02D60E81995ED2CF02E012F015068F02A
:1023A000898D9A8DF70161917F01DC01ED91FC919E
:1023B0000190F081E02D1995F1CF61E08B8D6DDCFE
:1023C000898D9A8DDC01ED91FC910288F389E02DD5
:1023D0001995BFBE44E0410F62E2CE010E942D1B61
:1023E0008A819B81039771F043E061E0CE010E94F6
:1023F0002D1B40E460E4CE010E942D1B83E090E0A1
:102400009B838A838C2DDF91CF911F910F91FF9039
:10241000EF90DF90CF90BF900895CF92DF92EF9230
:10242000FF920F931F93CF93DF93EC017B018A01FF
:10243000E881F9810280F381E02D1995D82E882357
:1024400039F1E114F104E1F001151105C9F0CFB63D
:10245000F8942F8D30E023503109F801808190E00D
:10246000821793071CF09F8D94509083F801408150
:1024700050E0BE016C5D7F4FC7010E948D29CFBE29
:102480008FB7F894FE01E15EFE4F10821F8E8FBF62
:102490008D2DDF91CF911F910F91FF90EF90DF90E5
:1024A000CF900895DF92EF92FF920F931F93CF93F7
:1024B000DF93EC0162E10E94821B182F6CE1CE01D8
:1024C0000E94821B2A813B812430310579F4829558
:1024D00086958695837091E0892780FBEE24E0F84D
:1024E000F12C812F807AE82AEF2839F48A819B81A8
:1024F0000497C9F416FD24C016C0888999890196ED
:10250000998B888B4FEF62E1CE010E942D1B4FEF1C
:1025100062E1CE01DF91CF911F910F91FF90EF907B
:10252000DF900C942D1B8A819B81039709F0B8C022
:1025300013FFB6C08C899D8901969D8B8C8BB9C089
:1025400063E1CE010E94821BF82E60E1CE010E9461
:10255000821B482F6DE0CE010E942D1BDFB6F89440
:10256000898D9A8DDC01ED91FC910088F189E02D37
:10257000199560E08B8D91DB898D9A8DDC01ED9151
:10258000FC910190F081E02D60E019958E01005ED4
:102590001F4FEF2CE00EE01671F0898D9A8DDC0153
:1025A000ED91FC910190F081E02D60E01995F8012A
:1025B00081938F01F0CF61E08B8D6FDB898D9A8DD8
:1025C000DC01ED91FC910288F389E02D1995DFBEC5
:1025D000FF8E4FEF62E1CE010E942D1B69E1CE011B
:1025E0000E94821B8E010F5D1E4F87FD8D5F8595BA
:1025F0008595F80180836AE1CE010E94821B90E0FC
:102600009F878E87D8012C918E859F8527FF07C0D5
:10261000820F911D27FD9A959F878E870BC024E01E
:10262000880F991F2A95E1F76FE070E00E94492713
:102630007F876E87FE01E05EFE4F8081882329F050
:102640008E859F858D59910904C08E859F85845AFA
:1026500091099F878E878F8DFE01E15EFE4F84304A
:1026600090F088A18E8389A18F838AA188878BA10E
:1026700089878D8181110CC09E818C81981741F0D2
:102680008E818F3F29F08081882309F43BCF11C0D0
:102690008A899B8901969B8B8A8B81E08083F3CF0B
:1026A0008A819B81059709F02DCF12FF2BCF1170E6
:1026B0001E8BCE0108DE26CF80910A0790910B0772
:1026C000009709F0EFCE08958091080790910907CF
:1026D000009709F0E7CE08958091060790910707CB
:1026E000009709F0DFCE0895EF92FF920F931F93AA
:1026F000CF93DF9300D0CDB7DEB78C018AD4F82E0C
:10270000811102C0F12C9FC0D8015D969C9192303E
:1027100059F0933061F08EEE890F843098F767E1BD
:1027200070E0691B710905C060E070E002C061E003
:1027300070E0E62ED80159968D919C915A97DC0154
:10274000ED91FC910488F589E02D199540E861E050
:10275000C80183D76AE070E080E090E009DB61E0C7
:10276000C801D0D7803871F660E0F801858DC4DAF1
:10277000D8015E968C915E978F3F59F48091050742
:10278000843008F0BFCF91E0980F909305075E96D4
:102790008C93F801968DE92FF0E0EE0FFF1FEA5FB2
:1027A000F84F11830083911103C06CE673E10AC0F6
:1027B000913019F464E673E105C0923009F0A2CFBC
:1027C0006CE573E18E2DC3D940E06EE0C80145D7BA
:1027D00040E06FE0C80141D7C80175DD43E050E03B
:1027E00061ED73E0CE0101960E94252049816DE1E3
:1027F000C80133D74A816EE1C8012FD74B8166E209
:10280000C8012BD740E060E2C80127D748E061E269
:10281000C80123D744EE66E0C8011FD740EC67E04B
:10282000C8011BD740E068E0C80117D7F801E05E97
:10283000FE4F81E0808344E06DE4C8010ED748E894
:1028400069E0C8010AD78F2D0F900F900F90DF918C
:10285000CF911F910F91FF90EF9008950F931F93C9
:10286000CF93DF93EC0188819981009729F02A8129
:102870003B812617370788F48B016F5F7F4F0E94DB
:10288000A528009761F0998388831B830A832C8194
:102890003D81232B11F4FC01108281E001C080E016
:1028A000DF91CF911F910F910895CF93DF93EC01AA
:1028B00088819981009711F00E940D281982188251
:1028C0001D821C821B821A82DF91CF910895EF92A4
:1028D000FF920F931F93CF93DF93EC017B018A014B
:1028E000BA01BCDF811103C0CE01DFDF07C01D8349
:1028F0000C83B701888199810E94AA29CE01DF91BA
:10290000CF911F910F91FF90EF900895FC0180816E
:1029100091810C940D28EF92FF920F931F93CF9308
:10292000DF93CDB7DEB7A1970FB6F894DEBF0FBE29
:10293000CDBF7C01CB01BA01F70111821082138255
:1029400012821582148242E0420F8E010F5F1F4FE8
:102950000E94881FBC01C701DADAA1960FB6F8946D
:10296000DEBF0FBECDBFDF91CF911F910F91FF90C2
:10297000EF900895FB01DC0111961C921E921396B4
:102980001C921E92129715961C921E9214978617EF
:10299000970741F0608171816115710519F04481DB
:1029A000558195CF0895FC01118210821382128205
:1029B000158214826115710549F0FB010190002018
:1029C000E9F73197AF01461B570B81CF08951F924E
:1029D0000F920FB60F9211240BB60F922F933F93C5
:1029E0004F935F936F937F938F939F93AF93BF9317
:1029F000EF93FF93E0910E02F0910F021995FF9172
:102A0000EF91BF91AF919F918F917F916F915F9166
:102A10004F913F912F910F900BBE0F900FBE0F90D3
:102A20001F9018951F920F920FB60F9211240BB69C
:102A30000F922F933F934F935F936F937F938F9357
:102A40009F93AF93BF93EF93FF93E0910C02F091AC
:102A50000D021995FF91EF91BF91AF919F918F91C9
:102A60007F916F915F914F913F912F910F900BBE8E
:102A70000F900FBE0F901F9018951F920F920FB6D8
:102A80000F9211240BB60F922F933F934F935F93A6
:102A90006F937F938F939F93AF93BF93EF93FF9326
:102AA000E0910202F09103021995FF91EF91BF911D
:102AB000AF919F918F917F916F915F914F913F91D6
:102AC0002F910F900BBE0F900FBE0F901F90189577
:102AD0001F920F920FB60F9211240BB60F922F93E5
:102AE0003F934F935F936F937F938F939F93AF9396
:102AF000BF93EF93FF93E0910002F09101021995CB
:102B0000FF91EF91BF91AF919F918F917F916F91C5
:102B10005F914F913F912F910F900BBE0F900FBE81
:102B20000F901F9018951F920F920FB60F921124BD
:102B30000BB60F922F933F934F935F936F937F93B7
:102B40008F939F93AF93BF93EF93FF93E0910A020C
:102B5000F0910B021995FF91EF91BF91AF919F9169
:102B60008F917F916F915F914F913F912F910F9036
:102B70000BBE0F900FBE0F901F9018951F920F92D3
:102B80000FB60F9211240BB60F922F933F934F93D2
:102B90005F936F937F938F939F93AF93BF93EF93C5
:102BA000FF93E0910802F09109021995FF91EF91CE
:102BB000BF91AF919F918F917F916F915F914F9155
:102BC0003F912F910F900BBE0F900FBE0F901F9053
:102BD00018951F920F920FB60F9211240BB60F92F9
:102BE0002F933F934F935F936F937F938F939F9315
:102BF000AF93BF93EF93FF93E0910602F09107022A
:102C00001995FF91EF91BF91AF919F918F917F9116
:102C10006F915F914F913F912F910F900BBE0F904D
:102C20000FBE0F901F9018951F920F920FB60F9224
:102C300011240BB60F922F933F934F935F936F9393
:102C40007F938F939F93AF93BF93EF93FF93E09105
:102C50000402F09105021995FF91EF91BF91AF9198
:102C60009F918F917F916F915F914F913F912F91A4
:102C70000F900BBE0F900FBE0F901F9018951F92D4
:102C80000F920FB60F9211240BB60F922F933F9312
:102C90004F935F936F937F938F939F93AF93BF9364
:102CA000EF93FF9386ED93E01FDAFF91EF91BF91D1
:102CB000AF919F918F917F916F915F914F913F91D4
:102CC0002F910F900BBE0F900FBE0F901F90189575
:102CD0001F920F920FB60F9211240BB60F922F93E3
:102CE0003F934F935F936F937F938F939F93AF9394
:102CF000BF93EF93FF9386ED93E08ED9FF91EF9111
:102D0000BF91AF919F918F917F916F915F914F9103
:102D10003F912F910F900BBE0F900FBE0F901F9001
:102D200018951F920F920FB60F9211240BB60F92A7
:102D30002F933F934F935F936F937F938F939F93C3
:102D4000AF93BF93EF93FF9383E794E0CDD9FF91C7
:102D5000EF91BF91AF919F918F917F916F915F9113
:102D60004F913F912F910F900BBE0F900FBE0F9080
:102D70001F9018951F920F920FB60F9211240BB649
:102D80000F922F933F934F935F936F937F938F9304
:102D90009F93AF93BF93EF93FF9383E794E03CD966
:102DA000FF91EF91BF91AF919F918F917F916F9123
:102DB0005F914F913F912F910F900BBE0F900FBEDF
:102DC0000F901F901895CF93DF93EC0145E061E0E1
:102DD00044D440E060E4CE0140D484E090E09B83A2
:102DE0008A83DF91CF910895CF93DF93FC012281F5
:102DF00033812330310559F0EC01828193810497AE
:102E000011F0CF01E0DFC15EDE4F888101C080E0BC
:102E1000DF91CF910895089580912E07882361F066
:102E20009FB7F89420912E0780912D07213019F437
:102E30008DBB9FBF08958FBF0895FC0120859185AC
:102E400080912E07882379F08FB7F89430912E0760
:102E5000313039F43DB330932D073DB33DBB8FBFC7
:102E600002C080932D072CBD9DBD08959FB7F89497
:102E700080912C07882319F0815080932C07809132
:102E80002C07811105C08CB58F7B8CBD10922E074D
:102E90009FBF08958CB58F778CBD08958CB58068E1
:102EA0008CBD08956EBD00000DB407FEFDCF8EB53C
:102EB0000895FC01738362830895FC017783668320
:102EC0000895FC0175836483089508950895089515
:102ED00008950895FC01848995890895FC018289EB
:102EE00093890895FC0180899189089580E008956F
:102EF000FC01738362830895FC01828193810895AC
:102F0000FC01868597850895FC0181850895FC0163
:102F100080850895FC0187810895FC0186810895CC
:102F2000FC01409595854923642B65870895FC0134
:102F300064870895FC0163870895FC016287089502
:102F4000FC0164830895FC016583089580E0089581
:102F5000FC012281338123303105D1F381E00895D2
:102F6000CF93DF93EC01E881F9810280F381E02DBA
:102F7000CE0119958823B9F3DF91CF91089581E0AF
:102F800008950895E0918A0380918903E81730F449
:102F9000F0E0E45FF84F808190E008958FEF9FEFBD
:102FA000089590918A0380918903981750F4E92F2E
:102FB000F0E0E45FF84F208130E09F5F90938A0358
:102FC00002C02FEF3FEFC90108958091890390E07F
:102FD00020918A03821B91090895089580E090E072
:102FE0000895CF93DF93FC01228133812230310594
:102FF00069F0EC01678D858D0E944D0E60E08C8D2F
:103000000E944D0E82E090E09B838A83DF91CF91F6
:103010000895CF93DF93EC01898D9A8DDC01ED91BA
:10302000FC910680F781E02D199561E08B8D0E945F
:103030007C0E61E08B8D0E944D0E64E670E080E0B6
:1030400090E00E94B80E81E0DF91CF9108950F9338
:103050001F93CF93FC01828193818430910569F0A5
:103060008330910579F08230910589F00197A1F0C4
:1030700040E452E46FE070E013C040E054E264EFDB
:1030800070E00EC040E052E16AE770E009C040E045
:1030900059E06DE370E004C040E854E86EE170E090
:1030A000A481B58186819781009741F08130910597
:1030B00039F08230910531F0039731F090E005C08E
:1030C00094E003C098E001C09CE080E000E012E1E1
:1030D0002AE730E0401751076207730740F436953E
:1030E0002795179507958F5F8630A1F787E021E038
:1030F0002827119711F080E501C080E7322F36951F
:10310000932B982B908721702187CFB7F8948091CB
:103110002C07811127C0E4E3F3E08491EAE7F3E0B0
:103120009491E82FF0E0EE0FFF1FE553FD4FA591BE
:10313000B491EC91E92321F461E085E30E944D0E06
:1031400061E085E30E947C0E8CB580618CBD8CB5FE
:1031500080648CBD61E084E30E947C0E61E083E3C7
:103160000E947C0E80912C078F5F80932C07CFBF2D
:10317000CF911F910F9108958F929F92AF92BF921E
:10318000CF92DF92EF92FF92CF93DF93EC016B012E
:103190000E94F00E4B015C01E12CF12C0E94F00E1C
:1031A000DC01CB0188199909AA09BB098C159D0579
:1031B000AE05BF0530F48A819B81039779F381E0E6
:1031C00001C080E0DF91CF91FF90EF90DF90CF9032
:1031D000BF90AF909F908F9008958F929F92AF92E3
:1031E000BF92CF92DF92EF92FF92CF93DF93EC01E9
:1031F0006B010E94F00E4B015C01E12CF12C0E944E
:10320000F00EDC01CB0188199909AA09BB098C15BC
:103210009D05AE05BF0550F4E881F9810280F38178
:10322000E02DCE011995882351F301C080E0DF9194
:10323000CF91FF90EF90DF90CF90BF90AF909F9095
:103240008F9008958F929F92AF92BF92CF92DF920C
:10325000EF92FF92CF93DF93FC012789308D232BD0
:1032600011F481E037C0EC010E94F00E6B017C018B
:1032700089E0882E912CA12CB12CE881F981048859
:10328000F589E02DCE011995882359F30E94F00E9F
:10329000AB01BC014C195D096E097F098F89988DBE
:1032A000A0E0B0E084179507A607B70790F098D67E
:1032B000A50194010E944A259B01AC012F5F3F4F5D
:1032C0004F4F5F4FA4E6B0E00E9466250E94B80E03
:1032D000D4CF80E0DF91CF91FF90EF90DF90CF903F
:1032E000BF90AF909F908F900895CF92DF92EF9212
:1032F000FF920F931F93CF93DF937C01262F972F7D
:103300008A018091B203882391F0C62FD72F6E01D6
:10331000C40ED51ECC15DD0571F06991D701ED9174
:10332000FC910190F081E02DC7011995F3CF642F36
:10333000822F0E947D03C801DF91CF911F910F91D1
:10334000FF90EF90DF90CF900895CF93DF931F927F
:10335000CDB7DEB769832091B2032223D1F020914B
:10336000D503203240F021E030E0FC01338322839A
:1033700080E090E015C08091B303E82FF0E0EC54BA
:10338000FC4F998190838F5F8093B3038093D50323
:1033900005C061E0CE0101960E947D0381E090E0CE
:1033A0000F90DF91CF9108951F920F920FB60F9259
:1033B00011240BB60F92CF92DF92EF92FF920F93F0
:1033C0001F932F933F934F935F936F937F938F93AD
:1033D0009F93AF93BF93CF93DF93EF93FF93C091EE
:1033E0002F07D09130078A819B81049709F0C9C0CB
:1033F0002B8D30E0F901E557FC4F8491F901EB5B2F
:10340000FC4F0491F901E150FD4F1491112379F023
:1034100081110E94F70DE12FF0E0EE0FFF1FE35244
:10342000FC4FA591B491EC91E02381E009F480E098
:1034300081709E8D892719F09BA19F5F9BA39AA104
:10344000891771F09CA1903518F02DE130E002C091
:103450002BE030E09CA1290F311D2CA38AA303C0CF
:103460008CA18C5E8CA38CA1803A08F4DBC08EA169
:103470009FA1969587959FA38EA38BA1853028F059
:103480008EA19FA198609FA38EA38CA1805A8CA32C
:103490001BA28DA1882309F467C088A58F5F88A728
:1034A0008C3008F4BFC08EA19FA1982F9F73892FE5
:1034B00086958695887028E0280F821749F0E82FB6
:1034C000F0E0EC56FD4F3081931719F08F5FF5CF88
:1034D00080E020E1829FC00111242EA13FA196E04F
:1034E000369527959A95E1F7422F3695279536958B
:1034F0002795287038E0320F231749F0E22FF0E0CB
:10350000EC56FD4F5081451719F02F5FF5CF20E0A5
:10351000822BAE0143595F4FFA019081DE01A4591D
:10352000BF4F9923A9F0FA01908121E0290F208350
:103530009E01290F311DF90181A7FA0190818C911B
:10354000981780F01DA281E088A3CE014ADD0AC051
:103550008C939C91973008F45FC09C91943408F050
:103560005BC0E1CF18A65EC08EA19FA188339B40AF
:1035700009F058C081E08DA318A6C359DF4F188207
:1035800051C08A819B81039709F04CC08E0100597C
:103590001F4FF801808191E0980F9083811136C010
:1035A0007E01FEE6EF0EF11CF7018081EF56FF4F22
:1035B0009081891740F0CE0114DD8C899D89019698
:1035C0009D8B8C8B23C0FE01E80FF11DEF58FF4F40
:1035D000608170E06E01FFE6CF0ED11CF6018081A4
:1035E00091E0980F908302C0759567958A95E2F7F0
:1035F000617077278C8D0E944D0EF6018081863098
:1036000028F01082F70180818F5F8083F80180812C
:10361000883040F0108206C01DA2888999890196E1
:10362000998B888BFF91EF91DF91CF91BF91AF91F3
:103630009F918F917F916F915F914F913F912F91CA
:103640001F910F91FF90EF90DF90CF900F900BBEE6
:103650000F900FBE0F901F901895EF92FF920F934F
:103660001F93CF93DF931F92CDB7DEB77C01162F48
:103670000FB7F894DC0159968D919C915A97DC0113
:10368000ED91FC910088F189E02D4983199560E066
:10369000F701838D0E944D0ED70159968D919C9113
:1036A0005A97DC01ED91FC91612F60680190F081E7
:1036B000E02D1995182FF701818D928DDC01ED9188
:1036C000FC910190F081E02D4981642F199561E012
:1036D000F701838D0E944D0ED70159968D919C91D3
:1036E0005A97DC01ED91FC910288F389E02D199540
:1036F0000FBF812F0F90DF91CF911F910F91FF90FE
:10370000EF9008950F931F93CF93DF93EC01162F43
:103710000FB7F89460E08B8D0E944D0E898D9A8DC5
:10372000DC01ED91FC91612F6F770190F081E02D2C
:103730001995898D9A8DDC01ED91FC910190F081B4
:10374000E02D60E01995182F61E08B8D0E944D0EE1
:103750000FBF812FDF91CF911F910F910895CF93CC
:10376000DF93EC018A859B85AC85BD858E839F8325
:10377000A887B9870E94F00E6A837B838C839D8320
:1037800081E089838883DF91CF9108952F923F92C2
:103790004F925F926F927F928F929F92AF92BF9261
:1037A000CF92DF92EF92FF920F931F93CF93DF930D
:1037B000D82FC92F8B0123D424E630E040E050E01D
:1037C0000E94762549015A019B01AC0160E876E927
:1037D00088E990E00E943A276B017C01F801918210
:1037E0008082ED2FFC2F2191822F022E000C990B4D
:1037F000C0970A97C0F32E3239F51F0180E8882E52
:1038000086E9982E88E9A82EB12C9AE0492E512CF1
:10381000612C712CF101C1911F010C2E000CDD0BEC
:10382000E097CA30D10580F4C501B401A30192012B
:103830000E94762549015A01DE010E947025C60EBC
:10384000D71EE81EF91EE6CFA5E0B0E0A70196015D
:103850000E9466256F5F7F4F8F4F9F4F23E030E0C0
:1038600040E050E00E947625F801228333834483B0
:1038700055831682DF91CF911F910F91FF90EF90AA
:10388000DF90CF90BF90AF909F908F907F906F9080
:103890005F904F903F902F900895FF920F931F934A
:1038A000CF93DF93EC01FF24F39488818D3211F0E4
:1038B000F12C01C02196CE01A2D39B01AC01A4E65C
:1038C000B0E00E946625FE014991242F042E000CD1
:1038D000330B205331092A303105A8F34E3241F51C
:1038E0002181022E000C330B205331092A3031057F
:1038F000F8F44AE0429F8001439F100D1124012EED
:10390000000C220B330B600F711F821F931F02816B
:10391000002E000C110B005311090A30110540F460
:10392000012E000C220B330B600F711F821F931F9F
:10393000FF2039F090958095709561957F4F8F4F5E
:103940009F4FDF91CF911F910F91FF900895E6ED6A
:10395000F3E01382128248EE53E060E070E04483AB
:103960005583668377838EE192E0918380832DEC8B
:1039700030E0358724872CEC30E03787268728EC29
:1039800030E0318B208B29EC30E0338B228B2AEC1A
:1039900030E0358B248B2EEC30E0378B268B118E6C
:1039A000128E138E148EE3E7F4E0138212824483A6
:1039B0005583668377839183808385EC90E0958738
:1039C000848784EC90E09787868780EC90E0918BE9
:1039D000808B81EC90E0938B828B82EC90E0958BD6
:1039E000848B86EC90E0978B868B118E128E138ED3
:1039F000148EABEFB6E013961C921E92129715969A
:103A00001C921E92149717961C921E92169780E392
:103A100092E011969C938E9380E518968C9318975C
:103A200019961C921997E0E1F5E013821282448303
:103A30005583668377838AE492E091838083E5E40B
:103A4000F6E010821182138212821482158216828D
:103A5000178210861286118613861486158616869E
:103A60001786118A108A128A138A148A158A168A6E
:103A7000108E178A118E128E138E148E158E12A22E
:103A800013A214A215A216A217A210AA11AA12AA72
:103A900013AA14AA15AA10928306109284061092F3
:103AA000890610928A0610928B0610928C0610924C
:103AB0009106109292061092970610929806109214
:103AC000990610929A0610929F061092A0061092E4
:103AD000A5061092A6061092A7061092A8061092AC
:103AE000AD061092AE061092B3061092B406109274
:103AF000B5061092B6061092BB061092BC06109244
:103B0000C1061092C2061092C3061092C40610920B
:103B1000C9061092CA0692E09093DA061092DB066C
:103B20001092DC061092DD061092DF061092DE067F
:103B30001092E1061092E0061092E2061092E3065F
:103B40001092E4061092E5061092E6061092E7063F
:103B50001092E8061092E9061092EA061092EB061F
:103B60001092EC061092ED061092EE061092EF06FF
:103B70001092F0061092F1061092CB06EEE3F6E0FA
:103B8000128213821482158225E832E03183208369
:103B90008EE18683ECE1F5E0138212828FEF84835D
:103BA0008287838714861586118A108A138A128A5F
:103BB000158A148A108E178AB28FA18F2AE0238F5C
:103BC0002CE532E03183208310923B06958F868F5F
:103BD0000895789484B5826084BD84B5816084BD85
:103BE00085B5826085BD85B5816085BD80916E009B
:103BF000816080936E0010928100809181008260CC
:103C00008093810080918100816080938100809108
:103C100080008160809380008091B10084608093F7
:103C2000B1008091B00081608093B00080919100DC
:103C300082608093910080919100816080939100D7
:103C4000809190008160809390008091A1008260BB
:103C50008093A1008091A10081608093A100809158
:103C6000A00081608093A0008091210182608093F8
:103C700021018091210181608093210180912001A7
:103C800081608093200180917A00846080937A0023
:103C900080917A00826080937A0080917A008160BE
:103CA00080937A0080917A00806880937A001092E5
:103CB000C100E0918304F091840422E02083E0912C
:103CC0007F04F09180041082E0918104F0918204DD
:103CD00080E1808310928B04E0918704F091880446
:103CE00096E09083E0918504F09186048081806164
:103CF0008083E0918504F0918604808188608083D0
:103D0000E0918504F0918604808180688083E09151
:103D10008504F091860480818F7D8083E091E603A5
:103D2000F091E7032083E091E203F091E303108236
:103D3000E091E403F091E5038FEC80831092EE03B1
:103D4000E091EA03F091EB039083E091E803F091B6
:103D5000E903808180618083E091E803F091E903C9
:103D6000808188608083E091E803F091E90380819D
:103D700080688083E091E803F091E90380818F7D82
:103D8000808310928A03109289031092B3031092D9
:103D9000D5031092B10381E08093B00310928B039E
:103DA00061E084E10E944D0E61E085E10E944D0ECC
:103DB0008091B9008E7F8093B9008091B9008D7F8A
:103DC0008093B90088E48093B80085E48093BC00B8
:103DD00088ED99EEA7E9BEE38093400690934106F3
:103DE000A0934206B093430680913E0690913F0611
:103DF0008C7F816090933F0680933E0661E082E075
:103E00000E948D0D80913E0690913F06837E8460D6
:103E100090933F0680933E0660E281E00E948D0D04
:103E200080913E0690913F068F71907C80689260F1
:103E300090933F0680933E0661E08DE00E947C0EE9
:103E400061E08DE10E947C0E61E087E20E947C0EC1
:103E500061E081E30E947C0E61E08EE20E947C0EB4
:103E600061E08FE20E947C0E61E087E10E947C0E9F
:103E700061E08DE20E947C0E61E089E20E947C0E8E
:103E800061E08BE10E947C0E61E08BE20E947C0E7F
:103E900061E089E10E947C0E61E081E20E947C0E7B
:103EA00061E08FE10E947C0E61E085E20E947C0E61
:103EB00061E083E20E947C0E87EF92E00E94130D86
:103EC0008CE195E00E947413811103C080E093E0BF
:103ED00002C08CE093E00E94240D61E08BE10E941F
:103EE0004D0E61E08FE20E944D0E61E081E20E9482
:103EF0004D0E60ED77E080E090E00E94B80E60E04B
:103F000081E20E944D0E0E94A5030E94FC10FBCF8F
:103F1000EF920F931F93CF93DF93E80147FD02C009
:103F200034E001C034E1E42F440FFF0BF7FF03C07E
:103F3000F195E195F109E32E022F2E2FAE01A3D0CA
:103F4000CE01DF91CF911F910F91EF9008958F9245
:103F50009F92AF92BF92CF92DF92EF92FF92CF9358
:103F6000DF93EC01688179818A819B8161157105FC
:103F70008105910521F464E279ED8BE597E02DE16F
:103F800033EF41E050E086D549015A019B01AC0175
:103F9000A7EAB1E49BD56B017C01ACEEB4EFA501BF
:103FA0009401A0D5DC01CB018C0D9D1DAE1DBF1D64
:103FB000B7FF03C00197A109B04888839983AA83FA
:103FC000BB83BC01CD019F77DF91CF91FF90EF9034
:103FD000DF90CF90BF90AF909F908F900895B7CF14
:103FE00080E192E0B4CF609310027093110280934D
:103FF000120290931302089566277727D1C11F9369
:10400000FC0199278827BC01E89411911032E9F34B
:10401000193010F01E30C8F31B3249F01D3241F444
:10402000689405C01BD0610F711D811D911D1191F8
:1040300010531A30B8F33EF49095809570956195C1
:104040007F4F8F4F9F4F1F910895FB01DC0102C0EE
:1040500005900D9241505040D8F70895592F482FA0
:10406000372F262F660F771F881F991F660F771F20
:10407000881F991F620F731F841F951F660F771F7C
:10408000881F991F08954F925F926F927F929F921F
:10409000AF92BF92CF92DF92EF92FF920F931F9356
:1040A000CF93DF93CDB7DEB729970FB6F894DEBF75
:1040B0000FBECDBF6A01122FB02E2BE3201720F0C8
:1040C000FF24F394F00E02C0BCE3FB2E0F2D27E07B
:1040D000AE014F5F5F4FCAD2AC018981982F9970B2
:1040E000913031F0E1FC06C0E0FE06C090E205C070
:1040F0009DE203C09BE201C090E0EE2DE07183FFE2
:104100003CC0911102C083E001C084E0811718F423
:10411000212F281B01C020E0E1110BC0F601822FE6
:1041200030E2882319F031938150FBCFC20ED11CAD
:1041300020E0992329F0D6019C93F60131966F0176
:10414000C6010396E2FE0AC03EE4D6013C9341E478
:1041500011964C93119712963C9306C03EE6F601D9
:10416000308341E641833283FC01322F40E2332326
:1041700009F442C041933150FACF82FF44C09111FB
:1041800002C083E001C084E0811718F4212F281BAE
:1041900001C020E0E1110BC0F601822F30E288233C
:1041A00019F031938150FBCFC20ED11C20E099232E
:1041B00029F0D6019C93F60131966F01C601039652
:1041C000E2FE0BC039E4D6013C933EE411963C93E9
:1041D000119736E412963C9307C039E6F601308316
:1041E0003EE6318336E63283FC01322F40E2332350
:1041F00019F041933150FBCFFC01E20FF11D108209
:104200008EEF9FEFB7C0F1E0911101C0F0E06F2F8A
:1042100070E01416150624F49A012F5F3F4F02C078
:1042200021E030E0260F371FBB2029F06B2D70E016
:104230006F5F7F4F02C060E070E0260F371F612F75
:1042400070E0261737071CF4121B212F01C020E055
:104250003E2D387159F4D601322F60E2332319F024
:104260006D933150FBCFC20ED11C20E0FF2331F003
:10427000D6019C93B6016F5F7F4F6B01E1110BC0BC
:10428000F601922F30E3992319F031939150FBCF2F
:10429000C20ED11C20E09F2D940F3A81782F7071AF
:1042A000A72E84FF03C0313309F49150191624F46A
:1042B000993018F098E001C091E0E42F852F57FF66
:1042C00002C0E0E080E06E2F782FE0E0F0E0AEE2A8
:1042D0009A2E3A01691A71082A01461A570A0B2DBB
:1042E00010E01195019511096F3F8FEF780729F4C0
:1042F000D6019C92C60101966C014617570784F0BF
:10430000661677066CF47F01E40CF51CA1E0B0E0C2
:10431000AC0FBD1FEA0EFB1ED7011196BC9002C068
:1043200090E3B92E615071093196C60101967C0166
:104330006017710724F0D601BC926C01D5CF6417C9
:10434000750741F4363320F4353321F4A11002C04F
:1043500081E3B82EF601B082F701822F90E2882324
:1043600019F091938150FBCFF701E20FF11D1082FC
:1043700080E090E029960FB6F894DEBF0FBECDBF67
:10438000DF91CF911F910F91FF90EF90DF90CF9031
:10439000BF90AF909F907F906F905F904F900895E7
:1043A0006F927F928F929F92AF92BF92CF92DF9245
:1043B000EF92FF920F931F93CF93DF93EC017B015A
:1043C0006115710519F0DB018D939C938E010F5FD0
:1043D0001F4F7880872D90E021D2892B11F0E801C2
:1043E000F5CFBDE27B1205C00F5F1F4F7980C1E0A2
:1043F00008C0EBE27E1204C08E010E5F1F4F798071
:10440000C0E06801F1E0CF1AD10843E050E06EE966
:1044100071E0C6010BD2892BE9F4680122E0C20EDB
:10442000D11C45E050E069E971E0C601FFD1892B5C
:1044300021F4680187E0C80ED11CE114F10419F0E1
:10444000D701CD92DC92C111F9C060E070E080E844
:104450009FE7FDC043E050E066E971E0C601E6D1A8
:10446000892B51F4E114F10409F4EDC00E5F1F4FE4
:10447000F70111830083E7C0680160E070E0CB01C1
:1044800000E010E0F601D0EDD70DDA3050F52C2F1A
:104490002260622E2C2F2870C2FF05C0211127C078
:1044A0000F5F1F4F24C0222311F001501109A5E016
:1044B000B0E09B01AC010AD34B015C01880C991C54
:1044C000AA1CBB1CC501B4016D0F711D811D911D7E
:1044D0006839A9E97A078A07A9E19A0740F0C66016
:1044E00005C0DE3F51F4C3FD44C0C8606C2EBFEF71
:1044F000CB1ADB0A7080C62DC5CF2D2F2F7D25311D
:10450000C1F540814D3211F4C06106C04B3221F03B
:10451000319621E030E006C03296D60111964C91DA
:1045200022E030E0A0EDA40FAA3018F0E21BF30B5C
:1045300020C040E050E04038BCE05B075CF49A01EA
:10454000220F331F220F331F420F531F440F551FDB
:104550004A0F511D3196DF0111972C91A0EDA20F4A
:10456000AA3048F3C4FF03C0519541955109040F87
:10457000151FC1FF07C0E114F10421F03197D701E5
:10458000ED93FC936FD1C370C33019F06B017C01C4
:1045900006C06B017C01F7FAF094F7F8F09420E084
:1045A00030E0A901C701B60159D1882309F443C0FD
:1045B00017FF06C0119501951109C5EBD1E002C0A6
:1045C000CDECD1E05E01B8E1AB1AB1084601BE2DD9
:1045D000AF2D90E2E92EF12C0E151F057CF0FE01A7
:1045E0002591359145915491B4018B2F9A2F9BD1F0
:1045F0004B01B82FA92F0E191F09EECF2497F59460
:10460000E794CA15DB0541F76401EB2EFA2E8E2DD7
:10461000880F8F2D881F8F3F41F020E030E0A901E7
:10462000C701B6011BD1811106C082E290E09093D0
:10463000320780933107C701B60109C060E070E01E
:1046400080E89FEF04C060E070E080EC9FE7DF91BE
:10465000CF911F910F91FF90EF90DF90CF90BF907F
:10466000AF909F908F907F906F900895283008F0C2
:1046700027E03327DA01990F311D87FD91600096FD
:104680006105710539F432602E5F3D9330E32A9560
:10469000E1F708959F3F30F080387105610509F01A
:1046A0003C5F3C5F3D93913008F08068911DDF9343
:1046B000CF931F930F93FF92EF92192F987F9695A8
:1046C000E92F96959695E90FFF27E55DFD4F992710
:1046D0003327EE24FF24A701E701059008940794EF
:1046E00028F4360FE71EF81E491F511D660F771F6D
:1046F000881F991F0694A1F70590079428F4E70EE8
:10470000F81E491F561FC11D770F881F991F661F6E
:104710000694A1F70590079428F4F80E491F561F38
:10472000C71FD11D880F991F661F771F0694A1F719
:104730000590079420F4490F561FC71FD81F990FE3
:10474000661F771F881F0694A9F78491109517702C
:1047500041F0D695C79557954795F794E7941A95E4
:10476000C1F7E1EDF1E068941590159135916591EF
:10477000959105907FE27395E118F10A430B560B72
:10478000C90BD009C0F7E10CF11E431F561FC91F0A
:10479000D01D7EF4703311F48A95E6CFE894015071
:1047A00030F0080F0AF40027021708F4202F239591
:1047B000022F7A3328F079E37D932A95E9F710C028
:1047C0007D932A9589F60694979567953795179561
:1047D0001794E118F10A430B560BC90BD00998F056
:1047E00023957E9173957A3308F070E37C932013C0
:1047F000B8F77E9170617D9330F0839571E37D937E
:1048000070E32A95E1F71124EF90FF900F911F912B
:10481000CF91DF91992787FD909508959111E6C07A
:10482000803219F089508550D0F70895FB01DC01E2
:104830004150504088F08D9181341CF08B350CF440
:10484000805E659161341CF06B350CF4605E861BF4
:10485000611171F3990B0895881BFCCF40D008F4C7
:1048600081E00895E89409C097FB3EF49095809507
:10487000709561957F4F8F4F9F4F9923A9F0F92F26
:1048800096E9BB279395F695879577956795B795A4
:10489000F111F8CFFAF4BB0F11F460FF1BC06F5F8A
:1048A0007F4F8F4F9F4F16C0882311F096E911C09C
:1048B000772321F09EE8872F762F05C0662371F0BD
:1048C00096E8862F70E060E02AF09A95660F771FD1
:1048D000881FDAF7880F9695879597F90895990FAD
:1048E0000008550FAA0BE0E8FEEF16161706E807BA
:1048F000F907C0F012161306E407F50798F0621BDB
:10490000730B840B950B39F40A2661F0232B242BAF
:10491000252B21F408950A2609F4A140A6958FEFCE
:10492000811D811D08950BD07BC06CD028F071D003
:1049300018F0952309F05DC062C01124A5C081D094
:10494000A0F3959FD1F3950F50E0551F629FF001A2
:10495000729FBB27F00DB11D639FAA27F00DB11DFB
:10496000AA1F649F6627B00DA11D661F829F222784
:10497000B00DA11D621F739FB00DA11D621F839F0B
:10498000A00D611D221F749F3327A00D611D231FE1
:10499000849F600D211D822F762F6A2F11249F572F
:1049A00050408AF0E1F088234AF0EE0FFF1FBB1F52
:1049B000661F771F881F91505040A9F79E3F5105F1
:1049C00070F017C061C05F3FECF3983EDCF3869552
:1049D00077956795B795F795E7959F5FC1F7FE2B9C
:1049E000880F911D9695879597F90895992788279F
:1049F000089597F99F6780E870E060E008959FEF61
:104A000080EC089500240A94161617061806090665
:104A1000089500240A941216130614060506089534
:104A2000092E0394000C11F4882352F0BB0F40F4BC
:104A3000BF2B11F460FF04C06F5F7F4F8F4F9F4FFC
:104A4000089557FD9058440F551F59F05F3F71F07E
:104A50004795880F97FB991F61F09F3F79F08795E5
:104A60000895121613061406551FF2CF4695F1DF6E
:104A700008C0161617061806991FF1CF86957105FE
:104A8000610508940895E894BB2766277727CB0132
:104A900097F90895052E97FB16F400940FD057FD53
:104AA00005D024D007FC02D046F408C050954095AC
:104AB000309521953F4F4F4F5F4F089590958095CA
:104AC000709561957F4F8F4F9F4F089531D0A59F6F
:104AD000900DB49F900DA49F800D911D11240895F9
:104AE000B7FFF4CFF3DF821B930B0895A1E21A2ED8
:104AF000AA1BBB1BFD010DC0AA1FBB1FEE1FFF1F82
:104B0000A217B307E407F50720F0A21BB30BE40BD1
:104B1000F50B661F771F881F991F1A9469F7609518
:104B20007095809590959B01AC01BD01CF010895D2
:104B3000A29FB001B39FC001A39F700D811D1124DE
:104B4000911DB29F700D811D1124911D0895505823
:104B5000BB27AA270ED064CF55DF30F05ADF20F0F4
:104B600031F49F3F11F41EF44ACF0EF4E095E7FBB9
:104B700040CFE92F66DF80F3BA1762077307840717
:104B8000950718F071F49EF57ECF0EF4E0950B2E8C
:104B9000BA2FA02D0B01B90190010C01CA01A0018F
:104BA0001124FF27591B99F0593F50F4503E68F1EA
:104BB0001A16F040A22F232F342F4427585FF3CF2B
:104BC000469537952795A795F0405395C9F77EF4FC
:104BD0001F16BA0B620B730B840BBAF09150A1F045
:104BE000FF0FBB1F661F771F881FC2F70EC0BA0FCB
:104BF000621F731F841F48F4879577956795B79553
:104C0000F7959E3F08F0B3CF9395880F08F099274A
:104C1000EE0F979587950895F5DE58F080E891E0BE
:104C200009F49EEFF6DE28F040E851E059F45EEF1B
:104C300009C0E5CE28CFE92FE07803DF68F3092E1D
:104C4000052AC1F3261737074807590738F00E2EF3
:104C500007F8E02569F0E025E0640AC0EF6307F893
:104C6000009407FADB01B9019D01DC01CA01AD0125
:104C7000EF9343D0D5DE0AD05F91552331F02BED71
:104C80003FE049E450FD49EC63CF0895DF93DD2711
:104C9000B92FBF7740E85FE31616170648075B0792
:104CA00010F4D92FDDD09F938F937F936F93DFD034
:104CB000E8E6F1E0ACD0B4DE2F913F914F915F91E7
:104CC0003EDEDD2349F09058A2EA2AED3FE049ECB0
:104CD0005FE3D0785D274DDFDF91A2CE0CD0A0CE70
:104CE00098DE40F08FDE30F021F45F3F19F081CE86
:104CF0005111CACE84CEA5DE98F39923C9F355236A
:104D0000B1F3951B550BBB27AA27621773078407BE
:104D100038F09F5F5F4F220F331F441FAA1FA9F374
:104D200033D00E2E3AF0E0E830D091505040E69566
:104D3000001CCAF729D0FE2F27D0660F771F881FC7
:104D4000BB1F261737074807AB07B0E809F0BB0BB6
:104D5000802DBF01FF2793585F4F2AF09E3F5105DA
:104D600068F047CE91CE5F3FECF3983EDCF386953A
:104D700077956795B795F7959F5FC9F7880F911D50
:104D80009695879597F90895E1E0660F771F881F3C
:104D9000BB1F621773078407BA0720F0621B730BEF
:104DA000840BBA0BEE1F88F7E095089504D0689441
:104DB000B1116ACE08954DDE88F09F5790F0B92F5B
:104DC0009927B751A0F0D1F0660F771F881F991F60
:104DD0001AF0BA95C9F712C0B13081F054DEB1E0D3
:104DE000089551CE672F782F8827B85F39F0B93FE3
:104DF000CCF3869577956795B395D9F73EF4909562
:104E00008095709561957F4F8F4F9F4F0895DF93E9
:104E1000CF931F930F93FF92EF92DF927B018C0150
:104E2000689405C0DA2EEF018ADDFE01E894A591B1
:104E30002591359145915591AEF3EF019ADEFE0132
:104E40009701A801DA9479F7DF90EF90FF900F9126
:104E50001F91CF91DF91089542DD08F48FEF0895FF
:104E60009B01AC0160E070E080E89FE337CF9B01DD
:104E7000AC0159CDDB018F939F9328DEBF91AF9199
:104E8000A29F800D911DA39F900DB29F900D1124A4
:104E9000089597FB072E16F4009406D077FD08D0EE
:104EA00013D007FC05D03EF4909581959F4F08954F
:104EB000709561957F4F0895EE0FFF1F881F8BBF80
:104EC0000790F691E02D1994AA1BBB1B51E107C076
:104ED000AA1FBB1FA617B70710F0A61BB70B881F8A
:104EE000991F5A95A9F780959095BC01CD01089519
:104EF000CF93DF938230910510F482E090E0E0914F
:104F00003507F091360720E030E0C0E0D0E0309780
:104F100011F14081518148175907C0F048175907CE
:104F200061F482819381209719F09B838A832BC03F
:104F3000909336078093350726C02115310519F067
:104F40004217530718F49A01BE01DF01EF010280F6
:104F5000F381E02DDCCF2115310509F1281B390B38
:104F60002430310590F412968D919C911397611520
:104F7000710521F0FB019383828304C0909336076F
:104F800080933507FD01329644C0FD01E20FF31F07
:104F900081939193225031092D933C933AC02091F3
:104FA000330730913407232B41F4209116023091BE
:104FB0001702309334072093330720911402309165
:104FC00015022115310541F42DB73EB74091180265
:104FD00050911902241B350BE0913307F0913407EF
:104FE000E217F307A0F42E1B3F0B2817390778F0C0
:104FF000AC014E5F5F4F2417350748F04E0F5F1F1F
:1050000050933407409333078193919302C0E0E0BB
:10501000F0E0CF01DF91CF9108950F931F93CF93CD
:10502000DF93009709F48CC0FC013297138212823F
:1050300000913507109136070115110581F4208183
:105040003181820F931F2091330730913407281745
:10505000390779F5F0933407E093330771C0D8012D
:1050600040E050E0AE17BF0750F412962D913C91EE
:105070001397AD012115310509F1D901F3CF9D0138
:10508000DA013383228360817181860F971F821733
:10509000930769F4EC0128813981260F371F2E5FB1
:1050A0003F4F318320838A819B8193838283452B69
:1050B00029F4F0933607E093350742C01396FC932A
:1050C000EE931297ED01499159919E01240F351FDE
:1050D000E217F30771F480819181840F951F029686
:1050E00011969C938E938281938113969C938E93B9
:1050F0001297E0E0F0E0D80112968D919C91139701
:10510000009719F0F8018C01F6CF8D919C919801D0
:105110002E5F3F4F820F931F20913307309134074A
:105120002817390769F4309729F41092360710923E
:10513000350702C01382128210933407009333079D
:10514000DF91CF911F910F9108956F927F928F926F
:105150009F92AF92BF92CF92DF92EF92FF920F9306
:105160001F93CF93DF93EC01009781F4CB01DF9184
:10517000CF911F910F91FF90EF90DF90CF90BF9054
:10518000AF909F908F907F906F90B2CEFC01E60F12
:10519000F71F9C0122503109E217F30708F4A8C059
:1051A000D9010D911C91119706171707A8F005302A
:1051B000110508F49BC0C80104978617970708F4E7
:1051C00095C002501109061B170B019311936D93A3
:1051D0007C93CF0122DF8AC05B01A01AB10A4C0187
:1051E000800E911EA0913507B091360740E050E047
:1051F000E12CF12C109709F44AC0A815B905D1F596
:105200006D907C901197630182E0C80ED11CCA1486
:10521000DB0480F1A3014A195B096A0182E0C80E30
:10522000D11C1296BC9012971396AC91B5E0CB1698
:10523000D10440F0B282A38351834083D9016D939E
:105240007C930AC00E5F1F4FC301800F911FF901AD
:1052500091838083EB2DFA2FE114F10431F0D70113
:105260001396FC93EE93129741C0F0933607E093A8
:1052700035073CC08D919C9111974817590708F448
:10528000AC017D0112960D90BC91A02DB3CF809101
:1052900033079091340788159905E1F446175707AD
:1052A000C8F48091140290911502009741F48DB7D3
:1052B0009EB74091180250911902841B950BE81774
:1052C000F907B0F4F0933407E0933307F9017183E1
:1052D00060830CC0CB010CDE7C01009749F0A80173
:1052E000BE011BD0CE0199DEC70104C0CE0102C0B1
:1052F00080E090E0DF91CF911F910F91FF90EF90B0
:10530000DF90CF90BF90AF909F908F907F906F90E5
:10531000089581E090E0F894FCC2FB01DC0102C03A
:1053200001900D9241505040D8F70895FC018191B1
:10533000861721F08823D9F7992708953197CF014F
:105340000895FB01DC018D91019080190110D9F3C2
:10535000990B0895FB01DC0101900D920020E1F70B
:105360000895FB01DC014150504048F001900D923E
:105370000020C9F701C01D9241505040E0F7089548
:105380000F931F93CF93DF93CDB7DEB72E970FB652
:10539000F894DEBF0FBECDBF0E891F8986E08C83D7
:1053A0001A8309838FEF9FE79E838D83AE01465E4C
:1053B0005F4F688D798DCE01019611D02F81388590
:1053C000F801E20FF31F10822E960FB6F894DEBF9D
:1053D0000FBECDBFDF91CF911F910F9108952F92F6
:1053E0003F924F925F926F927F928F929F92AF9275
:1053F000BF92CF92DF92EF92FF920F931F93CF93C2
:10540000DF93CDB7DEB72C970FB6F894DEBF0FBE93
:10541000CDBF7C016B018A01FC011782168283815A
:1054200081FFB0C1CE0101964C01F7019381F601D5
:1054300093FD859193FF81916F01882309F49EC1AB
:10544000853239F493FD859193FF81916F01853207
:1054500021F4B70190E0C7D1E8CF512C312C20E0E6
:105460002032A0F48B3269F030F4803259F083326C
:1054700069F420612CC08D3239F0803339F4216019
:1054800026C02260246023C0286021C027FD27C0D9
:1054900030ED380F3A3078F426FF06C0FAE05F9E10
:1054A000300D1124532E13C08AE0389E300D112484
:1054B000332E20620CC08E3221F426FD5FC12064A1
:1054C00006C08C3611F4206802C0883641F4F6011B
:1054D00093FD859193FF81916F018111C1CF982F29
:1054E0009F7D9554933028F40C5F1F4FFFE3F983A1
:1054F0000DC0833631F0833771F0833509F057C022
:1055000021C0F801808189830E5F1F4F442443949A
:10551000512C540114C03801F2E06F0E711CF801D7
:10552000A080B18026FF03C0652D70E002C06FEF40
:105530007FEFC5012C874CD12C0183012C852F775F
:10554000222E16C03801F2E06F0E711CF801A08007
:10555000B18026FF03C0652D70E002C06FEF7FEFC2
:10556000C5012C872AD12C012C852068222E83018D
:1055700023FC19C0832D90E048165906A0F4B7010A
:1055800080E290E030D13A94F5CFF50127FC859187
:1055900027FE81915F01B70190E025D131103A9447
:1055A000F1E04F1A51084114510479F7DEC08436F6
:1055B00011F0893631F5F80127FF07C0608171814C
:1055C000828193810C5F1F4F08C060817181072E1B
:1055D000000C880B990B0E5F1F4F2F76722E97FFD2
:1055E00009C090958095709561957F4F8F4F9F4F23
:1055F0002068722E2AE030E0A4012DD1A82EA81830
:1056000043C0853729F42F7EB22E2AE030E025C032
:10561000F22FF97FBF2E8F36C1F018F4883579F05C
:10562000ADC0803719F0883721F0A8C02F2F206136
:10563000B22EB4FE0DC08B2D8460B82E09C024FF9D
:105640000AC09F2F9660B92E06C028E030E005C042
:1056500020E130E002C020E132E0F801B7FE07C0EF
:1056600060817181828193810C5F1F4F06C06081D0
:10567000718180E090E00E5F1F4FA401ECD0A82E56
:10568000A818FB2DFF777F2E76FE0BC0372D3E7FAF
:10569000A51450F474FE0AC072FC08C0372D3E7E7B
:1056A00005C0BA2C372D03C0BA2C01C0B52C34FF6D
:1056B0000DC0FE01EA0DF11D8081803311F4397EA9
:1056C00009C032FF06C0B394B39404C0832F867818
:1056D00009F0B39433FD12C030FF06C05A2CB31446
:1056E00018F4530C5B18B32CB31460F4B70180E2C8
:1056F00090E03C8778D0B3943C85F6CFB31410F497
:105700003B1801C0312C34FF11C0B70180E390E099
:105710003C8769D03C8532FF16C031FD03C088E765
:1057200090E002C088E590E0B7010CC0832F867836
:1057300051F031FF02C08BE201C080E237FD8DE203
:10574000B70190E050D0A51430F4B70180E390E0A9
:105750004AD05A94F8CFAA94F401EA0DF11D808141
:10576000B70190E040D0A110F6CF332009F45DCE10
:10577000B70180E290E037D03A94F7CFF701868105
:10578000978102C08FEF9FEF2C960FB6F894DEBF83
:105790000FBECDBFDF91CF911F910F91FF90EF9082
:1057A000DF90CF90BF90AF909F908F907F906F9041
:1057B0005F904F903F902F900895FC0105906150AD
:1057C00070400110D8F7809590958E0F9F1F089517
:1057D000FC016150704001900110D8F780959095C0
:1057E0008E0F9F1F08950F931F93CF93DF93FB019D
:1057F000238121FD03C08FEF9FEF28C022FF16C039
:1058000046815781248135814217530744F4A08192
:10581000B1819D012F5F3F4F318320838C9326817F
:1058200037812F5F3F4F3783268310C0EB01092F4D
:10583000182F0084F185E02D1995892BE1F68E81D2
:105840009F8101969F838E83812F902FDF91CF912F
:105850001F910F910895FA01AA27283051F12031A4
:1058600081F1E8946F936E7F6E5F7F4F8F4F9F4FF4
:10587000AF4FB1E03ED0B4E03CD0670F781F891F36
:105880009A1FA11D680F791F8A1F911DA11D6A0F04
:10589000711D811D911DA11D20D009F468943F91B7
:1058A0002AE0269F11243019305D3193DEF6CF01B6
:1058B0000895462F4770405D4193B3E00FD0C9F77C
:1058C000F6CF462F4F70405D4A3318F0495D31FDE9
:1058D0004052419302D0A9F7EACFB4E0A69597953C
:1058E000879577956795BA95C9F700976105710512
:1058F00008959B01AC010A2E06945795479537955C
:105900002795BA95C9F7620F731F841F951FA01DB5
:065910000895F894FFCF9A
:10591600E00FE00FE00FE00FE00FE00FE00FE00F09
:10592600010000000000370780000000000095100D
:10593600E10F2510DB10561034104810000000004F
:1059460052174E174A172718361761175D1759173A
:105956001D170C170B1700000000A5197519EE1777
:10596600C117E517D117C217000000007413F4160B
:105976000D1277112F11B017A817BC18ED182219A0
:105986003111A0179D179A1797179017A3178D1700
:105996008A178717841780177C1778174E11721786
:1059A6006E176A170D0E131516191A1C23252629AC
:1059B6002A2C32344750524D4300474E524D430035
:1059C600475047474100474E47474100253034641A
:1059D6002E2530366C752C253034642E2530366CE9
:1059E600752023253033642E2530336C75002C004A
:1059F60020230072656376206661696C6564002009
:105A0600746F20000D0A006C656420696E6974006D
:105A1600696E6974206661696C6564000A0A72665B
:105A2600393520696E697420636F6D706C657465B5
:0A5A360028626F61726430290000DD
:00000001FF
